8=FIX.4.4|9=73|35=A|34=1|49=SERVER|52=20220411-12:54:25.355|56=CLIENT|98=0|108=30|141=Y|10=191|8=FIX.4.4|9=137|35=8|34=2|49=SERVER|52=20220411-12:54:38.277|56=CLIENT|6=5|11=NqHw8wY9|14=5|17=0000|31=5|37=0000|38=5|39=A|54=1|55=N/A|150=A|151=5|192=5|10=099|8=FIX.4.4|9=139|35=8|34=3|49=SERVER|52=20220411-12:54:38.278|56=CLIENT|6=5|11=NqHw8wY9|14=5|17=JFbNi|31=5|37=vTIAo|38=5|39=0|54=1|55=N/A|150=0|151=5|192=5|10=049|8=FIX.4.4|9=55|35=5|34=4|49=SERVER|52=20220411-12:54:50.331|56=CLIENT|10=104|