8=FIX.4.4|9=72|35=A|34=1|49=CLIENT55558|52=20220418-13:43:54.925|56=SERVER|98=0|108=30|10=168|
8=FIX.4.4|9=72|35=A|34=1|49=SERVER|52=20220418-13:43:55.963|56=CLIENT55558|98=0|108=30|10=171|
8=FIX.4.4|9=78|35=A|34=1|49=CLIENT55558|52=20220418-13:43:55.567|56=SERVER|98=0|108=30|141=Y|10=222|
8=FIX.4.4|9=78|35=A|34=1|49=SERVER|52=20220418-13:43:57.297|56=CLIENT55558|98=0|108=30|141=Y|10=224|
8=FIX.4.4|9=129|35=D|34=1|49=CLIENT55558|52=20220418-13:44:09.416|56=SERVER|11=HMepcO2v|21=3|38=6|40=2|44=6|54=1|55=N/A|60=20220418-13:44:09.416|10=156|
8=FIX.4.4|9=109|35=5|34=2|49=SERVER|52=20220418-13:44:09.438|56=CLIENT55558|58=MsgSeqNum too low, expecting 2 but received 1|10=076|
8=FIX.4.4|9=78|35=A|34=1|49=CLIENT55558|52=20220418-13:44:25.229|56=SERVER|98=0|108=30|141=Y|10=215|
8=FIX.4.4|9=78|35=A|34=1|49=SERVER|52=20220418-13:44:25.244|56=CLIENT55558|98=0|108=30|141=Y|10=212|
8=FIX.4.4|9=129|35=D|34=2|49=CLIENT55558|52=20220418-13:44:34.724|56=SERVER|11=HMepcO2v|21=3|38=6|40=2|44=6|54=1|55=N/A|60=20220418-13:44:34.724|10=157|
8=FIX.4.4|9=142|35=8|34=2|49=SERVER|52=20220418-13:44:34.752|56=CLIENT55558|6=6|11=HMepcO2v|14=6|17=0000|31=6|37=0000|38=6|39=A|54=1|55=N/A|150=A|151=6|192=6|10=119|
8=FIX.4.4|9=144|35=8|34=3|49=SERVER|52=20220418-13:44:34.753|56=CLIENT55558|6=6|11=HMepcO2v|14=6|17=LIfgU|31=6|37=JbwGN|38=6|39=0|54=1|55=N/A|150=0|151=6|192=6|10=072|
8=FIX.4.4|9=60|35=0|34=4|49=SERVER|52=20220418-13:45:05.152|56=CLIENT55558|10=116|
8=FIX.4.4|9=60|35=0|34=3|49=CLIENT55558|52=20220418-13:45:05.156|56=SERVER|10=119|
8=FIX.4.4|9=60|35=0|34=5|49=SERVER|52=20220418-13:45:35.151|56=CLIENT55558|10=119|
8=FIX.4.4|9=60|35=0|34=4|49=CLIENT55558|52=20220418-13:45:35.163|56=SERVER|10=121|
8=FIX.4.4|9=60|35=0|34=6|49=SERVER|52=20220418-13:46:05.151|56=CLIENT55558|10=118|
8=FIX.4.4|9=60|35=0|34=5|49=CLIENT55558|52=20220418-13:46:05.157|56=SERVER|10=123|
8=FIX.4.4|9=60|35=5|34=6|49=CLIENT55558|52=20220418-13:46:11.217|56=SERVER|10=123|
8=FIX.4.4|9=60|35=5|34=7|49=SERVER|52=20220418-13:46:11.223|56=CLIENT55558|10=121|
8=FIX.4.4|9=72|35=A|34=3|49=CLIENT55558|52=20220419-14:10:09.825|56=SERVER|98=0|108=30|10=165|
8=FIX.4.4|9=72|35=A|34=1|49=SERVER|52=20220419-14:10:09.907|56=CLIENT55558|98=0|108=30|10=164|
8=FIX.4.4|9=78|35=A|34=1|49=CLIENT55558|52=20220419-14:10:40.823|56=SERVER|98=0|108=30|141=Y|10=207|
8=FIX.4.4|9=78|35=A|34=1|49=SERVER|52=20220419-14:10:40.847|56=CLIENT55558|98=0|108=30|141=Y|10=213|
8=FIX.4.4|9=60|35=0|34=2|49=CLIENT55558|52=20220419-14:11:10.815|56=SERVER|10=111|
8=FIX.4.4|9=60|35=0|34=2|49=SERVER|52=20220419-14:11:11.604|56=CLIENT55558|10=108|
8=FIX.4.4|9=60|35=0|34=3|49=CLIENT55558|52=20220419-14:11:40.814|56=SERVER|10=114|
8=FIX.4.4|9=60|35=0|34=3|49=SERVER|52=20220419-14:11:41.604|56=CLIENT55558|10=112|
8=FIX.4.4|9=60|35=0|34=4|49=CLIENT55558|52=20220419-14:12:10.819|56=SERVER|10=118|
8=FIX.4.4|9=60|35=0|34=4|49=SERVER|52=20220419-14:12:11.604|56=CLIENT55558|10=111|
8=FIX.4.4|9=60|35=0|34=5|49=CLIENT55558|52=20220419-14:12:40.812|56=SERVER|10=115|
8=FIX.4.4|9=60|35=0|34=5|49=SERVER|52=20220419-14:12:41.605|56=CLIENT55558|10=116|
8=FIX.4.4|9=60|35=0|34=6|49=CLIENT55558|52=20220419-14:13:10.812|56=SERVER|10=114|
8=FIX.4.4|9=60|35=0|34=6|49=SERVER|52=20220419-14:13:11.603|56=CLIENT55558|10=113|
8=FIX.4.4|9=60|35=0|34=7|49=CLIENT55558|52=20220419-14:13:40.812|56=SERVER|10=118|
8=FIX.4.4|9=60|35=0|34=7|49=SERVER|52=20220419-14:13:41.603|56=CLIENT55558|10=117|
8=FIX.4.4|9=60|35=0|34=8|49=CLIENT55558|52=20220419-14:14:10.814|56=SERVER|10=119|
8=FIX.4.4|9=60|35=0|34=8|49=SERVER|52=20220419-14:14:11.603|56=CLIENT55558|10=116|
8=FIX.4.4|9=60|35=0|34=9|49=CLIENT55558|52=20220419-14:14:40.813|56=SERVER|10=122|
8=FIX.4.4|9=60|35=0|34=9|49=SERVER|52=20220419-14:14:41.604|56=CLIENT55558|10=121|
8=FIX.4.4|9=61|35=0|34=10|49=CLIENT55558|52=20220419-14:15:10.812|56=SERVER|10=160|
8=FIX.4.4|9=61|35=0|34=10|49=SERVER|52=20220419-14:15:11.603|56=CLIENT55558|10=159|
8=FIX.4.4|9=61|35=0|34=11|49=CLIENT55558|52=20220419-14:15:40.813|56=SERVER|10=165|
8=FIX.4.4|9=61|35=0|34=11|49=SERVER|52=20220419-14:15:41.604|56=CLIENT55558|10=164|
8=FIX.4.4|9=61|35=0|34=12|49=CLIENT55558|52=20220419-14:16:10.812|56=SERVER|10=163|
8=FIX.4.4|9=61|35=0|34=12|49=SERVER|52=20220419-14:16:11.602|56=CLIENT55558|10=161|
8=FIX.4.4|9=61|35=0|34=13|49=CLIENT55558|52=20220419-14:16:40.812|56=SERVER|10=167|
8=FIX.4.4|9=61|35=0|34=13|49=SERVER|52=20220419-14:16:41.603|56=CLIENT55558|10=166|
8=FIX.4.4|9=61|35=0|34=14|49=CLIENT55558|52=20220419-14:17:10.812|56=SERVER|10=166|
8=FIX.4.4|9=61|35=0|34=14|49=SERVER|52=20220419-14:17:11.604|56=CLIENT55558|10=166|
8=FIX.4.4|9=61|35=0|34=15|49=CLIENT55558|52=20220419-14:17:40.813|56=SERVER|10=171|
8=FIX.4.4|9=61|35=0|34=15|49=SERVER|52=20220419-14:17:41.603|56=CLIENT55558|10=169|
8=FIX.4.4|9=61|35=0|34=16|49=CLIENT55558|52=20220419-14:18:10.811|56=SERVER|10=168|
8=FIX.4.4|9=61|35=0|34=16|49=SERVER|52=20220419-14:18:11.602|56=CLIENT55558|10=167|
8=FIX.4.4|9=61|35=0|34=17|49=CLIENT55558|52=20220419-14:18:40.812|56=SERVER|10=173|
8=FIX.4.4|9=61|35=0|34=17|49=SERVER|52=20220419-14:18:41.602|56=CLIENT55558|10=171|
8=FIX.4.4|9=61|35=0|34=18|49=CLIENT55558|52=20220419-14:19:10.811|56=SERVER|10=171|
8=FIX.4.4|9=61|35=0|34=18|49=SERVER|52=20220419-14:19:11.603|56=CLIENT55558|10=171|
8=FIX.4.4|9=61|35=0|34=19|49=CLIENT55558|52=20220419-14:19:40.812|56=SERVER|10=176|
8=FIX.4.4|9=61|35=0|34=19|49=SERVER|52=20220419-14:19:41.602|56=CLIENT55558|10=174|
8=FIX.4.4|9=61|35=0|34=20|49=CLIENT55558|52=20220419-14:20:10.811|56=SERVER|10=156|
8=FIX.4.4|9=61|35=0|34=20|49=SERVER|52=20220419-14:20:11.603|56=CLIENT55558|10=156|
8=FIX.4.4|9=61|35=0|34=21|49=CLIENT55558|52=20220419-14:20:40.812|56=SERVER|10=161|
8=FIX.4.4|9=61|35=0|34=21|49=SERVER|52=20220419-14:20:41.601|56=CLIENT55558|10=158|
8=FIX.4.4|9=61|35=0|34=22|49=CLIENT55558|52=20220419-14:21:10.811|56=SERVER|10=159|
8=FIX.4.4|9=61|35=0|34=22|49=SERVER|52=20220419-14:21:11.601|56=CLIENT55558|10=157|
8=FIX.4.4|9=61|35=0|34=23|49=CLIENT55558|52=20220419-14:21:40.810|56=SERVER|10=162|
8=FIX.4.4|9=61|35=0|34=23|49=SERVER|52=20220419-14:21:41.603|56=CLIENT55558|10=163|
8=FIX.4.4|9=61|35=0|34=24|49=CLIENT55558|52=20220419-14:22:10.811|56=SERVER|10=162|
8=FIX.4.4|9=61|35=0|34=24|49=SERVER|52=20220419-14:22:11.602|56=CLIENT55558|10=161|
8=FIX.4.4|9=61|35=0|34=25|49=CLIENT55558|52=20220419-14:22:40.811|56=SERVER|10=166|
8=FIX.4.4|9=61|35=0|34=25|49=SERVER|52=20220419-14:22:41.601|56=CLIENT55558|10=164|
8=FIX.4.4|9=61|35=0|34=26|49=CLIENT55558|52=20220419-14:23:10.810|56=SERVER|10=164|
8=FIX.4.4|9=61|35=0|34=26|49=SERVER|52=20220419-14:23:11.601|56=CLIENT55558|10=163|
8=FIX.4.4|9=61|35=0|34=27|49=CLIENT55558|52=20220419-14:23:40.810|56=SERVER|10=168|
8=FIX.4.4|9=61|35=0|34=27|49=SERVER|52=20220419-14:23:41.601|56=CLIENT55558|10=167|
8=FIX.4.4|9=61|35=0|34=28|49=CLIENT55558|52=20220419-14:24:10.812|56=SERVER|10=169|
8=FIX.4.4|9=61|35=0|34=28|49=SERVER|52=20220419-14:24:11.601|56=CLIENT55558|10=166|
8=FIX.4.4|9=61|35=0|34=29|49=CLIENT55558|52=20220419-14:24:40.811|56=SERVER|10=172|
8=FIX.4.4|9=61|35=0|34=29|49=SERVER|52=20220419-14:24:41.601|56=CLIENT55558|10=170|
8=FIX.4.4|9=61|35=0|34=30|49=CLIENT55558|52=20220419-14:25:10.810|56=SERVER|10=161|
8=FIX.4.4|9=61|35=0|34=30|49=SERVER|52=20220419-14:25:11.601|56=CLIENT55558|10=160|
8=FIX.4.4|9=61|35=0|34=31|49=CLIENT55558|52=20220419-14:25:40.810|56=SERVER|10=165|
8=FIX.4.4|9=61|35=0|34=31|49=SERVER|52=20220419-14:25:41.602|56=CLIENT55558|10=165|
8=FIX.4.4|9=61|35=0|34=32|49=CLIENT55558|52=20220419-14:26:10.811|56=SERVER|10=165|
8=FIX.4.4|9=61|35=0|34=32|49=SERVER|52=20220419-14:26:11.601|56=CLIENT55558|10=163|
8=FIX.4.4|9=61|35=0|34=33|49=CLIENT55558|52=20220419-14:26:40.810|56=SERVER|10=168|
8=FIX.4.4|9=61|35=0|34=33|49=SERVER|52=20220419-14:26:41.601|56=CLIENT55558|10=167|
8=FIX.4.4|9=61|35=0|34=34|49=CLIENT55558|52=20220419-14:27:10.810|56=SERVER|10=167|
8=FIX.4.4|9=61|35=0|34=34|49=SERVER|52=20220419-14:27:11.601|56=CLIENT55558|10=166|
8=FIX.4.4|9=61|35=0|34=35|49=CLIENT55558|52=20220419-14:27:40.811|56=SERVER|10=172|
8=FIX.4.4|9=61|35=0|34=35|49=SERVER|52=20220419-14:27:41.602|56=CLIENT55558|10=171|
8=FIX.4.4|9=61|35=0|34=36|49=CLIENT55558|52=20220419-14:28:10.810|56=SERVER|10=170|
8=FIX.4.4|9=61|35=0|34=36|49=SERVER|52=20220419-14:28:11.602|56=CLIENT55558|10=170|
8=FIX.4.4|9=130|35=D|34=37|49=CLIENT55558|52=20220419-14:28:27.810|56=SERVER|11=6ilDBueI|21=3|38=6|40=2|44=6|54=1|55=N/A|60=20220419-14:28:27.809|10=201|
8=FIX.4.4|9=143|35=8|34=37|49=SERVER|52=20220419-14:28:27.854|56=CLIENT55558|6=6|11=6ilDBueI|14=6|17=0000|31=6|37=0000|38=6|39=A|54=1|55=N/A|150=A|151=6|192=6|10=169|
8=FIX.4.4|9=145|35=8|34=38|49=SERVER|52=20220419-14:28:27.854|56=CLIENT55558|6=6|11=6ilDBueI|14=6|17=uecR0|31=6|37=EwOJI|38=6|39=0|54=1|55=N/A|150=0|151=6|192=6|10=103|
8=FIX.4.4|9=61|35=0|34=38|49=CLIENT55558|52=20220419-14:28:57.810|56=SERVER|10=183|
8=FIX.4.4|9=61|35=0|34=39|49=SERVER|52=20220419-14:28:58.602|56=CLIENT55558|10=184|
8=FIX.4.4|9=61|35=0|34=39|49=CLIENT55558|52=20220419-14:29:27.809|56=SERVER|10=190|
8=FIX.4.4|9=61|35=0|34=40|49=SERVER|52=20220419-14:29:28.602|56=CLIENT55558|10=174|
8=FIX.4.4|9=61|35=0|34=40|49=CLIENT55558|52=20220419-14:29:57.809|56=SERVER|10=185|
8=FIX.4.4|9=61|35=0|34=41|49=SERVER|52=20220419-14:29:58.600|56=CLIENT55558|10=176|
8=FIX.4.4|9=61|35=0|34=41|49=CLIENT55558|52=20220419-14:30:27.811|56=SERVER|10=168|
8=FIX.4.4|9=61|35=0|34=42|49=SERVER|52=20220419-14:30:28.602|56=CLIENT55558|10=168|
8=FIX.4.4|9=61|35=0|34=42|49=CLIENT55558|52=20220419-14:30:57.809|56=SERVER|10=179|
8=FIX.4.4|9=61|35=0|34=43|49=SERVER|52=20220419-14:30:58.602|56=CLIENT55558|10=172|
8=FIX.4.4|9=61|35=0|34=43|49=CLIENT55558|52=20220419-14:31:27.811|56=SERVER|10=171|
8=FIX.4.4|9=61|35=0|34=44|49=SERVER|52=20220419-14:31:28.600|56=CLIENT55558|10=169|
8=FIX.4.4|9=61|35=0|34=44|49=CLIENT55558|52=20220419-14:31:57.811|56=SERVER|10=175|
8=FIX.4.4|9=61|35=0|34=45|49=SERVER|52=20220419-14:31:58.600|56=CLIENT55558|10=173|
8=FIX.4.4|9=61|35=0|34=45|49=CLIENT55558|52=20220419-14:32:27.810|56=SERVER|10=173|
8=FIX.4.4|9=61|35=0|34=46|49=SERVER|52=20220419-14:32:28.601|56=CLIENT55558|10=173|
8=FIX.4.4|9=61|35=0|34=46|49=CLIENT55558|52=20220419-14:32:57.809|56=SERVER|10=185|
8=FIX.4.4|9=61|35=0|34=47|49=SERVER|52=20220419-14:32:58.601|56=CLIENT55558|10=177|
8=FIX.4.4|9=61|35=0|34=47|49=CLIENT55558|52=20220419-14:33:27.809|56=SERVER|10=184|
8=FIX.4.4|9=61|35=0|34=48|49=SERVER|52=20220419-14:33:28.600|56=CLIENT55558|10=175|
8=FIX.4.4|9=61|35=0|34=48|49=CLIENT55558|52=20220419-14:33:57.809|56=SERVER|10=188|
8=FIX.4.4|9=61|35=0|34=49|49=SERVER|52=20220419-14:33:58.600|56=CLIENT55558|10=179|
8=FIX.4.4|9=61|35=0|34=49|49=CLIENT55558|52=20220419-14:34:27.809|56=SERVER|10=187|
8=FIX.4.4|9=61|35=0|34=50|49=SERVER|52=20220419-14:34:28.599|56=CLIENT55558|10=186|
8=FIX.4.4|9=61|35=0|34=50|49=CLIENT55558|52=20220419-14:34:57.809|56=SERVER|10=182|
8=FIX.4.4|9=61|35=0|34=51|49=SERVER|52=20220419-14:34:58.600|56=CLIENT55558|10=173|
8=FIX.4.4|9=61|35=0|34=51|49=CLIENT55558|52=20220419-14:35:27.810|56=SERVER|10=173|
8=FIX.4.4|9=61|35=0|34=52|49=SERVER|52=20220419-14:35:28.600|56=CLIENT55558|10=172|
8=FIX.4.4|9=61|35=0|34=52|49=CLIENT55558|52=20220419-14:35:57.809|56=SERVER|10=185|
8=FIX.4.4|9=61|35=0|34=53|49=SERVER|52=20220419-14:35:58.599|56=CLIENT55558|10=193|
8=FIX.4.4|9=61|35=5|34=53|49=CLIENT55558|52=20220419-14:36:01.810|56=SERVER|10=173|
8=FIX.4.4|9=61|35=5|34=54|49=SERVER|52=20220419-14:36:01.812|56=CLIENT55558|10=176|
