8=FIX.4.4|9=78|35=A|34=1|49=CLIENT55555|52=20220411-12:59:03.398|56=SERVER|98=0|108=30|141=Y|10=213|8=FIX.4.4|9=129|35=D|34=2|49=CLIENT55555|52=20220411-12:59:17.843|56=SERVER|11=bcWiyTdG|21=3|38=5|40=2|44=5|54=1|55=N/A|60=20220411-12:59:17.843|10=211|8=FIX.4.4|9=60|35=0|34=3|49=CLIENT55555|52=20220411-12:59:48.385|56=SERVER|10=124|8=FIX.4.4|9=60|35=0|34=4|49=CLIENT55555|52=20220411-13:00:18.383|56=SERVER|10=107|8=FIX.4.4|9=60|35=0|34=5|49=CLIENT55555|52=20220411-13:00:48.381|56=SERVER|10=109|8=FIX.4.4|9=60|35=0|34=6|49=CLIENT55555|52=20220411-13:01:18.381|56=SERVER|10=108|8=FIX.4.4|9=60|35=5|34=7|49=CLIENT55555|52=20220411-13:01:40.379|56=SERVER|10=116|