8=FIX.4.4|9=73|35=A|34=1|49=CLIENT|52=20220411-12:54:15.213|56=SERVER|98=0|108=30|141=Y|10=183|8=FIX.4.4|9=55|35=0|34=2|49=CLIENT|52=20220411-12:54:45.205|56=SERVER|10=101|8=FIX.4.4|9=55|35=5|34=3|49=CLIENT|52=20220411-12:54:52.206|56=SERVER|10=106|