8=FIX.4.4|9=72|35=A|34=1|49=CLIENT55559|52=20220419-14:31:24.949|56=SERVER|98=0|108=30|10=171|
8=FIX.4.4|9=72|35=A|34=1|49=SERVER|52=20220419-14:31:24.986|56=CLIENT55559|98=0|108=30|10=172|
8=FIX.4.4|9=78|35=A|34=1|49=CLIENT55559|52=20220419-14:31:55.944|56=SERVER|98=0|108=30|141=Y|10=221|
8=FIX.4.4|9=78|35=A|34=1|49=SERVER|52=20220419-14:31:55.962|56=CLIENT55559|98=0|108=30|141=Y|10=221|
8=FIX.4.4|9=129|35=D|34=2|49=CLIENT55559|52=20220419-14:32:02.707|56=SERVER|11=dTepx0zd|21=3|38=6|40=2|44=6|54=1|55=N/A|60=20220419-14:32:02.707|10=227|
8=FIX.4.4|9=142|35=8|34=2|49=SERVER|52=20220419-14:32:02.711|56=CLIENT55559|6=6|11=dTepx0zd|14=6|17=0000|31=6|37=0000|38=6|39=A|54=1|55=N/A|150=A|151=6|192=6|10=188|
8=FIX.4.4|9=144|35=8|34=3|49=SERVER|52=20220419-14:32:02.712|56=CLIENT55559|6=6|11=dTepx0zd|14=6|17=O3ill|31=6|37=yLWAP|38=6|39=0|54=1|55=N/A|150=0|151=6|192=6|10=142|
8=FIX.4.4|9=129|35=D|34=3|49=CLIENT55559|52=20220419-14:32:30.520|56=SERVER|11=FEgQXbpI|21=3|38=6|40=2|44=6|54=2|55=N/A|60=20220419-14:32:30.520|10=124|
8=FIX.4.4|9=142|35=8|34=4|49=SERVER|52=20220419-14:32:30.546|56=CLIENT55559|6=6|11=FEgQXbpI|14=6|17=0000|31=6|37=0000|38=6|39=A|54=2|55=N/A|150=A|151=6|192=6|10=105|
8=FIX.4.4|9=144|35=8|34=5|49=SERVER|52=20220419-14:32:30.549|56=CLIENT55559|6=6|11=FEgQXbpI|14=6|17=9qwDF|31=6|37=SYZ67|38=6|39=0|54=2|55=N/A|150=0|151=6|192=6|10=235|
8=FIX.4.4|9=144|35=8|34=6|49=SERVER|52=20220419-14:32:30.549|56=CLIENT55559|6=6|11=FEgQXbpI|14=6|17=9qwDF|31=6|37=SYZ67|38=6|39=2|54=2|55=N/A|150=F|151=6|192=6|10=004|
8=FIX.4.4|9=60|35=0|34=7|49=SERVER|52=20220419-14:33:00.609|56=CLIENT55559|10=121|
8=FIX.4.4|9=60|35=0|34=4|49=CLIENT55559|52=20220419-14:33:00.612|56=SERVER|10=112|
8=FIX.4.4|9=60|35=0|34=8|49=SERVER|52=20220419-14:33:30.610|56=CLIENT55559|10=117|
8=FIX.4.4|9=60|35=0|34=5|49=CLIENT55559|52=20220419-14:33:30.612|56=SERVER|10=116|
8=FIX.4.4|9=60|35=0|34=9|49=SERVER|52=20220419-14:34:00.610|56=CLIENT55559|10=116|
8=FIX.4.4|9=60|35=0|34=6|49=CLIENT55559|52=20220419-14:34:00.611|56=SERVER|10=114|
8=FIX.4.4|9=61|35=0|34=10|49=SERVER|52=20220419-14:34:30.609|56=CLIENT55559|10=168|
8=FIX.4.4|9=60|35=0|34=7|49=CLIENT55559|52=20220419-14:34:30.610|56=SERVER|10=117|
8=FIX.4.4|9=61|35=0|34=11|49=SERVER|52=20220419-14:35:00.609|56=CLIENT55559|10=167|
8=FIX.4.4|9=60|35=0|34=8|49=CLIENT55559|52=20220419-14:35:00.611|56=SERVER|10=117|
8=FIX.4.4|9=61|35=0|34=12|49=SERVER|52=20220419-14:35:30.609|56=CLIENT55559|10=171|
8=FIX.4.4|9=60|35=0|34=9|49=CLIENT55559|52=20220419-14:35:30.611|56=SERVER|10=121|
8=FIX.4.4|9=61|35=0|34=13|49=SERVER|52=20220419-14:36:00.611|56=CLIENT55559|10=163|
8=FIX.4.4|9=61|35=0|34=10|49=CLIENT55559|52=20220419-14:36:00.612|56=SERVER|10=161|
8=FIX.4.4|9=61|35=0|34=14|49=SERVER|52=20220419-14:36:30.621|56=CLIENT55559|10=168|
8=FIX.4.4|9=61|35=0|34=11|49=CLIENT55559|52=20220419-14:36:30.625|56=SERVER|10=169|
8=FIX.4.4|9=61|35=0|34=15|49=SERVER|52=20220419-14:37:00.614|56=CLIENT55559|10=169|
8=FIX.4.4|9=61|35=0|34=12|49=CLIENT55559|52=20220419-14:37:00.616|56=SERVER|10=168|
8=FIX.4.4|9=61|35=0|34=16|49=SERVER|52=20220419-14:37:30.620|56=CLIENT55559|10=170|
8=FIX.4.4|9=61|35=0|34=13|49=CLIENT55559|52=20220419-14:37:30.623|56=SERVER|10=170|
8=FIX.4.4|9=61|35=0|34=17|49=SERVER|52=20220419-14:38:00.616|56=CLIENT55559|10=174|
8=FIX.4.4|9=61|35=0|34=14|49=CLIENT55559|52=20220419-14:38:00.617|56=SERVER|10=172|
8=FIX.4.4|9=61|35=0|34=18|49=SERVER|52=20220419-14:38:30.608|56=CLIENT55559|10=179|
8=FIX.4.4|9=61|35=0|34=15|49=CLIENT55559|52=20220419-14:38:30.611|56=SERVER|10=170|
8=FIX.4.4|9=61|35=0|34=19|49=SERVER|52=20220419-14:39:00.622|56=CLIENT55559|10=174|
8=FIX.4.4|9=61|35=0|34=16|49=CLIENT55559|52=20220419-14:39:00.624|56=SERVER|10=173|
8=FIX.4.4|9=61|35=0|34=20|49=SERVER|52=20220419-14:39:30.616|56=CLIENT55559|10=172|
8=FIX.4.4|9=61|35=0|34=17|49=CLIENT55559|52=20220419-14:39:30.619|56=SERVER|10=181|
8=FIX.4.4|9=61|35=0|34=21|49=SERVER|52=20220419-14:40:00.615|56=CLIENT55559|10=161|
8=FIX.4.4|9=61|35=0|34=18|49=CLIENT55559|52=20220419-14:40:00.618|56=SERVER|10=170|
8=FIX.4.4|9=61|35=0|34=22|49=SERVER|52=20220419-14:40:30.609|56=CLIENT55559|10=168|
8=FIX.4.4|9=61|35=0|34=19|49=CLIENT55559|52=20220419-14:40:30.612|56=SERVER|10=168|
8=FIX.4.4|9=61|35=0|34=23|49=SERVER|52=20220419-14:41:00.620|56=CLIENT55559|10=160|
8=FIX.4.4|9=61|35=0|34=20|49=CLIENT55559|52=20220419-14:41:00.622|56=SERVER|10=159|
8=FIX.4.4|9=61|35=0|34=24|49=SERVER|52=20220419-14:41:30.611|56=CLIENT55559|10=164|
8=FIX.4.4|9=61|35=0|34=21|49=CLIENT55559|52=20220419-14:41:30.614|56=SERVER|10=164|
8=FIX.4.4|9=61|35=0|34=25|49=SERVER|52=20220419-14:42:00.609|56=CLIENT55559|10=170|
8=FIX.4.4|9=61|35=0|34=22|49=CLIENT55559|52=20220419-14:42:00.610|56=SERVER|10=159|
8=FIX.4.4|9=61|35=0|34=26|49=SERVER|52=20220419-14:42:30.614|56=CLIENT55559|10=170|
8=FIX.4.4|9=61|35=0|34=23|49=CLIENT55559|52=20220419-14:42:30.616|56=SERVER|10=169|
8=FIX.4.4|9=61|35=0|34=27|49=SERVER|52=20220419-14:43:00.612|56=CLIENT55559|10=167|
8=FIX.4.4|9=61|35=0|34=24|49=CLIENT55559|52=20220419-14:43:00.613|56=SERVER|10=165|
8=FIX.4.4|9=61|35=0|34=28|49=SERVER|52=20220419-14:43:30.617|56=CLIENT55559|10=176|
8=FIX.4.4|9=61|35=0|34=25|49=CLIENT55559|52=20220419-14:43:30.619|56=SERVER|10=175|
8=FIX.4.4|9=61|35=0|34=29|49=SERVER|52=20220419-14:44:00.622|56=CLIENT55559|10=171|
8=FIX.4.4|9=61|35=0|34=26|49=CLIENT55559|52=20220419-14:44:00.625|56=SERVER|10=171|
8=FIX.4.4|9=61|35=0|34=30|49=SERVER|52=20220419-14:44:30.616|56=CLIENT55559|10=169|
8=FIX.4.4|9=61|35=0|34=27|49=CLIENT55559|52=20220419-14:44:30.619|56=SERVER|10=178|
8=FIX.4.4|9=61|35=0|34=31|49=SERVER|52=20220419-14:45:00.623|56=CLIENT55559|10=166|
8=FIX.4.4|9=61|35=0|34=28|49=CLIENT55559|52=20220419-14:45:00.624|56=SERVER|10=173|
8=FIX.4.4|9=61|35=0|34=32|49=SERVER|52=20220419-14:45:30.618|56=CLIENT55559|10=174|
8=FIX.4.4|9=61|35=0|34=29|49=CLIENT55559|52=20220419-14:45:30.620|56=SERVER|10=173|
8=FIX.4.4|9=61|35=0|34=33|49=SERVER|52=20220419-14:46:00.618|56=CLIENT55559|10=173|
8=FIX.4.4|9=61|35=0|34=30|49=CLIENT55559|52=20220419-14:46:00.620|56=SERVER|10=163|
8=FIX.4.4|9=61|35=0|34=34|49=SERVER|52=20220419-14:46:30.615|56=CLIENT55559|10=174|
8=FIX.4.4|9=61|35=0|34=31|49=CLIENT55559|52=20220419-14:46:30.618|56=SERVER|10=174|
8=FIX.4.4|9=61|35=0|34=35|49=SERVER|52=20220419-14:47:00.612|56=CLIENT55559|10=170|
8=FIX.4.4|9=61|35=0|34=32|49=CLIENT55559|52=20220419-14:47:00.614|56=SERVER|10=169|
8=FIX.4.4|9=61|35=0|34=36|49=SERVER|52=20220419-14:47:30.613|56=CLIENT55559|10=175|
8=FIX.4.4|9=61|35=0|34=33|49=CLIENT55559|52=20220419-14:47:30.616|56=SERVER|10=175|
8=FIX.4.4|9=61|35=0|34=37|49=SERVER|52=20220419-14:48:00.618|56=CLIENT55559|10=179|
8=FIX.4.4|9=61|35=0|34=34|49=CLIENT55559|52=20220419-14:48:00.620|56=SERVER|10=169|
8=FIX.4.4|9=61|35=0|34=38|49=SERVER|52=20220419-14:48:30.617|56=CLIENT55559|10=182|
8=FIX.4.4|9=61|35=0|34=35|49=CLIENT55559|52=20220419-14:48:30.618|56=SERVER|10=180|
8=FIX.4.4|9=61|35=0|34=39|49=SERVER|52=20220419-14:49:00.612|56=CLIENT55559|10=176|
8=FIX.4.4|9=61|35=0|34=36|49=CLIENT55559|52=20220419-14:49:00.614|56=SERVER|10=175|
8=FIX.4.4|9=61|35=0|34=40|49=SERVER|52=20220419-14:49:30.610|56=CLIENT55559|10=169|
8=FIX.4.4|9=61|35=0|34=37|49=CLIENT55559|52=20220419-14:49:30.613|56=SERVER|10=178|
8=FIX.4.4|9=61|35=0|34=41|49=SERVER|52=20220419-14:50:00.610|56=CLIENT55559|10=159|
8=FIX.4.4|9=61|35=0|34=38|49=CLIENT55559|52=20220419-14:50:00.612|56=SERVER|10=167|
8=FIX.4.4|9=61|35=0|34=42|49=SERVER|52=20220419-14:50:30.619|56=CLIENT55559|10=172|
8=FIX.4.4|9=61|35=0|34=39|49=CLIENT55559|52=20220419-14:50:30.620|56=SERVER|10=170|
8=FIX.4.4|9=61|35=0|34=43|49=SERVER|52=20220419-14:51:00.610|56=CLIENT55559|10=162|
8=FIX.4.4|9=61|35=0|34=40|49=CLIENT55559|52=20220419-14:51:00.613|56=SERVER|10=162|
8=FIX.4.4|9=61|35=0|34=44|49=SERVER|52=20220419-14:51:30.615|56=CLIENT55559|10=171|
8=FIX.4.4|9=61|35=0|34=41|49=CLIENT55559|52=20220419-14:51:30.617|56=SERVER|10=170|
8=FIX.4.4|9=61|35=0|34=45|49=SERVER|52=20220419-14:52:00.610|56=CLIENT55559|10=165|
8=FIX.4.4|9=61|35=0|34=42|49=CLIENT55559|52=20220419-14:52:00.613|56=SERVER|10=165|
8=FIX.4.4|9=61|35=0|34=46|49=SERVER|52=20220419-14:52:30.608|56=CLIENT55559|10=176|
8=FIX.4.4|9=61|35=0|34=43|49=CLIENT55559|52=20220419-14:52:30.617|56=SERVER|10=173|
8=FIX.4.4|9=61|35=0|34=47|49=SERVER|52=20220419-14:53:00.619|56=CLIENT55559|10=177|
8=FIX.4.4|9=61|35=0|34=44|49=CLIENT55559|52=20220419-14:53:00.620|56=SERVER|10=166|
8=FIX.4.4|9=61|35=0|34=48|49=SERVER|52=20220419-14:53:30.616|56=CLIENT55559|10=178|
8=FIX.4.4|9=61|35=0|34=45|49=CLIENT55559|52=20220419-14:53:30.618|56=SERVER|10=177|
8=FIX.4.4|9=61|35=0|34=49|49=SERVER|52=20220419-14:54:00.611|56=CLIENT55559|10=172|
8=FIX.4.4|9=61|35=0|34=46|49=CLIENT55559|52=20220419-14:54:00.614|56=SERVER|10=172|
8=FIX.4.4|9=61|35=0|34=50|49=SERVER|52=20220419-14:54:30.622|56=CLIENT55559|10=169|
8=FIX.4.4|9=61|35=0|34=47|49=CLIENT55559|52=20220419-14:54:30.623|56=SERVER|10=176|
8=FIX.4.4|9=61|35=0|34=48|49=CLIENT55559|52=20220419-14:55:00.936|56=SERVER|10=182|
8=FIX.4.4|9=61|35=0|34=51|49=SERVER|52=20220419-14:55:00.939|56=CLIENT55559|10=179|
8=FIX.4.4|9=61|35=0|34=49|49=CLIENT55559|52=20220419-14:55:30.934|56=SERVER|10=184|
8=FIX.4.4|9=61|35=0|34=52|49=SERVER|52=20220419-14:55:30.936|56=CLIENT55559|10=180|
8=FIX.4.4|9=73|35=A|34=50|49=CLIENT55559|52=20220419-15:28:29.801|56=SERVER|98=0|108=30|10=223|
8=FIX.4.4|9=72|35=A|34=1|49=SERVER|52=20220419-15:28:29.888|56=CLIENT55559|98=0|108=30|10=185|
8=FIX.4.4|9=78|35=A|34=1|49=CLIENT55559|52=20220419-15:29:00.799|56=SERVER|98=0|108=30|141=Y|10=227|
8=FIX.4.4|9=78|35=A|34=1|49=SERVER|52=20220419-15:29:00.818|56=CLIENT55559|98=0|108=30|141=Y|10=219|
8=FIX.4.4|9=129|35=D|34=2|49=CLIENT55559|52=20220419-15:29:06.143|56=SERVER|11=v7TOFrCh|21=3|38=6|40=2|44=6|54=1|55=N/A|60=20220419-15:29:06.143|10=141|
8=FIX.4.4|9=142|35=8|34=2|49=SERVER|52=20220419-15:29:06.199|56=CLIENT55559|6=6|11=v7TOFrCh|14=6|17=0000|31=6|37=0000|38=6|39=A|54=1|55=N/A|150=A|151=6|192=6|10=113|
8=FIX.4.4|9=144|35=8|34=3|49=SERVER|52=20220419-15:29:06.200|56=CLIENT55559|6=6|11=v7TOFrCh|14=6|17=aDnXm|31=6|37=MMgX1|38=6|39=0|54=1|55=N/A|150=0|151=6|192=6|10=035|
8=FIX.4.4|9=60|35=0|34=4|49=SERVER|52=20220419-15:29:36.592|56=CLIENT55559|10=134|
8=FIX.4.4|9=60|35=0|34=3|49=CLIENT55559|52=20220419-15:29:36.597|56=SERVER|10=138|
8=FIX.4.4|9=60|35=0|34=5|49=SERVER|52=20220419-15:30:06.589|56=CLIENT55559|10=130|
8=FIX.4.4|9=60|35=0|34=4|49=CLIENT55559|52=20220419-15:30:06.596|56=SERVER|10=127|
8=FIX.4.4|9=60|35=0|34=6|49=SERVER|52=20220419-15:30:36.590|56=CLIENT55559|10=126|
8=FIX.4.4|9=60|35=0|34=5|49=CLIENT55559|52=20220419-15:30:36.592|56=SERVER|10=127|
8=FIX.4.4|9=60|35=0|34=7|49=SERVER|52=20220419-15:31:06.589|56=CLIENT55559|10=133|
8=FIX.4.4|9=60|35=0|34=6|49=CLIENT55559|52=20220419-15:31:06.594|56=SERVER|10=128|
8=FIX.4.4|9=60|35=0|34=8|49=SERVER|52=20220419-15:31:36.589|56=CLIENT55559|10=137|
8=FIX.4.4|9=60|35=0|34=7|49=CLIENT55559|52=20220419-15:31:36.593|56=SERVER|10=131|
8=FIX.4.4|9=60|35=0|34=9|49=SERVER|52=20220419-15:32:06.590|56=CLIENT55559|10=128|
8=FIX.4.4|9=60|35=0|34=8|49=CLIENT55559|52=20220419-15:32:06.594|56=SERVER|10=131|
8=FIX.4.4|9=61|35=0|34=10|49=SERVER|52=20220419-15:32:36.591|56=CLIENT55559|10=173|
8=FIX.4.4|9=60|35=0|34=9|49=CLIENT55559|52=20220419-15:32:36.593|56=SERVER|10=134|
8=FIX.4.4|9=61|35=0|34=11|49=SERVER|52=20220419-15:33:06.588|56=CLIENT55559|10=178|
8=FIX.4.4|9=61|35=0|34=10|49=CLIENT55559|52=20220419-15:33:06.591|56=SERVER|10=171|
8=FIX.4.4|9=61|35=0|34=12|49=SERVER|52=20220419-15:33:36.590|56=CLIENT55559|10=175|
8=FIX.4.4|9=61|35=0|34=11|49=CLIENT55559|52=20220419-15:33:36.592|56=SERVER|10=176|
8=FIX.4.4|9=61|35=0|34=13|49=SERVER|52=20220419-15:34:06.589|56=CLIENT55559|10=182|
8=FIX.4.4|9=61|35=0|34=12|49=CLIENT55559|52=20220419-15:34:06.591|56=SERVER|10=174|
8=FIX.4.4|9=61|35=5|34=13|49=CLIENT55559|52=20220419-15:34:24.785|56=SERVER|10=185|
8=FIX.4.4|9=61|35=5|34=14|49=SERVER|52=20220419-15:34:24.787|56=CLIENT55559|10=188|
8=FIX.4.4|9=73|35=A|34=14|49=CLIENT55559|52=20220419-15:37:24.420|56=SERVER|98=0|108=30|10=215|
8=FIX.4.4|9=72|35=A|34=1|49=SERVER|52=20220419-15:37:24.495|56=CLIENT55559|98=0|108=30|10=174|
8=FIX.4.4|9=78|35=A|34=1|49=CLIENT55559|52=20220419-15:37:55.420|56=SERVER|98=0|108=30|141=Y|10=217|
8=FIX.4.4|9=78|35=A|34=1|49=SERVER|52=20220419-15:37:55.440|56=CLIENT55559|98=0|108=30|141=Y|10=219|
8=FIX.4.4|9=60|35=0|34=2|49=SERVER|52=20220419-15:38:25.789|56=CLIENT55559|10=138|
8=FIX.4.4|9=60|35=0|34=2|49=CLIENT55559|52=20220419-15:38:25.795|56=SERVER|10=135|
8=FIX.4.4|9=60|35=0|34=3|49=SERVER|52=20220419-15:38:55.790|56=CLIENT55559|10=134|
8=FIX.4.4|9=60|35=0|34=3|49=CLIENT55559|52=20220419-15:38:55.795|56=SERVER|10=139|
8=FIX.4.4|9=60|35=0|34=4|49=SERVER|52=20220419-15:39:25.789|56=CLIENT55559|10=141|
8=FIX.4.4|9=60|35=0|34=4|49=CLIENT55559|52=20220419-15:39:25.793|56=SERVER|10=136|
8=FIX.4.4|9=60|35=0|34=5|49=SERVER|52=20220419-15:39:55.790|56=CLIENT55559|10=137|
8=FIX.4.4|9=60|35=0|34=5|49=CLIENT55559|52=20220419-15:39:55.791|56=SERVER|10=138|
8=FIX.4.4|9=60|35=0|34=6|49=SERVER|52=20220419-15:40:25.789|56=CLIENT55559|10=135|
8=FIX.4.4|9=60|35=0|34=6|49=CLIENT55559|52=20220419-15:40:25.791|56=SERVER|10=128|
8=FIX.4.4|9=60|35=5|34=7|49=CLIENT55559|52=20220419-15:40:28.407|56=SERVER|10=131|
8=FIX.4.4|9=60|35=5|34=7|49=SERVER|52=20220419-15:40:28.412|56=CLIENT55559|10=127|
8=FIX.4.4|9=72|35=A|34=8|49=CLIENT55559|52=20220419-16:33:39.873|56=SERVER|98=0|108=30|10=184|
8=FIX.4.4|9=72|35=A|34=1|49=SERVER|52=20220419-16:33:39.990|56=CLIENT55559|98=0|108=30|10=177|
8=FIX.4.4|9=78|35=A|34=1|49=CLIENT55559|52=20220419-16:34:10.874|56=SERVER|98=0|108=30|141=Y|10=219|
8=FIX.4.4|9=78|35=A|34=1|49=SERVER|52=20220419-16:34:10.890|56=CLIENT55559|98=0|108=30|141=Y|10=217|
8=FIX.4.4|9=60|35=0|34=2|49=SERVER|52=20220419-16:34:41.703|56=CLIENT55559|10=119|
8=FIX.4.4|9=60|35=0|34=2|49=CLIENT55559|52=20220419-16:34:48.601|56=SERVER|10=123|
8=FIX.4.4|9=60|35=5|34=3|49=CLIENT55559|52=20220419-16:34:59.861|56=SERVER|10=139|
8=FIX.4.4|9=60|35=5|34=3|49=SERVER|52=20220419-16:34:59.865|56=CLIENT55559|10=143|
8=FIX.4.4|9=72|35=A|34=4|49=CLIENT55559|52=20220419-16:36:34.501|56=SERVER|98=0|108=30|10=166|
8=FIX.4.4|9=72|35=A|34=1|49=SERVER|52=20220419-16:36:34.536|56=CLIENT55559|98=0|108=30|10=171|
8=FIX.4.4|9=78|35=A|34=1|49=CLIENT55559|52=20220419-16:37:05.503|56=SERVER|98=0|108=10|141=Y|10=213|
8=FIX.4.4|9=78|35=A|34=1|49=SERVER|52=20220419-16:37:05.522|56=CLIENT55559|98=0|108=10|141=Y|10=214|
8=FIX.4.4|9=60|35=0|34=2|49=SERVER|52=20220419-16:37:15.702|56=CLIENT55559|10=122|
8=FIX.4.4|9=60|35=0|34=2|49=CLIENT55559|52=20220419-16:37:15.704|56=SERVER|10=124|
8=FIX.4.4|9=60|35=0|34=3|49=SERVER|52=20220419-16:37:25.701|56=CLIENT55559|10=123|
8=FIX.4.4|9=60|35=0|34=3|49=CLIENT55559|52=20220419-16:37:25.703|56=SERVER|10=125|
8=FIX.4.4|9=60|35=0|34=4|49=SERVER|52=20220419-16:37:35.702|56=CLIENT55559|10=126|
8=FIX.4.4|9=60|35=0|34=4|49=CLIENT55559|52=20220419-16:37:35.703|56=SERVER|10=127|
8=FIX.4.4|9=60|35=0|34=5|49=SERVER|52=20220419-16:37:45.701|56=CLIENT55559|10=127|
8=FIX.4.4|9=60|35=0|34=5|49=CLIENT55559|52=20220419-16:37:45.704|56=SERVER|10=130|
8=FIX.4.4|9=60|35=0|34=6|49=SERVER|52=20220419-16:37:55.702|56=CLIENT55559|10=130|
8=FIX.4.4|9=60|35=0|34=6|49=CLIENT55559|52=20220419-16:37:55.706|56=SERVER|10=134|
8=FIX.4.4|9=72|35=A|34=7|49=CLIENT55559|52=20220419-16:38:44.051|56=SERVER|98=0|108=30|10=172|
8=FIX.4.4|9=72|35=A|34=1|49=SERVER|52=20220419-16:38:44.110|56=CLIENT55559|98=0|108=30|10=162|
8=FIX.4.4|9=78|35=A|34=1|49=CLIENT55559|52=20220419-16:39:15.051|56=SERVER|98=0|108=10|141=Y|10=214|
8=FIX.4.4|9=78|35=A|34=1|49=SERVER|52=20220419-16:39:15.067|56=CLIENT55559|98=0|108=10|141=Y|10=221|
8=FIX.4.4|9=60|35=0|34=2|49=SERVER|52=20220419-16:39:25.174|56=CLIENT55559|10=128|
8=FIX.4.4|9=60|35=0|34=2|49=CLIENT55559|52=20220419-16:39:25.179|56=SERVER|10=133|
8=FIX.4.4|9=60|35=0|34=3|49=SERVER|52=20220419-16:39:35.173|56=CLIENT55559|10=129|
8=FIX.4.4|9=60|35=0|34=3|49=CLIENT55559|52=20220419-16:39:36.742|56=SERVER|10=132|
8=FIX.4.4|9=60|35=0|34=4|49=SERVER|52=20220419-16:39:45.175|56=CLIENT55559|10=133|
8=FIX.4.4|9=69|35=1|34=5|49=SERVER|52=20220419-16:39:52.174|56=CLIENT55559|112=TEST|10=159|
8=FIX.4.4|9=69|35=1|34=4|49=CLIENT55559|52=20220419-16:39:53.338|56=SERVER|112=TEST|10=161|
8=FIX.4.4|9=69|35=0|34=6|49=SERVER|52=20220419-16:39:55.581|56=CLIENT55559|112=TEST|10=164|
8=FIX.4.4|9=69|35=0|34=5|49=CLIENT55559|52=20220419-16:39:56.802|56=SERVER|112=TEST|10=160|
8=FIX.4.4|9=60|35=0|34=7|49=SERVER|52=20220419-16:40:06.174|56=CLIENT55559|10=124|
8=FIX.4.4|9=69|35=1|34=8|49=SERVER|52=20220419-16:40:13.174|56=CLIENT55559|112=TEST|10=151|
8=FIX.4.4|9=78|35=A|34=1|49=CLIENT55559|52=20220419-16:40:55.118|56=SERVER|98=0|108=10|141=Y|10=214|
8=FIX.4.4|9=78|35=A|34=1|49=SERVER|52=20220419-16:40:55.138|56=CLIENT55559|98=0|108=10|141=Y|10=216|
8=FIX.4.4|9=60|35=0|34=2|49=SERVER|52=20220419-16:41:05.174|56=CLIENT55559|10=119|
8=FIX.4.4|9=69|35=1|34=3|49=SERVER|52=20220419-16:41:10.173|56=CLIENT55559|112=TEST|10=143|
8=FIX.4.4|9=78|35=A|34=1|49=CLIENT55559|52=20220419-16:41:27.044|56=SERVER|98=0|108=10|141=Y|10=212|
8=FIX.4.4|9=78|35=A|34=1|49=SERVER|52=20220419-16:41:27.059|56=CLIENT55559|98=0|108=10|141=Y|10=218|
8=FIX.4.4|9=60|35=5|34=2|49=CLIENT55559|52=20220419-16:41:32.038|56=SERVER|10=123|
8=FIX.4.4|9=60|35=5|34=2|49=SERVER|52=20220419-16:41:32.041|56=CLIENT55559|10=117|
8=FIX.4.4|9=78|35=A|34=1|49=CLIENT55559|52=20220421-09:39:35.745|56=SERVER|98=0|108=10|141=Y|10=221|
8=FIX.4.4|9=78|35=A|34=1|49=SERVER|52=20220421-09:39:35.802|56=CLIENT55559|98=0|108=10|141=Y|10=215|
8=FIX.4.4|9=60|35=0|34=2|49=SERVER|52=20220421-09:39:46.655|56=CLIENT55559|10=130|
8=FIX.4.4|9=60|35=0|34=2|49=CLIENT55559|52=20220421-09:39:46.660|56=SERVER|10=126|
8=FIX.4.4|9=60|35=0|34=3|49=SERVER|52=20220421-09:39:56.654|56=CLIENT55559|10=131|
8=FIX.4.4|9=60|35=0|34=3|49=CLIENT55559|52=20220421-09:39:56.658|56=SERVER|10=135|
8=FIX.4.4|9=60|35=0|34=4|49=SERVER|52=20220421-09:40:06.654|56=CLIENT55559|10=119|
8=FIX.4.4|9=60|35=0|34=4|49=CLIENT55559|52=20220421-09:40:06.658|56=SERVER|10=123|
8=FIX.4.4|9=60|35=0|34=5|49=SERVER|52=20220421-09:40:16.655|56=CLIENT55559|10=122|
8=FIX.4.4|9=60|35=0|34=5|49=CLIENT55559|52=20220421-09:40:16.659|56=SERVER|10=126|
8=FIX.4.4|9=60|35=0|34=6|49=SERVER|52=20220421-09:40:26.655|56=CLIENT55559|10=124|
8=FIX.4.4|9=60|35=0|34=6|49=CLIENT55559|52=20220421-09:40:26.657|56=SERVER|10=126|
8=FIX.4.4|9=60|35=0|34=7|49=SERVER|52=20220421-09:40:36.656|56=CLIENT55559|10=127|
8=FIX.4.4|9=60|35=0|34=7|49=CLIENT55559|52=20220421-09:40:36.660|56=SERVER|10=122|
8=FIX.4.4|9=60|35=0|34=8|49=SERVER|52=20220421-09:40:46.655|56=CLIENT55559|10=128|
8=FIX.4.4|9=60|35=0|34=8|49=CLIENT55559|52=20220421-09:40:46.659|56=SERVER|10=132|
8=FIX.4.4|9=60|35=0|34=9|49=SERVER|52=20220421-09:40:56.654|56=CLIENT55559|10=129|
8=FIX.4.4|9=60|35=0|34=9|49=CLIENT55559|52=20220421-09:40:58.909|56=SERVER|10=134|
8=FIX.4.4|9=61|35=0|34=10|49=SERVER|52=20220421-09:41:06.654|56=CLIENT55559|10=166|
8=FIX.4.4|9=61|35=0|34=10|49=CLIENT55559|52=20220421-09:41:09.889|56=SERVER|10=179|
8=FIX.4.4|9=61|35=0|34=11|49=SERVER|52=20220421-09:41:16.654|56=CLIENT55559|10=168|
8=FIX.4.4|9=70|35=1|34=12|49=SERVER|52=20220421-09:41:26.655|56=CLIENT55559|112=TEST|10=190|
8=FIX.4.4|9=78|35=A|34=1|49=CLIENT55559|52=20220421-09:41:35.955|56=SERVER|98=0|108=10|141=Y|10=217|
8=FIX.4.4|9=78|35=A|34=1|49=SERVER|52=20220421-09:41:35.978|56=CLIENT55559|98=0|108=10|141=Y|10=222|
8=FIX.4.4|9=60|35=0|34=2|49=SERVER|52=20220421-09:41:46.653|56=CLIENT55559|10=121|
8=FIX.4.4|9=69|35=1|34=3|49=SERVER|52=20220421-09:41:51.655|56=CLIENT55559|112=TEST|10=148|
8=FIX.4.4|9=78|35=A|34=1|49=CLIENT55559|52=20220421-09:43:14.024|56=SERVER|98=0|108=10|141=Y|10=203|
8=FIX.4.4|9=78|35=A|34=1|49=SERVER|52=20220421-09:43:14.041|56=CLIENT55559|98=0|108=10|141=Y|10=202|
8=FIX.4.4|9=60|35=0|34=2|49=SERVER|52=20220421-09:43:24.654|56=CLIENT55559|10=120|
8=FIX.4.4|9=60|35=0|34=2|49=CLIENT55559|52=20220421-09:43:24.660|56=SERVER|10=117|
8=FIX.4.4|9=129|35=D|34=3|49=CLIENT55559|52=20220421-09:43:31.537|56=SERVER|11=d9IWyTyS|21=3|38=5|40=2|44=5|54=1|55=N/A|60=20220421-09:43:31.536|10=168|
8=FIX.4.4|9=142|35=8|34=3|49=SERVER|52=20220421-09:43:31.596|56=CLIENT55559|6=5|11=d9IWyTyS|14=5|17=0000|31=5|37=0000|38=5|39=A|54=1|55=N/A|150=A|151=5|192=5|10=134|
8=FIX.4.4|9=144|35=8|34=4|49=SERVER|52=20220421-09:43:31.597|56=CLIENT55559|6=5|11=d9IWyTyS|14=5|17=NEGKY|31=5|37=KfVh7|38=5|39=0|54=1|55=N/A|150=0|151=5|192=5|10=012|
8=FIX.4.4|9=60|35=0|34=5|49=SERVER|52=20220421-09:43:41.652|56=CLIENT55559|10=120|
8=FIX.4.4|9=60|35=0|34=4|49=CLIENT55559|52=20220421-09:43:41.657|56=SERVER|10=124|
8=FIX.4.4|9=60|35=0|34=6|49=SERVER|52=20220421-09:43:51.653|56=CLIENT55559|10=123|
8=FIX.4.4|9=60|35=0|34=5|49=CLIENT55559|52=20220421-09:43:51.658|56=SERVER|10=127|
8=FIX.4.4|9=60|35=5|34=6|49=CLIENT55559|52=20220421-09:43:54.726|56=SERVER|10=132|
8=FIX.4.4|9=60|35=5|34=7|49=SERVER|52=20220421-09:43:54.733|56=CLIENT55559|10=131|
8=FIX.4.4|9=72|35=A|34=7|49=CLIENT55559|52=20220421-09:45:30.924|56=SERVER|98=0|108=30|10=169|
8=FIX.4.4|9=72|35=A|34=1|49=SERVER|52=20220421-09:45:30.995|56=CLIENT55559|98=0|108=30|10=171|
8=FIX.4.4|9=78|35=A|34=1|49=CLIENT55559|52=20220421-09:46:01.923|56=SERVER|98=0|108=10|141=Y|10=210|
8=FIX.4.4|9=78|35=A|34=1|49=SERVER|52=20220421-09:46:01.941|56=CLIENT55559|98=0|108=10|141=Y|10=210|
8=FIX.4.4|9=60|35=0|34=2|49=SERVER|52=20220421-09:46:12.650|56=CLIENT55559|10=116|
8=FIX.4.4|9=60|35=0|34=2|49=CLIENT55559|52=20220421-09:46:12.654|56=SERVER|10=120|
8=FIX.4.4|9=60|35=0|34=3|49=SERVER|52=20220421-09:46:22.651|56=CLIENT55559|10=119|
8=FIX.4.4|9=69|35=1|34=4|49=SERVER|52=20220421-09:46:28.651|56=CLIENT55559|112=TEST|10=154|
8=FIX.4.4|9=78|35=A|34=1|49=CLIENT55559|52=20220421-09:48:27.014|56=SERVER|98=0|108=10|141=Y|10=211|
8=FIX.4.4|9=78|35=A|34=1|49=SERVER|52=20220421-09:48:27.032|56=CLIENT55559|98=0|108=10|141=Y|10=211|
8=FIX.4.4|9=60|35=0|34=2|49=SERVER|52=20220421-09:48:37.648|56=CLIENT55559|10=132|
8=FIX.4.4|9=60|35=0|34=2|49=CLIENT55559|52=20220421-09:48:37.651|56=SERVER|10=126|
8=FIX.4.4|9=60|35=0|34=3|49=SERVER|52=20220421-09:48:47.648|56=CLIENT55559|10=134|
8=FIX.4.4|9=60|35=0|34=3|49=CLIENT55559|52=20220421-09:48:47.652|56=SERVER|10=129|
8=FIX.4.4|9=60|35=0|34=4|49=SERVER|52=20220421-09:48:57.647|56=CLIENT55559|10=135|
8=FIX.4.4|9=60|35=0|34=4|49=CLIENT55559|52=20220421-09:48:57.651|56=SERVER|10=130|
8=FIX.4.4|9=60|35=0|34=5|49=SERVER|52=20220421-09:49:07.647|56=CLIENT55559|10=132|
8=FIX.4.4|9=60|35=0|34=5|49=CLIENT55559|52=20220421-09:49:07.649|56=SERVER|10=134|
8=FIX.4.4|9=60|35=0|34=6|49=SERVER|52=20220421-09:49:17.648|56=CLIENT55559|10=135|
8=FIX.4.4|9=60|35=0|34=6|49=CLIENT55559|52=20220421-09:49:17.652|56=SERVER|10=130|
8=FIX.4.4|9=60|35=0|34=7|49=SERVER|52=20220421-09:49:27.647|56=CLIENT55559|10=136|
8=FIX.4.4|9=60|35=0|34=7|49=CLIENT55559|52=20220421-09:49:27.651|56=SERVER|10=131|
8=FIX.4.4|9=60|35=5|34=8|49=CLIENT55559|52=20220421-09:49:29.908|56=SERVER|10=144|
8=FIX.4.4|9=60|35=5|34=8|49=SERVER|52=20220421-09:49:29.911|56=CLIENT55559|10=138|
8=FIX.4.4|9=72|35=A|34=9|49=CLIENT55559|52=20220421-10:23:48.118|56=SERVER|98=0|108=30|10=163|
8=FIX.4.4|9=72|35=A|34=1|49=SERVER|52=20220421-10:23:48.173|56=CLIENT55559|98=0|108=30|10=156|
8=FIX.4.4|9=78|35=A|34=1|49=CLIENT55559|52=20220421-10:24:19.112|56=SERVER|98=0|108=10|141=Y|10=197|
8=FIX.4.4|9=78|35=A|34=1|49=SERVER|52=20220421-10:24:19.127|56=CLIENT55559|98=0|108=10|141=Y|10=203|
8=FIX.4.4|9=60|35=5|34=2|49=CLIENT55559|52=20220421-10:24:27.105|56=SERVER|10=110|
8=FIX.4.4|9=60|35=5|34=2|49=SERVER|52=20220421-10:24:27.109|56=CLIENT55559|10=114|
8=FIX.4.4|9=72|35=A|34=3|49=CLIENT55559|52=20220421-10:33:38.276|56=SERVER|98=0|108=30|10=162|
8=FIX.4.4|9=72|35=A|34=1|49=SERVER|52=20220421-10:33:38.315|56=CLIENT55559|98=0|108=30|10=154|
8=FIX.4.4|9=78|35=A|34=1|49=CLIENT55559|52=20220421-10:34:09.271|56=SERVER|98=0|108=10|141=Y|10=203|
8=FIX.4.4|9=78|35=A|34=1|49=SERVER|52=20220421-10:34:09.289|56=CLIENT55559|98=0|108=10|141=Y|10=212|
8=FIX.4.4|9=60|35=0|34=2|49=CLIENT55559|52=20220421-10:34:19.266|56=SERVER|10=115|
8=FIX.4.4|9=60|35=0|34=2|49=SERVER|52=20220421-10:34:19.634|56=CLIENT55559|10=114|
8=FIX.4.4|9=60|35=5|34=3|49=CLIENT55559|52=20220421-10:34:29.267|56=SERVER|10=123|
8=FIX.4.4|9=60|35=5|34=3|49=SERVER|52=20220421-10:34:29.270|56=CLIENT55559|10=117|
8=FIX.4.4|9=72|35=A|34=4|49=CLIENT55559|52=20220421-10:39:50.338|56=SERVER|98=0|108=30|10=162|
8=FIX.4.4|9=72|35=A|34=1|49=SERVER|52=20220421-10:39:50.381|56=CLIENT55559|98=0|108=30|10=157|
8=FIX.4.4|9=78|35=A|34=1|49=CLIENT55559|52=20220421-10:40:21.335|56=SERVER|98=0|108=10|141=Y|10=195|
8=FIX.4.4|9=78|35=A|34=1|49=SERVER|52=20220421-10:40:21.351|56=CLIENT55559|98=0|108=10|141=Y|10=193|
8=FIX.4.4|9=60|35=0|34=2|49=SERVER|52=20220421-10:40:31.629|56=CLIENT55559|10=109|
8=FIX.4.4|9=69|35=1|34=3|49=SERVER|52=20220421-10:40:36.628|56=CLIENT55559|112=TEST|10=142|
8=FIX.4.4|9=78|35=A|34=1|49=CLIENT55559|52=20220421-10:40:51.331|56=SERVER|98=0|108=10|141=Y|10=194|
8=FIX.4.4|9=78|35=A|34=1|49=SERVER|52=20220421-10:40:51.348|56=CLIENT55559|98=0|108=10|141=Y|10=202|
8=FIX.4.4|9=60|35=0|34=2|49=SERVER|52=20220421-10:41:01.628|56=CLIENT55559|10=106|
8=FIX.4.4|9=69|35=1|34=3|49=SERVER|52=20220421-10:41:06.628|56=CLIENT55559|112=TEST|10=140|
8=FIX.4.4|9=72|35=A|34=2|49=CLIENT55559|52=20220421-10:43:27.887|56=SERVER|98=0|108=30|10=168|
8=FIX.4.4|9=72|35=A|34=1|49=SERVER|52=20220421-10:43:27.933|56=CLIENT55559|98=0|108=30|10=159|
8=FIX.4.4|9=78|35=A|34=1|49=CLIENT55559|52=20220421-10:43:58.882|56=SERVER|98=0|108=10|141=Y|10=215|
8=FIX.4.4|9=78|35=A|34=1|49=SERVER|52=20220421-10:43:58.899|56=CLIENT55559|98=0|108=10|141=Y|10=223|
8=FIX.4.4|9=60|35=0|34=2|49=SERVER|52=20220421-10:44:09.626|56=CLIENT55559|10=115|
8=FIX.4.4|9=60|35=0|34=2|49=CLIENT55559|52=20220421-10:44:09.631|56=SERVER|10=111|
8=FIX.4.4|9=60|35=0|34=3|49=SERVER|52=20220421-10:44:19.625|56=CLIENT55559|10=116|
8=FIX.4.4|9=60|35=0|34=3|49=CLIENT55559|52=20220421-10:44:19.629|56=SERVER|10=120|
8=FIX.4.4|9=60|35=0|34=4|49=SERVER|52=20220421-10:44:29.627|56=CLIENT55559|10=120|
8=FIX.4.4|9=60|35=0|34=4|49=CLIENT55559|52=20220421-10:44:29.631|56=SERVER|10=115|
8=FIX.4.4|9=60|35=0|34=5|49=SERVER|52=20220421-10:44:39.627|56=CLIENT55559|10=122|
8=FIX.4.4|9=60|35=0|34=5|49=CLIENT55559|52=20220421-10:44:39.631|56=SERVER|10=117|
8=FIX.4.4|9=60|35=0|34=6|49=SERVER|52=20220421-10:44:49.625|56=CLIENT55559|10=122|
8=FIX.4.4|9=60|35=0|34=6|49=CLIENT55559|52=20220421-10:44:49.629|56=SERVER|10=126|
8=FIX.4.4|9=60|35=0|34=7|49=SERVER|52=20220421-10:44:59.651|56=CLIENT55559|10=123|
8=FIX.4.4|9=60|35=0|34=7|49=CLIENT55559|52=20220421-10:44:59.679|56=SERVER|10=133|
8=FIX.4.4|9=60|35=0|34=8|49=CLIENT55559|52=20220421-10:45:09.872|56=SERVER|10=125|
8=FIX.4.4|9=60|35=0|34=8|49=SERVER|52=20220421-10:45:09.875|56=CLIENT55559|10=128|
8=FIX.4.4|9=60|35=0|34=9|49=CLIENT55559|52=20220421-10:45:19.871|56=SERVER|10=126|
8=FIX.4.4|9=60|35=0|34=9|49=SERVER|52=20220421-10:45:19.875|56=CLIENT55559|10=130|
8=FIX.4.4|9=61|35=0|34=10|49=CLIENT55559|52=20220421-10:45:29.871|56=SERVER|10=168|
8=FIX.4.4|9=61|35=0|34=10|49=SERVER|52=20220421-10:45:29.874|56=CLIENT55559|10=171|
8=FIX.4.4|9=61|35=0|34=11|49=SERVER|52=20220421-10:45:40.624|56=CLIENT55559|10=158|
8=FIX.4.4|9=70|35=1|34=12|49=SERVER|52=20220421-10:45:45.626|56=CLIENT55559|112=TEST|10=185|
8=FIX.4.4|9=78|35=A|34=1|49=CLIENT55559|52=20220421-10:46:10.743|56=SERVER|98=0|108=10|141=Y|10=202|
8=FIX.4.4|9=78|35=A|34=1|49=SERVER|52=20220421-10:46:10.762|56=CLIENT55559|98=0|108=10|141=Y|10=203|
8=FIX.4.4|9=72|35=A|34=2|49=CLIENT55559|52=20220421-10:47:44.314|56=SERVER|98=0|108=30|10=156|
8=FIX.4.4|9=72|35=A|34=1|49=SERVER|52=20220421-10:47:44.376|56=CLIENT55559|98=0|108=30|10=163|
8=FIX.4.4|9=78|35=A|34=1|49=CLIENT55559|52=20220421-10:48:15.314|56=SERVER|98=0|108=10|141=Y|10=203|
8=FIX.4.4|9=78|35=A|34=1|49=SERVER|52=20220421-10:48:15.329|56=CLIENT55559|98=0|108=10|141=Y|10=209|
8=FIX.4.4|9=60|35=0|34=2|49=SERVER|52=20220421-10:48:25.624|56=CLIENT55559|10=115|
8=FIX.4.4|9=60|35=0|34=2|49=CLIENT55559|52=20220421-10:48:25.629|56=SERVER|10=120|
8=FIX.4.4|9=60|35=0|34=3|49=SERVER|52=20220421-10:48:35.623|56=CLIENT55559|10=116|
8=FIX.4.4|9=60|35=0|34=3|49=CLIENT55559|52=20220421-10:48:35.625|56=SERVER|10=118|
8=FIX.4.4|9=60|35=0|34=4|49=SERVER|52=20220421-10:48:45.623|56=CLIENT55559|10=118|
8=FIX.4.4|9=60|35=0|34=4|49=CLIENT55559|52=20220421-10:48:45.625|56=SERVER|10=120|
8=FIX.4.4|9=60|35=0|34=5|49=SERVER|52=20220421-10:48:55.624|56=CLIENT55559|10=121|
8=FIX.4.4|9=60|35=0|34=5|49=CLIENT55559|52=20220421-10:48:55.628|56=SERVER|10=125|
8=FIX.4.4|9=60|35=0|34=6|49=SERVER|52=20220421-10:49:05.623|56=CLIENT55559|10=117|
8=FIX.4.4|9=60|35=0|34=6|49=CLIENT55559|52=20220421-10:49:05.627|56=SERVER|10=121|
8=FIX.4.4|9=60|35=0|34=7|49=SERVER|52=20220421-10:49:15.624|56=CLIENT55559|10=120|
8=FIX.4.4|9=60|35=0|34=7|49=CLIENT55559|52=20220421-10:49:15.628|56=SERVER|10=124|
8=FIX.4.4|9=60|35=0|34=8|49=SERVER|52=20220421-10:49:25.623|56=CLIENT55559|10=121|
8=FIX.4.4|9=60|35=0|34=8|49=CLIENT55559|52=20220421-10:49:25.628|56=SERVER|10=126|
8=FIX.4.4|9=60|35=0|34=9|49=SERVER|52=20220421-10:49:35.623|56=CLIENT55559|10=123|
8=FIX.4.4|9=60|35=0|34=9|49=CLIENT55559|52=20220421-10:49:35.627|56=SERVER|10=127|
8=FIX.4.4|9=61|35=0|34=10|49=SERVER|52=20220421-10:49:45.624|56=CLIENT55559|10=166|
8=FIX.4.4|9=61|35=0|34=10|49=CLIENT55559|52=20220421-10:49:45.626|56=SERVER|10=168|
8=FIX.4.4|9=61|35=0|34=11|49=SERVER|52=20220421-10:49:55.622|56=CLIENT55559|10=166|
8=FIX.4.4|9=61|35=0|34=11|49=CLIENT55559|52=20220421-10:49:55.624|56=SERVER|10=168|
8=FIX.4.4|9=61|35=0|34=12|49=SERVER|52=20220421-10:50:05.624|56=CLIENT55559|10=156|
8=FIX.4.4|9=61|35=0|34=12|49=CLIENT55559|52=20220421-10:50:05.625|56=SERVER|10=157|
8=FIX.4.4|9=61|35=0|34=13|49=SERVER|52=20220421-10:50:15.623|56=CLIENT55559|10=157|
8=FIX.4.4|9=61|35=0|34=13|49=CLIENT55559|52=20220421-10:50:15.626|56=SERVER|10=160|
8=FIX.4.4|9=61|35=0|34=14|49=SERVER|52=20220421-10:50:25.622|56=CLIENT55559|10=158|
8=FIX.4.4|9=61|35=0|34=14|49=CLIENT55559|52=20220421-10:50:25.625|56=SERVER|10=161|
8=FIX.4.4|9=61|35=0|34=15|49=SERVER|52=20220421-10:50:35.622|56=CLIENT55559|10=160|
8=FIX.4.4|9=61|35=0|34=15|49=CLIENT55559|52=20220421-10:50:35.625|56=SERVER|10=163|
8=FIX.4.4|9=61|35=0|34=16|49=SERVER|52=20220421-10:50:45.622|56=CLIENT55559|10=162|
8=FIX.4.4|9=61|35=0|34=16|49=CLIENT55559|52=20220421-10:50:45.625|56=SERVER|10=165|
8=FIX.4.4|9=61|35=0|34=17|49=SERVER|52=20220421-10:50:55.623|56=CLIENT55559|10=165|
8=FIX.4.4|9=61|35=0|34=17|49=CLIENT55559|52=20220421-10:50:56.141|56=SERVER|10=161|
8=FIX.4.4|9=61|35=0|34=18|49=SERVER|52=20220421-10:51:05.622|56=CLIENT55559|10=161|
8=FIX.4.4|9=61|35=0|34=18|49=CLIENT55559|52=20220421-10:51:06.300|56=SERVER|10=155|
8=FIX.4.4|9=61|35=0|34=19|49=SERVER|52=20220421-10:51:15.623|56=CLIENT55559|10=164|
8=FIX.4.4|9=70|35=1|34=20|49=SERVER|52=20220421-10:51:21.622|56=CLIENT55559|112=TEST|10=171|
8=FIX.4.4|9=78|35=A|34=1|49=CLIENT55559|52=20220421-10:51:42.409|56=SERVER|98=0|108=10|141=Y|10=202|
8=FIX.4.4|9=78|35=A|34=1|49=SERVER|52=20220421-10:51:42.423|56=CLIENT55559|98=0|108=10|141=Y|10=198|
8=FIX.4.4|9=60|35=0|34=2|49=SERVER|52=20220421-10:51:52.622|56=CLIENT55559|10=107|
8=FIX.4.4|9=60|35=0|34=2|49=CLIENT55559|52=20220421-10:51:52.626|56=SERVER|10=111|
8=FIX.4.4|9=60|35=0|34=3|49=SERVER|52=20220421-10:52:02.623|56=CLIENT55559|10=105|
8=FIX.4.4|9=60|35=0|34=3|49=CLIENT55559|52=20220421-10:52:02.626|56=SERVER|10=108|
8=FIX.4.4|9=60|35=0|34=4|49=SERVER|52=20220421-10:52:12.622|56=CLIENT55559|10=106|
8=FIX.4.4|9=60|35=0|34=4|49=CLIENT55559|52=20220421-10:52:12.625|56=SERVER|10=109|
8=FIX.4.4|9=60|35=0|34=5|49=SERVER|52=20220421-10:52:22.622|56=CLIENT55559|10=108|
8=FIX.4.4|9=60|35=0|34=5|49=CLIENT55559|52=20220421-10:52:22.624|56=SERVER|10=110|
8=FIX.4.4|9=60|35=0|34=6|49=SERVER|52=20220421-10:52:32.622|56=CLIENT55559|10=110|
8=FIX.4.4|9=60|35=0|34=6|49=CLIENT55559|52=20220421-10:52:32.625|56=SERVER|10=113|
8=FIX.4.4|9=60|35=0|34=7|49=SERVER|52=20220421-10:52:42.621|56=CLIENT55559|10=111|
8=FIX.4.4|9=60|35=0|34=7|49=CLIENT55559|52=20220421-10:52:42.623|56=SERVER|10=113|
8=FIX.4.4|9=72|35=A|34=8|49=CLIENT55559|52=20220421-10:53:36.799|56=SERVER|98=0|108=30|10=177|
8=FIX.4.4|9=72|35=A|34=1|49=SERVER|52=20220421-10:53:36.862|56=CLIENT55559|98=0|108=30|10=161|
8=FIX.4.4|9=78|35=A|34=1|49=CLIENT55559|52=20220421-10:54:07.798|56=SERVER|98=0|108=10|141=Y|10=217|
8=FIX.4.4|9=78|35=A|34=1|49=SERVER|52=20220421-10:54:07.815|56=CLIENT55559|98=0|108=10|141=Y|10=207|
8=FIX.4.4|9=60|35=0|34=2|49=SERVER|52=20220421-10:54:18.621|56=CLIENT55559|10=111|
8=FIX.4.4|9=60|35=0|34=2|49=CLIENT55559|52=20220421-10:54:18.624|56=SERVER|10=114|
8=FIX.4.4|9=60|35=0|34=3|49=SERVER|52=20220421-10:54:28.621|56=CLIENT55559|10=113|
8=FIX.4.4|9=60|35=0|34=3|49=CLIENT55559|52=20220421-10:54:28.624|56=SERVER|10=116|
8=FIX.4.4|9=60|35=0|34=4|49=SERVER|52=20220421-10:54:38.621|56=CLIENT55559|10=115|
8=FIX.4.4|9=60|35=0|34=4|49=CLIENT55559|52=20220421-10:54:38.624|56=SERVER|10=118|
8=FIX.4.4|9=60|35=0|34=5|49=SERVER|52=20220421-10:54:48.621|56=CLIENT55559|10=117|
8=FIX.4.4|9=60|35=0|34=5|49=CLIENT55559|52=20220421-10:54:48.622|56=SERVER|10=118|
8=FIX.4.4|9=60|35=0|34=6|49=SERVER|52=20220421-10:54:58.621|56=CLIENT55559|10=119|
8=FIX.4.4|9=60|35=0|34=6|49=CLIENT55559|52=20220421-10:54:58.623|56=SERVER|10=121|
8=FIX.4.4|9=60|35=0|34=7|49=SERVER|52=20220421-10:55:08.622|56=CLIENT55559|10=117|
8=FIX.4.4|9=60|35=0|34=7|49=CLIENT55559|52=20220421-10:55:08.625|56=SERVER|10=120|
8=FIX.4.4|9=60|35=0|34=8|49=SERVER|52=20220421-10:55:18.621|56=CLIENT55559|10=118|
8=FIX.4.4|9=69|35=1|34=9|49=SERVER|52=20220421-10:55:24.620|56=CLIENT55559|112=TEST|10=143|
8=FIX.4.4|9=78|35=A|34=1|49=CLIENT55559|52=20220421-10:56:30.753|56=SERVER|98=0|108=10|141=Y|10=206|
8=FIX.4.4|9=78|35=A|34=1|49=SERVER|52=20220421-10:56:30.774|56=CLIENT55559|98=0|108=10|141=Y|10=209|
8=FIX.4.4|9=60|35=0|34=2|49=SERVER|52=20220421-10:56:41.621|56=CLIENT55559|10=109|
8=FIX.4.4|9=69|35=1|34=3|49=SERVER|52=20220421-10:56:46.620|56=CLIENT55559|112=TEST|10=142|
8=FIX.4.4|9=78|35=A|34=1|49=CLIENT55559|52=20220421-10:57:33.264|56=SERVER|98=0|108=10|141=Y|10=207|
8=FIX.4.4|9=78|35=A|34=1|49=SERVER|52=20220421-10:57:33.281|56=CLIENT55559|98=0|108=10|141=Y|10=206|
8=FIX.4.4|9=60|35=0|34=2|49=SERVER|52=20220421-10:57:43.620|56=CLIENT55559|10=111|
8=FIX.4.4|9=69|35=1|34=3|49=SERVER|52=20220421-10:57:48.621|56=CLIENT55559|112=TEST|10=146|
8=FIX.4.4|9=60|35=0|34=2|49=CLIENT55559|52=20220421-10:57:45.740|56=SERVER|10=116|
8=FIX.4.4|9=69|35=0|34=3|49=CLIENT55559|52=20220421-10:57:52.675|56=SERVER|112=TEST|10=149|
8=FIX.4.4|9=60|35=0|34=4|49=SERVER|52=20220421-10:57:58.621|56=CLIENT55559|10=120|
8=FIX.4.4|9=69|35=1|34=5|49=SERVER|52=20220421-10:58:08.620|56=CLIENT55559|112=TEST|10=144|
8=FIX.4.4|9=60|35=0|34=4|49=CLIENT55559|52=20220421-10:58:04.766|56=SERVER|10=122|
8=FIX.4.4|9=69|35=0|34=5|49=CLIENT55559|52=20220421-10:58:13.883|56=SERVER|112=TEST|10=150|
8=FIX.4.4|9=60|35=0|34=6|49=SERVER|52=20220421-10:58:18.620|56=CLIENT55559|10=118|
8=FIX.4.4|9=60|35=0|34=7|49=SERVER|52=20220421-10:58:28.619|56=CLIENT55559|10=128|
8=FIX.4.4|9=69|35=1|34=8|49=SERVER|52=20220421-10:58:29.621|56=CLIENT55559|112=TEST|10=151|
8=FIX.4.4|9=78|35=A|34=1|49=CLIENT55559|52=20220421-10:59:26.787|56=SERVER|98=0|108=10|141=Y|10=221|
8=FIX.4.4|9=78|35=A|34=1|49=SERVER|52=20220421-10:59:26.804|56=CLIENT55559|98=0|108=10|141=Y|10=211|
8=FIX.4.4|9=60|35=0|34=2|49=CLIENT55559|52=20220421-10:59:36.784|56=SERVER|10=126|
8=FIX.4.4|9=60|35=0|34=2|49=SERVER|52=20220421-10:59:37.620|56=CLIENT55559|10=116|
8=FIX.4.4|9=60|35=0|34=3|49=CLIENT55559|52=20220421-10:59:46.793|56=SERVER|10=128|
8=FIX.4.4|9=60|35=0|34=3|49=SERVER|52=20220421-10:59:47.619|56=CLIENT55559|10=126|
8=FIX.4.4|9=60|35=0|34=4|49=SERVER|52=20220421-10:59:57.620|56=CLIENT55559|10=120|
8=FIX.4.4|9=60|35=0|34=4|49=CLIENT55559|52=20220421-10:59:57.623|56=SERVER|10=123|
8=FIX.4.4|9=60|35=0|34=5|49=SERVER|52=20220421-11:00:07.620|56=CLIENT55559|10=103|
8=FIX.4.4|9=60|35=0|34=5|49=CLIENT55559|52=20220421-11:00:07.624|56=SERVER|10=107|
8=FIX.4.4|9=60|35=0|34=6|49=SERVER|52=20220421-11:00:17.619|56=CLIENT55559|10=113|
8=FIX.4.4|9=60|35=0|34=6|49=CLIENT55559|52=20220421-11:00:17.624|56=SERVER|10=109|
8=FIX.4.4|9=60|35=0|34=7|49=SERVER|52=20220421-11:00:27.620|56=CLIENT55559|10=107|
8=FIX.4.4|9=60|35=0|34=7|49=CLIENT55559|52=20220421-11:00:27.625|56=SERVER|10=112|
8=FIX.4.4|9=60|35=0|34=8|49=SERVER|52=20220421-11:00:37.619|56=CLIENT55559|10=117|
8=FIX.4.4|9=60|35=0|34=8|49=CLIENT55559|52=20220421-11:00:37.623|56=SERVER|10=112|
8=FIX.4.4|9=60|35=0|34=9|49=SERVER|52=20220421-11:00:47.621|56=CLIENT55559|10=112|
8=FIX.4.4|9=60|35=0|34=9|49=CLIENT55559|52=20220421-11:00:47.624|56=SERVER|10=115|
8=FIX.4.4|9=61|35=0|34=10|49=SERVER|52=20220421-11:00:57.621|56=CLIENT55559|10=154|
8=FIX.4.4|9=61|35=0|34=10|49=CLIENT55559|52=20220421-11:00:57.625|56=SERVER|10=158|
8=FIX.4.4|9=61|35=0|34=11|49=SERVER|52=20220421-11:01:07.620|56=CLIENT55559|10=150|
8=FIX.4.4|9=61|35=0|34=11|49=CLIENT55559|52=20220421-11:01:07.624|56=SERVER|10=154|
8=FIX.4.4|9=61|35=0|34=12|49=SERVER|52=20220421-11:01:17.620|56=CLIENT55559|10=152|
8=FIX.4.4|9=61|35=0|34=12|49=CLIENT55559|52=20220421-11:01:17.623|56=SERVER|10=155|
8=FIX.4.4|9=61|35=0|34=13|49=SERVER|52=20220421-11:01:27.619|56=CLIENT55559|10=162|
8=FIX.4.4|9=61|35=0|34=13|49=CLIENT55559|52=20220421-11:01:27.621|56=SERVER|10=155|
8=FIX.4.4|9=61|35=0|34=14|49=SERVER|52=20220421-11:01:37.620|56=CLIENT55559|10=156|
8=FIX.4.4|9=61|35=0|34=14|49=CLIENT55559|52=20220421-11:01:37.621|56=SERVER|10=157|
8=FIX.4.4|9=61|35=0|34=15|49=SERVER|52=20220421-11:01:47.619|56=CLIENT55559|10=166|
8=FIX.4.4|9=61|35=0|34=15|49=CLIENT55559|52=20220421-11:01:47.623|56=SERVER|10=161|
8=FIX.4.4|9=61|35=0|34=16|49=SERVER|52=20220421-11:01:57.623|56=CLIENT55559|10=163|
8=FIX.4.4|9=61|35=0|34=16|49=CLIENT55559|52=20220421-11:01:57.627|56=SERVER|10=167|
8=FIX.4.4|9=61|35=0|34=17|49=SERVER|52=20220421-11:02:07.619|56=CLIENT55559|10=165|
8=FIX.4.4|9=61|35=0|34=17|49=CLIENT55559|52=20220421-11:02:07.623|56=SERVER|10=160|
8=FIX.4.4|9=61|35=0|34=18|49=SERVER|52=20220421-11:02:17.619|56=CLIENT55559|10=167|
8=FIX.4.4|9=61|35=0|34=18|49=CLIENT55559|52=20220421-11:02:17.622|56=SERVER|10=161|
8=FIX.4.4|9=61|35=0|34=19|49=SERVER|52=20220421-11:02:27.619|56=CLIENT55559|10=169|
8=FIX.4.4|9=61|35=0|34=19|49=CLIENT55559|52=20220421-11:02:27.622|56=SERVER|10=163|
8=FIX.4.4|9=61|35=0|34=20|49=SERVER|52=20220421-11:02:37.619|56=CLIENT55559|10=162|
8=FIX.4.4|9=61|35=0|34=20|49=CLIENT55559|52=20220421-11:02:37.623|56=SERVER|10=157|
8=FIX.4.4|9=61|35=0|34=21|49=SERVER|52=20220421-11:02:47.618|56=CLIENT55559|10=163|
8=FIX.4.4|9=61|35=0|34=21|49=CLIENT55559|52=20220421-11:02:47.622|56=SERVER|10=158|
8=FIX.4.4|9=61|35=0|34=22|49=SERVER|52=20220421-11:02:57.620|56=CLIENT55559|10=158|
8=FIX.4.4|9=61|35=0|34=22|49=CLIENT55559|52=20220421-11:02:57.624|56=SERVER|10=162|
8=FIX.4.4|9=61|35=0|34=23|49=SERVER|52=20220421-11:03:07.619|56=CLIENT55559|10=163|
8=FIX.4.4|9=61|35=0|34=23|49=CLIENT55559|52=20220421-11:03:07.623|56=SERVER|10=158|
8=FIX.4.4|9=61|35=0|34=24|49=SERVER|52=20220421-11:03:17.619|56=CLIENT55559|10=165|
8=FIX.4.4|9=61|35=0|34=24|49=CLIENT55559|52=20220421-11:03:17.622|56=SERVER|10=159|
8=FIX.4.4|9=61|35=0|34=25|49=SERVER|52=20220421-11:03:27.619|56=CLIENT55559|10=167|
8=FIX.4.4|9=61|35=0|34=25|49=CLIENT55559|52=20220421-11:03:27.623|56=SERVER|10=162|
8=FIX.4.4|9=61|35=0|34=26|49=SERVER|52=20220421-11:03:37.618|56=CLIENT55559|10=168|
8=FIX.4.4|9=61|35=0|34=26|49=CLIENT55559|52=20220421-11:03:37.621|56=SERVER|10=162|
8=FIX.4.4|9=61|35=0|34=27|49=SERVER|52=20220421-11:03:47.619|56=CLIENT55559|10=171|
8=FIX.4.4|9=61|35=0|34=27|49=CLIENT55559|52=20220421-11:03:47.621|56=SERVER|10=164|
8=FIX.4.4|9=61|35=0|34=28|49=SERVER|52=20220421-11:03:57.620|56=CLIENT55559|10=165|
8=FIX.4.4|9=61|35=0|34=28|49=CLIENT55559|52=20220421-11:03:57.624|56=SERVER|10=169|
8=FIX.4.4|9=61|35=0|34=29|49=SERVER|52=20220421-11:04:07.619|56=CLIENT55559|10=170|
8=FIX.4.4|9=61|35=0|34=29|49=CLIENT55559|52=20220421-11:04:07.623|56=SERVER|10=165|
8=FIX.4.4|9=61|35=0|34=30|49=SERVER|52=20220421-11:04:17.619|56=CLIENT55559|10=163|
8=FIX.4.4|9=61|35=0|34=30|49=CLIENT55559|52=20220421-11:04:17.622|56=SERVER|10=157|
8=FIX.4.4|9=61|35=0|34=31|49=SERVER|52=20220421-11:04:27.618|56=CLIENT55559|10=164|
8=FIX.4.4|9=61|35=0|34=31|49=CLIENT55559|52=20220421-11:04:27.622|56=SERVER|10=159|
8=FIX.4.4|9=61|35=0|34=32|49=SERVER|52=20220421-11:04:37.619|56=CLIENT55559|10=167|
8=FIX.4.4|9=61|35=0|34=32|49=CLIENT55559|52=20220421-11:04:37.622|56=SERVER|10=161|
8=FIX.4.4|9=61|35=0|34=33|49=SERVER|52=20220421-11:04:47.619|56=CLIENT55559|10=169|
8=FIX.4.4|9=61|35=0|34=33|49=CLIENT55559|52=20220421-11:04:47.622|56=SERVER|10=163|
8=FIX.4.4|9=61|35=0|34=34|49=SERVER|52=20220421-11:04:57.618|56=CLIENT55559|10=170|
8=FIX.4.4|9=61|35=0|34=34|49=CLIENT55559|52=20220421-11:04:57.620|56=SERVER|10=163|
8=FIX.4.4|9=61|35=0|34=35|49=SERVER|52=20220421-11:05:07.619|56=CLIENT55559|10=168|
8=FIX.4.4|9=61|35=0|34=35|49=CLIENT55559|52=20220421-11:05:07.623|56=SERVER|10=163|
8=FIX.4.4|9=61|35=0|34=36|49=SERVER|52=20220421-11:05:17.618|56=CLIENT55559|10=169|
8=FIX.4.4|9=61|35=0|34=36|49=CLIENT55559|52=20220421-11:05:17.625|56=SERVER|10=167|
8=FIX.4.4|9=61|35=0|34=37|49=SERVER|52=20220421-11:05:27.618|56=CLIENT55559|10=171|
8=FIX.4.4|9=61|35=0|34=37|49=CLIENT55559|52=20220421-11:05:27.621|56=SERVER|10=165|
8=FIX.4.4|9=61|35=0|34=38|49=SERVER|52=20220421-11:05:37.618|56=CLIENT55559|10=173|
8=FIX.4.4|9=61|35=0|34=38|49=CLIENT55559|52=20220421-11:05:37.621|56=SERVER|10=167|
8=FIX.4.4|9=61|35=0|34=39|49=SERVER|52=20220421-11:05:47.618|56=CLIENT55559|10=175|
8=FIX.4.4|9=61|35=0|34=39|49=CLIENT55559|52=20220421-11:05:47.621|56=SERVER|10=169|
8=FIX.4.4|9=61|35=0|34=40|49=SERVER|52=20220421-11:05:57.618|56=CLIENT55559|10=168|
8=FIX.4.4|9=61|35=0|34=40|49=CLIENT55559|52=20220421-11:05:57.622|56=SERVER|10=163|
8=FIX.4.4|9=61|35=0|34=41|49=SERVER|52=20220421-11:06:07.618|56=CLIENT55559|10=165|
8=FIX.4.4|9=61|35=0|34=41|49=CLIENT55559|52=20220421-11:06:07.621|56=SERVER|10=159|
8=FIX.4.4|9=61|35=0|34=42|49=SERVER|52=20220421-11:06:17.618|56=CLIENT55559|10=167|
8=FIX.4.4|9=61|35=0|34=42|49=CLIENT55559|52=20220421-11:06:17.621|56=SERVER|10=161|
8=FIX.4.4|9=61|35=0|34=43|49=SERVER|52=20220421-11:06:27.619|56=CLIENT55559|10=170|
8=FIX.4.4|9=61|35=0|34=43|49=CLIENT55559|52=20220421-11:06:27.623|56=SERVER|10=165|
8=FIX.4.4|9=61|35=0|34=44|49=SERVER|52=20220421-11:06:37.618|56=CLIENT55559|10=171|
8=FIX.4.4|9=61|35=0|34=44|49=CLIENT55559|52=20220421-11:06:37.621|56=SERVER|10=165|
8=FIX.4.4|9=61|35=0|34=45|49=SERVER|52=20220421-11:06:47.618|56=CLIENT55559|10=173|
8=FIX.4.4|9=61|35=0|34=45|49=CLIENT55559|52=20220421-11:06:47.621|56=SERVER|10=167|
8=FIX.4.4|9=73|35=A|34=46|49=CLIENT55559|52=20220421-11:07:10.077|56=SERVER|98=0|108=30|10=209|
8=FIX.4.4|9=72|35=A|34=1|49=SERVER|52=20220421-11:07:10.140|56=CLIENT55559|98=0|108=30|10=142|
8=FIX.4.4|9=78|35=A|34=1|49=CLIENT55559|52=20220421-11:07:41.076|56=SERVER|98=0|108=10|141=Y|10=203|
8=FIX.4.4|9=78|35=A|34=1|49=SERVER|52=20220421-11:07:41.091|56=CLIENT55559|98=0|108=10|141=Y|10=200|
8=FIX.4.4|9=60|35=0|34=2|49=SERVER|52=20220421-11:07:51.617|56=CLIENT55559|10=112|
8=FIX.4.4|9=60|35=0|34=2|49=CLIENT55559|52=20220421-11:07:51.623|56=SERVER|10=109|
8=FIX.4.4|9=60|35=0|34=3|49=SERVER|52=20220421-11:08:01.619|56=CLIENT55559|10=111|
8=FIX.4.4|9=72|35=A|34=3|49=CLIENT55559|52=20220421-11:12:23.912|56=SERVER|98=0|108=30|10=151|
8=FIX.4.4|9=72|35=A|34=1|49=SERVER|52=20220421-11:12:23.960|56=CLIENT55559|98=0|108=30|10=152|
8=FIX.4.4|9=78|35=A|34=1|49=CLIENT55559|52=20220421-11:12:54.910|56=SERVER|98=0|108=10|141=Y|10=200|
8=FIX.4.4|9=78|35=A|34=1|49=SERVER|52=20220421-11:12:54.927|56=CLIENT55559|98=0|108=10|141=Y|10=208|
8=FIX.4.4|9=131|35=D|34=2|49=CLIENT55559|52=20220421-11:12:59.556|56=SERVER|11=sLpoVOvR|34=0|35=D|41=|52=2022-04-21T13:12:23.948670900|98=0|108=10|10=102|
8=FIX.4.4|9=125|35=3|34=2|49=SERVER|52=20220421-11:12:59.560|56=CLIENT55559|45=2|58=Tag appears more than once, field=34|371=34|372=D|373=13|10=070|
8=FIX.4.4|9=60|35=0|34=3|49=SERVER|52=20220421-11:13:09.610|56=CLIENT55559|10=106|
8=FIX.4.4|9=60|35=0|34=3|49=CLIENT55559|52=20220421-11:13:09.623|56=SERVER|10=110|
8=FIX.4.4|9=60|35=0|34=4|49=SERVER|52=20220421-11:13:19.611|56=CLIENT55559|10=109|
8=FIX.4.4|9=60|35=0|34=4|49=CLIENT55559|52=20220421-11:13:19.615|56=SERVER|10=113|
8=FIX.4.4|9=132|35=D|34=5|49=CLIENT55559|52=20220421-11:13:26.353|56=SERVER|11=sLpoVOvR6|34=0|35=D|41=|52=2022-04-21T13:12:23.948670900|98=0|108=10|10=150|
8=FIX.4.4|9=125|35=3|34=5|49=SERVER|52=20220421-11:13:26.357|56=CLIENT55559|45=5|58=Tag appears more than once, field=34|371=34|372=D|373=13|10=075|
8=FIX.4.4|9=69|35=1|34=6|49=SERVER|52=20220421-11:13:35.609|56=CLIENT55559|112=TEST|10=144|
8=FIX.4.4|9=69|35=0|34=6|49=CLIENT55559|52=20220421-11:13:35.615|56=SERVER|112=TEST|10=140|
8=FIX.4.4|9=60|35=0|34=7|49=SERVER|52=20220421-11:13:45.610|56=CLIENT55559|10=110|
8=FIX.4.4|9=60|35=0|34=7|49=CLIENT55559|52=20220421-11:13:45.613|56=SERVER|10=113|
8=FIX.4.4|9=60|35=0|34=8|49=SERVER|52=20220421-11:13:55.608|56=CLIENT55559|10=119|
8=FIX.4.4|9=60|35=0|34=8|49=CLIENT55559|52=20220421-11:13:55.611|56=SERVER|10=113|
8=FIX.4.4|9=60|35=0|34=9|49=SERVER|52=20220421-11:14:05.609|56=CLIENT55559|10=117|
8=FIX.4.4|9=60|35=0|34=9|49=CLIENT55559|52=20220421-11:14:05.613|56=SERVER|10=112|
8=FIX.4.4|9=61|35=0|34=10|49=SERVER|52=20220421-11:14:15.608|56=CLIENT55559|10=158|
8=FIX.4.4|9=61|35=0|34=10|49=CLIENT55559|52=20220421-11:14:15.611|56=SERVER|10=152|
8=FIX.4.4|9=61|35=0|34=11|49=SERVER|52=20220421-11:14:25.609|56=CLIENT55559|10=161|
8=FIX.4.4|9=61|35=0|34=11|49=CLIENT55559|52=20220421-11:14:25.612|56=SERVER|10=155|
8=FIX.4.4|9=61|35=0|34=12|49=SERVER|52=20220421-11:14:35.608|56=CLIENT55559|10=162|
8=FIX.4.4|9=61|35=0|34=12|49=CLIENT55559|52=20220421-11:14:35.611|56=SERVER|10=156|
8=FIX.4.4|9=61|35=0|34=13|49=SERVER|52=20220421-11:14:45.609|56=CLIENT55559|10=165|
8=FIX.4.4|9=61|35=0|34=13|49=CLIENT55559|52=20220421-11:14:45.611|56=SERVER|10=158|
8=FIX.4.4|9=61|35=0|34=14|49=SERVER|52=20220421-11:14:55.608|56=CLIENT55559|10=166|
8=FIX.4.4|9=61|35=0|34=14|49=CLIENT55559|52=20220421-11:14:55.610|56=SERVER|10=159|
8=FIX.4.4|9=73|35=A|34=15|49=CLIENT55559|52=20220421-11:16:53.774|56=SERVER|98=0|108=30|10=216|
8=FIX.4.4|9=72|35=A|34=1|49=SERVER|52=20220421-11:16:53.853|56=CLIENT55559|98=0|108=30|10=160|
8=FIX.4.4|9=78|35=A|34=1|49=CLIENT55559|52=20220421-11:17:24.771|56=SERVER|98=0|108=10|141=Y|10=207|
8=FIX.4.4|9=78|35=A|34=1|49=SERVER|52=20220421-11:17:24.787|56=CLIENT55559|98=0|108=10|141=Y|10=214|
8=FIX.4.4|9=60|35=0|34=2|49=SERVER|52=20220421-11:17:35.604|56=CLIENT55559|10=111|
8=FIX.4.4|9=60|35=0|34=2|49=CLIENT55559|52=20220421-11:17:35.606|56=SERVER|10=113|
8=FIX.4.4|9=126|35=D|34=3|49=CLIENT55559|52=20220421-11:17:37.818|56=SERVER|11=gYHOZZJ4|35=D|41=|52=2022-04-21T13:16:53.839164500|98=0|108=10|10=022|
8=FIX.4.4|9=125|35=3|34=3|49=SERVER|52=20220421-11:17:37.819|56=CLIENT55559|45=3|58=Tag appears more than once, field=35|371=35|372=D|373=13|10=082|
8=FIX.4.4|9=60|35=0|34=4|49=SERVER|52=20220421-11:17:48.606|56=CLIENT55559|10=119|
8=FIX.4.4|9=60|35=0|34=4|49=CLIENT55559|52=20220421-11:17:48.609|56=SERVER|10=122|
8=FIX.4.4|9=60|35=0|34=5|49=SERVER|52=20220421-11:17:58.605|56=CLIENT55559|10=120|
8=FIX.4.4|9=60|35=0|34=5|49=CLIENT55559|52=20220421-11:17:58.609|56=SERVER|10=124|
8=FIX.4.4|9=60|35=0|34=6|49=SERVER|52=20220421-11:18:08.604|56=CLIENT55559|10=116|
8=FIX.4.4|9=60|35=0|34=6|49=CLIENT55559|52=20220421-11:18:08.610|56=SERVER|10=113|
8=FIX.4.4|9=60|35=0|34=7|49=SERVER|52=20220421-11:18:18.604|56=CLIENT55559|10=118|
8=FIX.4.4|9=60|35=0|34=7|49=CLIENT55559|52=20220421-11:18:18.607|56=SERVER|10=121|
8=FIX.4.4|9=60|35=0|34=8|49=SERVER|52=20220421-11:18:28.603|56=CLIENT55559|10=119|
8=FIX.4.4|9=69|35=1|34=9|49=SERVER|52=20220421-11:18:34.604|56=CLIENT55559|112=TEST|10=146|
8=FIX.4.4|9=78|35=A|34=1|49=CLIENT55559|52=20220421-11:18:56.593|56=SERVER|98=0|108=10|141=Y|10=215|
8=FIX.4.4|9=78|35=A|34=1|49=SERVER|52=20220421-11:18:56.610|56=CLIENT55559|98=0|108=10|141=Y|10=205|
8=FIX.4.4|9=60|35=0|34=2|49=SERVER|52=20220421-11:19:06.603|56=CLIENT55559|10=110|
8=FIX.4.4|9=69|35=1|34=3|49=SERVER|52=20220421-11:19:12.603|56=CLIENT55559|112=TEST|10=136|
8=FIX.4.4|9=126|35=D|34=3|49=CLIENT55559|52=20220421-11:20:24.167|56=SERVER|11=gYHOZZJ4|35=D|41=|52=2022-04-21T13:16:53.839164500|98=0|108=10|10=009|
8=FIX.4.4|9=72|35=A|34=5|49=CLIENT55559|52=20220421-11:23:34.317|56=SERVER|98=0|108=30|10=156|
8=FIX.4.4|9=72|35=A|34=1|49=SERVER|52=20220421-11:23:34.380|56=CLIENT55559|98=0|108=30|10=152|
8=FIX.4.4|9=78|35=A|34=1|49=CLIENT55559|52=20220421-11:24:05.314|56=SERVER|98=0|108=10|141=Y|10=197|
8=FIX.4.4|9=78|35=A|34=1|49=SERVER|52=20220421-11:24:05.330|56=CLIENT55559|98=0|108=10|141=Y|10=195|
8=FIX.4.4|9=60|35=0|34=2|49=SERVER|52=20220421-11:24:15.600|56=CLIENT55559|10=103|
8=FIX.4.4|9=60|35=0|34=2|49=CLIENT55559|52=20220421-11:24:15.602|56=SERVER|10=105|
8=FIX.4.4|9=126|35=D|34=3|49=CLIENT55559|52=20220421-11:24:21.500|56=SERVER|11=kf5Kcftn|35=D|41=|52=2022-04-21T13:23:34.364899300|98=0|108=10|10=119|
8=FIX.4.4|9=125|35=3|34=3|49=SERVER|52=20220421-11:24:21.502|56=CLIENT55559|45=3|58=Tag appears more than once, field=35|371=35|372=D|373=13|10=062|
8=FIX.4.4|9=69|35=1|34=4|49=SERVER|52=20220421-11:24:31.599|56=CLIENT55559|112=TEST|10=148|
8=FIX.4.4|9=69|35=0|34=4|49=CLIENT55559|52=20220421-11:24:31.601|56=SERVER|112=TEST|10=131|
8=FIX.4.4|9=72|35=A|34=5|49=CLIENT55559|52=20220421-12:53:59.062|56=SERVER|98=0|108=30|10=164|
8=FIX.4.4|9=72|35=A|34=1|49=SERVER|52=20220421-12:53:59.113|56=CLIENT55559|98=0|108=30|10=157|
8=FIX.4.4|9=78|35=A|34=1|49=CLIENT55559|52=20220421-12:54:30.060|56=SERVER|98=0|108=10|141=Y|10=197|
8=FIX.4.4|9=78|35=A|34=1|49=SERVER|52=20220421-12:54:30.079|56=CLIENT55559|98=0|108=10|141=Y|10=207|
8=FIX.4.4|9=60|35=0|34=2|49=SERVER|52=20220421-12:54:40.567|56=CLIENT55559|10=117|
8=FIX.4.4|9=60|35=0|34=2|49=CLIENT55559|52=20220421-12:54:40.572|56=SERVER|10=113|
8=FIX.4.4|9=60|35=0|34=3|49=SERVER|52=20220421-12:54:50.567|56=CLIENT55559|10=119|
8=FIX.4.4|9=60|35=0|34=3|49=CLIENT55559|52=20220421-12:54:50.571|56=SERVER|10=114|
8=FIX.4.4|9=60|35=0|34=4|49=SERVER|52=20220421-12:55:00.565|56=CLIENT55559|10=114|
8=FIX.4.4|9=60|35=0|34=4|49=CLIENT55559|52=20220421-12:55:00.568|56=SERVER|10=117|
8=FIX.4.4|9=60|35=0|34=5|49=SERVER|52=20220421-12:55:10.565|56=CLIENT55559|10=116|
8=FIX.4.4|9=60|35=0|34=5|49=CLIENT55559|52=20220421-12:55:10.569|56=SERVER|10=120|
8=FIX.4.4|9=60|35=0|34=6|49=SERVER|52=20220421-12:55:20.565|56=CLIENT55559|10=118|
8=FIX.4.4|9=60|35=0|34=6|49=CLIENT55559|52=20220421-12:55:20.568|56=SERVER|10=121|
8=FIX.4.4|9=60|35=0|34=7|49=SERVER|52=20220421-12:55:30.564|56=CLIENT55559|10=119|
8=FIX.4.4|9=60|35=0|34=7|49=CLIENT55559|52=20220421-12:55:30.570|56=SERVER|10=116|
8=FIX.4.4|9=60|35=0|34=8|49=SERVER|52=20220421-12:55:40.563|56=CLIENT55559|10=120|
8=FIX.4.4|9=60|35=0|34=8|49=CLIENT55559|52=20220421-12:55:40.566|56=SERVER|10=123|
8=FIX.4.4|9=60|35=0|34=9|49=SERVER|52=20220421-12:55:50.564|56=CLIENT55559|10=123|
8=FIX.4.4|9=60|35=0|34=9|49=CLIENT55559|52=20220421-12:55:50.567|56=SERVER|10=126|
8=FIX.4.4|9=61|35=0|34=10|49=SERVER|52=20220421-12:56:00.564|56=CLIENT55559|10=160|
8=FIX.4.4|9=61|35=0|34=10|49=CLIENT55559|52=20220421-12:56:00.566|56=SERVER|10=162|
8=FIX.4.4|9=61|35=0|34=11|49=SERVER|52=20220421-12:56:10.564|56=CLIENT55559|10=162|
8=FIX.4.4|9=61|35=0|34=11|49=CLIENT55559|52=20220421-12:56:10.566|56=SERVER|10=164|
8=FIX.4.4|9=61|35=0|34=12|49=SERVER|52=20220421-12:56:20.564|56=CLIENT55559|10=164|
8=FIX.4.4|9=61|35=0|34=12|49=CLIENT55559|52=20220421-12:56:20.568|56=SERVER|10=168|
8=FIX.4.4|9=61|35=0|34=13|49=SERVER|52=20220421-12:56:30.562|56=CLIENT55559|10=164|
8=FIX.4.4|9=61|35=0|34=13|49=CLIENT55559|52=20220421-12:56:30.566|56=SERVER|10=168|
8=FIX.4.4|9=61|35=0|34=14|49=SERVER|52=20220421-12:56:40.562|56=CLIENT55559|10=166|
8=FIX.4.4|9=61|35=0|34=14|49=CLIENT55559|52=20220421-12:56:40.564|56=SERVER|10=168|
8=FIX.4.4|9=61|35=0|34=15|49=SERVER|52=20220421-12:56:50.562|56=CLIENT55559|10=168|
8=FIX.4.4|9=61|35=0|34=15|49=CLIENT55559|52=20220421-12:56:50.566|56=SERVER|10=172|
8=FIX.4.4|9=61|35=0|34=16|49=SERVER|52=20220421-12:57:00.563|56=CLIENT55559|10=166|
8=FIX.4.4|9=61|35=0|34=16|49=CLIENT55559|52=20220421-12:57:00.565|56=SERVER|10=168|
8=FIX.4.4|9=61|35=0|34=17|49=SERVER|52=20220421-12:57:10.561|56=CLIENT55559|10=166|
8=FIX.4.4|9=61|35=0|34=17|49=CLIENT55559|52=20220421-12:57:10.564|56=SERVER|10=169|
8=FIX.4.4|9=61|35=0|34=18|49=SERVER|52=20220421-12:57:20.561|56=CLIENT55559|10=168|
8=FIX.4.4|9=61|35=0|34=18|49=CLIENT55559|52=20220421-12:57:20.564|56=SERVER|10=171|
8=FIX.4.4|9=61|35=0|34=19|49=SERVER|52=20220421-12:57:30.560|56=CLIENT55559|10=169|
8=FIX.4.4|9=61|35=0|34=19|49=CLIENT55559|52=20220421-12:57:30.562|56=SERVER|10=171|
8=FIX.4.4|9=61|35=0|34=20|49=SERVER|52=20220421-12:57:40.560|56=CLIENT55559|10=162|
8=FIX.4.4|9=61|35=0|34=20|49=CLIENT55559|52=20220421-12:57:40.562|56=SERVER|10=164|
8=FIX.4.4|9=61|35=0|34=21|49=SERVER|52=20220421-12:57:50.560|56=CLIENT55559|10=164|
8=FIX.4.4|9=61|35=0|34=21|49=CLIENT55559|52=20220421-12:57:50.561|56=SERVER|10=165|
8=FIX.4.4|9=61|35=0|34=22|49=SERVER|52=20220421-12:58:00.560|56=CLIENT55559|10=161|
8=FIX.4.4|9=61|35=0|34=22|49=CLIENT55559|52=20220421-12:58:00.563|56=SERVER|10=164|
8=FIX.4.4|9=61|35=0|34=23|49=SERVER|52=20220421-12:58:10.559|56=CLIENT55559|10=171|
8=FIX.4.4|9=61|35=0|34=23|49=CLIENT55559|52=20220421-12:58:10.563|56=SERVER|10=166|
8=FIX.4.4|9=61|35=0|34=24|49=SERVER|52=20220421-12:58:20.559|56=CLIENT55559|10=173|
8=FIX.4.4|9=61|35=0|34=24|49=CLIENT55559|52=20220421-12:58:20.563|56=SERVER|10=168|
8=FIX.4.4|9=61|35=0|34=25|49=SERVER|52=20220421-12:58:30.559|56=CLIENT55559|10=175|
8=FIX.4.4|9=61|35=0|34=25|49=CLIENT55559|52=20220421-12:58:30.561|56=SERVER|10=168|
8=FIX.4.4|9=61|35=0|34=26|49=SERVER|52=20220421-12:58:40.559|56=CLIENT55559|10=177|
8=FIX.4.4|9=61|35=0|34=26|49=CLIENT55559|52=20220421-12:58:40.561|56=SERVER|10=170|
8=FIX.4.4|9=61|35=0|34=27|49=SERVER|52=20220421-12:58:50.558|56=CLIENT55559|10=178|
8=FIX.4.4|9=61|35=0|34=27|49=CLIENT55559|52=20220421-12:58:50.561|56=SERVER|10=172|
8=FIX.4.4|9=61|35=0|34=28|49=SERVER|52=20220421-12:59:00.558|56=CLIENT55559|10=175|
8=FIX.4.4|9=61|35=0|34=28|49=CLIENT55559|52=20220421-12:59:00.561|56=SERVER|10=169|
8=FIX.4.4|9=61|35=0|34=29|49=SERVER|52=20220421-12:59:10.557|56=CLIENT55559|10=176|
8=FIX.4.4|9=61|35=0|34=29|49=CLIENT55559|52=20220421-12:59:10.561|56=SERVER|10=171|
8=FIX.4.4|9=61|35=0|34=30|49=SERVER|52=20220421-12:59:20.557|56=CLIENT55559|10=169|
8=FIX.4.4|9=61|35=0|34=30|49=CLIENT55559|52=20220421-12:59:20.559|56=SERVER|10=171|
8=FIX.4.4|9=61|35=0|34=31|49=SERVER|52=20220421-12:59:30.557|56=CLIENT55559|10=171|
8=FIX.4.4|9=61|35=0|34=31|49=CLIENT55559|52=20220421-12:59:30.560|56=SERVER|10=165|
8=FIX.4.4|9=61|35=0|34=32|49=SERVER|52=20220421-12:59:40.557|56=CLIENT55559|10=173|
8=FIX.4.4|9=61|35=0|34=32|49=CLIENT55559|52=20220421-12:59:40.559|56=SERVER|10=175|
8=FIX.4.4|9=61|35=0|34=33|49=SERVER|52=20220421-12:59:50.556|56=CLIENT55559|10=174|
8=FIX.4.4|9=61|35=0|34=33|49=CLIENT55559|52=20220421-12:59:50.557|56=SERVER|10=175|
8=FIX.4.4|9=61|35=0|34=34|49=SERVER|52=20220421-13:00:00.556|56=CLIENT55559|10=157|
8=FIX.4.4|9=61|35=0|34=34|49=CLIENT55559|52=20220421-13:00:00.559|56=SERVER|10=160|
8=FIX.4.4|9=122|35=D|34=35|49=CLIENT55559|52=20220421-13:00:03.689|56=SERVER|11=ZmXDQq5f|41=|52=2022-04-21T14:53:59.099865500|98=0|108=10|10=155|
8=FIX.4.4|9=127|35=3|34=35|49=SERVER|52=20220421-13:00:03.691|56=CLIENT55559|45=35|58=Tag appears more than once, field=52|371=52|372=D|373=13|10=173|
8=FIX.4.4|9=61|35=0|34=36|49=CLIENT55559|52=20220421-13:00:14.037|56=SERVER|10=158|
8=FIX.4.4|9=61|35=0|34=36|49=SERVER|52=20220421-13:00:14.043|56=CLIENT55559|10=155|
8=FIX.4.4|9=61|35=0|34=37|49=CLIENT55559|52=20220421-13:00:24.036|56=SERVER|10=159|
8=FIX.4.4|9=61|35=0|34=37|49=SERVER|52=20220421-13:00:24.037|56=CLIENT55559|10=160|
8=FIX.4.4|9=61|35=0|34=38|49=CLIENT55559|52=20220421-13:00:34.036|56=SERVER|10=161|
8=FIX.4.4|9=61|35=0|34=38|49=SERVER|52=20220421-13:00:34.038|56=CLIENT55559|10=163|
8=FIX.4.4|9=61|35=0|34=39|49=SERVER|52=20220421-13:00:44.556|56=CLIENT55559|10=170|
8=FIX.4.4|9=61|35=0|34=39|49=CLIENT55559|52=20220421-13:00:46.605|56=SERVER|10=167|
8=FIX.4.4|9=61|35=0|34=40|49=SERVER|52=20220421-13:00:54.555|56=CLIENT55559|10=162|
8=FIX.4.4|9=70|35=1|34=41|49=SERVER|52=20220421-13:01:02.555|56=CLIENT55559|112=TEST|10=176|
8=FIX.4.4|9=70|35=1|34=40|49=CLIENT55559|52=20220421-13:01:10.978|56=SERVER|112=TEST|10=183|
8=FIX.4.4|9=70|35=0|34=41|49=CLIENT55559|52=20220421-13:01:10.979|56=SERVER|112=TEST|10=184|
8=FIX.4.4|9=70|35=0|34=42|49=SERVER|52=20220421-13:01:10.980|56=CLIENT55559|112=TEST|10=177|
8=FIX.4.4|9=61|35=0|34=43|49=SERVER|52=20220421-13:01:21.555|56=CLIENT55559|10=160|
8=FIX.4.4|9=70|35=1|34=44|49=SERVER|52=20220421-13:01:26.554|56=CLIENT55559|112=TEST|10=184|
8=FIX.4.4|9=78|35=A|34=1|49=CLIENT55559|52=20220421-13:02:43.895|56=SERVER|98=0|108=10|141=Y|10=211|
8=FIX.4.4|9=78|35=A|34=1|49=SERVER|52=20220421-13:02:43.915|56=CLIENT55559|98=0|108=10|141=Y|10=204|
8=FIX.4.4|9=60|35=0|34=2|49=SERVER|52=20220421-13:02:54.553|56=CLIENT55559|10=111|
8=FIX.4.4|9=78|35=A|34=1|49=CLIENT55559|52=20220421-13:03:15.038|56=SERVER|98=0|108=10|141=Y|10=200|
8=FIX.4.4|9=78|35=A|34=1|49=SERVER|52=20220421-13:03:15.055|56=CLIENT55559|98=0|108=10|141=Y|10=199|
8=FIX.4.4|9=122|35=D|34=2|49=CLIENT55559|52=20220421-13:03:17.713|56=SERVER|11=ZmXDQq5f7|41=|52=2022-04-21T14:53:59.099865500|98=0|108=10|10=152|
8=FIX.4.4|9=125|35=3|34=2|49=SERVER|52=20220421-13:03:17.715|56=CLIENT55559|45=2|58=Tag appears more than once, field=52|371=52|372=D|373=13|10=068|
8=FIX.4.4|9=60|35=0|34=3|49=CLIENT55559|52=20220421-13:03:28.033|56=SERVER|10=107|
8=FIX.4.4|9=60|35=0|34=3|49=SERVER|52=20220421-13:03:28.034|56=CLIENT55559|10=108|
8=FIX.4.4|9=60|35=0|34=4|49=CLIENT55559|52=20220421-13:03:38.032|56=SERVER|10=108|
8=FIX.4.4|9=60|35=0|34=4|49=SERVER|52=20220421-13:03:38.036|56=CLIENT55559|10=112|
8=FIX.4.4|9=60|35=0|34=5|49=CLIENT55559|52=20220421-13:03:48.032|56=SERVER|10=110|
8=FIX.4.4|9=60|35=0|34=5|49=SERVER|52=20220421-13:03:48.035|56=CLIENT55559|10=113|
8=FIX.4.4|9=60|35=0|34=6|49=CLIENT55559|52=20220421-13:03:58.031|56=SERVER|10=111|
8=FIX.4.4|9=60|35=0|34=6|49=SERVER|52=20220421-13:03:58.037|56=CLIENT55559|10=117|
8=FIX.4.4|9=60|35=0|34=7|49=CLIENT55559|52=20220421-13:04:08.031|56=SERVER|10=108|
8=FIX.4.4|9=60|35=0|34=7|49=SERVER|52=20220421-13:04:08.034|56=CLIENT55559|10=111|
8=FIX.4.4|9=60|35=0|34=8|49=CLIENT55559|52=20220421-13:04:18.031|56=SERVER|10=110|
8=FIX.4.4|9=60|35=0|34=8|49=SERVER|52=20220421-13:04:18.034|56=CLIENT55559|10=113|
8=FIX.4.4|9=60|35=5|34=9|49=CLIENT55559|52=20220421-13:04:28.031|56=SERVER|10=117|
8=FIX.4.4|9=60|35=5|34=9|49=SERVER|52=20220421-13:04:28.034|56=CLIENT55559|10=120|
8=FIX.4.4|9=73|35=A|34=10|49=CLIENT55559|52=20220421-13:06:01.758|56=SERVER|98=0|108=30|10=207|
8=FIX.4.4|9=72|35=A|34=1|49=SERVER|52=20220421-13:06:01.842|56=CLIENT55559|98=0|108=30|10=152|
8=FIX.4.4|9=78|35=A|34=1|49=CLIENT55559|52=20220421-13:06:32.754|56=SERVER|98=0|108=10|141=Y|10=207|
8=FIX.4.4|9=78|35=A|34=1|49=SERVER|52=20220421-13:06:32.774|56=CLIENT55559|98=0|108=10|141=Y|10=209|
8=FIX.4.4|9=60|35=0|34=2|49=SERVER|52=20220421-13:06:43.549|56=CLIENT55559|10=118|
8=FIX.4.4|9=60|35=0|34=2|49=CLIENT55559|52=20220421-13:06:43.551|56=SERVER|10=111|
8=FIX.4.4|9=60|35=0|34=3|49=SERVER|52=20220421-13:06:53.548|56=CLIENT55559|10=119|
8=FIX.4.4|9=60|35=0|34=3|49=CLIENT55559|52=20220421-13:06:53.550|56=SERVER|10=112|
8=FIX.4.4|9=88|35=D|34=4|49=CLIENT55559|52=20220421-13:06:53.930|56=SERVER|11=18FasOS4|41=|98=0|108=10|10=068|
8=FIX.4.4|9=118|35=3|34=4|49=SERVER|52=20220421-13:06:53.931|56=CLIENT55559|45=4|58=Required tag missing, field=54|371=54|372=D|373=1|10=074|
8=FIX.4.4|9=60|35=0|34=5|49=SERVER|52=20220421-13:07:04.547|56=CLIENT55559|10=117|
8=FIX.4.4|9=60|35=0|34=5|49=CLIENT55559|52=20220421-13:07:04.549|56=SERVER|10=119|
8=FIX.4.4|9=60|35=0|34=6|49=SERVER|52=20220421-13:07:14.549|56=CLIENT55559|10=121|
8=FIX.4.4|9=60|35=0|34=6|49=CLIENT55559|52=20220421-13:07:14.557|56=SERVER|10=120|
8=FIX.4.4|9=60|35=0|34=7|49=SERVER|52=20220421-13:07:24.548|56=CLIENT55559|10=122|
8=FIX.4.4|9=60|35=0|34=7|49=CLIENT55559|52=20220421-13:07:24.550|56=SERVER|10=115|
8=FIX.4.4|9=60|35=0|34=8|49=SERVER|52=20220421-13:07:34.547|56=CLIENT55559|10=123|
8=FIX.4.4|9=60|35=0|34=8|49=CLIENT55559|52=20220421-13:07:34.548|56=SERVER|10=124|
8=FIX.4.4|9=99|35=D|34=9|49=CLIENT55559|52=20220421-13:07:35.450|56=SERVER|11=18FasOS4|41=|44=18|54=1|98=0|108=10|10=048|
8=FIX.4.4|9=118|35=3|34=9|49=SERVER|52=20220421-13:07:35.452|56=CLIENT55559|45=9|58=Required tag missing, field=40|371=40|372=D|373=1|10=073|
8=FIX.4.4|9=61|35=0|34=10|49=SERVER|52=20220421-13:07:45.547|56=CLIENT55559|10=167|
8=FIX.4.4|9=61|35=0|34=10|49=CLIENT55559|52=20220421-13:07:45.550|56=SERVER|10=161|
8=FIX.4.4|9=105|35=D|34=11|49=CLIENT55559|52=20220421-13:07:53.085|56=SERVER|11=18FasOS4|40=2|41=|44=18|54=1|98=0|108=10|10=085|
8=FIX.4.4|9=120|35=3|34=11|49=SERVER|52=20220421-13:07:53.086|56=CLIENT55559|45=11|58=Required tag missing, field=60|371=60|372=D|373=1|10=155|
8=FIX.4.4|9=70|35=1|34=12|49=SERVER|52=20220421-13:08:01.547|56=CLIENT55559|112=TEST|10=181|
8=FIX.4.4|9=70|35=0|34=12|49=CLIENT55559|52=20220421-13:08:01.550|56=SERVER|112=TEST|10=174|
8=FIX.4.4|9=61|35=0|34=13|49=SERVER|52=20220421-13:08:11.547|56=CLIENT55559|10=164|
8=FIX.4.4|9=61|35=0|34=13|49=CLIENT55559|52=20220421-13:08:11.550|56=SERVER|10=158|
8=FIX.4.4|9=61|35=0|34=14|49=SERVER|52=20220421-13:08:21.546|56=CLIENT55559|10=165|
8=FIX.4.4|9=61|35=0|34=14|49=CLIENT55559|52=20220421-13:08:21.549|56=SERVER|10=168|
8=FIX.4.4|9=138|35=D|34=15|49=CLIENT55559|52=20220421-13:08:28.240|56=SERVER|11=18FasOS4|40=2|41=|44=18|54=1|60=2022-04-21T15:06:01.830165200|98=0|108=10|10=210|
8=FIX.4.4|9=129|35=3|34=15|49=SERVER|52=20220421-13:08:28.242|56=CLIENT55559|45=15|58=Tag specified without a value, field=41|371=41|372=D|373=4|10=205|
8=FIX.4.4|9=70|35=1|34=16|49=SERVER|52=20220421-13:08:37.547|56=CLIENT55559|112=TEST|10=194|
8=FIX.4.4|9=70|35=0|34=16|49=CLIENT55559|52=20220421-13:08:37.550|56=SERVER|112=TEST|10=187|
8=FIX.4.4|9=134|35=D|34=17|49=CLIENT55559|52=20220421-13:08:40.745|56=SERVER|11=18FasOS4|40=2|44=18|54=1|60=2022-04-21T15:06:01.830165200|98=0|108=10|10=049|
8=FIX.4.4|9=131|35=3|34=17|49=SERVER|52=20220421-13:08:40.747|56=CLIENT55559|45=17|58=Incorrect data format for value, field=60|371=60|372=D|373=6|10=168|
8=FIX.4.4|9=61|35=0|34=18|49=CLIENT55559|52=20220421-13:08:50.741|56=SERVER|10=168|
8=FIX.4.4|9=61|35=0|34=18|49=SERVER|52=20220421-13:08:50.743|56=CLIENT55559|10=170|
8=FIX.4.4|9=61|35=0|34=19|49=CLIENT55559|52=20220421-13:09:00.741|56=SERVER|10=165|
8=FIX.4.4|9=61|35=0|34=19|49=SERVER|52=20220421-13:09:00.744|56=CLIENT55559|10=168|
8=FIX.4.4|9=61|35=0|34=20|49=CLIENT55559|52=20220421-13:09:10.740|56=SERVER|10=157|
8=FIX.4.4|9=61|35=0|34=20|49=SERVER|52=20220421-13:09:10.743|56=CLIENT55559|10=160|
8=FIX.4.4|9=61|35=0|34=21|49=CLIENT55559|52=20220421-13:09:20.741|56=SERVER|10=160|
8=FIX.4.4|9=61|35=0|34=21|49=SERVER|52=20220421-13:09:20.744|56=CLIENT55559|10=163|
8=FIX.4.4|9=61|35=5|34=22|49=CLIENT55559|52=20220421-13:09:27.741|56=SERVER|10=173|
8=FIX.4.4|9=61|35=5|34=22|49=SERVER|52=20220421-13:09:27.744|56=CLIENT55559|10=176|
8=FIX.4.4|9=73|35=A|34=23|49=CLIENT55559|52=20220421-13:11:16.320|56=SERVER|98=0|108=30|10=198|
8=FIX.4.4|9=72|35=A|34=1|49=SERVER|52=20220421-13:11:16.402|56=CLIENT55559|98=0|108=30|10=146|
8=FIX.4.4|9=78|35=A|34=1|49=CLIENT55559|52=20220421-13:11:47.321|56=SERVER|98=0|108=10|141=Y|10=199|
8=FIX.4.4|9=78|35=A|34=1|49=SERVER|52=20220421-13:11:47.336|56=CLIENT55559|98=0|108=10|141=Y|10=205|
8=FIX.4.4|9=60|35=0|34=2|49=SERVER|52=20220421-13:11:57.543|56=CLIENT55559|10=113|
8=FIX.4.4|9=60|35=0|34=2|49=CLIENT55559|52=20220421-13:11:57.546|56=SERVER|10=116|
8=FIX.4.4|9=60|35=0|34=3|49=SERVER|52=20220421-13:12:07.543|56=CLIENT55559|10=110|
8=FIX.4.4|9=60|35=0|34=3|49=CLIENT55559|52=20220421-13:12:07.546|56=SERVER|10=113|
8=FIX.4.4|9=60|35=0|34=4|49=SERVER|52=20220421-13:12:17.544|56=CLIENT55559|10=113|
8=FIX.4.4|9=60|35=0|34=4|49=CLIENT55559|52=20220421-13:12:17.547|56=SERVER|10=116|
8=FIX.4.4|9=60|35=0|34=5|49=SERVER|52=20220421-13:12:27.543|56=CLIENT55559|10=114|
8=FIX.4.4|9=60|35=0|34=5|49=CLIENT55559|52=20220421-13:12:27.544|56=SERVER|10=115|
8=FIX.4.4|9=119|35=D|34=6|49=CLIENT55559|52=20220421-13:12:35.232|56=SERVER|11=UF6BbBys|44=5|54=1|60=20220421-13:12:35.232|98=0|108=10|10=137|
8=FIX.4.4|9=118|35=3|34=6|49=SERVER|52=20220421-13:12:35.236|56=CLIENT55559|45=6|58=Required tag missing, field=40|371=40|372=D|373=1|10=063|
8=FIX.4.4|9=69|35=1|34=7|49=SERVER|52=20220421-13:12:43.543|56=CLIENT55559|112=TEST|10=142|
8=FIX.4.4|9=69|35=0|34=7|49=CLIENT55559|52=20220421-13:12:43.546|56=SERVER|112=TEST|10=144|
8=FIX.4.4|9=124|35=D|34=8|49=CLIENT55559|52=20220421-13:12:47.765|56=SERVER|11=UF6BbBys|40=2|44=5|54=1|60=20220421-13:12:47.764|98=0|108=10|10=118|
8=FIX.4.4|9=135|35=3|34=8|49=SERVER|52=20220421-13:12:47.766|56=CLIENT55559|45=8|58=Tag not defined for this message type, field=98|371=98|372=D|373=2|10=083|
8=FIX.4.4|9=60|35=0|34=9|49=CLIENT55559|52=20220421-13:12:58.307|56=SERVER|10=120|
8=FIX.4.4|9=60|35=0|34=9|49=SERVER|52=20220421-13:12:58.310|56=CLIENT55559|10=114|
8=FIX.4.4|9=61|35=0|34=10|49=CLIENT55559|52=20220421-13:13:08.306|56=SERVER|10=156|
8=FIX.4.4|9=61|35=0|34=10|49=SERVER|52=20220421-13:13:08.309|56=CLIENT55559|10=159|
8=FIX.4.4|9=127|35=D|34=11|49=CLIENT55559|52=20220421-13:13:12.124|56=SERVER|11=UF6BbBys|40=2|44=5|54=1|60=20220421-13:13:12.124|98=N/A|108=10|10=014|
8=FIX.4.4|9=131|35=3|34=11|49=SERVER|52=20220421-13:13:12.125|56=CLIENT55559|45=11|58=Incorrect data format for value, field=98|371=98|372=D|373=6|10=163|
8=FIX.4.4|9=61|35=0|34=12|49=CLIENT55559|52=20220421-13:13:22.308|56=SERVER|10=156|
8=FIX.4.4|9=61|35=0|34=12|49=SERVER|52=20220421-13:13:22.309|56=CLIENT55559|10=157|
8=FIX.4.4|9=125|35=D|34=13|49=CLIENT55559|52=20220421-13:13:23.767|56=SERVER|11=UF6BbBys|40=2|44=5|54=1|60=20220421-13:13:23.767|98=0|108=10|10=158|
8=FIX.4.4|9=137|35=3|34=13|49=SERVER|52=20220421-13:13:23.768|56=CLIENT55559|45=13|58=Tag not defined for this message type, field=98|371=98|372=D|373=2|10=170|
8=FIX.4.4|9=61|35=0|34=14|49=CLIENT55559|52=20220421-13:13:34.307|56=SERVER|10=160|
8=FIX.4.4|9=61|35=0|34=14|49=SERVER|52=20220421-13:13:34.310|56=CLIENT55559|10=154|
8=FIX.4.4|9=61|35=0|34=15|49=CLIENT55559|52=20220421-13:13:44.307|56=SERVER|10=162|
8=FIX.4.4|9=61|35=0|34=15|49=SERVER|52=20220421-13:13:44.309|56=CLIENT55559|10=164|
8=FIX.4.4|9=61|35=0|34=16|49=CLIENT55559|52=20220421-13:13:54.308|56=SERVER|10=165|
8=FIX.4.4|9=61|35=0|34=16|49=SERVER|52=20220421-13:13:54.311|56=CLIENT55559|10=159|
8=FIX.4.4|9=61|35=0|34=17|49=CLIENT55559|52=20220421-13:14:04.306|56=SERVER|10=160|
8=FIX.4.4|9=61|35=0|34=17|49=SERVER|52=20220421-13:14:04.309|56=CLIENT55559|10=163|
8=FIX.4.4|9=61|35=0|34=18|49=CLIENT55559|52=20220421-13:14:14.306|56=SERVER|10=162|
8=FIX.4.4|9=61|35=0|34=18|49=SERVER|52=20220421-13:14:14.309|56=CLIENT55559|10=165|
8=FIX.4.4|9=61|35=0|34=19|49=CLIENT55559|52=20220421-13:14:24.306|56=SERVER|10=164|
8=FIX.4.4|9=61|35=0|34=19|49=SERVER|52=20220421-13:14:24.307|56=CLIENT55559|10=165|
8=FIX.4.4|9=61|35=0|34=20|49=CLIENT55559|52=20220421-13:14:34.306|56=SERVER|10=157|
8=FIX.4.4|9=61|35=0|34=20|49=SERVER|52=20220421-13:14:34.309|56=CLIENT55559|10=160|
8=FIX.4.4|9=125|35=D|34=21|49=CLIENT55559|52=20220421-13:14:35.739|56=SERVER|11=UF6BbBys|40=2|44=5|54=1|60=20220421-13:14:35.738|98=0|108=10|10=162|
8=FIX.4.4|9=137|35=3|34=21|49=SERVER|52=20220421-13:14:35.740|56=CLIENT55559|45=21|58=Tag not defined for this message type, field=98|371=98|372=D|373=2|10=162|
8=FIX.4.4|9=61|35=0|34=22|49=CLIENT55559|52=20220421-13:14:46.306|56=SERVER|10=162|
8=FIX.4.4|9=61|35=0|34=22|49=SERVER|52=20220421-13:14:46.309|56=CLIENT55559|10=165|
8=FIX.4.4|9=61|35=0|34=23|49=CLIENT55559|52=20220421-13:14:56.306|56=SERVER|10=164|
8=FIX.4.4|9=61|35=0|34=23|49=SERVER|52=20220421-13:14:56.308|56=CLIENT55559|10=166|
8=FIX.4.4|9=61|35=0|34=24|49=CLIENT55559|52=20220421-13:15:06.305|56=SERVER|10=160|
8=FIX.4.4|9=61|35=0|34=24|49=SERVER|52=20220421-13:15:06.309|56=CLIENT55559|10=164|
8=FIX.4.4|9=61|35=0|34=25|49=CLIENT55559|52=20220421-13:15:16.305|56=SERVER|10=162|
8=FIX.4.4|9=61|35=0|34=25|49=SERVER|52=20220421-13:15:16.308|56=CLIENT55559|10=165|
8=FIX.4.4|9=125|35=D|34=26|49=CLIENT55559|52=20220421-13:15:23.370|56=SERVER|11=UF6BbBys|40=2|44=5|54=1|60=20220421-13:15:23.370|98=0|108=10|10=146|
8=FIX.4.4|9=137|35=3|34=26|49=SERVER|52=20220421-13:15:23.371|56=CLIENT55559|45=26|58=Tag not defined for this message type, field=98|371=98|372=D|373=2|10=170|
8=FIX.4.4|9=70|35=1|34=27|49=SERVER|52=20220421-13:15:31.541|56=CLIENT55559|112=TEST|10=182|
8=FIX.4.4|9=70|35=0|34=27|49=CLIENT55559|52=20220421-13:15:31.544|56=SERVER|112=TEST|10=184|
8=FIX.4.4|9=61|35=0|34=28|49=SERVER|52=20220421-13:15:41.541|56=CLIENT55559|10=165|
8=FIX.4.4|9=61|35=0|34=28|49=CLIENT55559|52=20220421-13:15:41.542|56=SERVER|10=166|
8=FIX.4.4|9=61|35=0|34=29|49=SERVER|52=20220421-13:15:51.541|56=CLIENT55559|10=167|
8=FIX.4.4|9=61|35=0|34=29|49=CLIENT55559|52=20220421-13:15:51.544|56=SERVER|10=170|
8=FIX.4.4|9=61|35=0|34=30|49=SERVER|52=20220421-13:16:01.540|56=CLIENT55559|10=154|
8=FIX.4.4|9=61|35=0|34=30|49=CLIENT55559|52=20220421-13:16:01.543|56=SERVER|10=157|
8=FIX.4.4|9=61|35=0|34=31|49=SERVER|52=20220421-13:16:11.540|56=CLIENT55559|10=156|
8=FIX.4.4|9=61|35=0|34=31|49=CLIENT55559|52=20220421-13:16:11.543|56=SERVER|10=159|
8=FIX.4.4|9=61|35=0|34=32|49=SERVER|52=20220421-13:16:21.540|56=CLIENT55559|10=158|
8=FIX.4.4|9=61|35=0|34=32|49=CLIENT55559|52=20220421-13:16:21.542|56=SERVER|10=160|
8=FIX.4.4|9=61|35=0|34=33|49=SERVER|52=20220421-13:16:31.540|56=CLIENT55559|10=160|
8=FIX.4.4|9=61|35=0|34=33|49=CLIENT55559|52=20220421-13:16:31.543|56=SERVER|10=163|
8=FIX.4.4|9=61|35=0|34=34|49=SERVER|52=20220421-13:16:41.541|56=CLIENT55559|10=163|
8=FIX.4.4|9=61|35=0|34=34|49=CLIENT55559|52=20220421-13:16:41.544|56=SERVER|10=166|
8=FIX.4.4|9=61|35=0|34=35|49=SERVER|52=20220421-13:16:51.540|56=CLIENT55559|10=164|
8=FIX.4.4|9=61|35=0|34=35|49=CLIENT55559|52=20220421-13:16:51.543|56=SERVER|10=167|
8=FIX.4.4|9=61|35=0|34=36|49=SERVER|52=20220421-13:17:01.540|56=CLIENT55559|10=161|
8=FIX.4.4|9=61|35=0|34=36|49=CLIENT55559|52=20220421-13:17:01.546|56=SERVER|10=167|
8=FIX.4.4|9=61|35=0|34=37|49=SERVER|52=20220421-13:17:11.540|56=CLIENT55559|10=163|
8=FIX.4.4|9=61|35=0|34=37|49=CLIENT55559|52=20220421-13:17:11.543|56=SERVER|10=166|
8=FIX.4.4|9=61|35=0|34=38|49=SERVER|52=20220421-13:17:21.540|56=CLIENT55559|10=165|
8=FIX.4.4|9=61|35=0|34=38|49=CLIENT55559|52=20220421-13:17:21.543|56=SERVER|10=168|
8=FIX.4.4|9=61|35=0|34=39|49=SERVER|52=20220421-13:17:31.540|56=CLIENT55559|10=167|
8=FIX.4.4|9=61|35=0|34=39|49=CLIENT55559|52=20220421-13:17:31.543|56=SERVER|10=170|
8=FIX.4.4|9=61|35=0|34=40|49=SERVER|52=20220421-13:17:41.540|56=CLIENT55559|10=160|
8=FIX.4.4|9=61|35=0|34=40|49=CLIENT55559|52=20220421-13:17:41.543|56=SERVER|10=163|
8=FIX.4.4|9=61|35=0|34=41|49=SERVER|52=20220421-13:17:51.540|56=CLIENT55559|10=162|
8=FIX.4.4|9=61|35=0|34=41|49=CLIENT55559|52=20220421-13:17:51.543|56=SERVER|10=165|
8=FIX.4.4|9=61|35=0|34=42|49=SERVER|52=20220421-13:18:01.540|56=CLIENT55559|10=159|
8=FIX.4.4|9=61|35=0|34=42|49=CLIENT55559|52=20220421-13:18:01.543|56=SERVER|10=162|
8=FIX.4.4|9=61|35=0|34=43|49=SERVER|52=20220421-13:18:11.539|56=CLIENT55559|10=169|
8=FIX.4.4|9=61|35=0|34=43|49=CLIENT55559|52=20220421-13:18:11.542|56=SERVER|10=163|
8=FIX.4.4|9=61|35=0|34=44|49=SERVER|52=20220421-13:18:21.540|56=CLIENT55559|10=163|
8=FIX.4.4|9=61|35=0|34=44|49=CLIENT55559|52=20220421-13:18:21.543|56=SERVER|10=166|
8=FIX.4.4|9=61|35=0|34=45|49=SERVER|52=20220421-13:18:31.540|56=CLIENT55559|10=165|
8=FIX.4.4|9=61|35=0|34=45|49=CLIENT55559|52=20220421-13:18:31.542|56=SERVER|10=167|
8=FIX.4.4|9=61|35=0|34=46|49=SERVER|52=20220421-13:18:41.540|56=CLIENT55559|10=167|
8=FIX.4.4|9=61|35=0|34=46|49=CLIENT55559|52=20220421-13:18:41.543|56=SERVER|10=170|
8=FIX.4.4|9=61|35=0|34=47|49=SERVER|52=20220421-13:18:51.539|56=CLIENT55559|10=177|
8=FIX.4.4|9=61|35=0|34=47|49=CLIENT55559|52=20220421-13:18:51.542|56=SERVER|10=171|
8=FIX.4.4|9=61|35=0|34=48|49=SERVER|52=20220421-13:19:01.539|56=CLIENT55559|10=174|
8=FIX.4.4|9=61|35=0|34=48|49=CLIENT55559|52=20220421-13:19:01.542|56=SERVER|10=168|
8=FIX.4.4|9=125|35=D|34=49|49=CLIENT55559|52=20220421-13:19:05.321|56=SERVER|11=UF6BbBys|40=2|44=5|54=1|60=20220421-13:19:05.321|98=0|108=10|10=151|
8=FIX.4.4|9=137|35=3|34=49|49=SERVER|52=20220421-13:19:05.324|56=CLIENT55559|45=49|58=Tag not defined for this message type, field=98|371=98|372=D|373=2|10=182|
8=FIX.4.4|9=61|35=0|34=50|49=SERVER|52=20220421-13:19:15.539|56=CLIENT55559|10=172|
8=FIX.4.4|9=61|35=0|34=50|49=CLIENT55559|52=20220421-13:19:15.541|56=SERVER|10=165|
8=FIX.4.4|9=61|35=0|34=51|49=SERVER|52=20220421-13:19:25.539|56=CLIENT55559|10=174|
8=FIX.4.4|9=61|35=0|34=51|49=CLIENT55559|52=20220421-13:19:25.542|56=SERVER|10=168|
8=FIX.4.4|9=61|35=0|34=52|49=SERVER|52=20220421-13:19:35.539|56=CLIENT55559|10=176|
8=FIX.4.4|9=61|35=0|34=52|49=CLIENT55559|52=20220421-13:19:35.542|56=SERVER|10=170|
8=FIX.4.4|9=61|35=0|34=53|49=SERVER|52=20220421-13:19:45.539|56=CLIENT55559|10=178|
8=FIX.4.4|9=61|35=0|34=53|49=CLIENT55559|52=20220421-13:19:45.541|56=SERVER|10=171|
8=FIX.4.4|9=61|35=0|34=54|49=SERVER|52=20220421-13:19:55.539|56=CLIENT55559|10=180|
8=FIX.4.4|9=61|35=0|34=54|49=CLIENT55559|52=20220421-13:19:55.541|56=SERVER|10=173|
8=FIX.4.4|9=61|35=0|34=55|49=SERVER|52=20220421-13:20:05.538|56=CLIENT55559|10=167|
8=FIX.4.4|9=61|35=0|34=55|49=CLIENT55559|52=20220421-13:20:05.541|56=SERVER|10=161|
8=FIX.4.4|9=61|35=0|34=56|49=SERVER|52=20220421-13:20:15.538|56=CLIENT55559|10=169|
8=FIX.4.4|9=61|35=0|34=56|49=CLIENT55559|52=20220421-13:20:15.541|56=SERVER|10=163|
8=FIX.4.4|9=61|35=0|34=57|49=SERVER|52=20220421-13:20:25.540|56=CLIENT55559|10=164|
8=FIX.4.4|9=61|35=0|34=57|49=CLIENT55559|52=20220421-13:20:25.542|56=SERVER|10=166|
8=FIX.4.4|9=61|35=0|34=58|49=SERVER|52=20220421-13:20:35.539|56=CLIENT55559|10=174|
8=FIX.4.4|9=61|35=0|34=58|49=CLIENT55559|52=20220421-13:20:35.542|56=SERVER|10=168|
8=FIX.4.4|9=61|35=0|34=59|49=SERVER|52=20220421-13:20:45.538|56=CLIENT55559|10=175|
8=FIX.4.4|9=61|35=0|34=59|49=CLIENT55559|52=20220421-13:20:45.541|56=SERVER|10=169|
8=FIX.4.4|9=61|35=0|34=60|49=SERVER|52=20220421-13:20:55.538|56=CLIENT55559|10=168|
8=FIX.4.4|9=61|35=0|34=60|49=CLIENT55559|52=20220421-13:20:55.541|56=SERVER|10=162|
8=FIX.4.4|9=61|35=0|34=61|49=SERVER|52=20220421-13:21:05.538|56=CLIENT55559|10=165|
8=FIX.4.4|9=61|35=0|34=61|49=CLIENT55559|52=20220421-13:21:05.540|56=SERVER|10=158|
8=FIX.4.4|9=61|35=0|34=62|49=SERVER|52=20220421-13:21:15.538|56=CLIENT55559|10=167|
8=FIX.4.4|9=61|35=0|34=62|49=CLIENT55559|52=20220421-13:21:15.541|56=SERVER|10=161|
8=FIX.4.4|9=61|35=0|34=63|49=SERVER|52=20220421-13:21:25.539|56=CLIENT55559|10=170|
8=FIX.4.4|9=61|35=0|34=63|49=CLIENT55559|52=20220421-13:21:25.541|56=SERVER|10=163|
8=FIX.4.4|9=61|35=0|34=64|49=SERVER|52=20220421-13:21:35.538|56=CLIENT55559|10=171|
8=FIX.4.4|9=61|35=0|34=64|49=CLIENT55559|52=20220421-13:21:35.541|56=SERVER|10=165|
8=FIX.4.4|9=61|35=0|34=65|49=SERVER|52=20220421-13:21:45.538|56=CLIENT55559|10=173|
8=FIX.4.4|9=61|35=0|34=65|49=CLIENT55559|52=20220421-13:21:45.541|56=SERVER|10=167|
8=FIX.4.4|9=61|35=0|34=66|49=SERVER|52=20220421-13:21:55.539|56=CLIENT55559|10=176|
8=FIX.4.4|9=61|35=0|34=66|49=CLIENT55559|52=20220421-13:21:55.542|56=SERVER|10=170|
8=FIX.4.4|9=61|35=0|34=67|49=SERVER|52=20220421-13:22:05.538|56=CLIENT55559|10=172|
8=FIX.4.4|9=61|35=0|34=67|49=CLIENT55559|52=20220421-13:22:05.540|56=SERVER|10=165|
8=FIX.4.4|9=61|35=0|34=68|49=SERVER|52=20220421-13:22:15.538|56=CLIENT55559|10=174|
8=FIX.4.4|9=61|35=0|34=68|49=CLIENT55559|52=20220421-13:22:15.541|56=SERVER|10=168|
8=FIX.4.4|9=61|35=0|34=69|49=SERVER|52=20220421-13:22:25.538|56=CLIENT55559|10=176|
8=FIX.4.4|9=61|35=0|34=69|49=CLIENT55559|52=20220421-13:22:25.540|56=SERVER|10=169|
8=FIX.4.4|9=61|35=0|34=70|49=SERVER|52=20220421-13:22:35.538|56=CLIENT55559|10=169|
8=FIX.4.4|9=61|35=0|34=70|49=CLIENT55559|52=20220421-13:22:35.541|56=SERVER|10=163|
8=FIX.4.4|9=61|35=0|34=71|49=SERVER|52=20220421-13:22:45.538|56=CLIENT55559|10=171|
8=FIX.4.4|9=61|35=0|34=71|49=CLIENT55559|52=20220421-13:22:45.541|56=SERVER|10=165|
8=FIX.4.4|9=61|35=0|34=72|49=SERVER|52=20220421-13:22:55.538|56=CLIENT55559|10=173|
8=FIX.4.4|9=61|35=0|34=72|49=CLIENT55559|52=20220421-13:22:55.541|56=SERVER|10=167|
8=FIX.4.4|9=61|35=0|34=73|49=SERVER|52=20220421-13:23:05.538|56=CLIENT55559|10=170|
8=FIX.4.4|9=61|35=0|34=73|49=CLIENT55559|52=20220421-13:23:05.540|56=SERVER|10=163|
8=FIX.4.4|9=61|35=0|34=74|49=SERVER|52=20220421-13:23:15.538|56=CLIENT55559|10=172|
8=FIX.4.4|9=61|35=0|34=74|49=CLIENT55559|52=20220421-13:23:15.540|56=SERVER|10=165|
8=FIX.4.4|9=61|35=0|34=75|49=SERVER|52=20220421-13:23:25.538|56=CLIENT55559|10=174|
8=FIX.4.4|9=61|35=0|34=75|49=CLIENT55559|52=20220421-13:23:25.540|56=SERVER|10=167|
8=FIX.4.4|9=61|35=0|34=76|49=SERVER|52=20220421-13:23:35.537|56=CLIENT55559|10=175|
8=FIX.4.4|9=61|35=0|34=76|49=CLIENT55559|52=20220421-13:23:35.539|56=SERVER|10=177|
8=FIX.4.4|9=61|35=0|34=77|49=SERVER|52=20220421-13:23:45.537|56=CLIENT55559|10=177|
8=FIX.4.4|9=61|35=0|34=77|49=CLIENT55559|52=20220421-13:23:45.540|56=SERVER|10=171|
8=FIX.4.4|9=61|35=0|34=78|49=SERVER|52=20220421-13:23:55.537|56=CLIENT55559|10=179|
8=FIX.4.4|9=61|35=0|34=78|49=CLIENT55559|52=20220421-13:23:55.539|56=SERVER|10=181|
8=FIX.4.4|9=61|35=0|34=79|49=SERVER|52=20220421-13:24:05.538|56=CLIENT55559|10=177|
8=FIX.4.4|9=61|35=0|34=79|49=CLIENT55559|52=20220421-13:24:05.541|56=SERVER|10=171|
8=FIX.4.4|9=61|35=0|34=80|49=SERVER|52=20220421-13:24:15.538|56=CLIENT55559|10=170|
8=FIX.4.4|9=61|35=0|34=80|49=CLIENT55559|52=20220421-13:24:15.540|56=SERVER|10=163|
8=FIX.4.4|9=61|35=0|34=81|49=SERVER|52=20220421-13:24:25.537|56=CLIENT55559|10=171|
8=FIX.4.4|9=61|35=0|34=81|49=CLIENT55559|52=20220421-13:24:25.539|56=SERVER|10=173|
8=FIX.4.4|9=61|35=0|34=82|49=SERVER|52=20220421-13:24:35.537|56=CLIENT55559|10=173|
8=FIX.4.4|9=61|35=0|34=82|49=CLIENT55559|52=20220421-13:24:35.540|56=SERVER|10=167|
8=FIX.4.4|9=61|35=0|34=83|49=SERVER|52=20220421-13:24:45.537|56=CLIENT55559|10=175|
8=FIX.4.4|9=61|35=0|34=83|49=CLIENT55559|52=20220421-13:24:45.539|56=SERVER|10=177|
8=FIX.4.4|9=61|35=0|34=84|49=SERVER|52=20220421-13:24:55.538|56=CLIENT55559|10=178|
8=FIX.4.4|9=61|35=0|34=84|49=CLIENT55559|52=20220421-13:24:55.540|56=SERVER|10=171|
8=FIX.4.4|9=61|35=0|34=85|49=SERVER|52=20220421-13:25:05.537|56=CLIENT55559|10=174|
8=FIX.4.4|9=61|35=0|34=85|49=CLIENT55559|52=20220421-13:25:05.540|56=SERVER|10=168|
8=FIX.4.4|9=61|35=0|34=86|49=SERVER|52=20220421-13:25:15.537|56=CLIENT55559|10=176|
8=FIX.4.4|9=61|35=0|34=86|49=CLIENT55559|52=20220421-13:25:15.540|56=SERVER|10=170|
8=FIX.4.4|9=61|35=0|34=87|49=SERVER|52=20220421-13:25:25.537|56=CLIENT55559|10=178|
8=FIX.4.4|9=61|35=0|34=87|49=CLIENT55559|52=20220421-13:25:25.539|56=SERVER|10=180|
8=FIX.4.4|9=61|35=0|34=88|49=SERVER|52=20220421-13:25:35.537|56=CLIENT55559|10=180|
8=FIX.4.4|9=61|35=0|34=88|49=CLIENT55559|52=20220421-13:25:35.539|56=SERVER|10=182|
8=FIX.4.4|9=61|35=0|34=89|49=SERVER|52=20220421-13:25:45.536|56=CLIENT55559|10=181|
8=FIX.4.4|9=61|35=0|34=89|49=CLIENT55559|52=20220421-13:25:45.538|56=SERVER|10=183|
8=FIX.4.4|9=61|35=0|34=90|49=SERVER|52=20220421-13:25:55.537|56=CLIENT55559|10=175|
8=FIX.4.4|9=61|35=0|34=90|49=CLIENT55559|52=20220421-13:25:55.540|56=SERVER|10=169|
8=FIX.4.4|9=61|35=0|34=91|49=SERVER|52=20220421-13:26:05.538|56=CLIENT55559|10=173|
8=FIX.4.4|9=61|35=0|34=91|49=CLIENT55559|52=20220421-13:26:05.540|56=SERVER|10=166|
8=FIX.4.4|9=61|35=0|34=92|49=SERVER|52=20220421-13:26:15.536|56=CLIENT55559|10=173|
8=FIX.4.4|9=61|35=0|34=92|49=CLIENT55559|52=20220421-13:26:15.539|56=SERVER|10=176|
8=FIX.4.4|9=61|35=0|34=93|49=SERVER|52=20220421-13:26:25.537|56=CLIENT55559|10=176|
8=FIX.4.4|9=61|35=0|34=93|49=CLIENT55559|52=20220421-13:26:25.540|56=SERVER|10=170|
8=FIX.4.4|9=61|35=0|34=94|49=SERVER|52=20220421-13:26:35.537|56=CLIENT55559|10=178|
8=FIX.4.4|9=61|35=0|34=94|49=CLIENT55559|52=20220421-13:26:35.540|56=SERVER|10=172|
8=FIX.4.4|9=61|35=0|34=95|49=SERVER|52=20220421-13:26:45.536|56=CLIENT55559|10=179|
8=FIX.4.4|9=61|35=0|34=95|49=CLIENT55559|52=20220421-13:26:45.539|56=SERVER|10=182|
8=FIX.4.4|9=61|35=0|34=96|49=SERVER|52=20220421-13:26:55.536|56=CLIENT55559|10=181|
8=FIX.4.4|9=61|35=0|34=96|49=CLIENT55559|52=20220421-13:26:55.539|56=SERVER|10=184|
8=FIX.4.4|9=61|35=0|34=97|49=SERVER|52=20220421-13:27:05.538|56=CLIENT55559|10=180|
8=FIX.4.4|9=61|35=0|34=97|49=CLIENT55559|52=20220421-13:27:05.540|56=SERVER|10=173|
8=FIX.4.4|9=61|35=0|34=98|49=SERVER|52=20220421-13:27:15.536|56=CLIENT55559|10=180|
8=FIX.4.4|9=61|35=0|34=98|49=CLIENT55559|52=20220421-13:27:15.538|56=SERVER|10=182|
8=FIX.4.4|9=61|35=0|34=99|49=SERVER|52=20220421-13:27:25.537|56=CLIENT55559|10=183|
8=FIX.4.4|9=61|35=0|34=99|49=CLIENT55559|52=20220421-13:27:25.539|56=SERVER|10=185|
8=FIX.4.4|9=126|35=D|34=100|49=CLIENT55559|52=20220421-13:27:33.656|56=SERVER|11=UF6BbBys|40=2|44=5|54=1|60=20220421-13:27:33.656|98=0|108=10|10=210|
8=FIX.4.4|9=139|35=3|34=100|49=SERVER|52=20220421-13:27:33.658|56=CLIENT55559|45=100|58=Tag not defined for this message type, field=98|371=98|372=D|373=2|10=010|
8=FIX.4.4|9=71|35=1|34=101|49=SERVER|52=20220421-13:27:41.536|56=CLIENT55559|112=TEST|10=232|
8=FIX.4.4|9=71|35=0|34=101|49=CLIENT55559|52=20220421-13:27:41.538|56=SERVER|112=TEST|10=233|
8=FIX.4.4|9=62|35=0|34=102|49=SERVER|52=20220421-13:27:51.537|56=CLIENT55559|10=216|
8=FIX.4.4|9=62|35=0|34=102|49=CLIENT55559|52=20220421-13:27:51.540|56=SERVER|10=210|
8=FIX.4.4|9=62|35=0|34=103|49=SERVER|52=20220421-13:28:01.536|56=CLIENT55559|10=212|
8=FIX.4.4|9=62|35=0|34=103|49=CLIENT55559|52=20220421-13:28:01.539|56=SERVER|10=215|
8=FIX.4.4|9=62|35=0|34=104|49=SERVER|52=20220421-13:28:11.537|56=CLIENT55559|10=215|
8=FIX.4.4|9=62|35=0|34=104|49=CLIENT55559|52=20220421-13:28:11.539|56=SERVER|10=217|
8=FIX.4.4|9=62|35=0|34=105|49=SERVER|52=20220421-13:28:21.536|56=CLIENT55559|10=216|
8=FIX.4.4|9=62|35=0|34=105|49=CLIENT55559|52=20220421-13:28:21.538|56=SERVER|10=218|
8=FIX.4.4|9=62|35=0|34=106|49=SERVER|52=20220421-13:28:31.536|56=CLIENT55559|10=218|
8=FIX.4.4|9=62|35=0|34=106|49=CLIENT55559|52=20220421-13:28:31.538|56=SERVER|10=220|
8=FIX.4.4|9=62|35=0|34=107|49=SERVER|52=20220421-13:28:41.536|56=CLIENT55559|10=220|
8=FIX.4.4|9=62|35=0|34=107|49=CLIENT55559|52=20220421-13:28:41.538|56=SERVER|10=222|
8=FIX.4.4|9=62|35=0|34=108|49=SERVER|52=20220421-13:28:51.536|56=CLIENT55559|10=222|
8=FIX.4.4|9=62|35=0|34=108|49=CLIENT55559|52=20220421-13:28:51.538|56=SERVER|10=224|
8=FIX.4.4|9=62|35=0|34=109|49=SERVER|52=20220421-13:29:01.536|56=CLIENT55559|10=219|
8=FIX.4.4|9=62|35=0|34=109|49=CLIENT55559|52=20220421-13:29:01.539|56=SERVER|10=222|
8=FIX.4.4|9=62|35=0|34=110|49=SERVER|52=20220421-13:29:11.536|56=CLIENT55559|10=212|
8=FIX.4.4|9=62|35=0|34=110|49=CLIENT55559|52=20220421-13:29:11.539|56=SERVER|10=215|
8=FIX.4.4|9=62|35=0|34=111|49=SERVER|52=20220421-13:29:21.536|56=CLIENT55559|10=214|
8=FIX.4.4|9=62|35=0|34=111|49=CLIENT55559|52=20220421-13:29:21.538|56=SERVER|10=216|
8=FIX.4.4|9=62|35=0|34=112|49=SERVER|52=20220421-13:29:31.536|56=CLIENT55559|10=216|
8=FIX.4.4|9=62|35=0|34=112|49=CLIENT55559|52=20220421-13:29:31.538|56=SERVER|10=218|
8=FIX.4.4|9=62|35=0|34=113|49=SERVER|52=20220421-13:29:41.536|56=CLIENT55559|10=218|
8=FIX.4.4|9=62|35=0|34=113|49=CLIENT55559|52=20220421-13:29:41.539|56=SERVER|10=221|
8=FIX.4.4|9=62|35=0|34=114|49=SERVER|52=20220421-13:29:51.535|56=CLIENT55559|10=219|
8=FIX.4.4|9=62|35=0|34=114|49=CLIENT55559|52=20220421-13:29:51.537|56=SERVER|10=221|
8=FIX.4.4|9=62|35=0|34=115|49=SERVER|52=20220421-13:30:01.536|56=CLIENT55559|10=208|
8=FIX.4.4|9=62|35=0|34=115|49=CLIENT55559|52=20220421-13:30:01.539|56=SERVER|10=211|
8=FIX.4.4|9=62|35=0|34=116|49=SERVER|52=20220421-13:30:11.536|56=CLIENT55559|10=210|
8=FIX.4.4|9=62|35=0|34=116|49=CLIENT55559|52=20220421-13:30:11.539|56=SERVER|10=213|
8=FIX.4.4|9=62|35=0|34=117|49=SERVER|52=20220421-13:30:21.536|56=CLIENT55559|10=212|
8=FIX.4.4|9=62|35=0|34=117|49=CLIENT55559|52=20220421-13:30:21.538|56=SERVER|10=214|
8=FIX.4.4|9=62|35=0|34=118|49=SERVER|52=20220421-13:30:31.536|56=CLIENT55559|10=214|
8=FIX.4.4|9=62|35=0|34=118|49=CLIENT55559|52=20220421-13:30:31.538|56=SERVER|10=216|
8=FIX.4.4|9=62|35=0|34=119|49=SERVER|52=20220421-13:30:41.535|56=CLIENT55559|10=215|
8=FIX.4.4|9=62|35=0|34=119|49=CLIENT55559|52=20220421-13:30:41.537|56=SERVER|10=217|
8=FIX.4.4|9=62|35=0|34=120|49=SERVER|52=20220421-13:30:51.536|56=CLIENT55559|10=209|
8=FIX.4.4|9=62|35=0|34=120|49=CLIENT55559|52=20220421-13:30:51.538|56=SERVER|10=211|
8=FIX.4.4|9=62|35=0|34=121|49=SERVER|52=20220421-13:31:01.535|56=CLIENT55559|10=205|
8=FIX.4.4|9=62|35=0|34=121|49=CLIENT55559|52=20220421-13:31:01.538|56=SERVER|10=208|
8=FIX.4.4|9=62|35=0|34=122|49=SERVER|52=20220421-13:31:11.537|56=CLIENT55559|10=209|
8=FIX.4.4|9=62|35=0|34=122|49=CLIENT55559|52=20220421-13:31:11.539|56=SERVER|10=211|
8=FIX.4.4|9=62|35=0|34=123|49=SERVER|52=20220421-13:31:21.535|56=CLIENT55559|10=209|
8=FIX.4.4|9=62|35=0|34=123|49=CLIENT55559|52=20220421-13:31:21.538|56=SERVER|10=212|
8=FIX.4.4|9=62|35=0|34=124|49=SERVER|52=20220421-13:31:31.536|56=CLIENT55559|10=212|
8=FIX.4.4|9=62|35=0|34=124|49=CLIENT55559|52=20220421-13:31:31.539|56=SERVER|10=215|
8=FIX.4.4|9=62|35=0|34=125|49=SERVER|52=20220421-13:31:41.535|56=CLIENT55559|10=213|
8=FIX.4.4|9=62|35=0|34=125|49=CLIENT55559|52=20220421-13:31:41.538|56=SERVER|10=216|
8=FIX.4.4|9=62|35=0|34=126|49=SERVER|52=20220421-13:31:51.535|56=CLIENT55559|10=215|
8=FIX.4.4|9=62|35=0|34=126|49=CLIENT55559|52=20220421-13:31:51.537|56=SERVER|10=217|
8=FIX.4.4|9=62|35=0|34=127|49=SERVER|52=20220421-13:32:01.535|56=CLIENT55559|10=212|
8=FIX.4.4|9=62|35=0|34=127|49=CLIENT55559|52=20220421-13:32:01.537|56=SERVER|10=214|
8=FIX.4.4|9=126|35=D|34=128|49=CLIENT55559|52=20220421-13:32:01.865|56=SERVER|11=UF6BbBys|40=2|44=5|54=1|60=20220421-13:32:01.865|98=0|108=10|10=206|
8=FIX.4.4|9=139|35=3|34=128|49=SERVER|52=20220421-13:32:01.867|56=CLIENT55559|45=128|58=Tag not defined for this message type, field=98|371=98|372=D|373=2|10=023|
8=FIX.4.4|9=62|35=0|34=129|49=CLIENT55559|52=20220421-13:32:12.301|56=SERVER|10=207|
8=FIX.4.4|9=62|35=0|34=129|49=SERVER|52=20220421-13:32:12.302|56=CLIENT55559|10=208|
8=FIX.4.4|9=62|35=0|34=130|49=SERVER|52=20220421-13:32:22.536|56=CLIENT55559|10=210|
8=FIX.4.4|9=71|35=1|34=131|49=SERVER|52=20220421-13:32:27.535|56=CLIENT55559|112=TEST|10=234|
8=FIX.4.4|9=78|35=A|34=1|49=CLIENT55559|52=20220421-13:33:10.855|56=SERVER|98=0|108=10|141=Y|10=205|
8=FIX.4.4|9=78|35=A|34=1|49=SERVER|52=20220421-13:33:10.873|56=CLIENT55559|98=0|108=10|141=Y|10=205|
8=FIX.4.4|9=72|35=A|34=2|49=CLIENT55559|52=20220421-13:49:35.147|56=SERVER|98=0|108=30|10=165|
8=FIX.4.4|9=72|35=A|34=1|49=SERVER|52=20220421-13:49:35.288|56=CLIENT55559|98=0|108=30|10=170|
8=FIX.4.4|9=78|35=A|34=1|49=CLIENT55559|52=20220421-13:50:06.150|56=SERVER|98=0|108=10|141=Y|10=197|
8=FIX.4.4|9=78|35=A|34=1|49=SERVER|52=20220421-13:50:06.171|56=CLIENT55559|98=0|108=10|141=Y|10=200|
8=FIX.4.4|9=60|35=0|34=2|49=SERVER|52=20220421-13:50:16.532|56=CLIENT55559|10=109|
8=FIX.4.4|9=60|35=0|34=2|49=CLIENT55559|52=20220421-13:50:16.536|56=SERVER|10=113|
8=FIX.4.4|9=60|35=0|34=3|49=SERVER|52=20220421-13:50:26.533|56=CLIENT55559|10=112|
8=FIX.4.4|9=60|35=0|34=3|49=CLIENT55559|52=20220421-13:50:26.534|56=SERVER|10=113|
8=FIX.4.4|9=60|35=0|34=4|49=SERVER|52=20220421-13:50:36.533|56=CLIENT55559|10=114|
8=FIX.4.4|9=60|35=0|34=4|49=CLIENT55559|52=20220421-13:50:36.535|56=SERVER|10=116|
8=FIX.4.4|9=60|35=0|34=5|49=SERVER|52=20220421-13:50:46.533|56=CLIENT55559|10=116|
8=FIX.4.4|9=69|35=1|34=6|49=SERVER|52=20220421-13:50:52.532|56=CLIENT55559|112=TEST|10=141|
8=FIX.4.4|9=60|35=0|34=5|49=CLIENT55559|52=20220421-13:50:48.824|56=SERVER|10=121|
8=FIX.4.4|9=69|35=0|34=6|49=CLIENT55559|52=20220421-13:50:52.694|56=SERVER|112=TEST|10=149|
8=FIX.4.4|9=60|35=0|34=7|49=SERVER|52=20220421-13:51:02.532|56=CLIENT55559|10=110|
8=FIX.4.4|9=69|35=1|34=8|49=SERVER|52=20220421-13:51:08.532|56=CLIENT55559|112=TEST|10=145|
8=FIX.4.4|9=69|35=1|34=7|49=CLIENT55559|52=20220421-13:51:13.785|56=SERVER|112=TEST|10=150|
8=FIX.4.4|9=69|35=0|34=8|49=CLIENT55559|52=20220421-13:51:13.790|56=SERVER|112=TEST|10=146|
8=FIX.4.4|9=69|35=0|34=9|49=SERVER|52=20220421-13:51:13.790|56=CLIENT55559|112=TEST|10=147|
8=FIX.4.4|9=60|35=0|34=9|49=CLIENT55559|52=20220421-13:51:24.130|56=SERVER|10=110|
8=FIX.4.4|9=61|35=0|34=10|49=SERVER|52=20220421-13:51:24.133|56=CLIENT55559|10=154|
8=FIX.4.4|9=61|35=0|34=10|49=CLIENT55559|52=20220421-13:51:34.130|56=SERVER|10=152|
8=FIX.4.4|9=61|35=0|34=11|49=SERVER|52=20220421-13:51:34.131|56=CLIENT55559|10=154|
8=FIX.4.4|9=61|35=0|34=11|49=CLIENT55559|52=20220421-13:51:44.131|56=SERVER|10=155|
8=FIX.4.4|9=61|35=0|34=12|49=SERVER|52=20220421-13:51:44.132|56=CLIENT55559|10=157|
8=FIX.4.4|9=61|35=0|34=12|49=CLIENT55559|52=20220421-13:51:54.130|56=SERVER|10=156|
8=FIX.4.4|9=61|35=0|34=13|49=SERVER|52=20220421-13:51:54.133|56=CLIENT55559|10=160|
8=FIX.4.4|9=61|35=0|34=13|49=CLIENT55559|52=20220421-13:52:04.131|56=SERVER|10=154|
8=FIX.4.4|9=61|35=0|34=14|49=SERVER|52=20220421-13:52:04.133|56=CLIENT55559|10=157|
8=FIX.4.4|9=130|35=D|34=14|49=CLIENT55559|52=20220421-13:52:11.022|56=SERVER|11=YQ6wVzMg|21=3|38=5|40=2|44=5|54=1|55=N/A|60=20220421-13:52:11.022|10=180|
8=FIX.4.4|9=143|35=8|34=15|49=SERVER|52=20220421-13:52:11.026|56=CLIENT55559|6=5|11=YQ6wVzMg|14=5|17=0000|31=5|37=0000|38=5|39=A|54=1|55=N/A|150=A|151=5|192=5|10=172|
8=FIX.4.4|9=145|35=8|34=16|49=SERVER|52=20220421-13:52:11.027|56=CLIENT55559|6=5|11=YQ6wVzMg|14=5|17=GT5L0|31=5|37=xpSey|38=5|39=0|54=1|55=N/A|150=0|151=5|192=5|10=115|
8=FIX.4.4|9=61|35=0|34=15|49=CLIENT55559|52=20220421-13:52:21.130|56=SERVER|10=154|
8=FIX.4.4|9=61|35=0|34=17|49=SERVER|52=20220421-13:52:21.133|56=CLIENT55559|10=159|
8=FIX.4.4|9=61|35=0|34=16|49=CLIENT55559|52=20220421-13:52:31.130|56=SERVER|10=156|
8=FIX.4.4|9=61|35=0|34=18|49=SERVER|52=20220421-13:52:31.133|56=CLIENT55559|10=161|
8=FIX.4.4|9=61|35=0|34=17|49=CLIENT55559|52=20220421-13:52:41.130|56=SERVER|10=158|
8=FIX.4.4|9=61|35=0|34=19|49=SERVER|52=20220421-13:52:41.134|56=CLIENT55559|10=164|
8=FIX.4.4|9=61|35=0|34=18|49=CLIENT55559|52=20220421-13:52:51.131|56=SERVER|10=161|
8=FIX.4.4|9=61|35=0|34=20|49=SERVER|52=20220421-13:52:51.133|56=CLIENT55559|10=156|
8=FIX.4.4|9=61|35=0|34=19|49=CLIENT55559|52=20220421-13:53:01.131|56=SERVER|10=158|
8=FIX.4.4|9=61|35=0|34=21|49=SERVER|52=20220421-13:53:01.133|56=CLIENT55559|10=153|
8=FIX.4.4|9=61|35=0|34=20|49=CLIENT55559|52=20220421-13:53:11.130|56=SERVER|10=150|
8=FIX.4.4|9=61|35=0|34=22|49=SERVER|52=20220421-13:53:11.133|56=CLIENT55559|10=155|
8=FIX.4.4|9=61|35=0|34=21|49=CLIENT55559|52=20220421-13:53:21.131|56=SERVER|10=153|
8=FIX.4.4|9=61|35=0|34=23|49=SERVER|52=20220421-13:53:21.134|56=CLIENT55559|10=158|
8=FIX.4.4|9=61|35=0|34=22|49=CLIENT55559|52=20220421-13:53:31.130|56=SERVER|10=154|
8=FIX.4.4|9=61|35=0|34=24|49=SERVER|52=20220421-13:53:31.133|56=CLIENT55559|10=159|
8=FIX.4.4|9=61|35=0|34=23|49=CLIENT55559|52=20220421-13:53:41.130|56=SERVER|10=156|
8=FIX.4.4|9=61|35=0|34=25|49=SERVER|52=20220421-13:53:41.133|56=CLIENT55559|10=161|
8=FIX.4.4|9=61|35=0|34=24|49=CLIENT55559|52=20220421-13:53:51.130|56=SERVER|10=158|
8=FIX.4.4|9=61|35=0|34=26|49=SERVER|52=20220421-13:53:51.133|56=CLIENT55559|10=163|
8=FIX.4.4|9=61|35=0|34=25|49=CLIENT55559|52=20220421-13:54:01.130|56=SERVER|10=155|
8=FIX.4.4|9=61|35=0|34=27|49=SERVER|52=20220421-13:54:01.133|56=CLIENT55559|10=160|
8=FIX.4.4|9=61|35=0|34=26|49=CLIENT55559|52=20220421-13:54:11.131|56=SERVER|10=158|
8=FIX.4.4|9=61|35=0|34=28|49=SERVER|52=20220421-13:54:11.134|56=CLIENT55559|10=163|
8=FIX.4.4|9=61|35=0|34=27|49=CLIENT55559|52=20220421-13:54:21.130|56=SERVER|10=159|
8=FIX.4.4|9=61|35=0|34=29|49=SERVER|52=20220421-13:54:21.131|56=CLIENT55559|10=162|
8=FIX.4.4|9=131|35=D|34=28|49=CLIENT55559|52=20220421-13:54:26.724|56=SERVER|11=YQ6wVzMg6|21=3|38=5|40=2|44=5|54=1|55=N/A|60=20220421-13:54:26.724|10=018|
8=FIX.4.4|9=144|35=8|34=30|49=SERVER|52=20220421-13:54:26.727|56=CLIENT55559|6=5|11=YQ6wVzMg6|14=5|17=0000|31=5|37=0000|38=5|39=A|54=1|55=N/A|150=A|151=5|192=5|10=240|
8=FIX.4.4|9=146|35=8|34=31|49=SERVER|52=20220421-13:54:26.728|56=CLIENT55559|6=5|11=YQ6wVzMg6|14=5|17=nLzqF|31=5|37=QbRw5|38=5|39=0|54=1|55=N/A|150=0|151=5|192=5|10=238|
8=FIX.4.4|9=61|35=0|34=29|49=CLIENT55559|52=20220421-13:54:37.131|56=SERVER|10=169|
8=FIX.4.4|9=61|35=0|34=32|49=SERVER|52=20220421-13:54:37.133|56=CLIENT55559|10=165|
8=FIX.4.4|9=61|35=0|34=30|49=CLIENT55559|52=20220421-13:54:47.131|56=SERVER|10=162|
8=FIX.4.4|9=61|35=0|34=33|49=SERVER|52=20220421-13:54:47.133|56=CLIENT55559|10=167|
8=FIX.4.4|9=61|35=5|34=31|49=CLIENT55559|52=20220421-13:54:55.130|56=SERVER|10=166|
8=FIX.4.4|9=61|35=5|34=34|49=SERVER|52=20220421-13:54:55.131|56=CLIENT55559|10=170|
8=FIX.4.4|9=73|35=A|34=32|49=CLIENT55559|52=20220421-14:04:18.193|56=SERVER|98=0|108=30|10=211|
8=FIX.4.4|9=72|35=A|34=1|49=SERVER|52=20220421-14:04:18.244|56=CLIENT55559|98=0|108=30|10=155|
8=FIX.4.4|9=78|35=A|34=1|49=CLIENT55559|52=20220421-14:04:49.193|56=SERVER|98=0|108=10|141=Y|10=211|
8=FIX.4.4|9=78|35=A|34=1|49=SERVER|52=20220421-14:04:49.208|56=CLIENT55559|98=0|108=10|141=Y|10=208|
8=FIX.4.4|9=60|35=0|34=2|49=SERVER|52=20220421-14:04:59.520|56=CLIENT55559|10=113|
8=FIX.4.4|9=60|35=0|34=2|49=CLIENT55559|52=20220421-14:04:59.525|56=SERVER|10=118|
8=FIX.4.4|9=60|35=0|34=3|49=SERVER|52=20220421-14:05:09.521|56=CLIENT55559|10=111|
8=FIX.4.4|9=60|35=0|34=3|49=CLIENT55559|52=20220421-14:05:09.524|56=SERVER|10=114|
8=FIX.4.4|9=60|35=0|34=4|49=SERVER|52=20220421-14:05:19.519|56=CLIENT55559|10=120|
8=FIX.4.4|9=60|35=0|34=4|49=CLIENT55559|52=20220421-14:05:19.522|56=SERVER|10=114|
8=FIX.4.4|9=60|35=0|34=5|49=SERVER|52=20220421-14:05:29.520|56=CLIENT55559|10=114|
8=FIX.4.4|9=60|35=0|34=5|49=CLIENT55559|52=20220421-14:05:29.523|56=SERVER|10=117|
8=FIX.4.4|9=60|35=0|34=6|49=SERVER|52=20220421-14:05:39.520|56=CLIENT55559|10=116|
8=FIX.4.4|9=60|35=0|34=6|49=CLIENT55559|52=20220421-14:05:39.523|56=SERVER|10=119|
8=FIX.4.4|9=60|35=5|34=7|49=CLIENT55559|52=20220421-14:05:46.178|56=SERVER|10=129|
8=FIX.4.4|9=60|35=5|34=7|49=SERVER|52=20220421-14:05:46.182|56=CLIENT55559|10=124|
8=FIX.4.4|9=72|35=A|34=8|49=CLIENT55559|52=20220421-14:08:41.582|56=SERVER|98=0|108=30|10=167|
8=FIX.4.4|9=72|35=A|34=1|49=SERVER|52=20220421-14:08:41.638|56=CLIENT55559|98=0|108=30|10=162|
8=FIX.4.4|9=78|35=A|34=1|49=CLIENT55559|52=20220421-14:09:12.582|56=SERVER|98=0|108=10|141=Y|10=208|
8=FIX.4.4|9=78|35=A|34=1|49=SERVER|52=20220421-14:09:12.597|56=CLIENT55559|98=0|108=10|141=Y|10=214|
8=FIX.4.4|9=60|35=0|34=2|49=SERVER|52=20220421-14:09:23.515|56=CLIENT55559|10=113|
8=FIX.4.4|9=60|35=0|34=2|49=CLIENT55559|52=20220421-14:09:23.517|56=SERVER|10=115|
8=FIX.4.4|9=60|35=0|34=3|49=SERVER|52=20220421-14:09:33.514|56=CLIENT55559|10=114|
8=FIX.4.4|9=60|35=0|34=3|49=CLIENT55559|52=20220421-14:09:33.515|56=SERVER|10=115|
8=FIX.4.4|9=60|35=0|34=4|49=SERVER|52=20220421-14:09:43.514|56=CLIENT55559|10=116|
8=FIX.4.4|9=60|35=0|34=4|49=CLIENT55559|52=20220421-14:09:43.516|56=SERVER|10=118|
8=FIX.4.4|9=60|35=0|34=5|49=SERVER|52=20220421-14:09:53.514|56=CLIENT55559|10=118|
8=FIX.4.4|9=60|35=0|34=5|49=CLIENT55559|52=20220421-14:09:57.150|56=SERVER|10=118|
8=FIX.4.4|9=60|35=0|34=6|49=SERVER|52=20220421-14:10:03.515|56=CLIENT55559|10=107|
8=FIX.4.4|9=60|35=0|34=6|49=CLIENT55559|52=20220421-14:10:07.993|56=SERVER|10=121|
8=FIX.4.4|9=60|35=0|34=7|49=SERVER|52=20220421-14:10:13.515|56=CLIENT55559|10=109|
8=FIX.4.4|9=69|35=1|34=8|49=SERVER|52=20220421-14:10:23.513|56=CLIENT55559|112=TEST|10=137|
8=FIX.4.4|9=78|35=A|34=1|49=CLIENT55559|52=20220421-14:10:34.573|56=SERVER|98=0|108=10|141=Y|10=204|
8=FIX.4.4|9=78|35=A|34=1|49=SERVER|52=20220421-14:10:34.588|56=CLIENT55559|98=0|108=10|141=Y|10=210|
8=FIX.4.4|9=60|35=0|34=2|49=SERVER|52=20220421-14:10:45.513|56=CLIENT55559|10=107|
8=FIX.4.4|9=69|35=1|34=3|49=SERVER|52=20220421-14:10:50.514|56=CLIENT55559|112=TEST|10=133|
8=FIX.4.4|9=78|35=A|34=1|49=CLIENT55559|52=20220421-14:11:39.806|56=SERVER|98=0|108=10|141=Y|10=209|
8=FIX.4.4|9=78|35=A|34=1|49=SERVER|52=20220421-14:11:39.821|56=CLIENT55559|98=0|108=10|141=Y|10=206|
8=FIX.4.4|9=72|35=A|34=2|49=CLIENT55559|52=20220421-14:12:19.814|56=SERVER|98=0|108=30|10=159|
8=FIX.4.4|9=72|35=A|34=1|49=SERVER|52=20220421-14:12:19.862|56=CLIENT55559|98=0|108=30|10=161|
8=FIX.4.4|9=78|35=A|34=1|49=CLIENT55559|52=20220421-14:12:50.814|56=SERVER|98=0|108=10|141=Y|10=202|
8=FIX.4.4|9=78|35=A|34=1|49=SERVER|52=20220421-14:12:50.830|56=CLIENT55559|98=0|108=10|141=Y|10=200|
8=FIX.4.4|9=60|35=0|34=2|49=SERVER|52=20220421-14:13:01.511|56=CLIENT55559|10=100|
8=FIX.4.4|9=69|35=1|34=3|49=SERVER|52=20220421-14:13:06.511|56=CLIENT55559|112=TEST|10=134|
8=FIX.4.4|9=60|35=0|34=2|49=CLIENT55559|52=20220421-14:13:08.366|56=SERVER|10=115|
8=FIX.4.4|9=69|35=0|34=3|49=CLIENT55559|52=20220421-14:13:09.106|56=SERVER|112=TEST|10=136|
8=FIX.4.4|9=60|35=0|34=4|49=SERVER|52=20220421-14:13:16.511|56=CLIENT55559|10=108|
8=FIX.4.4|9=88|35=D|34=4|49=CLIENT55559|52=20220421-14:13:20.091|56=SERVER|11=aAgtQYzM|41=|98=0|108=10|10=208|
8=FIX.4.4|9=118|35=3|34=5|49=SERVER|52=20220421-14:13:20.094|56=CLIENT55559|45=4|58=Required tag missing, field=54|371=54|372=D|373=1|10=068|
8=FIX.4.4|9=69|35=1|34=6|49=SERVER|52=20220421-14:13:24.510|56=CLIENT55559|112=TEST|10=136|
8=FIX.4.4|9=69|35=0|34=5|49=CLIENT55559|52=20220421-14:13:25.703|56=SERVER|112=TEST|10=139|
8=FIX.4.4|9=60|35=0|34=7|49=SERVER|52=20220421-14:13:34.510|56=CLIENT55559|10=110|
8=FIX.4.4|9=60|35=0|34=6|49=CLIENT55559|52=20220421-14:13:37.413|56=SERVER|10=114|
8=FIX.4.4|9=60|35=0|34=8|49=SERVER|52=20220421-14:13:44.511|56=CLIENT55559|10=113|
8=FIX.4.4|9=60|35=0|34=7|49=CLIENT55559|52=20220421-14:13:47.802|56=SERVER|10=118|
8=FIX.4.4|9=88|35=D|34=8|49=CLIENT55559|52=20220421-14:13:49.494|56=SERVER|11=aAgtQYzM|41=|98=0|108=10|10=230|
8=FIX.4.4|9=118|35=3|34=9|49=SERVER|52=20220421-14:13:49.496|56=CLIENT55559|45=8|58=Required tag missing, field=54|371=54|372=D|373=1|10=093|
8=FIX.4.4|9=61|35=0|34=10|49=SERVER|52=20220421-14:13:59.509|56=CLIENT55559|10=168|
8=FIX.4.4|9=60|35=0|34=9|49=CLIENT55559|52=20220421-14:13:59.513|56=SERVER|10=122|
8=FIX.4.4|9=61|35=0|34=11|49=SERVER|52=20220421-14:14:09.510|56=CLIENT55559|10=157|
8=FIX.4.4|9=61|35=0|34=10|49=CLIENT55559|52=20220421-14:14:09.514|56=SERVER|10=160|
8=FIX.4.4|9=94|35=D|34=11|49=CLIENT55559|52=20220421-14:14:15.796|56=SERVER|11=aAgtQYzM|41=|54=1|98=0|108=10|10=228|
8=FIX.4.4|9=120|35=3|34=12|49=SERVER|52=20220421-14:14:15.798|56=CLIENT55559|45=11|58=Required tag missing, field=40|371=40|372=D|373=1|10=159|
8=FIX.4.4|9=70|35=1|34=13|49=SERVER|52=20220421-14:14:25.509|56=CLIENT55559|112=TEST|10=184|
8=FIX.4.4|9=70|35=0|34=12|49=CLIENT55559|52=20220421-14:14:25.512|56=SERVER|112=TEST|10=176|
8=FIX.4.4|9=61|35=0|34=14|49=SERVER|52=20220421-14:14:35.509|56=CLIENT55559|10=167|
8=FIX.4.4|9=61|35=0|34=13|49=CLIENT55559|52=20220421-14:14:35.513|56=SERVER|10=161|
8=FIX.4.4|9=61|35=0|34=15|49=SERVER|52=20220421-14:14:45.509|56=CLIENT55559|10=169|
8=FIX.4.4|9=61|35=0|34=14|49=CLIENT55559|52=20220421-14:14:45.511|56=SERVER|10=161|
8=FIX.4.4|9=99|35=D|34=15|49=CLIENT55559|52=20220421-14:14:54.112|56=SERVER|11=aAgtQYzM|40=2|41=|54=1|98=0|108=10|10=178|
