8=FIX.4.4|9=72|35=A|34=1|49=CLIENT55559|52=20220419-14:31:24.949|56=SERVER|98=0|108=30|10=171|
8=FIX.4.4|9=72|35=A|34=1|49=SERVER|52=20220419-14:31:24.986|56=CLIENT55559|98=0|108=30|10=172|
8=FIX.4.4|9=78|35=A|34=1|49=CLIENT55559|52=20220419-14:31:55.944|56=SERVER|98=0|108=30|141=Y|10=221|
8=FIX.4.4|9=78|35=A|34=1|49=SERVER|52=20220419-14:31:55.962|56=CLIENT55559|98=0|108=30|141=Y|10=221|
8=FIX.4.4|9=129|35=D|34=2|49=CLIENT55559|52=20220419-14:32:02.707|56=SERVER|11=dTepx0zd|21=3|38=6|40=2|44=6|54=1|55=N/A|60=20220419-14:32:02.707|10=227|
8=FIX.4.4|9=142|35=8|34=2|49=SERVER|52=20220419-14:32:02.711|56=CLIENT55559|6=6|11=dTepx0zd|14=6|17=0000|31=6|37=0000|38=6|39=A|54=1|55=N/A|150=A|151=6|192=6|10=188|
8=FIX.4.4|9=144|35=8|34=3|49=SERVER|52=20220419-14:32:02.712|56=CLIENT55559|6=6|11=dTepx0zd|14=6|17=O3ill|31=6|37=yLWAP|38=6|39=0|54=1|55=N/A|150=0|151=6|192=6|10=142|
8=FIX.4.4|9=129|35=D|34=3|49=CLIENT55559|52=20220419-14:32:30.520|56=SERVER|11=FEgQXbpI|21=3|38=6|40=2|44=6|54=2|55=N/A|60=20220419-14:32:30.520|10=124|
8=FIX.4.4|9=142|35=8|34=4|49=SERVER|52=20220419-14:32:30.546|56=CLIENT55559|6=6|11=FEgQXbpI|14=6|17=0000|31=6|37=0000|38=6|39=A|54=2|55=N/A|150=A|151=6|192=6|10=105|
8=FIX.4.4|9=144|35=8|34=5|49=SERVER|52=20220419-14:32:30.549|56=CLIENT55559|6=6|11=FEgQXbpI|14=6|17=9qwDF|31=6|37=SYZ67|38=6|39=0|54=2|55=N/A|150=0|151=6|192=6|10=235|
8=FIX.4.4|9=144|35=8|34=6|49=SERVER|52=20220419-14:32:30.549|56=CLIENT55559|6=6|11=FEgQXbpI|14=6|17=9qwDF|31=6|37=SYZ67|38=6|39=2|54=2|55=N/A|150=F|151=6|192=6|10=004|
8=FIX.4.4|9=60|35=0|34=7|49=SERVER|52=20220419-14:33:00.609|56=CLIENT55559|10=121|
8=FIX.4.4|9=60|35=0|34=4|49=CLIENT55559|52=20220419-14:33:00.612|56=SERVER|10=112|
8=FIX.4.4|9=60|35=0|34=8|49=SERVER|52=20220419-14:33:30.610|56=CLIENT55559|10=117|
8=FIX.4.4|9=60|35=0|34=5|49=CLIENT55559|52=20220419-14:33:30.612|56=SERVER|10=116|
8=FIX.4.4|9=60|35=0|34=9|49=SERVER|52=20220419-14:34:00.610|56=CLIENT55559|10=116|
8=FIX.4.4|9=60|35=0|34=6|49=CLIENT55559|52=20220419-14:34:00.611|56=SERVER|10=114|
8=FIX.4.4|9=61|35=0|34=10|49=SERVER|52=20220419-14:34:30.609|56=CLIENT55559|10=168|
8=FIX.4.4|9=60|35=0|34=7|49=CLIENT55559|52=20220419-14:34:30.610|56=SERVER|10=117|
8=FIX.4.4|9=61|35=0|34=11|49=SERVER|52=20220419-14:35:00.609|56=CLIENT55559|10=167|
8=FIX.4.4|9=60|35=0|34=8|49=CLIENT55559|52=20220419-14:35:00.611|56=SERVER|10=117|
8=FIX.4.4|9=61|35=0|34=12|49=SERVER|52=20220419-14:35:30.609|56=CLIENT55559|10=171|
8=FIX.4.4|9=60|35=0|34=9|49=CLIENT55559|52=20220419-14:35:30.611|56=SERVER|10=121|
8=FIX.4.4|9=61|35=0|34=13|49=SERVER|52=20220419-14:36:00.611|56=CLIENT55559|10=163|
8=FIX.4.4|9=61|35=0|34=10|49=CLIENT55559|52=20220419-14:36:00.612|56=SERVER|10=161|
8=FIX.4.4|9=61|35=0|34=14|49=SERVER|52=20220419-14:36:30.621|56=CLIENT55559|10=168|
8=FIX.4.4|9=61|35=0|34=11|49=CLIENT55559|52=20220419-14:36:30.625|56=SERVER|10=169|
8=FIX.4.4|9=61|35=0|34=15|49=SERVER|52=20220419-14:37:00.614|56=CLIENT55559|10=169|
8=FIX.4.4|9=61|35=0|34=12|49=CLIENT55559|52=20220419-14:37:00.616|56=SERVER|10=168|
8=FIX.4.4|9=61|35=0|34=16|49=SERVER|52=20220419-14:37:30.620|56=CLIENT55559|10=170|
8=FIX.4.4|9=61|35=0|34=13|49=CLIENT55559|52=20220419-14:37:30.623|56=SERVER|10=170|
8=FIX.4.4|9=61|35=0|34=17|49=SERVER|52=20220419-14:38:00.616|56=CLIENT55559|10=174|
8=FIX.4.4|9=61|35=0|34=14|49=CLIENT55559|52=20220419-14:38:00.617|56=SERVER|10=172|
8=FIX.4.4|9=61|35=0|34=18|49=SERVER|52=20220419-14:38:30.608|56=CLIENT55559|10=179|
8=FIX.4.4|9=61|35=0|34=15|49=CLIENT55559|52=20220419-14:38:30.611|56=SERVER|10=170|
8=FIX.4.4|9=61|35=0|34=19|49=SERVER|52=20220419-14:39:00.622|56=CLIENT55559|10=174|
8=FIX.4.4|9=61|35=0|34=16|49=CLIENT55559|52=20220419-14:39:00.624|56=SERVER|10=173|
8=FIX.4.4|9=61|35=0|34=20|49=SERVER|52=20220419-14:39:30.616|56=CLIENT55559|10=172|
8=FIX.4.4|9=61|35=0|34=17|49=CLIENT55559|52=20220419-14:39:30.619|56=SERVER|10=181|
8=FIX.4.4|9=61|35=0|34=21|49=SERVER|52=20220419-14:40:00.615|56=CLIENT55559|10=161|
8=FIX.4.4|9=61|35=0|34=18|49=CLIENT55559|52=20220419-14:40:00.618|56=SERVER|10=170|
8=FIX.4.4|9=61|35=0|34=22|49=SERVER|52=20220419-14:40:30.609|56=CLIENT55559|10=168|
8=FIX.4.4|9=61|35=0|34=19|49=CLIENT55559|52=20220419-14:40:30.612|56=SERVER|10=168|
8=FIX.4.4|9=61|35=0|34=23|49=SERVER|52=20220419-14:41:00.620|56=CLIENT55559|10=160|
8=FIX.4.4|9=61|35=0|34=20|49=CLIENT55559|52=20220419-14:41:00.622|56=SERVER|10=159|
8=FIX.4.4|9=61|35=0|34=24|49=SERVER|52=20220419-14:41:30.611|56=CLIENT55559|10=164|
8=FIX.4.4|9=61|35=0|34=21|49=CLIENT55559|52=20220419-14:41:30.614|56=SERVER|10=164|
8=FIX.4.4|9=61|35=0|34=25|49=SERVER|52=20220419-14:42:00.609|56=CLIENT55559|10=170|
8=FIX.4.4|9=61|35=0|34=22|49=CLIENT55559|52=20220419-14:42:00.610|56=SERVER|10=159|
8=FIX.4.4|9=61|35=0|34=26|49=SERVER|52=20220419-14:42:30.614|56=CLIENT55559|10=170|
8=FIX.4.4|9=61|35=0|34=23|49=CLIENT55559|52=20220419-14:42:30.616|56=SERVER|10=169|
8=FIX.4.4|9=61|35=0|34=27|49=SERVER|52=20220419-14:43:00.612|56=CLIENT55559|10=167|
8=FIX.4.4|9=61|35=0|34=24|49=CLIENT55559|52=20220419-14:43:00.613|56=SERVER|10=165|
8=FIX.4.4|9=61|35=0|34=28|49=SERVER|52=20220419-14:43:30.617|56=CLIENT55559|10=176|
8=FIX.4.4|9=61|35=0|34=25|49=CLIENT55559|52=20220419-14:43:30.619|56=SERVER|10=175|
8=FIX.4.4|9=61|35=0|34=29|49=SERVER|52=20220419-14:44:00.622|56=CLIENT55559|10=171|
8=FIX.4.4|9=61|35=0|34=26|49=CLIENT55559|52=20220419-14:44:00.625|56=SERVER|10=171|
8=FIX.4.4|9=61|35=0|34=30|49=SERVER|52=20220419-14:44:30.616|56=CLIENT55559|10=169|
8=FIX.4.4|9=61|35=0|34=27|49=CLIENT55559|52=20220419-14:44:30.619|56=SERVER|10=178|
8=FIX.4.4|9=61|35=0|34=31|49=SERVER|52=20220419-14:45:00.623|56=CLIENT55559|10=166|
8=FIX.4.4|9=61|35=0|34=28|49=CLIENT55559|52=20220419-14:45:00.624|56=SERVER|10=173|
8=FIX.4.4|9=61|35=0|34=32|49=SERVER|52=20220419-14:45:30.618|56=CLIENT55559|10=174|
8=FIX.4.4|9=61|35=0|34=29|49=CLIENT55559|52=20220419-14:45:30.620|56=SERVER|10=173|
8=FIX.4.4|9=61|35=0|34=33|49=SERVER|52=20220419-14:46:00.618|56=CLIENT55559|10=173|
8=FIX.4.4|9=61|35=0|34=30|49=CLIENT55559|52=20220419-14:46:00.620|56=SERVER|10=163|
8=FIX.4.4|9=61|35=0|34=34|49=SERVER|52=20220419-14:46:30.615|56=CLIENT55559|10=174|
8=FIX.4.4|9=61|35=0|34=31|49=CLIENT55559|52=20220419-14:46:30.618|56=SERVER|10=174|
8=FIX.4.4|9=61|35=0|34=35|49=SERVER|52=20220419-14:47:00.612|56=CLIENT55559|10=170|
8=FIX.4.4|9=61|35=0|34=32|49=CLIENT55559|52=20220419-14:47:00.614|56=SERVER|10=169|
8=FIX.4.4|9=61|35=0|34=36|49=SERVER|52=20220419-14:47:30.613|56=CLIENT55559|10=175|
8=FIX.4.4|9=61|35=0|34=33|49=CLIENT55559|52=20220419-14:47:30.616|56=SERVER|10=175|
8=FIX.4.4|9=61|35=0|34=37|49=SERVER|52=20220419-14:48:00.618|56=CLIENT55559|10=179|
8=FIX.4.4|9=61|35=0|34=34|49=CLIENT55559|52=20220419-14:48:00.620|56=SERVER|10=169|
8=FIX.4.4|9=61|35=0|34=38|49=SERVER|52=20220419-14:48:30.617|56=CLIENT55559|10=182|
8=FIX.4.4|9=61|35=0|34=35|49=CLIENT55559|52=20220419-14:48:30.618|56=SERVER|10=180|
8=FIX.4.4|9=61|35=0|34=39|49=SERVER|52=20220419-14:49:00.612|56=CLIENT55559|10=176|
8=FIX.4.4|9=61|35=0|34=36|49=CLIENT55559|52=20220419-14:49:00.614|56=SERVER|10=175|
8=FIX.4.4|9=61|35=0|34=40|49=SERVER|52=20220419-14:49:30.610|56=CLIENT55559|10=169|
8=FIX.4.4|9=61|35=0|34=37|49=CLIENT55559|52=20220419-14:49:30.613|56=SERVER|10=178|
8=FIX.4.4|9=61|35=0|34=41|49=SERVER|52=20220419-14:50:00.610|56=CLIENT55559|10=159|
8=FIX.4.4|9=61|35=0|34=38|49=CLIENT55559|52=20220419-14:50:00.612|56=SERVER|10=167|
8=FIX.4.4|9=61|35=0|34=42|49=SERVER|52=20220419-14:50:30.619|56=CLIENT55559|10=172|
8=FIX.4.4|9=61|35=0|34=39|49=CLIENT55559|52=20220419-14:50:30.620|56=SERVER|10=170|
8=FIX.4.4|9=61|35=0|34=43|49=SERVER|52=20220419-14:51:00.610|56=CLIENT55559|10=162|
8=FIX.4.4|9=61|35=0|34=40|49=CLIENT55559|52=20220419-14:51:00.613|56=SERVER|10=162|
8=FIX.4.4|9=61|35=0|34=44|49=SERVER|52=20220419-14:51:30.615|56=CLIENT55559|10=171|
8=FIX.4.4|9=61|35=0|34=41|49=CLIENT55559|52=20220419-14:51:30.617|56=SERVER|10=170|
8=FIX.4.4|9=61|35=0|34=45|49=SERVER|52=20220419-14:52:00.610|56=CLIENT55559|10=165|
8=FIX.4.4|9=61|35=0|34=42|49=CLIENT55559|52=20220419-14:52:00.613|56=SERVER|10=165|
8=FIX.4.4|9=61|35=0|34=46|49=SERVER|52=20220419-14:52:30.608|56=CLIENT55559|10=176|
8=FIX.4.4|9=61|35=0|34=43|49=CLIENT55559|52=20220419-14:52:30.617|56=SERVER|10=173|
8=FIX.4.4|9=61|35=0|34=47|49=SERVER|52=20220419-14:53:00.619|56=CLIENT55559|10=177|
8=FIX.4.4|9=61|35=0|34=44|49=CLIENT55559|52=20220419-14:53:00.620|56=SERVER|10=166|
8=FIX.4.4|9=61|35=0|34=48|49=SERVER|52=20220419-14:53:30.616|56=CLIENT55559|10=178|
8=FIX.4.4|9=61|35=0|34=45|49=CLIENT55559|52=20220419-14:53:30.618|56=SERVER|10=177|
8=FIX.4.4|9=61|35=0|34=49|49=SERVER|52=20220419-14:54:00.611|56=CLIENT55559|10=172|
8=FIX.4.4|9=61|35=0|34=46|49=CLIENT55559|52=20220419-14:54:00.614|56=SERVER|10=172|
8=FIX.4.4|9=61|35=0|34=50|49=SERVER|52=20220419-14:54:30.622|56=CLIENT55559|10=169|
8=FIX.4.4|9=61|35=0|34=47|49=CLIENT55559|52=20220419-14:54:30.623|56=SERVER|10=176|
8=FIX.4.4|9=61|35=0|34=48|49=CLIENT55559|52=20220419-14:55:00.936|56=SERVER|10=182|
8=FIX.4.4|9=61|35=0|34=51|49=SERVER|52=20220419-14:55:00.939|56=CLIENT55559|10=179|
8=FIX.4.4|9=61|35=0|34=49|49=CLIENT55559|52=20220419-14:55:30.934|56=SERVER|10=184|
8=FIX.4.4|9=61|35=0|34=52|49=SERVER|52=20220419-14:55:30.936|56=CLIENT55559|10=180|
8=FIX.4.4|9=73|35=A|34=50|49=CLIENT55559|52=20220419-15:28:29.801|56=SERVER|98=0|108=30|10=223|
8=FIX.4.4|9=72|35=A|34=1|49=SERVER|52=20220419-15:28:29.888|56=CLIENT55559|98=0|108=30|10=185|
8=FIX.4.4|9=78|35=A|34=1|49=CLIENT55559|52=20220419-15:29:00.799|56=SERVER|98=0|108=30|141=Y|10=227|
8=FIX.4.4|9=78|35=A|34=1|49=SERVER|52=20220419-15:29:00.818|56=CLIENT55559|98=0|108=30|141=Y|10=219|
8=FIX.4.4|9=129|35=D|34=2|49=CLIENT55559|52=20220419-15:29:06.143|56=SERVER|11=v7TOFrCh|21=3|38=6|40=2|44=6|54=1|55=N/A|60=20220419-15:29:06.143|10=141|
8=FIX.4.4|9=142|35=8|34=2|49=SERVER|52=20220419-15:29:06.199|56=CLIENT55559|6=6|11=v7TOFrCh|14=6|17=0000|31=6|37=0000|38=6|39=A|54=1|55=N/A|150=A|151=6|192=6|10=113|
8=FIX.4.4|9=144|35=8|34=3|49=SERVER|52=20220419-15:29:06.200|56=CLIENT55559|6=6|11=v7TOFrCh|14=6|17=aDnXm|31=6|37=MMgX1|38=6|39=0|54=1|55=N/A|150=0|151=6|192=6|10=035|
8=FIX.4.4|9=60|35=0|34=4|49=SERVER|52=20220419-15:29:36.592|56=CLIENT55559|10=134|
8=FIX.4.4|9=60|35=0|34=3|49=CLIENT55559|52=20220419-15:29:36.597|56=SERVER|10=138|
8=FIX.4.4|9=60|35=0|34=5|49=SERVER|52=20220419-15:30:06.589|56=CLIENT55559|10=130|
8=FIX.4.4|9=60|35=0|34=4|49=CLIENT55559|52=20220419-15:30:06.596|56=SERVER|10=127|
8=FIX.4.4|9=60|35=0|34=6|49=SERVER|52=20220419-15:30:36.590|56=CLIENT55559|10=126|
8=FIX.4.4|9=60|35=0|34=5|49=CLIENT55559|52=20220419-15:30:36.592|56=SERVER|10=127|
8=FIX.4.4|9=60|35=0|34=7|49=SERVER|52=20220419-15:31:06.589|56=CLIENT55559|10=133|
8=FIX.4.4|9=60|35=0|34=6|49=CLIENT55559|52=20220419-15:31:06.594|56=SERVER|10=128|
8=FIX.4.4|9=60|35=0|34=8|49=SERVER|52=20220419-15:31:36.589|56=CLIENT55559|10=137|
8=FIX.4.4|9=60|35=0|34=7|49=CLIENT55559|52=20220419-15:31:36.593|56=SERVER|10=131|
8=FIX.4.4|9=60|35=0|34=9|49=SERVER|52=20220419-15:32:06.590|56=CLIENT55559|10=128|
8=FIX.4.4|9=60|35=0|34=8|49=CLIENT55559|52=20220419-15:32:06.594|56=SERVER|10=131|
8=FIX.4.4|9=61|35=0|34=10|49=SERVER|52=20220419-15:32:36.591|56=CLIENT55559|10=173|
8=FIX.4.4|9=60|35=0|34=9|49=CLIENT55559|52=20220419-15:32:36.593|56=SERVER|10=134|
8=FIX.4.4|9=61|35=0|34=11|49=SERVER|52=20220419-15:33:06.588|56=CLIENT55559|10=178|
8=FIX.4.4|9=61|35=0|34=10|49=CLIENT55559|52=20220419-15:33:06.591|56=SERVER|10=171|
8=FIX.4.4|9=61|35=0|34=12|49=SERVER|52=20220419-15:33:36.590|56=CLIENT55559|10=175|
8=FIX.4.4|9=61|35=0|34=11|49=CLIENT55559|52=20220419-15:33:36.592|56=SERVER|10=176|
8=FIX.4.4|9=61|35=0|34=13|49=SERVER|52=20220419-15:34:06.589|56=CLIENT55559|10=182|
8=FIX.4.4|9=61|35=0|34=12|49=CLIENT55559|52=20220419-15:34:06.591|56=SERVER|10=174|
8=FIX.4.4|9=61|35=5|34=13|49=CLIENT55559|52=20220419-15:34:24.785|56=SERVER|10=185|
8=FIX.4.4|9=61|35=5|34=14|49=SERVER|52=20220419-15:34:24.787|56=CLIENT55559|10=188|
8=FIX.4.4|9=73|35=A|34=14|49=CLIENT55559|52=20220419-15:37:24.420|56=SERVER|98=0|108=30|10=215|
8=FIX.4.4|9=72|35=A|34=1|49=SERVER|52=20220419-15:37:24.495|56=CLIENT55559|98=0|108=30|10=174|
8=FIX.4.4|9=78|35=A|34=1|49=CLIENT55559|52=20220419-15:37:55.420|56=SERVER|98=0|108=30|141=Y|10=217|
8=FIX.4.4|9=78|35=A|34=1|49=SERVER|52=20220419-15:37:55.440|56=CLIENT55559|98=0|108=30|141=Y|10=219|
8=FIX.4.4|9=60|35=0|34=2|49=SERVER|52=20220419-15:38:25.789|56=CLIENT55559|10=138|
8=FIX.4.4|9=60|35=0|34=2|49=CLIENT55559|52=20220419-15:38:25.795|56=SERVER|10=135|
8=FIX.4.4|9=60|35=0|34=3|49=SERVER|52=20220419-15:38:55.790|56=CLIENT55559|10=134|
8=FIX.4.4|9=60|35=0|34=3|49=CLIENT55559|52=20220419-15:38:55.795|56=SERVER|10=139|
8=FIX.4.4|9=60|35=0|34=4|49=SERVER|52=20220419-15:39:25.789|56=CLIENT55559|10=141|
8=FIX.4.4|9=60|35=0|34=4|49=CLIENT55559|52=20220419-15:39:25.793|56=SERVER|10=136|
8=FIX.4.4|9=60|35=0|34=5|49=SERVER|52=20220419-15:39:55.790|56=CLIENT55559|10=137|
8=FIX.4.4|9=60|35=0|34=5|49=CLIENT55559|52=20220419-15:39:55.791|56=SERVER|10=138|
8=FIX.4.4|9=60|35=0|34=6|49=SERVER|52=20220419-15:40:25.789|56=CLIENT55559|10=135|
8=FIX.4.4|9=60|35=0|34=6|49=CLIENT55559|52=20220419-15:40:25.791|56=SERVER|10=128|
8=FIX.4.4|9=60|35=5|34=7|49=CLIENT55559|52=20220419-15:40:28.407|56=SERVER|10=131|
8=FIX.4.4|9=60|35=5|34=7|49=SERVER|52=20220419-15:40:28.412|56=CLIENT55559|10=127|
8=FIX.4.4|9=72|35=A|34=8|49=CLIENT55559|52=20220419-16:33:39.873|56=SERVER|98=0|108=30|10=184|
8=FIX.4.4|9=72|35=A|34=1|49=SERVER|52=20220419-16:33:39.990|56=CLIENT55559|98=0|108=30|10=177|
8=FIX.4.4|9=78|35=A|34=1|49=CLIENT55559|52=20220419-16:34:10.874|56=SERVER|98=0|108=30|141=Y|10=219|
8=FIX.4.4|9=78|35=A|34=1|49=SERVER|52=20220419-16:34:10.890|56=CLIENT55559|98=0|108=30|141=Y|10=217|
8=FIX.4.4|9=60|35=0|34=2|49=SERVER|52=20220419-16:34:41.703|56=CLIENT55559|10=119|
8=FIX.4.4|9=60|35=0|34=2|49=CLIENT55559|52=20220419-16:34:48.601|56=SERVER|10=123|
8=FIX.4.4|9=60|35=5|34=3|49=CLIENT55559|52=20220419-16:34:59.861|56=SERVER|10=139|
8=FIX.4.4|9=60|35=5|34=3|49=SERVER|52=20220419-16:34:59.865|56=CLIENT55559|10=143|
8=FIX.4.4|9=72|35=A|34=4|49=CLIENT55559|52=20220419-16:36:34.501|56=SERVER|98=0|108=30|10=166|
8=FIX.4.4|9=72|35=A|34=1|49=SERVER|52=20220419-16:36:34.536|56=CLIENT55559|98=0|108=30|10=171|
8=FIX.4.4|9=78|35=A|34=1|49=CLIENT55559|52=20220419-16:37:05.503|56=SERVER|98=0|108=10|141=Y|10=213|
8=FIX.4.4|9=78|35=A|34=1|49=SERVER|52=20220419-16:37:05.522|56=CLIENT55559|98=0|108=10|141=Y|10=214|
8=FIX.4.4|9=60|35=0|34=2|49=SERVER|52=20220419-16:37:15.702|56=CLIENT55559|10=122|
8=FIX.4.4|9=60|35=0|34=2|49=CLIENT55559|52=20220419-16:37:15.704|56=SERVER|10=124|
8=FIX.4.4|9=60|35=0|34=3|49=SERVER|52=20220419-16:37:25.701|56=CLIENT55559|10=123|
8=FIX.4.4|9=60|35=0|34=3|49=CLIENT55559|52=20220419-16:37:25.703|56=SERVER|10=125|
8=FIX.4.4|9=60|35=0|34=4|49=SERVER|52=20220419-16:37:35.702|56=CLIENT55559|10=126|
8=FIX.4.4|9=60|35=0|34=4|49=CLIENT55559|52=20220419-16:37:35.703|56=SERVER|10=127|
8=FIX.4.4|9=60|35=0|34=5|49=SERVER|52=20220419-16:37:45.701|56=CLIENT55559|10=127|
8=FIX.4.4|9=60|35=0|34=5|49=CLIENT55559|52=20220419-16:37:45.704|56=SERVER|10=130|
8=FIX.4.4|9=60|35=0|34=6|49=SERVER|52=20220419-16:37:55.702|56=CLIENT55559|10=130|
8=FIX.4.4|9=60|35=0|34=6|49=CLIENT55559|52=20220419-16:37:55.706|56=SERVER|10=134|
8=FIX.4.4|9=72|35=A|34=7|49=CLIENT55559|52=20220419-16:38:44.051|56=SERVER|98=0|108=30|10=172|
8=FIX.4.4|9=72|35=A|34=1|49=SERVER|52=20220419-16:38:44.110|56=CLIENT55559|98=0|108=30|10=162|
8=FIX.4.4|9=78|35=A|34=1|49=CLIENT55559|52=20220419-16:39:15.051|56=SERVER|98=0|108=10|141=Y|10=214|
8=FIX.4.4|9=78|35=A|34=1|49=SERVER|52=20220419-16:39:15.067|56=CLIENT55559|98=0|108=10|141=Y|10=221|
8=FIX.4.4|9=60|35=0|34=2|49=SERVER|52=20220419-16:39:25.174|56=CLIENT55559|10=128|
8=FIX.4.4|9=60|35=0|34=2|49=CLIENT55559|52=20220419-16:39:25.179|56=SERVER|10=133|
8=FIX.4.4|9=60|35=0|34=3|49=SERVER|52=20220419-16:39:35.173|56=CLIENT55559|10=129|
8=FIX.4.4|9=60|35=0|34=3|49=CLIENT55559|52=20220419-16:39:36.742|56=SERVER|10=132|
8=FIX.4.4|9=60|35=0|34=4|49=SERVER|52=20220419-16:39:45.175|56=CLIENT55559|10=133|
8=FIX.4.4|9=69|35=1|34=5|49=SERVER|52=20220419-16:39:52.174|56=CLIENT55559|112=TEST|10=159|
8=FIX.4.4|9=69|35=1|34=4|49=CLIENT55559|52=20220419-16:39:53.338|56=SERVER|112=TEST|10=161|
8=FIX.4.4|9=69|35=0|34=6|49=SERVER|52=20220419-16:39:55.581|56=CLIENT55559|112=TEST|10=164|
8=FIX.4.4|9=69|35=0|34=5|49=CLIENT55559|52=20220419-16:39:56.802|56=SERVER|112=TEST|10=160|
8=FIX.4.4|9=60|35=0|34=7|49=SERVER|52=20220419-16:40:06.174|56=CLIENT55559|10=124|
8=FIX.4.4|9=69|35=1|34=8|49=SERVER|52=20220419-16:40:13.174|56=CLIENT55559|112=TEST|10=151|
8=FIX.4.4|9=78|35=A|34=1|49=CLIENT55559|52=20220419-16:40:55.118|56=SERVER|98=0|108=10|141=Y|10=214|
8=FIX.4.4|9=78|35=A|34=1|49=SERVER|52=20220419-16:40:55.138|56=CLIENT55559|98=0|108=10|141=Y|10=216|
8=FIX.4.4|9=60|35=0|34=2|49=SERVER|52=20220419-16:41:05.174|56=CLIENT55559|10=119|
8=FIX.4.4|9=69|35=1|34=3|49=SERVER|52=20220419-16:41:10.173|56=CLIENT55559|112=TEST|10=143|
8=FIX.4.4|9=78|35=A|34=1|49=CLIENT55559|52=20220419-16:41:27.044|56=SERVER|98=0|108=10|141=Y|10=212|
8=FIX.4.4|9=78|35=A|34=1|49=SERVER|52=20220419-16:41:27.059|56=CLIENT55559|98=0|108=10|141=Y|10=218|
8=FIX.4.4|9=60|35=5|34=2|49=CLIENT55559|52=20220419-16:41:32.038|56=SERVER|10=123|
8=FIX.4.4|9=60|35=5|34=2|49=SERVER|52=20220419-16:41:32.041|56=CLIENT55559|10=117|
