8=FIX.4.4|9=73|35=A|34=1|49=CLIENT|52=20220323-16:13:44.741|56=SERVER|98=0|108=30|141=N|10=181|
8=FIX.4.4|9=107|35=5|34=102|49=SERVER|52=20220323-16:13:44.791|56=CLIENT|58=MsgSeqNum too low, expecting 80 but received 1|10=208|
8=FIX.4.4|9=67|35=A|34=3|49=CLIENT|52=20220323-16:14:45.726|56=SERVER|98=0|108=30|10=157|
8=FIX.4.4|9=107|35=5|34=103|49=SERVER|52=20220323-16:14:45.732|56=CLIENT|58=MsgSeqNum too low, expecting 80 but received 3|10=208|
8=FIX.4.4|9=55|35=5|34=4|49=CLIENT|52=20220323-16:14:45.742|56=SERVER|10=116|
8=FIX.4.4|9=67|35=A|34=5|49=CLIENT|52=20220323-16:15:45.726|56=SERVER|98=0|108=30|10=160|
8=FIX.4.4|9=107|35=5|34=104|49=SERVER|52=20220323-16:15:45.733|56=CLIENT|58=MsgSeqNum too low, expecting 80 but received 5|10=213|
8=FIX.4.4|9=55|35=5|34=6|49=CLIENT|52=20220323-16:15:45.739|56=SERVER|10=125|
8=FIX.4.4|9=67|35=A|34=7|49=CLIENT|52=20220323-16:16:45.725|56=SERVER|98=0|108=30|10=162|
8=FIX.4.4|9=107|35=5|34=105|49=SERVER|52=20220323-16:16:45.732|56=CLIENT|58=MsgSeqNum too low, expecting 80 but received 7|10=216|
8=FIX.4.4|9=55|35=5|34=8|49=CLIENT|52=20220323-16:16:45.739|56=SERVER|10=128|
8=FIX.4.4|9=67|35=A|34=9|49=CLIENT|52=20220323-16:17:45.726|56=SERVER|98=0|108=30|10=166|
8=FIX.4.4|9=107|35=5|34=106|49=SERVER|52=20220323-16:17:45.733|56=CLIENT|58=MsgSeqNum too low, expecting 80 but received 9|10=221|
8=FIX.4.4|9=56|35=5|34=10|49=CLIENT|52=20220323-16:17:45.738|56=SERVER|10=170|
8=FIX.4.4|9=68|35=A|34=13|49=CLIENT|52=20220323-16:18:45.724|56=SERVER|98=0|108=30|10=209|
8=FIX.4.4|9=108|35=5|34=107|49=SERVER|52=20220323-16:18:45.730|56=CLIENT|58=MsgSeqNum too low, expecting 80 but received 13|10=008|
8=FIX.4.4|9=56|35=5|34=14|49=CLIENT|52=20220323-16:18:45.734|56=SERVER|10=171|
8=FIX.4.4|9=55|35=5|34=1|49=CLIENT|52=20220324-07:52:13.970|56=SERVER|10=114|
8=FIX.4.4|9=73|35=A|34=2|49=CLIENT|52=20220324-07:52:14.006|56=SERVER|98=0|108=30|141=N|10=177|
8=FIX.4.4|9=73|35=A|34=1|49=CLIENT|52=20220324-07:53:14.962|56=SERVER|98=0|108=30|141=Y|10=199|
8=FIX.4.4|9=73|35=A|34=1|49=SERVER|52=20220324-07:53:14.989|56=CLIENT|98=0|108=30|141=Y|10=208|
8=FIX.4.4|9=55|35=0|34=2|49=CLIENT|52=20220324-07:53:44.958|56=SERVER|10=121|
8=FIX.4.4|9=55|35=0|34=2|49=SERVER|52=20220324-07:53:45.432|56=CLIENT|10=109|
8=FIX.4.4|9=55|35=0|34=3|49=CLIENT|52=20220324-07:54:14.957|56=SERVER|10=119|
8=FIX.4.4|9=55|35=0|34=3|49=SERVER|52=20220324-07:54:15.431|56=CLIENT|10=107|
8=FIX.4.4|9=55|35=0|34=4|49=CLIENT|52=20220324-07:54:44.956|56=SERVER|10=122|
8=FIX.4.4|9=55|35=0|34=4|49=SERVER|52=20220324-07:54:45.432|56=CLIENT|10=112|
8=FIX.4.4|9=55|35=0|34=5|49=CLIENT|52=20220324-07:55:14.956|56=SERVER|10=121|
8=FIX.4.4|9=55|35=0|34=5|49=SERVER|52=20220324-07:55:15.432|56=CLIENT|10=111|
8=FIX.4.4|9=55|35=0|34=6|49=CLIENT|52=20220324-07:55:44.956|56=SERVER|10=125|
8=FIX.4.4|9=55|35=0|34=6|49=SERVER|52=20220324-07:55:45.432|56=CLIENT|10=115|
8=FIX.4.4|9=55|35=0|34=7|49=CLIENT|52=20220324-07:56:14.956|56=SERVER|10=124|
8=FIX.4.4|9=55|35=0|34=7|49=SERVER|52=20220324-07:56:15.432|56=CLIENT|10=114|
8=FIX.4.4|9=55|35=0|34=8|49=CLIENT|52=20220324-07:56:44.956|56=SERVER|10=128|
8=FIX.4.4|9=55|35=0|34=8|49=SERVER|52=20220324-07:56:45.431|56=CLIENT|10=117|
8=FIX.4.4|9=55|35=0|34=9|49=CLIENT|52=20220324-07:57:14.956|56=SERVER|10=127|
8=FIX.4.4|9=55|35=0|34=9|49=SERVER|52=20220324-07:57:15.433|56=CLIENT|10=118|
8=FIX.4.4|9=56|35=0|34=10|49=CLIENT|52=20220324-07:57:44.956|56=SERVER|10=171|
8=FIX.4.4|9=56|35=0|34=10|49=SERVER|52=20220324-07:57:45.432|56=CLIENT|10=161|
8=FIX.4.4|9=56|35=0|34=11|49=CLIENT|52=20220324-07:58:14.955|56=SERVER|10=169|
8=FIX.4.4|9=56|35=0|34=11|49=SERVER|52=20220324-07:58:15.432|56=CLIENT|10=160|
8=FIX.4.4|9=56|35=0|34=12|49=CLIENT|52=20220324-07:58:45.935|56=SERVER|10=172|
8=FIX.4.4|9=56|35=0|34=12|49=SERVER|52=20220324-07:58:45.940|56=CLIENT|10=168|
8=FIX.4.4|9=56|35=0|34=13|49=SERVER|52=20220324-07:59:16.367|56=CLIENT|10=171|
8=FIX.4.4|9=56|35=0|34=13|49=CLIENT|52=20220324-07:59:16.372|56=SERVER|10=167|
8=FIX.4.4|9=56|35=0|34=14|49=CLIENT|52=20220324-07:59:46.846|56=SERVER|10=177|
8=FIX.4.4|9=56|35=0|34=14|49=SERVER|52=20220324-07:59:46.851|56=CLIENT|10=173|
8=FIX.4.4|9=56|35=0|34=15|49=SERVER|52=20220324-08:00:17.278|56=CLIENT|10=162|
8=FIX.4.4|9=56|35=0|34=15|49=CLIENT|52=20220324-08:00:17.283|56=SERVER|10=158|
8=FIX.4.4|9=56|35=0|34=16|49=CLIENT|52=20220324-08:00:47.757|56=SERVER|10=168|
8=FIX.4.4|9=56|35=0|34=16|49=SERVER|52=20220324-08:00:47.763|56=CLIENT|10=165|
8=FIX.4.4|9=56|35=0|34=17|49=SERVER|52=20220324-08:01:18.190|56=CLIENT|10=159|
8=FIX.4.4|9=56|35=0|34=17|49=CLIENT|52=20220324-08:01:18.194|56=SERVER|10=163|
8=FIX.4.4|9=56|35=0|34=18|49=CLIENT|52=20220324-08:01:48.670|56=SERVER|10=166|
8=FIX.4.4|9=56|35=0|34=18|49=SERVER|52=20220324-08:01:48.672|56=CLIENT|10=168|
8=FIX.4.4|9=56|35=0|34=19|49=SERVER|52=20220324-08:02:19.101|56=CLIENT|10=155|
8=FIX.4.4|9=56|35=0|34=19|49=CLIENT|52=20220324-08:02:19.104|56=SERVER|10=158|
8=FIX.4.4|9=56|35=0|34=20|49=CLIENT|52=20220324-08:02:49.583|56=SERVER|10=164|
8=FIX.4.4|9=56|35=0|34=20|49=SERVER|52=20220324-08:02:49.587|56=CLIENT|10=168|
8=FIX.4.4|9=122|35=D|34=21|49=CLIENT|52=20220324-08:02:53.695|56=SERVER|11=6666|21=3|38=6|40=2|44=34|54=1|55=N/A|60=20220324-08:02:53.694|10=003|
8=FIX.4.4|9=136|35=8|34=21|49=SERVER|52=20220324-08:02:53.730|56=CLIENT|6=34|11=6666|14=6|17=0000|31=34|37=0000|38=6|39=A|54=1|55=N/A|150=A|151=6|192=6|10=012|
8=FIX.4.4|9=138|35=8|34=22|49=SERVER|52=20220324-08:02:53.731|56=CLIENT|6=34|11=6666|14=6|17=kRNDc|31=34|37=SYS2F|38=6|39=0|54=1|55=N/A|150=0|151=6|192=6|10=151|
8=FIX.4.4|9=56|35=5|34=22|49=CLIENT|52=20220324-08:03:07.555|56=SERVER|10=165|
8=FIX.4.4|9=56|35=5|34=23|49=SERVER|52=20220324-08:03:07.558|56=CLIENT|10=169|
8=FIX.4.4|9=55|35=5|34=1|49=CLIENT|52=20220324-08:05:02.900|56=SERVER|10=104|
8=FIX.4.4|9=73|35=A|34=2|49=CLIENT|52=20220324-08:05:02.932|56=SERVER|98=0|108=30|141=N|10=181|
8=FIX.4.4|9=73|35=A|34=1|49=CLIENT|52=20220324-08:06:03.906|56=SERVER|98=0|108=30|141=Y|10=194|
8=FIX.4.4|9=73|35=A|34=1|49=SERVER|52=20220324-08:06:03.931|56=CLIENT|98=0|108=30|141=Y|10=192|
8=FIX.4.4|9=55|35=0|34=2|49=SERVER|52=20220324-08:06:34.492|56=CLIENT|10=112|
8=FIX.4.4|9=55|35=0|34=2|49=CLIENT|52=20220324-08:06:34.499|56=SERVER|10=119|
8=FIX.4.4|9=119|35=D|34=3|49=CLIENT|52=20220324-08:07:00.529|56=SERVER|11=444|21=3|38=6|40=2|44=5|54=1|55=N/A|60=20220324-08:07:00.529|10=094|
8=FIX.4.4|9=132|35=8|34=3|49=SERVER|52=20220324-08:07:00.569|56=CLIENT|6=5|11=444|14=6|17=0000|31=5|37=0000|38=6|39=A|54=1|55=N/A|150=A|151=6|192=6|10=063|
8=FIX.4.4|9=134|35=8|34=4|49=SERVER|52=20220324-08:07:00.571|56=CLIENT|6=5|11=444|14=6|17=f6Y2n|31=5|37=FN4JI|38=6|39=0|54=1|55=N/A|150=0|151=6|192=6|10=137|
8=FIX.4.4|9=55|35=5|34=4|49=CLIENT|52=20220324-08:07:13.889|56=SERVER|10=127|
8=FIX.4.4|9=55|35=5|34=5|49=SERVER|52=20220324-08:07:13.892|56=CLIENT|10=122|
8=FIX.4.4|9=55|35=5|34=1|49=CLIENT|52=20220326-12:14:30.025|56=SERVER|10=100|
8=FIX.4.4|9=73|35=A|34=2|49=CLIENT|52=20220326-12:14:30.055|56=SERVER|98=0|108=30|141=N|10=175|
8=FIX.4.4|9=73|35=A|34=1|49=CLIENT|52=20220326-12:15:31.023|56=SERVER|98=0|108=30|141=Y|10=182|
8=FIX.4.4|9=73|35=A|34=1|49=SERVER|52=20220326-12:15:31.054|56=CLIENT|98=0|108=30|141=Y|10=186|
8=FIX.4.4|9=55|35=0|34=2|49=SERVER|52=20220326-12:16:01.931|56=CLIENT|10=102|
8=FIX.4.4|9=55|35=0|34=2|49=CLIENT|52=20220326-12:16:01.938|56=SERVER|10=109|
8=FIX.4.4|9=55|35=0|34=3|49=SERVER|52=20220326-12:16:31.930|56=CLIENT|10=105|
8=FIX.4.4|9=55|35=0|34=3|49=CLIENT|52=20220326-12:16:31.937|56=SERVER|10=112|
8=FIX.4.4|9=119|35=D|34=4|49=CLIENT|52=20220326-12:16:47.259|56=SERVER|11=443|21=3|38=6|40=2|44=5|54=1|55=N/A|60=20220326-12:16:47.258|10=109|
8=FIX.4.4|9=132|35=8|34=4|49=SERVER|52=20220326-12:16:47.293|56=CLIENT|6=5|11=443|14=6|17=0000|31=5|37=0000|38=6|39=A|54=1|55=N/A|150=A|151=6|192=6|10=065|
8=FIX.4.4|9=134|35=8|34=5|49=SERVER|52=20220326-12:16:47.295|56=CLIENT|6=5|11=443|14=6|17=YwrY9|31=5|37=y8YGB|38=6|39=0|54=1|55=N/A|150=0|151=6|192=6|10=011|
8=FIX.4.4|9=119|35=D|34=5|49=CLIENT|52=20220326-12:17:07.137|56=SERVER|11=443|21=3|38=6|40=2|44=5|54=1|55=N/A|60=20220326-12:17:07.136|10=094|
8=FIX.4.4|9=134|35=8|34=6|49=SERVER|52=20220326-12:17:07.141|56=CLIENT|6=0|11=443|14=0|17=HhavM|31=0|37=ZkhjK|38=0|39=8|54=1|55=N/A|150=8|151=0|192=0|10=060|
8=FIX.4.4|9=119|35=D|34=6|49=CLIENT|52=20220326-12:17:09.709|56=SERVER|11=443|21=3|38=6|40=2|44=5|54=1|55=N/A|60=20220326-12:17:09.709|10=110|
8=FIX.4.4|9=134|35=8|34=7|49=SERVER|52=20220326-12:17:09.716|56=CLIENT|6=0|11=443|14=0|17=uVfnF|31=0|37=3CXhk|38=0|39=8|54=1|55=N/A|150=8|151=0|192=0|10=023|
8=FIX.4.4|9=119|35=D|34=7|49=CLIENT|52=20220326-12:17:10.625|56=SERVER|11=443|21=3|38=6|40=2|44=5|54=1|55=N/A|60=20220326-12:17:10.625|10=089|
8=FIX.4.4|9=134|35=8|34=8|49=SERVER|52=20220326-12:17:10.629|56=CLIENT|6=0|11=443|14=0|17=5JqGm|31=0|37=sxXWl|38=0|39=8|54=1|55=N/A|150=8|151=0|192=0|10=055|
8=FIX.4.4|9=119|35=D|34=8|49=CLIENT|52=20220326-12:17:17.181|56=SERVER|11=444|21=3|38=6|40=2|44=5|54=1|55=N/A|60=20220326-12:17:17.180|10=098|
8=FIX.4.4|9=132|35=8|34=9|49=SERVER|52=20220326-12:17:17.186|56=CLIENT|6=5|11=444|14=6|17=0000|31=5|37=0000|38=6|39=A|54=1|55=N/A|150=A|151=6|192=6|10=070|
8=FIX.4.4|9=135|35=8|34=10|49=SERVER|52=20220326-12:17:17.188|56=CLIENT|6=5|11=444|14=6|17=RfrGR|31=5|37=p1G3b|38=6|39=0|54=1|55=N/A|150=0|151=6|192=6|10=017|
8=FIX.4.4|9=119|35=D|34=9|49=CLIENT|52=20220326-12:17:36.561|56=SERVER|11=446|21=3|38=6|40=2|44=5|54=1|55=N/A|60=20220326-12:17:36.561|10=108|
8=FIX.4.4|9=133|35=8|34=11|49=SERVER|52=20220326-12:17:36.566|56=CLIENT|6=5|11=446|14=6|17=0000|31=5|37=0000|38=6|39=A|54=1|55=N/A|150=A|151=6|192=6|10=117|
8=FIX.4.4|9=135|35=8|34=12|49=SERVER|52=20220326-12:17:36.568|56=CLIENT|6=5|11=446|14=6|17=r22L3|31=5|37=Uc7Y4|38=6|39=0|54=1|55=N/A|150=0|151=6|192=6|10=169|
8=FIX.4.4|9=120|35=D|34=10|49=CLIENT|52=20220326-12:17:44.990|56=SERVER|11=447|21=3|38=6|40=2|44=5|54=1|55=N/A|60=20220326-12:17:44.990|10=151|
8=FIX.4.4|9=133|35=8|34=13|49=SERVER|52=20220326-12:17:44.995|56=CLIENT|6=5|11=447|14=6|17=0000|31=5|37=0000|38=6|39=A|54=1|55=N/A|150=A|151=6|192=6|10=125|
8=FIX.4.4|9=135|35=8|34=14|49=SERVER|52=20220326-12:17:44.996|56=CLIENT|6=5|11=447|14=6|17=1z2hc|31=5|37=KVVf0|38=6|39=0|54=1|55=N/A|150=0|151=6|192=6|10=020|
8=FIX.4.4|9=56|35=0|34=11|49=CLIENT|52=20220326-12:18:15.012|56=SERVER|10=148|
8=FIX.4.4|9=56|35=0|34=15|49=SERVER|52=20220326-12:18:15.016|56=CLIENT|10=156|
8=FIX.4.4|9=56|35=0|34=12|49=CLIENT|52=20220326-12:18:45.012|56=SERVER|10=152|
8=FIX.4.4|9=56|35=0|34=16|49=SERVER|52=20220326-12:18:45.015|56=CLIENT|10=159|
8=FIX.4.4|9=56|35=0|34=13|49=CLIENT|52=20220326-12:19:15.012|56=SERVER|10=151|
8=FIX.4.4|9=56|35=0|34=17|49=SERVER|52=20220326-12:19:15.016|56=CLIENT|10=159|
8=FIX.4.4|9=56|35=0|34=14|49=CLIENT|52=20220326-12:19:45.012|56=SERVER|10=155|
8=FIX.4.4|9=56|35=0|34=18|49=SERVER|52=20220326-12:19:45.015|56=CLIENT|10=162|
8=FIX.4.4|9=56|35=0|34=15|49=CLIENT|52=20220326-12:20:15.011|56=SERVER|10=144|
8=FIX.4.4|9=56|35=0|34=19|49=SERVER|52=20220326-12:20:15.013|56=CLIENT|10=150|
8=FIX.4.4|9=56|35=0|34=16|49=CLIENT|52=20220326-12:20:45.011|56=SERVER|10=148|
8=FIX.4.4|9=56|35=0|34=20|49=SERVER|52=20220326-12:20:45.014|56=CLIENT|10=146|
8=FIX.4.4|9=56|35=0|34=17|49=CLIENT|52=20220326-12:21:15.010|56=SERVER|10=146|
8=FIX.4.4|9=56|35=0|34=21|49=SERVER|52=20220326-12:21:15.016|56=CLIENT|10=147|
8=FIX.4.4|9=56|35=0|34=18|49=CLIENT|52=20220326-12:21:45.010|56=SERVER|10=150|
8=FIX.4.4|9=56|35=0|34=22|49=SERVER|52=20220326-12:21:45.014|56=CLIENT|10=149|
8=FIX.4.4|9=56|35=0|34=19|49=CLIENT|52=20220326-12:22:15.010|56=SERVER|10=149|
8=FIX.4.4|9=56|35=0|34=23|49=SERVER|52=20220326-12:22:15.013|56=CLIENT|10=147|
8=FIX.4.4|9=56|35=0|34=20|49=CLIENT|52=20220326-12:22:45.009|56=SERVER|10=152|
8=FIX.4.4|9=56|35=0|34=24|49=SERVER|52=20220326-12:22:45.013|56=CLIENT|10=151|
8=FIX.4.4|9=56|35=0|34=21|49=CLIENT|52=20220326-12:23:15.009|56=SERVER|10=151|
8=FIX.4.4|9=56|35=0|34=25|49=SERVER|52=20220326-12:23:15.014|56=CLIENT|10=151|
8=FIX.4.4|9=56|35=0|34=22|49=CLIENT|52=20220326-12:23:45.008|56=SERVER|10=154|
8=FIX.4.4|9=56|35=0|34=26|49=SERVER|52=20220326-12:23:45.012|56=CLIENT|10=153|
8=FIX.4.4|9=56|35=0|34=27|49=SERVER|52=20220326-12:24:15.926|56=CLIENT|10=166|
8=FIX.4.4|9=65|35=1|34=28|49=SERVER|52=20220326-12:24:30.925|56=CLIENT|112=TEST|10=182|
8=FIX.4.4|9=73|35=A|34=1|49=CLIENT|52=20220326-17:17:52.005|56=SERVER|98=0|108=30|141=Y|10=192|
8=FIX.4.4|9=73|35=A|34=1|49=SERVER|52=20220326-17:17:52.093|56=CLIENT|98=0|108=30|141=Y|10=199|
8=FIX.4.4|9=55|35=0|34=2|49=SERVER|52=20220326-17:18:22.480|56=CLIENT|10=111|
8=FIX.4.4|9=64|35=1|34=3|49=SERVER|52=20220326-17:18:37.477|56=CLIENT|112=TEST|10=143|
8=FIX.4.4|9=73|35=A|34=1|49=CLIENT|52=20220326-17:19:06.005|56=SERVER|98=0|108=30|141=Y|10=193|
8=FIX.4.4|9=73|35=A|34=1|49=SERVER|52=20220326-17:19:06.025|56=CLIENT|98=0|108=30|141=Y|10=195|
8=FIX.4.4|9=55|35=0|34=2|49=SERVER|52=20220326-17:19:36.476|56=CLIENT|10=122|
8=FIX.4.4|9=55|35=0|34=2|49=CLIENT|52=20220326-17:19:36.484|56=SERVER|10=121|
8=FIX.4.4|9=55|35=0|34=3|49=SERVER|52=20220326-17:20:06.476|56=CLIENT|10=112|
8=FIX.4.4|9=55|35=0|34=3|49=CLIENT|52=20220326-17:20:06.482|56=SERVER|10=109|
8=FIX.4.4|9=55|35=0|34=4|49=SERVER|52=20220326-17:20:36.474|56=CLIENT|10=114|
8=FIX.4.4|9=55|35=0|34=4|49=CLIENT|52=20220326-17:20:36.481|56=SERVER|10=112|
8=FIX.4.4|9=55|35=0|34=5|49=SERVER|52=20220326-17:21:06.473|56=CLIENT|10=112|
8=FIX.4.4|9=55|35=0|34=5|49=CLIENT|52=20220326-17:21:06.479|56=SERVER|10=118|
8=FIX.4.4|9=55|35=0|34=6|49=SERVER|52=20220326-17:21:36.473|56=CLIENT|10=116|
8=FIX.4.4|9=55|35=0|34=6|49=CLIENT|52=20220326-17:21:36.477|56=SERVER|10=120|
8=FIX.4.4|9=55|35=0|34=7|49=SERVER|52=20220326-17:22:06.472|56=CLIENT|10=114|
8=FIX.4.4|9=55|35=0|34=7|49=CLIENT|52=20220326-17:22:06.478|56=SERVER|10=120|
8=FIX.4.4|9=55|35=0|34=8|49=SERVER|52=20220326-17:22:36.471|56=CLIENT|10=117|
8=FIX.4.4|9=55|35=0|34=8|49=CLIENT|52=20220326-17:22:36.477|56=SERVER|10=123|
8=FIX.4.4|9=55|35=0|34=9|49=SERVER|52=20220326-17:23:06.470|56=CLIENT|10=115|
8=FIX.4.4|9=55|35=0|34=9|49=CLIENT|52=20220326-17:23:06.475|56=SERVER|10=120|
8=FIX.4.4|9=56|35=0|34=10|49=SERVER|52=20220326-17:23:36.471|56=CLIENT|10=160|
8=FIX.4.4|9=56|35=0|34=10|49=CLIENT|52=20220326-17:23:36.476|56=SERVER|10=165|
8=FIX.4.4|9=56|35=0|34=11|49=SERVER|52=20220326-17:24:06.469|56=CLIENT|10=166|
8=FIX.4.4|9=56|35=0|34=11|49=CLIENT|52=20220326-17:24:06.475|56=SERVER|10=163|
8=FIX.4.4|9=56|35=0|34=12|49=SERVER|52=20220326-17:24:36.468|56=CLIENT|10=169|
8=FIX.4.4|9=56|35=0|34=12|49=CLIENT|52=20220326-17:24:36.473|56=SERVER|10=165|
8=FIX.4.4|9=56|35=0|34=13|49=SERVER|52=20220326-17:25:06.468|56=CLIENT|10=168|
8=FIX.4.4|9=56|35=0|34=13|49=CLIENT|52=20220326-17:25:06.473|56=SERVER|10=164|
8=FIX.4.4|9=56|35=0|34=14|49=SERVER|52=20220326-17:25:36.468|56=CLIENT|10=172|
8=FIX.4.4|9=56|35=0|34=14|49=CLIENT|52=20220326-17:25:36.473|56=SERVER|10=168|
8=FIX.4.4|9=56|35=0|34=15|49=SERVER|52=20220326-17:26:06.466|56=CLIENT|10=169|
8=FIX.4.4|9=56|35=0|34=15|49=CLIENT|52=20220326-17:26:06.472|56=SERVER|10=166|
8=FIX.4.4|9=121|35=D|34=16|49=CLIENT|52=20220326-17:26:28.042|56=SERVER|11=55|21=3|38=66|40=2|44=66|54=1|55=N/A|60=20220326-17:26:28.042|10=204|
8=FIX.4.4|9=138|35=8|34=16|49=SERVER|52=20220326-17:26:28.078|56=CLIENT|6=66|11=55|14=66|17=0000|31=66|37=0000|38=66|39=A|54=1|55=N/A|150=A|151=66|192=66|10=149|
8=FIX.4.4|9=140|35=8|34=17|49=SERVER|52=20220326-17:26:28.079|56=CLIENT|6=66|11=55|14=66|17=XCOKE|31=66|37=0LBiD|38=66|39=0|54=1|55=N/A|150=0|151=66|192=66|10=211|
8=FIX.4.4|9=56|35=0|34=18|49=SERVER|52=20220326-17:26:58.467|56=CLIENT|10=180|
8=FIX.4.4|9=56|35=0|34=17|49=CLIENT|52=20220326-17:26:58.467|56=SERVER|10=179|
8=FIX.4.4|9=56|35=0|34=19|49=SERVER|52=20220326-17:27:28.475|56=CLIENT|10=178|
8=FIX.4.4|9=56|35=0|34=18|49=CLIENT|52=20220326-17:27:28.475|56=SERVER|10=177|
8=FIX.4.4|9=56|35=0|34=20|49=SERVER|52=20220326-17:27:58.477|56=CLIENT|10=175|
8=FIX.4.4|9=56|35=0|34=19|49=CLIENT|52=20220326-17:27:58.477|56=SERVER|10=183|
8=FIX.4.4|9=56|35=0|34=20|49=CLIENT|52=20220326-17:28:28.987|56=SERVER|10=179|
8=FIX.4.4|9=56|35=0|34=21|49=SERVER|52=20220326-17:28:28.987|56=CLIENT|10=180|
8=FIX.4.4|9=56|35=0|34=21|49=CLIENT|52=20220326-17:28:58.987|56=SERVER|10=183|
8=FIX.4.4|9=56|35=0|34=22|49=SERVER|52=20220326-17:28:58.987|56=CLIENT|10=184|
8=FIX.4.4|9=56|35=0|34=22|49=CLIENT|52=20220326-17:29:28.991|56=SERVER|10=177|
8=FIX.4.4|9=56|35=0|34=23|49=SERVER|52=20220326-17:29:28.992|56=CLIENT|10=179|
8=FIX.4.4|9=56|35=0|34=24|49=SERVER|52=20220326-17:29:59.469|56=CLIENT|10=183|
8=FIX.4.4|9=56|35=0|34=23|49=CLIENT|52=20220326-17:29:59.469|56=SERVER|10=182|
8=FIX.4.4|9=73|35=A|34=1|49=CLIENT|52=20220327-15:35:08.013|56=SERVER|98=0|108=30|141=Y|10=191|
8=FIX.4.4|9=73|35=A|34=1|49=CLIENT|52=20220328-08:31:38.862|56=SERVER|98=0|108=30|141=Y|10=205|
8=FIX.4.4|9=73|35=A|34=1|49=SERVER|52=20220328-08:31:38.961|56=CLIENT|98=0|108=30|141=Y|10=205|
8=FIX.4.4|9=55|35=0|34=2|49=SERVER|52=20220328-08:32:09.759|56=CLIENT|10=123|
8=FIX.4.4|9=64|35=1|34=3|49=SERVER|52=20220328-08:32:24.758|56=CLIENT|112=TEST|10=139|
8=FIX.4.4|9=73|35=A|34=1|49=CLIENT|52=20220328-08:32:52.855|56=SERVER|98=0|108=30|141=Y|10=204|
8=FIX.4.4|9=73|35=A|34=1|49=SERVER|52=20220328-08:32:52.869|56=CLIENT|98=0|108=30|141=Y|10=209|
8=FIX.4.4|9=55|35=0|34=2|49=CLIENT|52=20220328-08:33:22.850|56=SERVER|10=111|
8=FIX.4.4|9=55|35=0|34=2|49=SERVER|52=20220328-08:33:23.759|56=CLIENT|10=120|
8=FIX.4.4|9=120|35=D|34=3|49=CLIENT|52=20220328-08:33:33.916|56=SERVER|11=5555|21=3|38=5|40=2|44=4|54=1|55=N/A|60=20220328-08:33:33.916|10=158|
8=FIX.4.4|9=133|35=8|34=3|49=SERVER|52=20220328-08:33:33.957|56=CLIENT|6=4|11=5555|14=5|17=0000|31=4|37=0000|38=5|39=A|54=1|55=N/A|150=A|151=5|192=5|10=124|
8=FIX.4.4|9=135|35=8|34=4|49=SERVER|52=20220328-08:33:33.959|56=CLIENT|6=4|11=5555|14=5|17=i26ms|31=4|37=ad4Po|38=5|39=0|54=1|55=N/A|150=0|151=5|192=5|10=072|
8=FIX.4.4|9=120|35=D|34=4|49=CLIENT|52=20220328-08:33:57.913|56=SERVER|11=5555|21=3|38=5|40=2|44=4|54=1|55=N/A|60=20220328-08:33:57.913|10=165|
8=FIX.4.4|9=135|35=8|34=5|49=SERVER|52=20220328-08:33:57.917|56=CLIENT|6=0|11=5555|14=0|17=4h6eE|31=0|37=p7Cd8|38=0|39=8|54=1|55=N/A|150=8|151=0|192=0|10=214|
8=FIX.4.4|9=120|35=D|34=5|49=CLIENT|52=20220328-08:34:07.856|56=SERVER|11=5556|21=3|38=5|40=2|44=4|54=1|55=N/A|60=20220328-08:34:07.855|10=170|
8=FIX.4.4|9=133|35=8|34=6|49=SERVER|52=20220328-08:34:07.861|56=CLIENT|6=4|11=5556|14=5|17=0000|31=4|37=0000|38=5|39=A|54=1|55=N/A|150=A|151=5|192=5|10=124|
8=FIX.4.4|9=135|35=8|34=7|49=SERVER|52=20220328-08:34:07.862|56=CLIENT|6=4|11=5556|14=5|17=wc5tY|31=4|37=9GnQQ|38=5|39=0|54=1|55=N/A|150=0|151=5|192=5|10=074|
8=FIX.4.4|9=129|35=D|34=6|49=CLIENT|52=20220328-08:34:14.824|56=SERVER|11=5558|21=3|38=5345345345|40=2|44=4|54=1|55=N/A|60=20220328-08:34:14.824|10=125|
8=FIX.4.4|9=169|35=8|34=8|49=SERVER|52=20220328-08:34:14.829|56=CLIENT|6=4|11=5558|14=5345345345|17=0000|31=4|37=0000|38=5345345345|39=A|54=1|55=N/A|150=A|151=5345345345|192=5345345345|10=219|
8=FIX.4.4|9=171|35=8|34=9|49=SERVER|52=20220328-08:34:14.830|56=CLIENT|6=4|11=5558|14=5345345345|17=Rjsvr|31=4|37=LHhKo|38=5345345345|39=0|54=1|55=N/A|150=0|151=5345345345|192=5345345345|10=248|
8=FIX.4.4|9=131|35=D|34=7|49=CLIENT|52=20220328-08:34:22.182|56=SERVER|11=5558|21=3|38=5345345345|40=2|44=4.5|54=2|55=N/A|60=20220328-08:34:22.182|10=211|
8=FIX.4.4|9=136|35=8|34=10|49=SERVER|52=20220328-08:34:22.186|56=CLIENT|6=0|11=5558|14=0|17=LktV1|31=0|37=5v6Jv|38=0|39=8|54=2|55=N/A|150=8|151=0|192=0|10=079|
8=FIX.4.4|9=131|35=D|34=8|49=CLIENT|52=20220328-08:34:31.787|56=SERVER|11=5559|21=3|38=5345345345|40=2|44=4.5|54=2|55=N/A|60=20220328-08:34:31.787|10=235|
8=FIX.4.4|9=174|35=8|34=11|49=SERVER|52=20220328-08:34:31.794|56=CLIENT|6=4.5|11=5559|14=5345345345|17=0000|31=4.5|37=0000|38=5345345345|39=A|54=2|55=N/A|150=A|151=5345345345|192=5345345345|10=201|
8=FIX.4.4|9=176|35=8|34=12|49=SERVER|52=20220328-08:34:31.795|56=CLIENT|6=4.5|11=5559|14=5345345345|17=tJsPk|31=4.5|37=yZUMG|38=5345345345|39=0|54=2|55=N/A|150=0|151=5345345345|192=5345345345|10=211|
8=FIX.4.4|9=55|35=0|34=9|49=CLIENT|52=20220328-08:35:01.850|56=SERVER|10=117|
8=FIX.4.4|9=56|35=0|34=13|49=SERVER|52=20220328-08:35:01.852|56=CLIENT|10=163|
8=FIX.4.4|9=56|35=0|34=10|49=CLIENT|52=20220328-08:35:31.849|56=SERVER|10=169|
8=FIX.4.4|9=56|35=0|34=14|49=SERVER|52=20220328-08:35:31.852|56=CLIENT|10=167|
8=FIX.4.4|9=56|35=0|34=11|49=CLIENT|52=20220328-08:36:01.848|56=SERVER|10=167|
8=FIX.4.4|9=56|35=0|34=15|49=SERVER|52=20220328-08:36:01.850|56=CLIENT|10=164|
8=FIX.4.4|9=56|35=0|34=12|49=CLIENT|52=20220328-08:36:31.848|56=SERVER|10=171|
8=FIX.4.4|9=56|35=0|34=16|49=SERVER|52=20220328-08:36:31.852|56=CLIENT|10=170|
8=FIX.4.4|9=56|35=0|34=13|49=CLIENT|52=20220328-08:37:01.848|56=SERVER|10=170|
8=FIX.4.4|9=56|35=0|34=17|49=SERVER|52=20220328-08:37:01.850|56=CLIENT|10=167|
8=FIX.4.4|9=130|35=D|34=14|49=CLIENT|52=20220328-08:37:02.634|56=SERVER|11=5510|21=3|38=5345345345|40=2|44=4|54=2|55=N/A|60=20220328-08:37:02.634|10=151|
8=FIX.4.4|9=170|35=8|34=18|49=SERVER|52=20220328-08:37:02.669|56=CLIENT|6=4|11=5510|14=5345345345|17=0000|31=4|37=0000|38=5345345345|39=A|54=2|55=N/A|150=A|151=5345345345|192=5345345345|10=251|
8=FIX.4.4|9=172|35=8|34=19|49=SERVER|52=20220328-08:37:02.671|56=CLIENT|6=4|11=5510|14=5345345345|17=Zqf3c|31=4|37=xTdFf|38=5345345345|39=0|54=2|55=N/A|150=0|151=5345345345|192=5345345345|10=248|
8=FIX.4.4|9=136|35=8|34=20|49=SERVER|52=20220328-08:37:02.672|56=CLIENT|6=4|11=5510|14=0|17=Zqf3c|31=4|37=xTdFf|38=0|39=1|54=2|55=N/A|150=F|151=0|192=0|10=164|
8=FIX.4.4|9=56|35=0|34=21|49=SERVER|52=20220328-08:37:32.758|56=CLIENT|10=173|
8=FIX.4.4|9=56|35=0|34=15|49=CLIENT|52=20220328-08:37:32.761|56=SERVER|10=170|
8=FIX.4.4|9=121|35=D|34=16|49=CLIENT|52=20220328-08:37:35.964|56=SERVER|11=5510|21=3|38=5|40=2|44=4|54=2|55=N/A|60=20220328-08:37:35.964|10=221|
8=FIX.4.4|9=136|35=8|34=22|49=SERVER|52=20220328-08:37:35.966|56=CLIENT|6=0|11=5510|14=0|17=JsxjN|31=0|37=dhYxP|38=0|39=8|54=2|55=N/A|150=8|151=0|192=0|10=218|
8=FIX.4.4|9=121|35=D|34=17|49=CLIENT|52=20220328-08:37:37.074|56=SERVER|11=5510|21=3|38=5|40=2|44=4|54=2|55=N/A|60=20220328-08:37:37.074|10=210|
8=FIX.4.4|9=136|35=8|34=23|49=SERVER|52=20220328-08:37:37.077|56=CLIENT|6=0|11=5510|14=0|17=NES4u|31=0|37=UjMXO|38=0|39=8|54=2|55=N/A|150=8|151=0|192=0|10=062|
8=FIX.4.4|9=121|35=D|34=18|49=CLIENT|52=20220328-08:37:41.561|56=SERVER|11=5511|21=3|38=5|40=2|44=4|54=2|55=N/A|60=20220328-08:37:41.561|10=204|
8=FIX.4.4|9=134|35=8|34=24|49=SERVER|52=20220328-08:37:41.566|56=CLIENT|6=4|11=5511|14=5|17=0000|31=4|37=0000|38=5|39=A|54=2|55=N/A|150=A|151=5|192=5|10=168|
8=FIX.4.4|9=136|35=8|34=25|49=SERVER|52=20220328-08:37:41.567|56=CLIENT|6=4|11=5511|14=5|17=ibaAu|31=4|37=shhdS|38=5|39=0|54=2|55=N/A|150=0|151=5|192=5|10=230|
8=FIX.4.4|9=136|35=8|34=26|49=SERVER|52=20220328-08:37:41.569|56=CLIENT|6=4|11=5511|14=0|17=ibaAu|31=4|37=shhdS|38=0|39=1|54=2|55=N/A|150=F|151=0|192=0|10=236|
8=FIX.4.4|9=56|35=0|34=27|49=SERVER|52=20220328-08:38:11.757|56=CLIENT|10=176|
8=FIX.4.4|9=56|35=0|34=19|49=CLIENT|52=20220328-08:38:11.759|56=SERVER|10=179|
8=FIX.4.4|9=56|35=0|34=28|49=SERVER|52=20220328-08:38:41.759|56=CLIENT|10=182|
8=FIX.4.4|9=56|35=0|34=20|49=CLIENT|52=20220328-08:38:41.762|56=SERVER|10=168|
8=FIX.4.4|9=56|35=0|34=29|49=SERVER|52=20220328-08:39:11.758|56=CLIENT|10=180|
8=FIX.4.4|9=56|35=0|34=21|49=CLIENT|52=20220328-08:39:11.760|56=SERVER|10=165|
8=FIX.4.4|9=56|35=5|34=30|49=SERVER|52=20220328-08:39:36.757|56=CLIENT|10=183|
8=FIX.4.4|9=56|35=5|34=22|49=CLIENT|52=20220328-08:39:36.759|56=SERVER|10=186|
8=FIX.4.4|9=73|35=A|34=1|49=CLIENT|52=20220328-08:39:41.539|56=SERVER|98=0|108=30|141=Y|10=208|
8=FIX.4.4|9=73|35=A|34=2|49=CLIENT|52=20220328-08:39:50.528|56=SERVER|98=0|108=30|141=Y|10=207|
8=FIX.4.4|9=73|35=A|34=1|49=CLIENT|52=20220401-08:52:43.645|56=SERVER|98=0|108=30|141=Y|10=195|
8=FIX.4.4|9=73|35=A|34=1|49=SERVER|52=20220401-08:52:43.742|56=CLIENT|98=0|108=30|141=Y|10=193|
8=FIX.4.4|9=55|35=0|34=2|49=SERVER|52=20220401-08:53:14.527|56=CLIENT|10=107|
8=FIX.4.4|9=64|35=1|34=3|49=SERVER|52=20220401-08:53:29.527|56=CLIENT|112=TEST|10=133|
8=FIX.4.4|9=73|35=A|34=1|49=CLIENT|52=20220401-09:02:13.283|56=SERVER|98=0|108=30|141=Y|10=186|
8=FIX.4.4|9=73|35=A|34=1|49=SERVER|52=20220401-09:02:13.396|56=CLIENT|98=0|108=30|141=Y|10=191|
8=FIX.4.4|9=55|35=0|34=2|49=SERVER|52=20220401-09:02:44.264|56=CLIENT|10=103|
8=FIX.4.4|9=64|35=1|34=3|49=SERVER|52=20220401-09:02:59.264|56=CLIENT|112=TEST|10=129|
8=FIX.4.4|9=73|35=A|34=1|49=CLIENT|52=20220401-09:03:27.281|56=SERVER|98=0|108=30|141=Y|10=190|
8=FIX.4.4|9=73|35=A|34=1|49=SERVER|52=20220401-09:03:27.293|56=CLIENT|98=0|108=30|141=Y|10=193|
8=FIX.4.4|9=55|35=0|34=2|49=SERVER|52=20220401-09:03:58.263|56=CLIENT|10=108|
8=FIX.4.4|9=55|35=0|34=2|49=CLIENT|52=20220401-09:03:58.271|56=SERVER|10=107|
8=FIX.4.4|9=55|35=0|34=3|49=SERVER|52=20220401-09:04:28.262|56=CLIENT|10=106|
8=FIX.4.4|9=55|35=0|34=3|49=CLIENT|52=20220401-09:04:28.270|56=SERVER|10=105|
8=FIX.4.4|9=55|35=0|34=4|49=SERVER|52=20220401-09:04:58.263|56=CLIENT|10=111|
8=FIX.4.4|9=55|35=0|34=4|49=CLIENT|52=20220401-09:04:58.269|56=SERVER|10=117|
8=FIX.4.4|9=55|35=0|34=5|49=SERVER|52=20220401-09:05:28.262|56=CLIENT|10=109|
8=FIX.4.4|9=55|35=0|34=5|49=CLIENT|52=20220401-09:05:28.268|56=SERVER|10=115|
8=FIX.4.4|9=55|35=0|34=6|49=SERVER|52=20220401-09:05:58.262|56=CLIENT|10=113|
8=FIX.4.4|9=55|35=0|34=6|49=CLIENT|52=20220401-09:05:58.269|56=SERVER|10=120|
8=FIX.4.4|9=55|35=0|34=7|49=SERVER|52=20220401-09:06:28.262|56=CLIENT|10=112|
8=FIX.4.4|9=55|35=0|34=7|49=CLIENT|52=20220401-09:06:28.267|56=SERVER|10=117|
8=FIX.4.4|9=55|35=0|34=8|49=SERVER|52=20220401-09:06:58.262|56=CLIENT|10=116|
8=FIX.4.4|9=55|35=0|34=8|49=CLIENT|52=20220401-09:06:58.270|56=SERVER|10=115|
8=FIX.4.4|9=119|35=D|34=9|49=CLIENT|52=20220401-09:07:20.967|56=SERVER|11=666|21=3|38=6|40=2|44=6|54=1|55=N/A|60=20220401-09:07:20.967|10=117|
8=FIX.4.4|9=132|35=8|34=9|49=SERVER|52=20220401-09:07:21.002|56=CLIENT|6=6|11=666|14=6|17=0000|31=6|37=0000|38=6|39=A|54=1|55=N/A|150=A|151=6|192=6|10=059|
8=FIX.4.4|9=135|35=8|34=10|49=SERVER|52=20220401-09:07:21.003|56=CLIENT|6=6|11=666|14=6|17=sUYDj|31=6|37=8G5K5|38=6|39=0|54=1|55=N/A|150=0|151=6|192=6|10=200|
8=FIX.4.4|9=56|35=0|34=11|49=SERVER|52=20220401-09:07:51.262|56=CLIENT|10=153|
8=FIX.4.4|9=56|35=0|34=10|49=CLIENT|52=20220401-09:07:51.267|56=SERVER|10=157|
8=FIX.4.4|9=56|35=0|34=12|49=SERVER|52=20220401-09:08:21.263|56=CLIENT|10=153|
8=FIX.4.4|9=56|35=0|34=11|49=CLIENT|52=20220401-09:08:21.267|56=SERVER|10=156|
8=FIX.4.4|9=56|35=0|34=13|49=SERVER|52=20220401-09:08:51.262|56=CLIENT|10=156|
8=FIX.4.4|9=56|35=0|34=12|49=CLIENT|52=20220401-09:08:51.268|56=SERVER|10=161|
8=FIX.4.4|9=56|35=0|34=14|49=SERVER|52=20220401-09:09:21.263|56=CLIENT|10=156|
8=FIX.4.4|9=56|35=0|34=13|49=CLIENT|52=20220401-09:09:21.267|56=SERVER|10=159|
8=FIX.4.4|9=56|35=5|34=14|49=CLIENT|52=20220401-09:09:43.270|56=SERVER|10=163|
8=FIX.4.4|9=56|35=5|34=15|49=SERVER|52=20220401-09:09:43.272|56=CLIENT|10=166|
8=FIX.4.4|9=73|35=A|34=1|49=CLIENT|52=20220401-10:31:49.622|56=SERVER|98=0|108=30|141=Y|10=186|
8=FIX.4.4|9=73|35=A|34=1|49=SERVER|52=20220401-10:31:49.742|56=CLIENT|98=0|108=30|141=Y|10=189|
8=FIX.4.4|9=55|35=0|34=2|49=SERVER|52=20220401-10:32:19.778|56=CLIENT|10=110|
8=FIX.4.4|9=64|35=1|34=3|49=SERVER|52=20220401-10:32:34.778|56=CLIENT|112=TEST|10=127|
8=FIX.4.4|9=73|35=A|34=1|49=CLIENT|52=20220401-10:33:03.616|56=SERVER|98=0|108=30|141=Y|10=181|
8=FIX.4.4|9=73|35=A|34=1|49=SERVER|52=20220401-10:33:03.630|56=CLIENT|98=0|108=30|141=Y|10=177|
8=FIX.4.4|9=55|35=0|34=2|49=SERVER|52=20220401-10:33:33.777|56=CLIENT|10=106|
8=FIX.4.4|9=55|35=0|34=2|49=CLIENT|52=20220401-10:33:33.781|56=SERVER|10=101|
8=FIX.4.4|9=117|35=D|34=3|49=CLIENT|52=20220401-10:33:39.043|56=SERVER|11=6|21=3|38=6|40=2|44=6|54=1|55=N/A|60=20220401-10:33:39.043|10=229|
8=FIX.4.4|9=130|35=8|34=3|49=SERVER|52=20220401-10:33:39.096|56=CLIENT|6=6|11=6|14=6|17=0000|31=6|37=0000|38=6|39=A|54=1|55=N/A|150=A|151=6|192=6|10=212|
8=FIX.4.4|9=132|35=8|34=4|49=SERVER|52=20220401-10:33:39.097|56=CLIENT|6=6|11=6|14=6|17=EliKA|31=6|37=t4TqY|38=6|39=0|54=1|55=N/A|150=0|151=6|192=6|10=162|
8=FIX.4.4|9=55|35=0|34=4|49=CLIENT|52=20220401-10:34:09.607|56=SERVER|10=104|
8=FIX.4.4|9=55|35=0|34=5|49=SERVER|52=20220401-10:34:09.611|56=CLIENT|10=100|
8=FIX.4.4|9=55|35=0|34=5|49=CLIENT|52=20220401-10:34:39.606|56=SERVER|10=107|
8=FIX.4.4|9=55|35=0|34=6|49=SERVER|52=20220401-10:34:39.613|56=CLIENT|10=106|
8=FIX.4.4|9=55|35=0|34=6|49=CLIENT|52=20220401-10:35:09.606|56=SERVER|10=106|
8=FIX.4.4|9=55|35=0|34=7|49=SERVER|52=20220401-10:35:09.611|56=CLIENT|10=103|
8=FIX.4.4|9=55|35=0|34=7|49=CLIENT|52=20220401-10:35:39.606|56=SERVER|10=110|
8=FIX.4.4|9=55|35=0|34=8|49=SERVER|52=20220401-10:35:39.610|56=CLIENT|10=106|
8=FIX.4.4|9=55|35=0|34=8|49=CLIENT|52=20220401-10:36:09.605|56=SERVER|10=108|
8=FIX.4.4|9=55|35=0|34=9|49=SERVER|52=20220401-10:36:09.608|56=CLIENT|10=112|
8=FIX.4.4|9=55|35=0|34=9|49=CLIENT|52=20220401-10:36:39.616|56=SERVER|10=114|
8=FIX.4.4|9=56|35=0|34=10|49=SERVER|52=20220401-10:36:39.621|56=CLIENT|10=151|
8=FIX.4.4|9=56|35=0|34=10|49=CLIENT|52=20220401-10:37:09.615|56=SERVER|10=152|
8=FIX.4.4|9=56|35=0|34=11|49=SERVER|52=20220401-10:37:09.630|56=CLIENT|10=150|
8=FIX.4.4|9=56|35=0|34=11|49=CLIENT|52=20220401-10:37:39.617|56=SERVER|10=158|
8=FIX.4.4|9=56|35=0|34=12|49=SERVER|52=20220401-10:37:39.621|56=CLIENT|10=154|
8=FIX.4.4|9=56|35=0|34=12|49=CLIENT|52=20220401-10:38:09.608|56=SERVER|10=157|
8=FIX.4.4|9=56|35=0|34=13|49=SERVER|52=20220401-10:38:09.612|56=CLIENT|10=153|
8=FIX.4.4|9=56|35=0|34=13|49=CLIENT|52=20220401-10:38:39.605|56=SERVER|10=158|
8=FIX.4.4|9=56|35=0|34=14|49=SERVER|52=20220401-10:38:39.610|56=CLIENT|10=155|
8=FIX.4.4|9=56|35=0|34=14|49=CLIENT|52=20220401-10:39:09.610|56=SERVER|10=153|
8=FIX.4.4|9=56|35=0|34=15|49=SERVER|52=20220401-10:39:09.614|56=CLIENT|10=158|
8=FIX.4.4|9=56|35=0|34=15|49=CLIENT|52=20220401-10:39:39.616|56=SERVER|10=163|
8=FIX.4.4|9=56|35=0|34=16|49=SERVER|52=20220401-10:39:39.620|56=CLIENT|10=159|
8=FIX.4.4|9=56|35=0|34=16|49=CLIENT|52=20220401-10:40:09.607|56=SERVER|10=153|
8=FIX.4.4|9=56|35=0|34=17|49=SERVER|52=20220401-10:40:09.611|56=CLIENT|10=149|
8=FIX.4.4|9=56|35=0|34=17|49=CLIENT|52=20220401-10:40:39.616|56=SERVER|10=157|
8=FIX.4.4|9=56|35=0|34=18|49=SERVER|52=20220401-10:40:39.622|56=CLIENT|10=155|
8=FIX.4.4|9=56|35=0|34=18|49=CLIENT|52=20220401-10:41:09.619|56=SERVER|10=159|
8=FIX.4.4|9=56|35=0|34=19|49=SERVER|52=20220401-10:41:09.624|56=CLIENT|10=156|
8=FIX.4.4|9=56|35=0|34=20|49=SERVER|52=20220401-10:41:39.779|56=CLIENT|10=162|
8=FIX.4.4|9=56|35=0|34=19|49=CLIENT|52=20220401-10:41:39.784|56=SERVER|10=166|
8=FIX.4.4|9=73|35=A|34=1|49=CLIENT|52=20220401-10:56:04.398|56=SERVER|98=0|108=30|141=Y|10=194|
8=FIX.4.4|9=73|35=A|34=1|49=SERVER|52=20220401-10:56:04.497|56=CLIENT|98=0|108=30|141=Y|10=194|
8=FIX.4.4|9=55|35=0|34=2|49=SERVER|52=20220401-10:56:34.699|56=CLIENT|10=115|
8=FIX.4.4|9=64|35=1|34=3|49=SERVER|52=20220401-10:56:49.699|56=CLIENT|112=TEST|10=141|
8=FIX.4.4|9=73|35=A|34=1|49=CLIENT|52=20220401-10:57:18.391|56=SERVER|98=0|108=30|141=Y|10=193|
8=FIX.4.4|9=73|35=A|34=1|49=SERVER|52=20220401-10:57:18.407|56=CLIENT|98=0|108=30|141=Y|10=191|
8=FIX.4.4|9=55|35=0|34=2|49=CLIENT|52=20220401-10:57:48.384|56=SERVER|10=112|
8=FIX.4.4|9=55|35=0|34=2|49=SERVER|52=20220401-10:57:48.697|56=CLIENT|10=119|
8=FIX.4.4|9=120|35=D|34=3|49=CLIENT|52=20220401-10:57:57.088|56=SERVER|11=333|21=3|38=66|40=2|44=4|54=1|55=N/A|60=20220401-10:57:57.088|10=148|
8=FIX.4.4|9=136|35=8|34=3|49=SERVER|52=20220401-10:57:57.126|56=CLIENT|6=4|11=333|14=66|17=0000|31=4|37=0000|38=66|39=A|54=1|55=N/A|150=A|151=66|192=66|10=017|
8=FIX.4.4|9=138|35=8|34=4|49=SERVER|52=20220401-10:57:57.128|56=CLIENT|6=4|11=333|14=66|17=IqMFP|31=4|37=gJY2k|38=66|39=0|54=1|55=N/A|150=0|151=66|192=66|10=184|
8=FIX.4.4|9=55|35=0|34=4|49=CLIENT|52=20220401-10:58:27.385|56=SERVER|10=113|
8=FIX.4.4|9=55|35=0|34=5|49=SERVER|52=20220401-10:58:27.400|56=CLIENT|10=102|
8=FIX.4.4|9=55|35=0|34=5|49=CLIENT|52=20220401-10:58:57.384|56=SERVER|10=116|
8=FIX.4.4|9=55|35=0|34=6|49=SERVER|52=20220401-10:58:57.391|56=CLIENT|10=115|
8=FIX.4.4|9=55|35=0|34=6|49=CLIENT|52=20220401-10:59:27.386|56=SERVER|10=117|
8=FIX.4.4|9=55|35=0|34=7|49=SERVER|52=20220401-10:59:27.394|56=CLIENT|10=117|
8=FIX.4.4|9=55|35=0|34=7|49=CLIENT|52=20220401-10:59:57.385|56=SERVER|10=120|
8=FIX.4.4|9=55|35=0|34=8|49=SERVER|52=20220401-10:59:57.392|56=CLIENT|10=119|
8=FIX.4.4|9=55|35=0|34=8|49=CLIENT|52=20220401-11:00:27.385|56=SERVER|10=105|
8=FIX.4.4|9=55|35=0|34=9|49=SERVER|52=20220401-11:00:27.392|56=CLIENT|10=104|
8=FIX.4.4|9=55|35=0|34=9|49=CLIENT|52=20220401-11:00:57.386|56=SERVER|10=110|
8=FIX.4.4|9=56|35=0|34=10|49=SERVER|52=20220401-11:00:57.389|56=CLIENT|10=154|
8=FIX.4.4|9=56|35=0|34=10|49=CLIENT|52=20220401-11:01:27.385|56=SERVER|10=148|
8=FIX.4.4|9=56|35=0|34=11|49=SERVER|52=20220401-11:01:27.390|56=CLIENT|10=145|
8=FIX.4.4|9=56|35=0|34=11|49=CLIENT|52=20220401-11:01:57.384|56=SERVER|10=151|
8=FIX.4.4|9=56|35=0|34=12|49=SERVER|52=20220401-11:01:57.387|56=CLIENT|10=155|
8=FIX.4.4|9=56|35=0|34=12|49=CLIENT|52=20220401-11:02:27.385|56=SERVER|10=151|
8=FIX.4.4|9=56|35=0|34=13|49=SERVER|52=20220401-11:02:27.389|56=CLIENT|10=156|
8=FIX.4.4|9=56|35=0|34=13|49=CLIENT|52=20220401-11:02:57.386|56=SERVER|10=156|
8=FIX.4.4|9=56|35=0|34=14|49=SERVER|52=20220401-11:02:57.391|56=CLIENT|10=153|
8=FIX.4.4|9=56|35=0|34=14|49=CLIENT|52=20220401-11:03:27.386|56=SERVER|10=155|
8=FIX.4.4|9=56|35=0|34=15|49=SERVER|52=20220401-11:03:27.391|56=CLIENT|10=152|
8=FIX.4.4|9=56|35=5|34=15|49=CLIENT|52=20220401-11:03:48.385|56=SERVER|10=163|
8=FIX.4.4|9=56|35=5|34=16|49=SERVER|52=20220401-11:03:48.388|56=CLIENT|10=167|
8=FIX.4.4|9=73|35=A|34=1|49=CLIENT|52=20220401-11:21:04.040|56=SERVER|98=0|108=30|141=Y|10=171|
8=FIX.4.4|9=73|35=A|34=1|49=SERVER|52=20220401-11:21:04.153|56=CLIENT|98=0|108=30|141=Y|10=176|
8=FIX.4.4|9=55|35=0|34=2|49=SERVER|52=20220401-11:21:34.661|56=CLIENT|10=097|
8=FIX.4.4|9=64|35=1|34=3|49=SERVER|52=20220401-11:21:49.661|56=CLIENT|112=TEST|10=123|
8=FIX.4.4|9=73|35=A|34=1|49=CLIENT|52=20220401-11:22:18.034|56=SERVER|98=0|108=30|141=Y|10=180|
8=FIX.4.4|9=73|35=A|34=1|49=SERVER|52=20220401-11:22:18.050|56=CLIENT|98=0|108=30|141=Y|10=178|
8=FIX.4.4|9=55|35=0|34=2|49=CLIENT|52=20220401-11:22:48.029|56=SERVER|10=101|
8=FIX.4.4|9=55|35=0|34=2|49=SERVER|52=20220401-11:22:48.660|56=CLIENT|10=102|
8=FIX.4.4|9=55|35=0|34=3|49=CLIENT|52=20220401-11:23:18.029|56=SERVER|10=100|
8=FIX.4.4|9=55|35=0|34=3|49=SERVER|52=20220401-11:23:18.661|56=CLIENT|10=102|
8=FIX.4.4|9=55|35=0|34=4|49=CLIENT|52=20220401-11:23:48.027|56=SERVER|10=102|
8=FIX.4.4|9=119|35=D|34=5|49=CLIENT|52=20220401-11:23:48.039|56=SERVER|11=555|21=3|38=7|40=2|44=7|54=1|55=N/A|60=20220401-11:23:48.039|10=094|
8=FIX.4.4|9=64|35=1|34=6|49=CLIENT|52=20220401-11:24:04.029|56=SERVER|112=TEST|10=118|
8=FIX.4.4|9=73|35=A|34=1|49=CLIENT|52=20220401-11:24:32.036|56=SERVER|98=0|108=30|141=Y|10=180|
8=FIX.4.4|9=73|35=A|34=1|49=CLIENT|52=20220401-11:24:44.038|56=SERVER|98=0|108=30|141=Y|10=185|
8=FIX.4.4|9=73|35=A|34=1|49=CLIENT|52=20220401-11:24:56.036|56=SERVER|98=0|108=30|141=Y|10=186|
8=FIX.4.4|9=73|35=A|34=1|49=CLIENT|52=20220401-11:26:11.038|56=SERVER|98=0|108=30|141=Y|10=181|
8=FIX.4.4|9=73|35=A|34=1|49=SERVER|52=20220401-11:26:11.100|56=CLIENT|98=0|108=30|141=Y|10=171|
8=FIX.4.4|9=55|35=5|34=2|49=CLIENT|52=20220401-11:26:33.027|56=SERVER|10=102|
8=FIX.4.4|9=55|35=5|34=2|49=SERVER|52=20220401-11:26:33.034|56=CLIENT|10=100|
8=FIX.4.4|9=73|35=A|34=1|49=CLIENT|52=20220401-11:26:50.912|56=SERVER|98=0|108=30|141=Y|10=185|
8=FIX.4.4|9=73|35=A|34=1|49=SERVER|52=20220401-11:26:50.952|56=CLIENT|98=0|108=30|141=Y|10=189|
8=FIX.4.4|9=55|35=0|34=2|49=SERVER|52=20220401-11:27:21.181|56=CLIENT|10=096|
8=FIX.4.4|9=64|35=1|34=3|49=SERVER|52=20220401-11:27:36.181|56=CLIENT|112=TEST|10=122|
8=FIX.4.4|9=73|35=A|34=1|49=CLIENT|52=20220401-11:28:04.906|56=SERVER|98=0|108=30|141=Y|10=189|
8=FIX.4.4|9=73|35=A|34=1|49=SERVER|52=20220401-11:28:04.922|56=CLIENT|98=0|108=30|141=Y|10=187|
8=FIX.4.4|9=119|35=D|34=2|49=CLIENT|52=20220401-11:28:22.317|56=SERVER|11=33|21=3|38=66|40=2|44=5|54=1|55=N/A|60=20220401-11:28:22.317|10=077|
8=FIX.4.4|9=135|35=8|34=2|49=SERVER|52=20220401-11:28:22.361|56=CLIENT|6=5|11=33|14=66|17=0000|31=5|37=0000|38=66|39=A|54=1|55=N/A|150=A|151=66|192=66|10=214|
8=FIX.4.4|9=137|35=8|34=3|49=SERVER|52=20220401-11:28:22.363|56=CLIENT|6=5|11=33|14=66|17=byXSx|31=5|37=DQ85e|38=66|39=0|54=1|55=N/A|150=0|151=66|192=66|10=158|
8=FIX.4.4|9=55|35=0|34=3|49=CLIENT|52=20220401-11:28:52.898|56=SERVER|10=117|
8=FIX.4.4|9=55|35=0|34=4|49=SERVER|52=20220401-11:28:52.906|56=CLIENT|10=108|
8=FIX.4.4|9=55|35=0|34=4|49=CLIENT|52=20220401-11:29:22.900|56=SERVER|10=100|
8=FIX.4.4|9=55|35=0|34=5|49=SERVER|52=20220401-11:29:22.907|56=CLIENT|10=108|
8=FIX.4.4|9=55|35=0|34=5|49=CLIENT|52=20220401-11:29:52.899|56=SERVER|10=121|
8=FIX.4.4|9=55|35=0|34=6|49=SERVER|52=20220401-11:29:52.906|56=CLIENT|10=111|
8=FIX.4.4|9=55|35=5|34=6|49=CLIENT|52=20220401-11:30:05.899|56=SERVER|10=117|
8=FIX.4.4|9=55|35=5|34=7|49=SERVER|52=20220401-11:30:05.901|56=CLIENT|10=102|
8=FIX.4.4|9=73|35=A|34=1|49=CLIENT|52=20220401-11:31:35.406|56=SERVER|98=0|108=30|141=Y|10=182|
8=FIX.4.4|9=73|35=A|34=1|49=SERVER|52=20220401-11:31:35.508|56=CLIENT|98=0|108=30|141=Y|10=185|
8=FIX.4.4|9=55|35=0|34=2|49=SERVER|52=20220401-11:32:05.763|56=CLIENT|10=100|
8=FIX.4.4|9=64|35=1|34=3|49=SERVER|52=20220401-11:32:20.764|56=CLIENT|112=TEST|10=118|
8=FIX.4.4|9=73|35=A|34=1|49=CLIENT|52=20220401-11:32:49.401|56=SERVER|98=0|108=30|141=Y|10=183|
8=FIX.4.4|9=73|35=A|34=1|49=SERVER|52=20220401-11:32:49.416|56=CLIENT|98=0|108=30|141=Y|10=189|
8=FIX.4.4|9=55|35=0|34=2|49=CLIENT|52=20220401-11:33:19.394|56=SERVER|10=106|
8=FIX.4.4|9=55|35=0|34=2|49=SERVER|52=20220401-11:33:19.762|56=CLIENT|10=105|
8=FIX.4.4|9=122|35=D|34=3|49=CLIENT|52=20220401-11:33:33.167|56=SERVER|11=6666|21=3|38=55|40=2|44=44|54=1|55=N/A|60=20220401-11:33:33.167|10=237|
8=FIX.4.4|9=139|35=8|34=3|49=SERVER|52=20220401-11:33:33.208|56=CLIENT|6=44|11=6666|14=55|17=0000|31=44|37=0000|38=55|39=A|54=1|55=N/A|150=A|151=55|192=55|10=169|
8=FIX.4.4|9=141|35=8|34=4|49=SERVER|52=20220401-11:33:33.210|56=CLIENT|6=44|11=6666|14=55|17=zQ8Aa|31=44|37=d8MCH|38=55|39=0|54=1|55=N/A|150=0|151=55|192=55|10=019|
8=FIX.4.4|9=55|35=0|34=4|49=CLIENT|52=20220401-11:34:03.393|56=SERVER|10=101|
8=FIX.4.4|9=55|35=0|34=5|49=SERVER|52=20220401-11:34:03.402|56=CLIENT|10=093|
8=FIX.4.4|9=122|35=D|34=5|49=CLIENT|52=20220401-11:34:20.682|56=SERVER|11=6666|21=3|38=55|40=2|44=44|54=2|55=N/A|60=20220401-11:34:20.682|10=238|
8=FIX.4.4|9=135|35=8|34=6|49=SERVER|52=20220401-11:34:20.688|56=CLIENT|6=0|11=6666|14=0|17=k9110|31=0|37=z3Rci|38=0|39=8|54=2|55=N/A|150=8|151=0|192=0|10=201|
8=FIX.4.4|9=122|35=D|34=6|49=CLIENT|52=20220401-11:34:25.557|56=SERVER|11=6667|21=3|38=55|40=2|44=44|54=2|55=N/A|60=20220401-11:34:25.557|10=252|
8=FIX.4.4|9=139|35=8|34=7|49=SERVER|52=20220401-11:34:25.582|56=CLIENT|6=44|11=6667|14=55|17=0000|31=44|37=0000|38=55|39=A|54=2|55=N/A|150=A|151=55|192=55|10=182|
8=FIX.4.4|9=141|35=8|34=8|49=SERVER|52=20220401-11:34:25.585|56=CLIENT|6=44|11=6667|14=55|17=PzQ2c|31=44|37=7HSQK|38=55|39=0|54=2|55=N/A|150=0|151=55|192=55|10=047|
8=FIX.4.4|9=141|35=8|34=9|49=SERVER|52=20220401-11:34:25.588|56=CLIENT|6=55|11=6667|14=44|17=PzQ2c|31=55|37=7HSQK|38=44|39=2|54=2|55=N/A|150=F|151=44|192=44|10=071|
8=FIX.4.4|9=56|35=0|34=10|49=SERVER|52=20220401-11:34:55.762|56=CLIENT|10=154|
8=FIX.4.4|9=55|35=0|34=7|49=CLIENT|52=20220401-11:34:55.770|56=SERVER|10=110|
8=FIX.4.4|9=56|35=0|34=11|49=SERVER|52=20220401-11:35:25.762|56=CLIENT|10=153|
8=FIX.4.4|9=55|35=0|34=8|49=CLIENT|52=20220401-11:35:25.769|56=SERVER|10=117|
8=FIX.4.4|9=56|35=0|34=12|49=SERVER|52=20220401-11:35:55.762|56=CLIENT|10=157|
8=FIX.4.4|9=55|35=0|34=9|49=CLIENT|52=20220401-11:35:55.772|56=SERVER|10=115|
8=FIX.4.4|9=56|35=0|34=13|49=SERVER|52=20220401-11:36:25.761|56=CLIENT|10=155|
8=FIX.4.4|9=56|35=0|34=10|49=CLIENT|52=20220401-11:36:25.769|56=SERVER|10=160|
8=FIX.4.4|9=56|35=0|34=14|49=SERVER|52=20220401-11:36:55.761|56=CLIENT|10=159|
8=FIX.4.4|9=56|35=0|34=11|49=CLIENT|52=20220401-11:36:55.772|56=SERVER|10=158|
8=FIX.4.4|9=56|35=0|34=15|49=SERVER|52=20220401-11:37:25.761|56=CLIENT|10=158|
8=FIX.4.4|9=56|35=0|34=12|49=CLIENT|52=20220401-11:37:25.766|56=SERVER|10=160|
8=FIX.4.4|9=56|35=5|34=13|49=CLIENT|52=20220401-11:37:43.392|56=SERVER|10=161|
8=FIX.4.4|9=56|35=5|34=16|49=SERVER|52=20220401-11:37:43.394|56=CLIENT|10=166|
8=FIX.4.4|9=73|35=A|34=1|49=CLIENT|52=20220401-12:31:01.852|56=SERVER|98=0|108=30|141=Y|10=181|
8=FIX.4.4|9=73|35=A|34=1|49=SERVER|52=20220401-12:31:01.968|56=CLIENT|98=0|108=30|141=Y|10=189|
8=FIX.4.4|9=73|35=A|34=1|49=CLIENT|52=20220401-12:34:54.806|56=SERVER|98=0|108=30|141=Y|10=191|
8=FIX.4.4|9=73|35=A|34=1|49=SERVER|52=20220401-12:34:54.919|56=CLIENT|98=0|108=30|141=Y|10=196|
8=FIX.4.4|9=55|35=0|34=2|49=SERVER|52=20220401-12:35:25.687|56=CLIENT|10=111|
8=FIX.4.4|9=64|35=1|34=3|49=SERVER|52=20220401-12:35:40.687|56=CLIENT|112=TEST|10=128|
8=FIX.4.4|9=73|35=A|34=1|49=CLIENT|52=20220401-12:43:17.613|56=SERVER|98=0|108=30|141=Y|10=186|
8=FIX.4.4|9=73|35=A|34=1|49=CLIENT|52=20220401-12:45:04.671|56=SERVER|98=0|108=30|141=Y|10=188|
8=FIX.4.4|9=73|35=A|34=1|49=SERVER|52=20220401-12:45:04.789|56=CLIENT|98=0|108=30|141=Y|10=198|
8=FIX.4.4|9=55|35=0|34=2|49=SERVER|52=20220401-12:45:35.671|56=CLIENT|10=106|
8=FIX.4.4|9=64|35=1|34=3|49=SERVER|52=20220401-12:45:50.671|56=CLIENT|112=TEST|10=123|
8=FIX.4.4|9=73|35=A|34=1|49=CLIENT|52=20220401-12:46:18.673|56=SERVER|98=0|108=30|141=Y|10=196|
8=FIX.4.4|9=73|35=A|34=1|49=SERVER|52=20220401-12:46:18.692|56=CLIENT|98=0|108=30|141=Y|10=197|
8=FIX.4.4|9=120|35=D|34=2|49=CLIENT|52=20220401-12:46:27.215|56=SERVER|11=55|21=3|38=66|40=2|44=55|54=1|55=N/A|60=20220401-12:46:27.215|10=132|
8=FIX.4.4|9=137|35=8|34=2|49=SERVER|52=20220401-12:46:27.255|56=CLIENT|6=55|11=55|14=66|17=0000|31=55|37=0000|38=66|39=A|54=1|55=N/A|150=A|151=66|192=66|10=078|
8=FIX.4.4|9=139|35=8|34=3|49=SERVER|52=20220401-12:46:27.258|56=CLIENT|6=55|11=55|14=66|17=8oU0c|31=55|37=TkiAK|38=66|39=0|54=1|55=N/A|150=0|151=66|192=66|10=245|
8=FIX.4.4|9=55|35=0|34=3|49=CLIENT|52=20220401-12:46:57.658|56=SERVER|10=117|
8=FIX.4.4|9=55|35=0|34=4|49=SERVER|52=20220401-12:46:57.672|56=CLIENT|10=114|
8=FIX.4.4|9=55|35=0|34=4|49=CLIENT|52=20220401-12:47:27.657|56=SERVER|10=115|
8=FIX.4.4|9=55|35=0|34=5|49=SERVER|52=20220401-12:47:27.667|56=CLIENT|10=117|
8=FIX.4.4|9=55|35=5|34=5|49=CLIENT|52=20220401-12:47:45.657|56=SERVER|10=121|
8=FIX.4.4|9=55|35=5|34=6|49=SERVER|52=20220401-12:47:45.663|56=CLIENT|10=119|
8=FIX.4.4|9=73|35=A|34=1|49=CLIENT|52=20220401-13:10:35.923|56=SERVER|98=0|108=30|141=Y|10=185|
8=FIX.4.4|9=73|35=A|34=1|49=SERVER|52=20220401-13:10:36.039|56=CLIENT|98=0|108=30|141=Y|10=184|
8=FIX.4.4|9=73|35=A|34=1|49=CLIENT|52=20220401-13:10:36.918|56=SERVER|98=0|108=30|141=Y|10=190|
8=FIX.4.4|9=73|35=A|34=1|49=SERVER|52=20220401-13:10:36.929|56=CLIENT|98=0|108=30|141=Y|10=192|
8=FIX.4.4|9=73|35=A|34=1|49=CLIENT|52=20220401-13:10:48.923|56=SERVER|98=0|108=30|141=Y|10=189|
8=FIX.4.4|9=73|35=A|34=1|49=SERVER|52=20220401-13:10:48.938|56=CLIENT|98=0|108=30|141=Y|10=195|
8=FIX.4.4|9=73|35=A|34=1|49=CLIENT|52=20220401-13:11:00.925|56=SERVER|98=0|108=30|141=Y|10=180|
8=FIX.4.4|9=73|35=A|34=1|49=CLIENT|52=20220401-13:11:12.917|56=SERVER|98=0|108=30|141=Y|10=184|
8=FIX.4.4|9=73|35=A|34=1|49=CLIENT|52=20220401-13:11:17.915|56=SERVER|98=0|108=30|141=Y|10=187|
8=FIX.4.4|9=73|35=A|34=1|49=SERVER|52=20220401-13:11:26.290|56=CLIENT|98=0|108=30|141=Y|10=183|
8=FIX.4.4|9=73|35=A|34=1|49=CLIENT|52=20220401-13:11:37.915|56=SERVER|98=0|108=30|141=Y|10=189|
8=FIX.4.4|9=73|35=A|34=1|49=SERVER|52=20220401-13:11:37.931|56=CLIENT|98=0|108=30|141=Y|10=187|
8=FIX.4.4|9=73|35=A|34=1|49=CLIENT|52=20220401-13:11:49.919|56=SERVER|98=0|108=30|141=Y|10=196|
8=FIX.4.4|9=73|35=A|34=1|49=SERVER|52=20220401-13:11:49.935|56=CLIENT|98=0|108=30|141=Y|10=194|
8=FIX.4.4|9=73|35=A|34=1|49=CLIENT|52=20220401-13:12:01.922|56=SERVER|98=0|108=30|141=Y|10=179|
8=FIX.4.4|9=73|35=A|34=1|49=SERVER|52=20220401-13:12:01.942|56=CLIENT|98=0|108=30|141=Y|10=181|
8=FIX.4.4|9=73|35=A|34=1|49=CLIENT|52=20220401-13:12:13.921|56=SERVER|98=0|108=30|141=Y|10=181|
8=FIX.4.4|9=73|35=A|34=1|49=SERVER|52=20220401-13:12:13.939|56=CLIENT|98=0|108=30|141=Y|10=190|
8=FIX.4.4|9=73|35=A|34=1|49=CLIENT|52=20220401-13:12:25.923|56=SERVER|98=0|108=30|141=Y|10=186|
8=FIX.4.4|9=73|35=A|34=1|49=SERVER|52=20220401-13:12:25.938|56=CLIENT|98=0|108=30|141=Y|10=192|
8=FIX.4.4|9=73|35=A|34=1|49=CLIENT|52=20220401-13:12:37.916|56=SERVER|98=0|108=30|141=Y|10=191|
8=FIX.4.4|9=73|35=A|34=1|49=SERVER|52=20220401-13:12:37.934|56=CLIENT|98=0|108=30|141=Y|10=191|
8=FIX.4.4|9=73|35=A|34=1|49=CLIENT|52=20220401-13:12:49.919|56=SERVER|98=0|108=30|141=Y|10=197|
8=FIX.4.4|9=73|35=A|34=1|49=SERVER|52=20220401-13:12:49.936|56=CLIENT|98=0|108=30|141=Y|10=196|
8=FIX.4.4|9=73|35=A|34=1|49=CLIENT|52=20220401-13:13:01.922|56=SERVER|98=0|108=30|141=Y|10=180|
8=FIX.4.4|9=73|35=A|34=1|49=SERVER|52=20220401-13:13:01.935|56=CLIENT|98=0|108=30|141=Y|10=184|
8=FIX.4.4|9=73|35=A|34=2|49=CLIENT|52=20220401-13:13:51.732|56=SERVER|98=0|108=30|141=Y|10=185|
8=FIX.4.4|9=73|35=A|34=3|49=CLIENT|52=20220401-13:15:15.387|56=SERVER|98=0|108=30|141=Y|10=194|
8=FIX.4.4|9=67|35=A|34=4|49=CLIENT|52=20220401-13:16:06.624|56=SERVER|98=0|108=30|10=148|
8=FIX.4.4|9=67|35=A|34=2|49=SERVER|52=20220401-13:16:06.668|56=CLIENT|98=0|108=30|10=154|
8=FIX.4.4|9=64|35=2|34=3|49=SERVER|52=20220401-13:16:06.673|56=CLIENT|7=2|16=0|10=232|
8=FIX.4.4|9=97|35=4|34=2|43=Y|49=CLIENT|52=20220401-13:16:06.690|56=SERVER|122=20220401-13:16:06.689|36=5|123=Y|10=126|
8=FIX.4.4|9=67|35=A|34=5|49=CLIENT|52=20220401-13:16:07.942|56=SERVER|98=0|108=30|10=153|
8=FIX.4.4|9=55|35=0|34=4|49=SERVER|52=20220401-13:16:37.025|56=CLIENT|10=102|
8=FIX.4.4|9=64|35=2|34=5|49=CLIENT|52=20220401-13:16:37.033|56=SERVER|7=2|16=0|10=228|
8=FIX.4.4|9=97|35=4|34=2|43=Y|49=SERVER|52=20220401-13:16:37.042|56=CLIENT|122=20220401-13:16:37.041|36=5|123=Y|10=107|
8=FIX.4.4|9=55|35=0|34=6|49=CLIENT|52=20220401-13:17:07.373|56=SERVER|10=108|
8=FIX.4.4|9=55|35=0|34=5|49=SERVER|52=20220401-13:17:07.379|56=CLIENT|10=113|
8=FIX.4.4|9=117|35=D|34=7|49=CLIENT|52=20220401-13:17:33.628|56=SERVER|11=5|21=3|38=5|40=2|44=5|54=1|55=N/A|60=20220401-13:17:33.628|10=246|
8=FIX.4.4|9=130|35=8|34=6|49=SERVER|52=20220401-13:17:33.667|56=CLIENT|6=5|11=5|14=5|17=0000|31=5|37=0000|38=5|39=A|54=1|55=N/A|150=A|151=5|192=5|10=211|
8=FIX.4.4|9=132|35=8|34=7|49=SERVER|52=20220401-13:17:33.669|56=CLIENT|6=5|11=5|14=5|17=mUcPG|31=5|37=KBK76|38=5|39=0|54=1|55=N/A|150=0|151=5|192=5|10=055|
8=FIX.4.4|9=55|35=0|34=8|49=SERVER|52=20220401-13:18:04.023|56=CLIENT|10=100|
8=FIX.4.4|9=55|35=0|34=8|49=CLIENT|52=20220401-13:18:04.029|56=SERVER|10=106|
8=FIX.4.4|9=55|35=0|34=9|49=SERVER|52=20220401-13:18:34.022|56=CLIENT|10=103|
8=FIX.4.4|9=55|35=0|34=9|49=CLIENT|52=20220401-13:18:34.030|56=SERVER|10=102|
8=FIX.4.4|9=118|35=D|34=10|49=CLIENT|52=20220401-13:18:39.047|56=SERVER|11=5|21=3|38=5|40=2|44=5|54=1|55=N/A|60=20220401-13:18:39.047|10=037|
8=FIX.4.4|9=133|35=8|34=10|49=SERVER|52=20220401-13:18:39.050|56=CLIENT|6=0|11=5|14=0|17=vFVyv|31=0|37=c5lmZ|38=0|39=8|54=1|55=N/A|150=8|151=0|192=0|10=022|
8=FIX.4.4|9=56|35=0|34=11|49=CLIENT|52=20220401-13:19:09.373|56=SERVER|10=157|
8=FIX.4.4|9=56|35=0|34=11|49=SERVER|52=20220401-13:19:09.382|56=CLIENT|10=157|
8=FIX.4.4|9=56|35=0|34=12|49=CLIENT|52=20220401-13:19:39.372|56=SERVER|10=160|
8=FIX.4.4|9=56|35=0|34=12|49=SERVER|52=20220401-13:19:39.381|56=CLIENT|10=160|
8=FIX.4.4|9=56|35=5|34=13|49=CLIENT|52=20220401-13:19:43.373|56=SERVER|10=162|
8=FIX.4.4|9=56|35=5|34=13|49=SERVER|52=20220401-13:19:43.377|56=CLIENT|10=166|
8=FIX.4.4|9=73|35=A|34=1|49=CLIENT|52=20220401-13:30:39.354|56=SERVER|98=0|108=30|141=Y|10=189|
8=FIX.4.4|9=73|35=A|34=1|49=CLIENT|52=20220401-13:30:51.467|56=SERVER|98=0|108=30|141=Y|10=188|
8=FIX.4.4|9=73|35=A|34=1|49=SERVER|52=20220401-13:30:51.488|56=CLIENT|98=0|108=30|141=Y|10=191|
8=FIX.4.4|9=55|35=0|34=2|49=SERVER|52=20220401-13:31:21.935|56=CLIENT|10=100|
8=FIX.4.4|9=55|35=0|34=2|49=CLIENT|52=20220401-13:31:21.947|56=SERVER|10=103|
8=FIX.4.4|9=55|35=0|34=3|49=SERVER|52=20220401-13:31:51.934|56=CLIENT|10=103|
8=FIX.4.4|9=55|35=0|34=3|49=CLIENT|52=20220401-13:31:51.938|56=SERVER|10=107|
8=FIX.4.4|9=55|35=0|34=4|49=SERVER|52=20220401-13:32:21.934|56=CLIENT|10=102|
8=FIX.4.4|9=55|35=0|34=4|49=CLIENT|52=20220401-13:32:21.938|56=SERVER|10=106|
8=FIX.4.4|9=117|35=D|34=5|49=CLIENT|52=20220401-13:32:38.528|56=SERVER|11=6|21=3|38=6|40=2|44=6|54=1|55=N/A|60=20220401-13:32:38.528|10=249|
8=FIX.4.4|9=130|35=8|34=5|49=SERVER|52=20220401-13:32:38.540|56=CLIENT|6=6|11=6|14=6|17=0000|31=6|37=0000|38=6|39=A|54=1|55=N/A|150=A|151=6|192=6|10=209|
8=FIX.4.4|9=132|35=8|34=6|49=SERVER|52=20220401-13:32:38.541|56=CLIENT|6=6|11=6|14=6|17=fKkPi|31=6|37=tQJza|38=6|39=0|54=1|55=N/A|150=0|151=6|192=6|10=242|
8=FIX.4.4|9=55|35=0|34=7|49=SERVER|52=20220401-13:33:08.935|56=CLIENT|10=112|
8=FIX.4.4|9=64|35=1|34=8|49=SERVER|52=20220401-13:33:23.933|56=CLIENT|112=TEST|10=127|
8=FIX.4.4|9=73|35=A|34=1|49=CLIENT|52=20220401-13:35:10.570|56=SERVER|98=0|108=30|141=Y|10=183|
8=FIX.4.4|9=73|35=A|34=1|49=SERVER|52=20220401-13:35:10.587|56=CLIENT|98=0|108=30|141=Y|10=191|
8=FIX.4.4|9=73|35=A|34=1|49=CLIENT|52=20220401-13:35:37.477|56=SERVER|98=0|108=30|141=Y|10=198|
8=FIX.4.4|9=67|35=A|34=2|49=CLIENT|52=20220401-13:36:11.081|56=SERVER|98=0|108=30|10=141|
8=FIX.4.4|9=73|35=A|34=1|49=SERVER|52=20220401-13:36:12.036|56=CLIENT|98=0|108=30|141=Y|10=183|
8=FIX.4.4|9=73|35=A|34=1|49=CLIENT|52=20220401-13:36:18.476|56=SERVER|98=0|108=30|141=Y|10=197|
8=FIX.4.4|9=73|35=A|34=1|49=SERVER|52=20220401-13:36:23.831|56=CLIENT|98=0|108=30|141=Y|10=188|
8=FIX.4.4|9=55|35=5|34=2|49=CLIENT|52=20220401-13:36:35.467|56=SERVER|10=115|
8=FIX.4.4|9=55|35=5|34=2|49=SERVER|52=20220401-13:36:35.473|56=CLIENT|10=112|
8=FIX.4.4|9=73|35=A|34=1|49=CLIENT|52=20220401-13:36:39.458|56=SERVER|98=0|108=30|141=Y|10=200|
8=FIX.4.4|9=73|35=A|34=1|49=SERVER|52=20220401-13:36:39.469|56=CLIENT|98=0|108=30|141=Y|10=202|
8=FIX.4.4|9=55|35=0|34=2|49=SERVER|52=20220401-13:37:09.933|56=CLIENT|10=110|
8=FIX.4.4|9=64|35=1|34=3|49=SERVER|52=20220401-13:37:24.933|56=CLIENT|112=TEST|10=127|
8=FIX.4.4|9=73|35=A|34=1|49=CLIENT|52=20220401-13:37:53.465|56=SERVER|98=0|108=30|141=Y|10=195|
8=FIX.4.4|9=73|35=A|34=1|49=SERVER|52=20220401-13:37:53.477|56=CLIENT|98=0|108=30|141=Y|10=198|
8=FIX.4.4|9=55|35=0|34=2|49=CLIENT|52=20220401-13:38:23.458|56=SERVER|10=109|
8=FIX.4.4|9=55|35=0|34=2|49=SERVER|52=20220401-13:38:23.932|56=CLIENT|10=106|
8=FIX.4.4|9=55|35=0|34=3|49=CLIENT|52=20220401-13:38:53.458|56=SERVER|10=113|
8=FIX.4.4|9=55|35=0|34=3|49=SERVER|52=20220401-13:38:53.934|56=CLIENT|10=112|
8=FIX.4.4|9=55|35=0|34=4|49=CLIENT|52=20220401-13:39:23.459|56=SERVER|10=113|
8=FIX.4.4|9=55|35=0|34=4|49=SERVER|52=20220401-13:39:23.932|56=CLIENT|10=109|
8=FIX.4.4|9=55|35=0|34=5|49=CLIENT|52=20220401-13:39:53.458|56=SERVER|10=116|
8=FIX.4.4|9=55|35=0|34=5|49=SERVER|52=20220401-13:39:53.933|56=CLIENT|10=114|
8=FIX.4.4|9=55|35=0|34=6|49=CLIENT|52=20220401-13:40:23.458|56=SERVER|10=106|
8=FIX.4.4|9=55|35=0|34=6|49=SERVER|52=20220401-13:40:23.932|56=CLIENT|10=103|
8=FIX.4.4|9=55|35=0|34=7|49=CLIENT|52=20220401-13:40:53.457|56=SERVER|10=109|
8=FIX.4.4|9=55|35=0|34=7|49=SERVER|52=20220401-13:40:53.932|56=CLIENT|10=107|
8=FIX.4.4|9=55|35=0|34=8|49=CLIENT|52=20220401-13:41:23.457|56=SERVER|10=108|
8=FIX.4.4|9=55|35=0|34=8|49=SERVER|52=20220401-13:41:23.933|56=CLIENT|10=107|
8=FIX.4.4|9=55|35=0|34=9|49=SERVER|52=20220401-13:41:53.932|56=CLIENT|10=110|
8=FIX.4.4|9=55|35=0|34=9|49=CLIENT|52=20220401-13:41:53.458|56=SERVER|10=113|
8=FIX.4.4|9=56|35=0|34=10|49=SERVER|52=20220401-13:42:23.932|56=CLIENT|10=149|
8=FIX.4.4|9=118|35=D|34=10|49=CLIENT|52=20220401-13:42:05.812|56=SERVER|11=6|21=3|38=6|40=2|44=6|54=1|55=N/A|60=20220401-13:42:05.812|10=020|
8=FIX.4.4|9=133|35=8|34=11|49=SERVER|52=20220401-13:42:25.451|56=CLIENT|6=0|11=6|14=0|17=dfvuT|31=0|37=YvHhG|38=0|39=8|54=1|55=N/A|150=8|151=0|192=0|10=024|
8=FIX.4.4|9=56|35=0|34=11|49=CLIENT|52=20220401-13:42:42.504|56=SERVER|10=146|
8=FIX.4.4|9=56|35=0|34=12|49=SERVER|52=20220401-13:42:55.932|56=CLIENT|10=156|
8=FIX.4.4|9=56|35=0|34=12|49=CLIENT|52=20220401-13:43:21.450|56=SERVER|10=145|
8=FIX.4.4|9=73|35=A|34=1|49=CLIENT|52=20220401-13:50:30.170|56=SERVER|98=0|108=30|141=Y|10=178|
8=FIX.4.4|9=73|35=A|34=1|49=SERVER|52=20220401-13:50:30.224|56=CLIENT|98=0|108=30|141=Y|10=178|
8=FIX.4.4|9=73|35=A|34=1|49=CLIENT|52=20220401-13:51:07.599|56=SERVER|98=0|108=30|141=Y|10=198|
8=FIX.4.4|9=73|35=A|34=1|49=SERVER|52=20220401-13:51:07.652|56=CLIENT|98=0|108=30|141=Y|10=188|
8=FIX.4.4|9=73|35=A|34=1|49=CLIENT|52=20220401-13:52:08.989|56=SERVER|98=0|108=30|141=Y|10=203|
8=FIX.4.4|9=73|35=A|34=1|49=SERVER|52=20220401-13:52:09.039|56=CLIENT|98=0|108=30|141=Y|10=190|
8=FIX.4.4|9=55|35=0|34=2|49=SERVER|52=20220401-13:52:39.931|56=CLIENT|10=108|
8=FIX.4.4|9=64|35=1|34=3|49=SERVER|52=20220401-13:52:54.932|56=CLIENT|112=TEST|10=126|
8=FIX.4.4|9=73|35=A|34=1|49=CLIENT|52=20220401-13:53:22.981|56=SERVER|98=0|108=30|141=Y|10=192|
8=FIX.4.4|9=73|35=A|34=1|49=SERVER|52=20220401-13:53:23.000|56=CLIENT|98=0|108=30|141=Y|10=175|
8=FIX.4.4|9=55|35=0|34=2|49=SERVER|52=20220401-13:53:53.931|56=CLIENT|10=105|
8=FIX.4.4|9=117|35=D|34=2|49=CLIENT|52=20220401-13:53:48.320|56=SERVER|11=5|21=3|38=5|40=2|44=5|54=1|55=N/A|60=20220401-13:53:48.320|10=231|
8=FIX.4.4|9=132|35=8|34=3|49=SERVER|52=20220401-13:54:06.369|56=CLIENT|6=0|11=5|14=0|17=MjxVB|31=0|37=pHayh|38=0|39=8|54=1|55=N/A|150=8|151=0|192=0|10=227|
8=FIX.4.4|9=55|35=0|34=3|49=CLIENT|52=20220401-13:54:18.389|56=SERVER|10=115|
8=FIX.4.4|9=55|35=0|34=4|49=SERVER|52=20220401-13:54:36.930|56=CLIENT|10=108|
8=FIX.4.4|9=55|35=0|34=4|49=CLIENT|52=20220401-13:54:48.975|56=SERVER|10=120|
8=FIX.4.4|9=55|35=0|34=5|49=SERVER|52=20220401-13:55:06.932|56=CLIENT|10=109|
8=FIX.4.4|9=55|35=0|34=5|49=CLIENT|52=20220401-13:55:18.974|56=SERVER|10=118|
8=FIX.4.4|9=117|35=D|34=6|49=CLIENT|52=20220401-13:55:24.505|56=SERVER|11=7|21=3|38=5|40=2|44=5|54=1|55=N/A|60=20220401-13:55:24.505|10=239|
8=FIX.4.4|9=130|35=8|34=6|49=SERVER|52=20220401-13:55:24.510|56=CLIENT|6=5|11=7|14=5|17=0000|31=5|37=0000|38=5|39=A|54=1|55=N/A|150=A|151=5|192=5|10=202|
8=FIX.4.4|9=132|35=8|34=7|49=SERVER|52=20220401-13:55:24.511|56=CLIENT|6=5|11=7|14=5|17=NS0To|31=5|37=p8EOZ|38=5|39=0|54=1|55=N/A|150=0|151=5|192=5|10=086|
8=FIX.4.4|9=55|35=0|34=8|49=SERVER|52=20220401-13:55:54.932|56=CLIENT|10=115|
8=FIX.4.4|9=55|35=0|34=7|49=CLIENT|52=20220401-13:55:54.940|56=SERVER|10=113|
8=FIX.4.4|9=55|35=5|34=8|49=CLIENT|52=20220401-13:56:02.974|56=SERVER|10=120|
8=FIX.4.4|9=55|35=5|34=9|49=SERVER|52=20220401-13:56:02.977|56=CLIENT|10=124|
8=FIX.4.4|9=73|35=A|34=1|49=CLIENT|52=20220401-13:56:51.107|56=SERVER|98=0|108=30|141=Y|10=187|
8=FIX.4.4|9=73|35=A|34=1|49=SERVER|52=20220401-13:56:51.159|56=CLIENT|98=0|108=30|141=Y|10=194|
8=FIX.4.4|9=73|35=A|34=1|49=CLIENT|52=20220401-13:58:03.616|56=SERVER|98=0|108=30|141=Y|10=191|
8=FIX.4.4|9=73|35=A|34=1|49=SERVER|52=20220401-13:58:03.670|56=CLIENT|98=0|108=30|141=Y|10=191|
8=FIX.4.4|9=55|35=0|34=2|49=SERVER|52=20220401-13:58:33.930|56=CLIENT|10=107|
8=FIX.4.4|9=64|35=1|34=3|49=SERVER|52=20220401-13:58:48.931|56=CLIENT|112=TEST|10=134|
8=FIX.4.4|9=73|35=A|34=1|49=CLIENT|52=20220401-13:59:17.612|56=SERVER|98=0|108=30|141=Y|10=193|
8=FIX.4.4|9=73|35=A|34=1|49=SERVER|52=20220401-13:59:17.626|56=CLIENT|98=0|108=30|141=Y|10=198|
8=FIX.4.4|9=117|35=D|34=2|49=CLIENT|52=20220401-13:59:39.078|56=SERVER|11=7|21=3|38=7|40=2|44=7|54=1|55=N/A|60=20220401-13:59:39.078|10=013|
8=FIX.4.4|9=132|35=8|34=2|49=SERVER|52=20220401-13:59:39.081|56=CLIENT|6=0|11=7|14=0|17=N2fiH|31=0|37=MIsUT|38=0|39=8|54=1|55=N/A|150=8|151=0|192=0|10=110|
8=FIX.4.4|9=55|35=0|34=3|49=CLIENT|52=20220401-14:00:09.600|56=SERVER|10=093|
8=FIX.4.4|9=55|35=0|34=3|49=SERVER|52=20220401-14:00:09.605|56=CLIENT|10=098|
8=FIX.4.4|9=118|35=D|34=4|49=CLIENT|52=20220401-14:00:27.743|56=SERVER|11=79|21=3|38=7|40=2|44=7|54=1|55=N/A|60=20220401-14:00:27.743|10=039|
8=FIX.4.4|9=131|35=8|34=4|49=SERVER|52=20220401-14:00:27.746|56=CLIENT|6=7|11=79|14=7|17=0000|31=7|37=0000|38=7|39=A|54=1|55=N/A|150=A|151=7|192=7|10=019|
8=FIX.4.4|9=133|35=8|34=5|49=SERVER|52=20220401-14:00:27.747|56=CLIENT|6=7|11=79|14=7|17=PbkEq|31=7|37=9hot4|38=7|39=0|54=1|55=N/A|150=0|151=7|192=7|10=000|
8=FIX.4.4|9=55|35=0|34=6|49=SERVER|52=20220401-14:00:57.930|56=CLIENT|10=105|
8=FIX.4.4|9=55|35=0|34=5|49=CLIENT|52=20220401-14:00:57.935|56=SERVER|10=109|
8=FIX.4.4|9=55|35=0|34=7|49=SERVER|52=20220401-14:01:27.931|56=CLIENT|10=105|
8=FIX.4.4|9=55|35=0|34=6|49=CLIENT|52=20220401-14:01:27.939|56=SERVER|10=112|
8=FIX.4.4|9=118|35=D|34=7|49=CLIENT|52=20220401-14:01:51.329|56=SERVER|11=79|21=3|38=5|40=2|44=7|54=2|55=N/A|60=20220401-14:01:51.329|10=037|
8=FIX.4.4|9=133|35=8|34=8|49=SERVER|52=20220401-14:01:51.332|56=CLIENT|6=0|11=79|14=0|17=Gx7Hr|31=0|37=mlcgu|38=0|39=8|54=2|55=N/A|150=8|151=0|192=0|10=027|
8=FIX.4.4|9=119|35=D|34=8|49=CLIENT|52=20220401-14:01:56.561|56=SERVER|11=111|21=3|38=5|40=2|44=7|54=2|55=N/A|60=20220401-14:01:56.560|10=079|
8=FIX.4.4|9=132|35=8|34=9|49=SERVER|52=20220401-14:01:56.592|56=CLIENT|6=7|11=111|14=5|17=0000|31=7|37=0000|38=5|39=A|54=2|55=N/A|150=A|151=5|192=5|10=055|
8=FIX.4.4|9=135|35=8|34=10|49=SERVER|52=20220401-14:01:56.593|56=CLIENT|6=7|11=111|14=5|17=h20BL|31=7|37=hcuMz|38=5|39=0|54=2|55=N/A|150=0|151=5|192=5|10=032|
8=FIX.4.4|9=135|35=8|34=11|49=SERVER|52=20220401-14:01:56.593|56=CLIENT|6=7|11=111|14=0|17=h20BL|31=7|37=hcuMz|38=0|39=1|54=2|55=N/A|150=F|151=0|192=0|10=036|
8=FIX.4.4|9=55|35=0|34=9|49=CLIENT|52=20220401-14:02:26.601|56=SERVER|10=101|
8=FIX.4.4|9=56|35=0|34=12|49=SERVER|52=20220401-14:02:26.606|56=CLIENT|10=149|
8=FIX.4.4|9=56|35=5|34=10|49=CLIENT|52=20220401-14:02:42.602|56=SERVER|10=146|
8=FIX.4.4|9=56|35=5|34=13|49=SERVER|52=20220401-14:02:42.604|56=CLIENT|10=151|
8=FIX.4.4|9=73|35=A|34=1|49=CLIENT|52=20220401-14:04:32.601|56=SERVER|98=0|108=30|141=Y|10=179|
8=FIX.4.4|9=73|35=A|34=1|49=SERVER|52=20220401-14:04:32.657|56=CLIENT|98=0|108=30|141=Y|10=190|
8=FIX.4.4|9=55|35=0|34=2|49=SERVER|52=20220401-14:05:02.926|56=CLIENT|10=101|
8=FIX.4.4|9=64|35=1|34=3|49=SERVER|52=20220401-14:05:17.927|56=CLIENT|112=TEST|10=128|
8=FIX.4.4|9=73|35=A|34=1|49=CLIENT|52=20220401-14:05:46.598|56=SERVER|98=0|108=30|141=Y|10=200|
8=FIX.4.4|9=73|35=A|34=1|49=SERVER|52=20220401-14:05:46.611|56=CLIENT|98=0|108=30|141=Y|10=186|
8=FIX.4.4|9=55|35=5|34=2|49=SERVER|52=20220401-14:05:50.926|56=CLIENT|10=109|
8=FIX.4.4|9=55|35=5|34=2|49=CLIENT|52=20220401-14:05:50.935|56=SERVER|10=109|
8=FIX.4.4|9=73|35=A|34=1|49=CLIENT|52=20220401-14:05:54.596|56=SERVER|98=0|108=30|141=Y|10=197|
8=FIX.4.4|9=73|35=A|34=1|49=SERVER|52=20220401-14:05:54.610|56=CLIENT|98=0|108=30|141=Y|10=184|
8=FIX.4.4|9=55|35=0|34=2|49=SERVER|52=20220401-14:06:24.653|56=CLIENT|10=103|
8=FIX.4.4|9=55|35=0|34=2|49=CLIENT|52=20220401-14:06:24.662|56=SERVER|10=103|
8=FIX.4.4|9=122|35=D|34=3|49=CLIENT|52=20220401-14:06:29.741|56=SERVER|11=324243|21=3|38=5|40=2|44=5|54=1|55=N/A|60=20220401-14:06:29.741|10=235|
8=FIX.4.4|9=135|35=8|34=3|49=SERVER|52=20220401-14:06:29.744|56=CLIENT|6=5|11=324243|14=5|17=0000|31=5|37=0000|38=5|39=A|54=1|55=N/A|150=A|151=5|192=5|10=210|
8=FIX.4.4|9=137|35=8|34=4|49=SERVER|52=20220401-14:06:29.746|56=CLIENT|6=5|11=324243|14=5|17=8y2Ha|31=5|37=v8zQT|38=5|39=0|54=1|55=N/A|150=0|151=5|192=5|10=142|
8=FIX.4.4|9=122|35=D|34=4|49=CLIENT|52=20220401-14:06:40.121|56=SERVER|11=324244|21=3|38=7|40=2|44=5|54=1|55=N/A|60=20220401-14:06:40.121|10=209|
8=FIX.4.4|9=135|35=8|34=5|49=SERVER|52=20220401-14:06:40.125|56=CLIENT|6=5|11=324244|14=7|17=0000|31=5|37=0000|38=7|39=A|54=1|55=N/A|150=A|151=7|192=7|10=207|
8=FIX.4.4|9=137|35=8|34=6|49=SERVER|52=20220401-14:06:40.126|56=CLIENT|6=5|11=324244|14=7|17=RMQxb|31=5|37=SAgSX|38=7|39=0|54=1|55=N/A|150=0|151=7|192=7|10=161|
8=FIX.4.4|9=122|35=D|34=5|49=CLIENT|52=20220401-14:06:47.040|56=SERVER|11=324245|21=3|38=7|40=2|44=5|54=2|55=N/A|60=20220401-14:06:47.040|10=226|
8=FIX.4.4|9=135|35=8|34=7|49=SERVER|52=20220401-14:06:47.046|56=CLIENT|6=5|11=324245|14=7|17=0000|31=5|37=0000|38=7|39=A|54=2|55=N/A|150=A|151=7|192=7|10=220|
8=FIX.4.4|9=137|35=8|34=8|49=SERVER|52=20220401-14:06:47.046|56=CLIENT|6=5|11=324245|14=7|17=Ag98d|31=5|37=iIClq|38=7|39=0|54=2|55=N/A|150=0|151=7|192=7|10=140|
8=FIX.4.4|9=122|35=D|34=6|49=CLIENT|52=20220401-14:07:03.804|56=SERVER|11=324246|21=3|38=5|40=2|44=5|54=2|55=N/A|60=20220401-14:07:03.804|10=228|
8=FIX.4.4|9=135|35=8|34=9|49=SERVER|52=20220401-14:07:03.807|56=CLIENT|6=5|11=324246|14=5|17=0000|31=5|37=0000|38=5|39=A|54=2|55=N/A|150=A|151=5|192=5|10=213|
8=FIX.4.4|9=138|35=8|34=10|49=SERVER|52=20220401-14:07:03.807|56=CLIENT|6=5|11=324246|14=5|17=WBgvK|31=5|37=GGGCn|38=5|39=0|54=2|55=N/A|150=0|151=5|192=5|10=165|
8=FIX.4.4|9=122|35=D|34=7|49=CLIENT|52=20220401-14:07:23.159|56=SERVER|11=324247|21=3|38=7|40=2|44=5|54=1|55=N/A|60=20220401-14:07:23.159|10=241|
8=FIX.4.4|9=136|35=8|34=11|49=SERVER|52=20220401-14:07:23.161|56=CLIENT|6=5|11=324247|14=7|17=0000|31=5|37=0000|38=7|39=A|54=1|55=N/A|150=A|151=7|192=7|10=002|
8=FIX.4.4|9=138|35=8|34=12|49=SERVER|52=20220401-14:07:23.162|56=CLIENT|6=5|11=324247|14=7|17=Tym1F|31=5|37=JtRUU|38=7|39=0|54=1|55=N/A|150=0|151=7|192=7|10=207|
8=FIX.4.4|9=55|35=0|34=8|49=CLIENT|52=20220401-14:07:53.580|56=SERVER|10=111|
8=FIX.4.4|9=56|35=0|34=13|49=SERVER|52=20220401-14:07:53.584|56=CLIENT|10=160|
8=FIX.4.4|9=56|35=5|34=14|49=SERVER|52=20220401-14:08:16.649|56=CLIENT|10=168|
8=FIX.4.4|9=55|35=5|34=9|49=CLIENT|52=20220401-14:08:16.652|56=SERVER|10=117|
8=FIX.4.4|9=73|35=A|34=1|49=CLIENT|52=20220401-14:08:42.591|56=SERVER|98=0|108=30|141=Y|10=192|
8=FIX.4.4|9=73|35=A|34=1|49=SERVER|52=20220401-14:08:42.641|56=CLIENT|98=0|108=30|141=Y|10=188|
8=FIX.4.4|9=55|35=0|34=2|49=SERVER|52=20220401-14:09:12.938|56=CLIENT|10=109|
8=FIX.4.4|9=55|35=0|34=2|49=CLIENT|52=20220401-14:09:12.945|56=SERVER|10=107|
8=FIX.4.4|9=122|35=D|34=3|49=CLIENT|52=20220401-14:09:35.714|56=SERVER|11=324247|21=3|38=7|40=2|44=5|54=1|55=N/A|60=20220401-14:09:35.714|10=241|
8=FIX.4.4|9=135|35=8|34=3|49=SERVER|52=20220401-14:09:35.752|56=CLIENT|6=5|11=324247|14=7|17=0000|31=5|37=0000|38=7|39=A|54=1|55=N/A|150=A|151=7|192=7|10=221|
8=FIX.4.4|9=137|35=8|34=4|49=SERVER|52=20220401-14:09:35.754|56=CLIENT|6=5|11=324247|14=7|17=QpzJS|31=5|37=IYwJ6|38=7|39=0|54=1|55=N/A|150=0|151=7|192=7|10=177|
8=FIX.4.4|9=122|35=D|34=4|49=CLIENT|52=20220401-14:09:43.148|56=SERVER|11=324248|21=3|38=7|40=2|44=5|54=2|55=N/A|60=20220401-14:09:43.148|10=244|
8=FIX.4.4|9=135|35=8|34=5|49=SERVER|52=20220401-14:09:43.157|56=CLIENT|6=5|11=324248|14=7|17=0000|31=5|37=0000|38=7|39=A|54=2|55=N/A|150=A|151=7|192=7|10=223|
8=FIX.4.4|9=137|35=8|34=6|49=SERVER|52=20220401-14:09:43.162|56=CLIENT|6=5|11=324248|14=7|17=MWshO|31=5|37=FfZd3|38=7|39=0|54=2|55=N/A|150=0|151=7|192=7|10=167|
8=FIX.4.4|9=137|35=8|34=7|49=SERVER|52=20220401-14:09:43.163|56=CLIENT|6=7|11=324248|14=5|17=MWshO|31=7|37=FfZd3|38=5|39=2|54=2|55=N/A|150=F|151=5|192=5|10=189|
8=FIX.4.4|9=73|35=A|34=1|49=CLIENT|52=20220401-14:14:21.727|56=SERVER|98=0|108=30|141=Y|10=187|
8=FIX.4.4|9=73|35=A|34=1|49=SERVER|52=20220401-14:14:21.773|56=CLIENT|98=0|108=30|141=Y|10=188|
8=FIX.4.4|9=73|35=A|34=1|49=CLIENT|52=20220401-14:15:03.062|56=SERVER|98=0|108=30|141=Y|10=180|
8=FIX.4.4|9=73|35=A|34=1|49=SERVER|52=20220401-14:15:03.139|56=CLIENT|98=0|108=30|141=Y|10=185|
8=FIX.4.4|9=73|35=A|34=1|49=CLIENT|52=20220401-14:16:11.963|56=SERVER|98=0|108=30|141=Y|10=190|
8=FIX.4.4|9=73|35=A|34=1|49=SERVER|52=20220401-14:16:12.020|56=CLIENT|98=0|108=30|141=Y|10=175|
8=FIX.4.4|9=55|35=0|34=2|49=SERVER|52=20220401-14:16:42.928|56=CLIENT|10=109|
8=FIX.4.4|9=64|35=1|34=3|49=SERVER|52=20220401-14:16:57.928|56=CLIENT|112=TEST|10=135|
8=FIX.4.4|9=73|35=A|34=1|49=CLIENT|52=20220401-14:17:25.953|56=SERVER|98=0|108=30|141=Y|10=195|
8=FIX.4.4|9=73|35=A|34=1|49=SERVER|52=20220401-14:17:25.968|56=CLIENT|98=0|108=30|141=Y|10=201|
8=FIX.4.4|9=55|35=0|34=2|49=CLIENT|52=20220401-14:17:55.946|56=SERVER|10=114|
8=FIX.4.4|9=55|35=0|34=2|49=SERVER|52=20220401-14:17:56.927|56=CLIENT|10=114|
8=FIX.4.4|9=55|35=0|34=3|49=CLIENT|52=20220401-14:18:25.946|56=SERVER|10=113|
8=FIX.4.4|9=55|35=0|34=3|49=SERVER|52=20220401-14:18:26.927|56=CLIENT|10=113|
8=FIX.4.4|9=55|35=0|34=4|49=CLIENT|52=20220401-14:18:55.946|56=SERVER|10=117|
8=FIX.4.4|9=55|35=0|34=4|49=SERVER|52=20220401-14:18:56.926|56=CLIENT|10=116|
8=FIX.4.4|9=55|35=0|34=5|49=CLIENT|52=20220401-14:19:25.945|56=SERVER|10=115|
8=FIX.4.4|9=55|35=0|34=5|49=SERVER|52=20220401-14:19:26.926|56=CLIENT|10=115|
8=FIX.4.4|9=55|35=0|34=6|49=CLIENT|52=20220401-14:19:55.944|56=SERVER|10=118|
8=FIX.4.4|9=55|35=0|34=6|49=SERVER|52=20220401-14:19:56.925|56=CLIENT|10=118|
8=FIX.4.4|9=55|35=0|34=7|49=CLIENT|52=20220401-14:20:25.944|56=SERVER|10=108|
8=FIX.4.4|9=55|35=0|34=7|49=SERVER|52=20220401-14:20:26.926|56=CLIENT|10=109|
8=FIX.4.4|9=55|35=0|34=8|49=CLIENT|52=20220401-14:20:55.946|56=SERVER|10=114|
8=FIX.4.4|9=55|35=0|34=8|49=SERVER|52=20220401-14:20:56.926|56=CLIENT|10=113|
8=FIX.4.4|9=55|35=0|34=9|49=CLIENT|52=20220401-14:21:25.943|56=SERVER|10=110|
8=FIX.4.4|9=55|35=0|34=9|49=SERVER|52=20220401-14:21:26.924|56=CLIENT|10=110|
8=FIX.4.4|9=56|35=0|34=10|49=CLIENT|52=20220401-14:21:55.943|56=SERVER|10=154|
8=FIX.4.4|9=56|35=0|34=10|49=SERVER|52=20220401-14:21:56.925|56=CLIENT|10=155|
8=FIX.4.4|9=56|35=0|34=11|49=CLIENT|52=20220401-14:22:25.943|56=SERVER|10=153|
8=FIX.4.4|9=56|35=0|34=11|49=SERVER|52=20220401-14:22:26.924|56=CLIENT|10=153|
8=FIX.4.4|9=56|35=0|34=12|49=CLIENT|52=20220401-14:22:55.942|56=SERVER|10=156|
8=FIX.4.4|9=56|35=0|34=12|49=SERVER|52=20220401-14:22:56.923|56=CLIENT|10=156|
8=FIX.4.4|9=56|35=0|34=13|49=CLIENT|52=20220401-14:23:25.942|56=SERVER|10=155|
8=FIX.4.4|9=56|35=0|34=13|49=SERVER|52=20220401-14:23:26.924|56=CLIENT|10=156|
8=FIX.4.4|9=56|35=0|34=14|49=CLIENT|52=20220401-14:23:55.942|56=SERVER|10=159|
8=FIX.4.4|9=56|35=0|34=14|49=SERVER|52=20220401-14:23:56.922|56=CLIENT|10=158|
8=FIX.4.4|9=56|35=0|34=15|49=CLIENT|52=20220401-14:24:25.942|56=SERVER|10=158|
8=FIX.4.4|9=56|35=0|34=15|49=SERVER|52=20220401-14:24:26.923|56=CLIENT|10=158|
8=FIX.4.4|9=56|35=0|34=16|49=CLIENT|52=20220401-14:24:55.942|56=SERVER|10=162|
8=FIX.4.4|9=56|35=0|34=16|49=SERVER|52=20220401-14:24:56.922|56=CLIENT|10=161|
8=FIX.4.4|9=56|35=0|34=17|49=CLIENT|52=20220401-14:25:25.942|56=SERVER|10=161|
8=FIX.4.4|9=56|35=0|34=17|49=SERVER|52=20220401-14:25:26.922|56=CLIENT|10=160|
8=FIX.4.4|9=56|35=0|34=18|49=CLIENT|52=20220401-14:25:55.941|56=SERVER|10=164|
8=FIX.4.4|9=56|35=0|34=18|49=SERVER|52=20220401-14:25:56.922|56=CLIENT|10=164|
8=FIX.4.4|9=56|35=0|34=19|49=CLIENT|52=20220401-14:26:25.940|56=SERVER|10=162|
8=FIX.4.4|9=56|35=0|34=19|49=SERVER|52=20220401-14:26:26.921|56=CLIENT|10=162|
8=FIX.4.4|9=118|35=D|34=20|49=CLIENT|52=20220401-14:26:42.146|56=SERVER|11=5|21=3|38=5|40=2|44=5|54=1|55=N/A|60=20220401-14:26:42.146|10=026|
8=FIX.4.4|9=131|35=8|34=20|49=SERVER|52=20220401-14:26:42.150|56=CLIENT|6=5|11=5|14=5|17=0000|31=5|37=0000|38=5|39=A|54=1|55=N/A|150=A|151=5|192=5|10=244|
8=FIX.4.4|9=133|35=8|34=21|49=SERVER|52=20220401-14:26:42.151|56=CLIENT|6=5|11=5|14=5|17=5bSEc|31=5|37=PQjbe|38=5|39=0|54=1|55=N/A|150=0|151=5|192=5|10=186|
8=FIX.4.4|9=118|35=D|34=21|49=CLIENT|52=20220401-14:26:47.701|56=SERVER|11=6|21=3|38=5|40=2|44=5|54=2|55=N/A|60=20220401-14:26:47.700|10=032|
8=FIX.4.4|9=131|35=8|34=22|49=SERVER|52=20220401-14:26:47.710|56=CLIENT|6=5|11=6|14=5|17=0000|31=5|37=0000|38=5|39=A|54=2|55=N/A|150=A|151=5|192=5|10=255|
8=FIX.4.4|9=133|35=8|34=23|49=SERVER|52=20220401-14:26:47.711|56=CLIENT|6=5|11=6|14=5|17=kZ9VP|31=5|37=LsIJw|38=5|39=0|54=2|55=N/A|150=0|151=5|192=5|10=206|
8=FIX.4.4|9=133|35=8|34=24|49=SERVER|52=20220401-14:26:47.712|56=CLIENT|6=5|11=6|14=5|17=kZ9VP|31=5|37=LsIJw|38=5|39=2|54=2|55=N/A|150=F|151=5|192=5|10=232|
8=FIX.4.4|9=56|35=0|34=25|49=SERVER|52=20220401-14:27:17.920|56=CLIENT|10=159|
8=FIX.4.4|9=56|35=0|34=22|49=CLIENT|52=20220401-14:27:17.923|56=SERVER|10=159|
8=FIX.4.4|9=56|35=0|34=26|49=SERVER|52=20220401-14:27:47.920|56=CLIENT|10=163|
8=FIX.4.4|9=56|35=0|34=23|49=CLIENT|52=20220401-14:27:47.924|56=SERVER|10=164|
8=FIX.4.4|9=56|35=0|34=27|49=SERVER|52=20220401-14:28:17.921|56=CLIENT|10=163|
8=FIX.4.4|9=56|35=0|34=24|49=CLIENT|52=20220401-14:28:17.924|56=SERVER|10=163|
8=FIX.4.4|9=56|35=0|34=28|49=SERVER|52=20220401-14:28:47.920|56=CLIENT|10=166|
8=FIX.4.4|9=56|35=0|34=25|49=CLIENT|52=20220401-14:28:47.923|56=SERVER|10=166|
8=FIX.4.4|9=56|35=0|34=29|49=SERVER|52=20220401-14:29:17.920|56=CLIENT|10=165|
8=FIX.4.4|9=56|35=0|34=26|49=CLIENT|52=20220401-14:29:17.922|56=SERVER|10=164|
8=FIX.4.4|9=56|35=0|34=30|49=SERVER|52=20220401-14:29:47.920|56=CLIENT|10=160|
8=FIX.4.4|9=56|35=0|34=27|49=CLIENT|52=20220401-14:29:47.924|56=SERVER|10=170|
8=FIX.4.4|9=56|35=0|34=31|49=SERVER|52=20220401-14:30:17.919|56=CLIENT|10=158|
8=FIX.4.4|9=56|35=0|34=28|49=CLIENT|52=20220401-14:30:17.922|56=SERVER|10=158|
8=FIX.4.4|9=56|35=0|34=32|49=SERVER|52=20220401-14:30:47.920|56=CLIENT|10=154|
8=FIX.4.4|9=56|35=0|34=29|49=CLIENT|52=20220401-14:30:47.923|56=SERVER|10=163|
8=FIX.4.4|9=56|35=0|34=33|49=SERVER|52=20220401-14:31:17.920|56=CLIENT|10=153|
8=FIX.4.4|9=56|35=0|34=30|49=CLIENT|52=20220401-14:31:17.923|56=SERVER|10=153|
8=FIX.4.4|9=56|35=0|34=34|49=SERVER|52=20220401-14:31:47.919|56=CLIENT|10=165|
8=FIX.4.4|9=56|35=0|34=31|49=CLIENT|52=20220401-14:31:47.921|56=SERVER|10=155|
8=FIX.4.4|9=56|35=0|34=35|49=SERVER|52=20220401-14:32:17.918|56=CLIENT|10=163|
8=FIX.4.4|9=56|35=0|34=32|49=CLIENT|52=20220401-14:32:17.922|56=SERVER|10=155|
8=FIX.4.4|9=56|35=0|34=36|49=SERVER|52=20220401-14:32:47.918|56=CLIENT|10=167|
8=FIX.4.4|9=56|35=0|34=33|49=CLIENT|52=20220401-14:32:47.921|56=SERVER|10=158|
8=FIX.4.4|9=56|35=0|34=37|49=SERVER|52=20220401-14:33:17.919|56=CLIENT|10=167|
8=FIX.4.4|9=56|35=0|34=34|49=CLIENT|52=20220401-14:33:17.921|56=SERVER|10=157|
8=FIX.4.4|9=56|35=0|34=38|49=SERVER|52=20220401-14:33:47.918|56=CLIENT|10=170|
8=FIX.4.4|9=56|35=0|34=35|49=CLIENT|52=20220401-14:33:47.922|56=SERVER|10=162|
8=FIX.4.4|9=56|35=0|34=39|49=SERVER|52=20220401-14:34:17.918|56=CLIENT|10=169|
8=FIX.4.4|9=56|35=0|34=36|49=CLIENT|52=20220401-14:34:17.921|56=SERVER|10=160|
8=FIX.4.4|9=56|35=0|34=40|49=SERVER|52=20220401-14:34:47.917|56=CLIENT|10=163|
8=FIX.4.4|9=56|35=0|34=37|49=CLIENT|52=20220401-14:34:47.921|56=SERVER|10=164|
8=FIX.4.4|9=56|35=0|34=41|49=SERVER|52=20220401-14:35:17.918|56=CLIENT|10=163|
8=FIX.4.4|9=56|35=0|34=38|49=CLIENT|52=20220401-14:35:17.921|56=SERVER|10=163|
8=FIX.4.4|9=56|35=0|34=42|49=SERVER|52=20220401-14:35:47.918|56=CLIENT|10=167|
8=FIX.4.4|9=56|35=0|34=39|49=CLIENT|52=20220401-14:35:47.922|56=SERVER|10=168|
8=FIX.4.4|9=56|35=0|34=43|49=SERVER|52=20220401-14:36:17.917|56=CLIENT|10=165|
8=FIX.4.4|9=56|35=0|34=40|49=CLIENT|52=20220401-14:36:17.921|56=SERVER|10=157|
8=FIX.4.4|9=56|35=0|34=44|49=SERVER|52=20220401-14:36:47.917|56=CLIENT|10=169|
8=FIX.4.4|9=56|35=0|34=41|49=CLIENT|52=20220401-14:36:47.921|56=SERVER|10=161|
8=FIX.4.4|9=56|35=0|34=45|49=SERVER|52=20220401-14:37:17.917|56=CLIENT|10=168|
8=FIX.4.4|9=56|35=0|34=42|49=CLIENT|52=20220401-14:37:17.920|56=SERVER|10=159|
8=FIX.4.4|9=56|35=5|34=43|49=CLIENT|52=20220401-14:37:35.940|56=SERVER|10=167|
8=FIX.4.4|9=56|35=5|34=46|49=SERVER|52=20220401-14:37:35.941|56=CLIENT|10=171|
8=FIX.4.4|9=73|35=A|34=1|49=CLIENT|52=20220401-14:50:00.622|56=SERVER|98=0|108=30|141=Y|10=178|
8=FIX.4.4|9=73|35=A|34=1|49=CLIENT|52=20220401-14:58:36.752|56=SERVER|98=0|108=30|141=Y|10=199|
8=FIX.4.4|9=73|35=A|34=1|49=SERVER|52=20220401-14:58:36.867|56=CLIENT|98=0|108=30|141=Y|10=206|
8=FIX.4.4|9=55|35=0|34=2|49=SERVER|52=20220401-14:59:06.879|56=CLIENT|10=121|
8=FIX.4.4|9=64|35=1|34=3|49=SERVER|52=20220401-14:59:21.878|56=CLIENT|112=TEST|10=137|
8=FIX.4.4|9=73|35=A|34=1|49=CLIENT|52=20220401-14:59:50.750|56=SERVER|98=0|108=30|141=Y|10=194|
8=FIX.4.4|9=73|35=A|34=1|49=SERVER|52=20220401-14:59:50.769|56=CLIENT|98=0|108=30|141=Y|10=204|
8=FIX.4.4|9=55|35=0|34=2|49=CLIENT|52=20220401-15:00:20.741|56=SERVER|10=092|
8=FIX.4.4|9=55|35=0|34=2|49=SERVER|52=20220401-15:00:20.878|56=CLIENT|10=103|
8=FIX.4.4|9=55|35=0|34=3|49=CLIENT|52=20220401-15:00:50.741|56=SERVER|10=096|
8=FIX.4.4|9=55|35=0|34=3|49=SERVER|52=20220401-15:00:50.878|56=CLIENT|10=107|
8=FIX.4.4|9=120|35=D|34=4|49=CLIENT|52=20220401-15:01:19.697|56=SERVER|11=2342|21=3|38=6|40=2|44=6|54=1|55=N/A|60=20220401-15:01:19.697|10=143|
8=FIX.4.4|9=133|35=8|34=4|49=SERVER|52=20220401-15:01:19.745|56=CLIENT|6=6|11=2342|14=6|17=0000|31=6|37=0000|38=6|39=A|54=1|55=N/A|150=A|151=6|192=6|10=108|
8=FIX.4.4|9=135|35=8|34=5|49=SERVER|52=20220401-15:01:19.746|56=CLIENT|6=6|11=2342|14=6|17=4gGsM|31=6|37=sSrka|38=6|39=0|54=1|55=N/A|150=0|151=6|192=6|10=116|
8=FIX.4.4|9=120|35=D|34=5|49=CLIENT|52=20220401-15:01:27.964|56=SERVER|11=2342|21=3|38=6|40=2|44=6|54=2|55=N/A|60=20220401-15:01:27.964|10=137|
8=FIX.4.4|9=135|35=8|34=6|49=SERVER|52=20220401-15:01:27.968|56=CLIENT|6=0|11=2342|14=0|17=hj2qQ|31=0|37=E8ao0|38=0|39=8|54=2|55=N/A|150=8|151=0|192=0|10=004|
8=FIX.4.4|9=120|35=D|34=6|49=CLIENT|52=20220401-15:01:33.912|56=SERVER|11=2343|21=3|38=6|40=2|44=6|54=2|55=N/A|60=20220401-15:01:33.912|10=119|
8=FIX.4.4|9=133|35=8|34=7|49=SERVER|52=20220401-15:01:33.941|56=CLIENT|6=6|11=2343|14=6|17=0000|31=6|37=0000|38=6|39=A|54=2|55=N/A|150=A|151=6|192=6|10=107|
8=FIX.4.4|9=135|35=8|34=8|49=SERVER|52=20220401-15:01:33.943|56=CLIENT|6=6|11=2343|14=6|17=2lh6q|31=6|37=Gp6Jl|38=6|39=0|54=2|55=N/A|150=0|151=6|192=6|10=030|
8=FIX.4.4|9=135|35=8|34=9|49=SERVER|52=20220401-15:01:33.946|56=CLIENT|6=6|11=2343|14=6|17=2lh6q|31=6|37=Gp6Jl|38=6|39=2|54=2|55=N/A|150=F|151=6|192=6|10=058|
8=FIX.4.4|9=55|35=0|34=7|49=CLIENT|52=20220401-15:02:04.740|56=SERVER|10=100|
8=FIX.4.4|9=56|35=0|34=10|49=SERVER|52=20220401-15:02:04.746|56=CLIENT|10=149|
8=FIX.4.4|9=55|35=0|34=8|49=CLIENT|52=20220401-15:02:34.741|56=SERVER|10=105|
8=FIX.4.4|9=56|35=0|34=11|49=SERVER|52=20220401-15:02:34.748|56=CLIENT|10=155|
8=FIX.4.4|9=55|35=0|34=9|49=CLIENT|52=20220401-15:03:04.740|56=SERVER|10=103|
8=FIX.4.4|9=56|35=0|34=12|49=SERVER|52=20220401-15:03:04.743|56=CLIENT|10=149|
8=FIX.4.4|9=56|35=0|34=10|49=CLIENT|52=20220401-15:03:34.741|56=SERVER|10=148|
8=FIX.4.4|9=56|35=0|34=13|49=SERVER|52=20220401-15:03:34.746|56=CLIENT|10=156|
8=FIX.4.4|9=73|35=A|34=1|49=CLIENT|52=20220401-15:07:32.894|56=SERVER|98=0|108=30|141=Y|10=197|
8=FIX.4.4|9=73|35=A|34=1|49=SERVER|52=20220401-15:07:32.997|56=CLIENT|98=0|108=30|141=Y|10=201|
8=FIX.4.4|9=55|35=0|34=2|49=SERVER|52=20220401-15:08:03.378|56=CLIENT|10=107|
8=FIX.4.4|9=64|35=1|34=3|49=SERVER|52=20220401-15:08:18.378|56=CLIENT|112=TEST|10=133|
8=FIX.4.4|9=73|35=A|34=1|49=CLIENT|52=20220401-15:08:46.893|56=SERVER|98=0|108=30|141=Y|10=202|
8=FIX.4.4|9=73|35=A|34=1|49=SERVER|52=20220401-15:08:46.909|56=CLIENT|98=0|108=30|141=Y|10=200|
8=FIX.4.4|9=55|35=0|34=2|49=SERVER|52=20220401-15:09:17.377|56=CLIENT|10=112|
8=FIX.4.4|9=55|35=0|34=2|49=CLIENT|52=20220401-15:09:17.388|56=SERVER|10=114|
8=FIX.4.4|9=118|35=D|34=3|49=CLIENT|52=20220401-15:09:28.304|56=SERVER|11=22|21=3|38=5|40=2|44=5|54=1|55=N/A|60=20220401-15:09:28.304|10=030|
8=FIX.4.4|9=131|35=8|34=3|49=SERVER|52=20220401-15:09:28.347|56=CLIENT|6=5|11=22|14=5|17=0000|31=5|37=0000|38=5|39=A|54=1|55=N/A|150=A|151=5|192=5|10=002|
8=FIX.4.4|9=133|35=8|34=4|49=SERVER|52=20220401-15:09:28.349|56=CLIENT|6=5|11=22|14=5|17=7MkrA|31=5|37=KGhN0|38=5|39=0|54=1|55=N/A|150=0|151=5|192=5|10=127|
8=FIX.4.4|9=55|35=0|34=5|49=SERVER|52=20220401-15:09:58.377|56=CLIENT|10=120|
8=FIX.4.4|9=55|35=0|34=4|49=CLIENT|52=20220401-15:09:58.390|56=SERVER|10=114|
8=FIX.4.4|9=55|35=0|34=6|49=SERVER|52=20220401-15:10:28.377|56=CLIENT|10=110|
8=FIX.4.4|9=55|35=0|34=5|49=CLIENT|52=20220401-15:10:28.390|56=SERVER|10=104|
8=FIX.4.4|9=55|35=0|34=7|49=SERVER|52=20220401-15:10:58.378|56=CLIENT|10=115|
8=FIX.4.4|9=55|35=0|34=6|49=CLIENT|52=20220401-15:10:58.388|56=SERVER|10=115|
8=FIX.4.4|9=55|35=0|34=8|49=SERVER|52=20220401-15:11:28.378|56=CLIENT|10=114|
8=FIX.4.4|9=55|35=0|34=7|49=CLIENT|52=20220401-15:11:28.389|56=SERVER|10=115|
8=FIX.4.4|9=55|35=5|34=8|49=CLIENT|52=20220401-15:11:33.882|56=SERVER|10=115|
8=FIX.4.4|9=55|35=5|34=9|49=SERVER|52=20220401-15:11:33.890|56=CLIENT|10=115|
8=FIX.4.4|9=73|35=A|34=1|49=CLIENT|52=20220401-15:28:36.873|56=SERVER|98=0|108=30|141=Y|10=201|
8=FIX.4.4|9=73|35=A|34=1|49=SERVER|52=20220401-15:28:36.986|56=CLIENT|98=0|108=30|141=Y|10=206|
8=FIX.4.4|9=55|35=0|34=2|49=SERVER|52=20220401-15:29:07.501|56=CLIENT|10=102|
8=FIX.4.4|9=64|35=1|34=3|49=SERVER|52=20220401-15:29:22.500|56=CLIENT|112=TEST|10=118|
8=FIX.4.4|9=73|35=A|34=1|49=CLIENT|52=20220401-15:44:50.644|56=SERVER|98=0|108=30|141=Y|10=191|
8=FIX.4.4|9=73|35=A|34=1|49=SERVER|52=20220401-15:44:50.760|56=CLIENT|98=0|108=30|141=Y|10=190|
8=FIX.4.4|9=55|35=0|34=2|49=SERVER|52=20220401-15:45:21.233|56=CLIENT|10=098|
8=FIX.4.4|9=64|35=1|34=3|49=SERVER|52=20220401-15:45:36.231|56=CLIENT|112=TEST|10=122|
8=FIX.4.4|9=73|35=A|34=1|49=CLIENT|52=20220401-15:46:04.635|56=SERVER|98=0|108=30|141=Y|10=192|
8=FIX.4.4|9=73|35=A|34=1|49=SERVER|52=20220401-15:46:04.656|56=CLIENT|98=0|108=30|141=Y|10=195|
8=FIX.4.4|9=55|35=0|34=2|49=CLIENT|52=20220401-15:46:34.628|56=SERVER|10=111|
8=FIX.4.4|9=55|35=0|34=2|49=SERVER|52=20220401-15:46:35.230|56=CLIENT|10=101|
8=FIX.4.4|9=117|35=D|34=3|49=CLIENT|52=20220401-15:46:37.787|56=SERVER|11=6|21=3|38=6|40=2|44=6|54=1|55=N/A|60=20220401-15:46:37.787|10=017|
8=FIX.4.4|9=130|35=8|34=3|49=SERVER|52=20220401-15:46:37.833|56=CLIENT|6=6|11=6|14=6|17=0000|31=6|37=0000|38=6|39=A|54=1|55=N/A|150=A|151=6|192=6|10=218|
8=FIX.4.4|9=132|35=8|34=4|49=SERVER|52=20220401-15:46:37.835|56=CLIENT|6=6|11=6|14=6|17=e4Lsy|31=6|37=qjgDM|38=6|39=0|54=1|55=N/A|150=0|151=6|192=6|10=225|
8=FIX.4.4|9=55|35=5|34=4|49=CLIENT|52=20220401-15:46:43.629|56=SERVER|10=119|
8=FIX.4.4|9=55|35=5|34=5|49=SERVER|52=20220401-15:46:43.635|56=CLIENT|10=117|
8=FIX.4.4|9=73|35=A|34=1|49=CLIENT|52=20220401-15:50:56.889|56=SERVER|98=0|108=30|141=Y|10=205|
8=FIX.4.4|9=73|35=A|34=1|49=SERVER|52=20220401-15:50:57.034|56=CLIENT|98=0|108=30|141=Y|10=188|
8=FIX.4.4|9=55|35=0|34=2|49=SERVER|52=20220401-15:51:27.862|56=CLIENT|10=109|
8=FIX.4.4|9=64|35=1|34=3|49=SERVER|52=20220401-15:51:42.861|56=CLIENT|112=TEST|10=125|
8=FIX.4.4|9=73|35=A|34=1|49=CLIENT|52=20220401-15:52:10.881|56=SERVER|98=0|108=30|141=Y|10=189|
8=FIX.4.4|9=73|35=A|34=1|49=SERVER|52=20220401-15:52:10.899|56=CLIENT|98=0|108=30|141=Y|10=198|
8=FIX.4.4|9=55|35=5|34=2|49=CLIENT|52=20220401-15:52:35.872|56=SERVER|10=115|
8=FIX.4.4|9=55|35=5|34=2|49=SERVER|52=20220401-15:52:35.879|56=CLIENT|10=122|
8=FIX.4.4|9=73|35=A|34=1|49=CLIENT|52=20220402-13:39:17.518|56=SERVER|98=0|108=30|141=Y|10=197|
8=FIX.4.4|9=73|35=A|34=1|49=SERVER|52=20220402-13:39:17.613|56=CLIENT|98=0|108=30|141=Y|10=193|
8=FIX.4.4|9=55|35=0|34=2|49=SERVER|52=20220402-13:39:48.005|56=CLIENT|10=106|
8=FIX.4.4|9=64|35=1|34=3|49=SERVER|52=20220402-13:40:03.005|56=CLIENT|112=TEST|10=109|
8=FIX.4.4|9=73|35=A|34=1|49=CLIENT|52=20220402-13:40:31.514|56=SERVER|98=0|108=30|141=Y|10=181|
8=FIX.4.4|9=73|35=A|34=1|49=SERVER|52=20220402-13:40:31.536|56=CLIENT|98=0|108=30|141=Y|10=185|
8=FIX.4.4|9=55|35=0|34=2|49=SERVER|52=20220402-13:41:02.004|56=CLIENT|10=088|
8=FIX.4.4|9=55|35=0|34=2|49=CLIENT|52=20220402-13:41:02.014|56=SERVER|10=089|
8=FIX.4.4|9=55|35=0|34=3|49=SERVER|52=20220402-13:41:32.004|56=CLIENT|10=092|
8=FIX.4.4|9=55|35=0|34=3|49=CLIENT|52=20220402-13:41:32.013|56=SERVER|10=092|
8=FIX.4.4|9=117|35=D|34=4|49=CLIENT|52=20220402-13:41:53.825|56=SERVER|11=5|21=3|38=6|40=2|44=6|54=1|55=N/A|60=20220402-13:41:53.825|10=243|
8=FIX.4.4|9=130|35=8|34=4|49=SERVER|52=20220402-13:41:53.861|56=CLIENT|6=6|11=5|14=6|17=0000|31=6|37=0000|38=6|39=A|54=1|55=N/A|150=A|151=6|192=6|10=211|
8=FIX.4.4|9=132|35=8|34=5|49=SERVER|52=20220402-13:41:53.864|56=CLIENT|6=6|11=5|14=6|17=9F7uu|31=6|37=gez0h|38=6|39=0|54=1|55=N/A|150=0|151=6|192=6|10=181|
8=FIX.4.4|9=55|35=0|34=6|49=SERVER|52=20220402-13:42:24.003|56=CLIENT|10=096|
8=FIX.4.4|9=55|35=0|34=5|49=CLIENT|52=20220402-13:42:24.009|56=SERVER|10=101|
8=FIX.4.4|9=55|35=0|34=6|49=CLIENT|52=20220402-13:42:54.503|56=SERVER|10=104|
8=FIX.4.4|9=64|35=1|34=7|49=CLIENT|52=20220402-13:43:09.503|56=SERVER|112=TEST|10=125|
8=FIX.4.4|9=73|35=A|34=1|49=CLIENT|52=20220402-13:43:37.507|56=SERVER|98=0|108=30|141=Y|10=192|
8=FIX.4.4|9=73|35=A|34=1|49=CLIENT|52=20220402-13:43:42.508|56=SERVER|98=0|108=30|141=Y|10=189|
8=FIX.4.4|9=73|35=A|34=1|49=CLIENT|52=20220402-13:43:47.508|56=SERVER|98=0|108=30|141=Y|10=194|
8=FIX.4.4|9=73|35=A|34=1|49=CLIENT|52=20220402-13:43:52.512|56=SERVER|98=0|108=30|141=Y|10=185|
8=FIX.4.4|9=73|35=A|34=1|49=CLIENT|52=20220402-13:43:57.515|56=SERVER|98=0|108=30|141=Y|10=193|
8=FIX.4.4|9=73|35=A|34=1|49=CLIENT|52=20220402-13:44:02.507|56=SERVER|98=0|108=30|141=Y|10=185|
8=FIX.4.4|9=73|35=A|34=1|49=CLIENT|52=20220402-13:44:07.512|56=SERVER|98=0|108=30|141=Y|10=186|
8=FIX.4.4|9=73|35=A|34=1|49=CLIENT|52=20220402-13:44:12.511|56=SERVER|98=0|108=30|141=Y|10=181|
8=FIX.4.4|9=73|35=A|34=1|49=CLIENT|52=20220402-13:44:17.512|56=SERVER|98=0|108=30|141=Y|10=187|
8=FIX.4.4|9=73|35=A|34=1|49=CLIENT|52=20220402-13:44:22.513|56=SERVER|98=0|108=30|141=Y|10=184|
8=FIX.4.4|9=73|35=A|34=1|49=CLIENT|52=20220402-13:44:27.513|56=SERVER|98=0|108=30|141=Y|10=189|
8=FIX.4.4|9=73|35=A|34=1|49=CLIENT|52=20220402-13:44:32.509|56=SERVER|98=0|108=30|141=Y|10=190|
8=FIX.4.4|9=73|35=A|34=1|49=CLIENT|52=20220402-13:44:37.509|56=SERVER|98=0|108=30|141=Y|10=195|
8=FIX.4.4|9=73|35=A|34=1|49=CLIENT|52=20220402-13:44:42.508|56=SERVER|98=0|108=30|141=Y|10=190|
8=FIX.4.4|9=73|35=A|34=1|49=CLIENT|52=20220402-13:44:47.511|56=SERVER|98=0|108=30|141=Y|10=189|
8=FIX.4.4|9=73|35=A|34=1|49=CLIENT|52=20220402-13:44:52.506|56=SERVER|98=0|108=30|141=Y|10=189|
8=FIX.4.4|9=73|35=A|34=1|49=CLIENT|52=20220402-13:44:57.514|56=SERVER|98=0|108=30|141=Y|10=193|
8=FIX.4.4|9=73|35=A|34=1|49=CLIENT|52=20220402-13:45:02.513|56=SERVER|98=0|108=30|141=Y|10=183|
8=FIX.4.4|9=73|35=A|34=1|49=CLIENT|52=20220402-13:45:07.514|56=SERVER|98=0|108=30|141=Y|10=189|
8=FIX.4.4|9=73|35=A|34=1|49=CLIENT|52=20220402-13:45:12.509|56=SERVER|98=0|108=30|141=Y|10=189|
8=FIX.4.4|9=73|35=A|34=1|49=CLIENT|52=20220402-13:45:17.509|56=SERVER|98=0|108=30|141=Y|10=194|
8=FIX.4.4|9=73|35=A|34=1|49=CLIENT|52=20220402-13:45:29.509|56=SERVER|98=0|108=30|141=Y|10=197|
8=FIX.4.4|9=73|35=A|34=1|49=CLIENT|52=20220402-13:45:41.514|56=SERVER|98=0|108=30|141=Y|10=187|
8=FIX.4.4|9=73|35=A|34=1|49=CLIENT|52=20220402-13:45:53.506|56=SERVER|98=0|108=30|141=Y|10=191|
8=FIX.4.4|9=73|35=A|34=1|49=CLIENT|52=20220402-13:46:05.508|56=SERVER|98=0|108=30|141=Y|10=191|
8=FIX.4.4|9=73|35=A|34=1|49=CLIENT|52=20220402-13:46:17.515|56=SERVER|98=0|108=30|141=Y|10=192|
8=FIX.4.4|9=73|35=A|34=1|49=CLIENT|52=20220402-13:46:29.509|56=SERVER|98=0|108=30|141=Y|10=198|
8=FIX.4.4|9=73|35=A|34=1|49=CLIENT|52=20220402-13:46:41.507|56=SERVER|98=0|108=30|141=Y|10=190|
8=FIX.4.4|9=73|35=A|34=1|49=CLIENT|52=20220402-13:46:53.508|56=SERVER|98=0|108=30|141=Y|10=194|
8=FIX.4.4|9=73|35=A|34=1|49=CLIENT|52=20220402-13:47:05.516|56=SERVER|98=0|108=30|141=Y|10=191|
8=FIX.4.4|9=73|35=A|34=1|49=CLIENT|52=20220402-13:47:17.513|56=SERVER|98=0|108=30|141=Y|10=191|
8=FIX.4.4|9=73|35=A|34=1|49=CLIENT|52=20220402-13:47:29.509|56=SERVER|98=0|108=30|141=Y|10=199|
8=FIX.4.4|9=73|35=A|34=1|49=CLIENT|52=20220402-13:47:41.508|56=SERVER|98=0|108=30|141=Y|10=192|
8=FIX.4.4|9=73|35=A|34=1|49=CLIENT|52=20220402-13:47:53.508|56=SERVER|98=0|108=30|141=Y|10=195|
8=FIX.4.4|9=73|35=A|34=1|49=CLIENT|52=20220402-13:48:05.511|56=SERVER|98=0|108=30|141=Y|10=187|
8=FIX.4.4|9=73|35=A|34=1|49=CLIENT|52=20220402-13:48:17.513|56=SERVER|98=0|108=30|141=Y|10=192|
8=FIX.4.4|9=73|35=A|34=1|49=CLIENT|52=20220402-13:48:29.511|56=SERVER|98=0|108=30|141=Y|10=193|
8=FIX.4.4|9=73|35=A|34=1|49=CLIENT|52=20220402-13:48:41.512|56=SERVER|98=0|108=30|141=Y|10=188|
8=FIX.4.4|9=73|35=A|34=1|49=CLIENT|52=20220402-13:48:53.508|56=SERVER|98=0|108=30|141=Y|10=196|
8=FIX.4.4|9=73|35=A|34=1|49=CLIENT|52=20220402-13:49:05.511|56=SERVER|98=0|108=30|141=Y|10=188|
8=FIX.4.4|9=73|35=A|34=1|49=CLIENT|52=20220402-13:49:17.507|56=SERVER|98=0|108=30|141=Y|10=196|
8=FIX.4.4|9=73|35=A|34=1|49=CLIENT|52=20220402-13:49:29.511|56=SERVER|98=0|108=30|141=Y|10=194|
8=FIX.4.4|9=73|35=A|34=1|49=CLIENT|52=20220402-13:49:41.509|56=SERVER|98=0|108=30|141=Y|10=195|
8=FIX.4.4|9=73|35=A|34=1|49=CLIENT|52=20220402-13:49:53.512|56=SERVER|98=0|108=30|141=Y|10=192|
8=FIX.4.4|9=73|35=A|34=1|49=CLIENT|52=20220402-13:50:05.509|56=SERVER|98=0|108=30|141=Y|10=187|
8=FIX.4.4|9=73|35=A|34=1|49=CLIENT|52=20220402-13:50:17.510|56=SERVER|98=0|108=30|141=Y|10=182|
8=FIX.4.4|9=73|35=A|34=1|49=CLIENT|52=20220402-13:50:29.514|56=SERVER|98=0|108=30|141=Y|10=189|
8=FIX.4.4|9=73|35=A|34=1|49=CLIENT|52=20220402-13:50:41.509|56=SERVER|98=0|108=30|141=Y|10=187|
8=FIX.4.4|9=73|35=A|34=1|49=CLIENT|52=20220402-13:50:53.509|56=SERVER|98=0|108=30|141=Y|10=190|
8=FIX.4.4|9=73|35=A|34=1|49=CLIENT|52=20220402-13:51:05.508|56=SERVER|98=0|108=30|141=Y|10=187|
8=FIX.4.4|9=73|35=A|34=1|49=CLIENT|52=20220402-13:51:17.512|56=SERVER|98=0|108=30|141=Y|10=185|
8=FIX.4.4|9=73|35=A|34=1|49=CLIENT|52=20220402-13:51:29.513|56=SERVER|98=0|108=30|141=Y|10=189|
8=FIX.4.4|9=73|35=A|34=1|49=CLIENT|52=20220402-13:51:41.508|56=SERVER|98=0|108=30|141=Y|10=187|
8=FIX.4.4|9=73|35=A|34=1|49=CLIENT|52=20220402-13:51:53.512|56=SERVER|98=0|108=30|141=Y|10=185|
8=FIX.4.4|9=73|35=A|34=1|49=CLIENT|52=20220402-13:52:05.509|56=SERVER|98=0|108=30|141=Y|10=189|
8=FIX.4.4|9=73|35=A|34=1|49=CLIENT|52=20220402-13:52:17.509|56=SERVER|98=0|108=30|141=Y|10=192|
8=FIX.4.4|9=73|35=A|34=1|49=CLIENT|52=20220402-13:52:29.511|56=SERVER|98=0|108=30|141=Y|10=188|
8=FIX.4.4|9=73|35=A|34=1|49=CLIENT|52=20220402-13:52:41.512|56=SERVER|98=0|108=30|141=Y|10=183|
8=FIX.4.4|9=73|35=A|34=1|49=CLIENT|52=20220402-13:52:53.512|56=SERVER|98=0|108=30|141=Y|10=186|
8=FIX.4.4|9=73|35=A|34=1|49=CLIENT|52=20220402-13:53:05.507|56=SERVER|98=0|108=30|141=Y|10=188|
8=FIX.4.4|9=73|35=A|34=1|49=CLIENT|52=20220402-13:53:17.509|56=SERVER|98=0|108=30|141=Y|10=193|
8=FIX.4.4|9=73|35=A|34=1|49=CLIENT|52=20220402-13:53:29.512|56=SERVER|98=0|108=30|141=Y|10=190|
8=FIX.4.4|9=73|35=A|34=1|49=CLIENT|52=20220402-13:53:41.512|56=SERVER|98=0|108=30|141=Y|10=184|
8=FIX.4.4|9=73|35=A|34=1|49=CLIENT|52=20220402-13:53:53.512|56=SERVER|98=0|108=30|141=Y|10=187|
8=FIX.4.4|9=73|35=A|34=1|49=CLIENT|52=20220402-13:54:05.507|56=SERVER|98=0|108=30|141=Y|10=189|
8=FIX.4.4|9=73|35=A|34=1|49=CLIENT|52=20220402-13:54:17.509|56=SERVER|98=0|108=30|141=Y|10=194|
8=FIX.4.4|9=73|35=A|34=1|49=CLIENT|52=20220402-13:54:29.506|56=SERVER|98=0|108=30|141=Y|10=194|
8=FIX.4.4|9=73|35=A|34=1|49=CLIENT|52=20220402-13:54:41.510|56=SERVER|98=0|108=30|141=Y|10=183|
8=FIX.4.4|9=73|35=A|34=1|49=CLIENT|52=20220402-13:54:53.507|56=SERVER|98=0|108=30|141=Y|10=192|
8=FIX.4.4|9=73|35=A|34=1|49=CLIENT|52=20220402-13:55:05.523|56=SERVER|98=0|108=30|141=Y|10=188|
8=FIX.4.4|9=73|35=A|34=1|49=CLIENT|52=20220402-13:55:17.510|56=SERVER|98=0|108=30|141=Y|10=187|
8=FIX.4.4|9=73|35=A|34=1|49=CLIENT|52=20220402-13:55:29.507|56=SERVER|98=0|108=30|141=Y|10=196|
8=FIX.4.4|9=73|35=A|34=1|49=CLIENT|52=20220402-13:55:41.509|56=SERVER|98=0|108=30|141=Y|10=192|
8=FIX.4.4|9=73|35=A|34=1|49=CLIENT|52=20220402-13:55:53.506|56=SERVER|98=0|108=30|141=Y|10=192|
8=FIX.4.4|9=73|35=A|34=1|49=CLIENT|52=20220402-13:56:05.509|56=SERVER|98=0|108=30|141=Y|10=193|
8=FIX.4.4|9=73|35=A|34=1|49=CLIENT|52=20220402-13:56:17.507|56=SERVER|98=0|108=30|141=Y|10=194|
8=FIX.4.4|9=73|35=A|34=1|49=CLIENT|52=20220402-13:56:29.509|56=SERVER|98=0|108=30|141=Y|10=199|
8=FIX.4.4|9=73|35=A|34=1|49=CLIENT|52=20220402-13:56:41.508|56=SERVER|98=0|108=30|141=Y|10=192|
8=FIX.4.4|9=73|35=A|34=1|49=CLIENT|52=20220402-13:56:53.511|56=SERVER|98=0|108=30|141=Y|10=189|
8=FIX.4.4|9=73|35=A|34=1|49=CLIENT|52=20220402-13:57:05.512|56=SERVER|98=0|108=30|141=Y|10=188|
8=FIX.4.4|9=73|35=A|34=1|49=CLIENT|52=20220402-13:57:17.512|56=SERVER|98=0|108=30|141=Y|10=191|
8=FIX.4.4|9=73|35=A|34=1|49=CLIENT|52=20220402-13:57:29.510|56=SERVER|98=0|108=30|141=Y|10=192|
8=FIX.4.4|9=73|35=A|34=1|49=CLIENT|52=20220402-13:57:41.510|56=SERVER|98=0|108=30|141=Y|10=186|
8=FIX.4.4|9=73|35=A|34=1|49=CLIENT|52=20220402-13:57:53.506|56=SERVER|98=0|108=30|141=Y|10=194|
8=FIX.4.4|9=73|35=A|34=1|49=CLIENT|52=20220402-13:58:05.508|56=SERVER|98=0|108=30|141=Y|10=194|
8=FIX.4.4|9=73|35=A|34=1|49=CLIENT|52=20220402-13:58:17.509|56=SERVER|98=0|108=30|141=Y|10=198|
8=FIX.4.4|9=73|35=A|34=1|49=CLIENT|52=20220402-13:58:29.504|56=SERVER|98=0|108=30|141=Y|10=196|
8=FIX.4.4|9=73|35=A|34=1|49=CLIENT|52=20220402-13:58:41.511|56=SERVER|98=0|108=30|141=Y|10=188|
8=FIX.4.4|9=73|35=A|34=1|49=CLIENT|52=20220402-13:58:53.508|56=SERVER|98=0|108=30|141=Y|10=197|
8=FIX.4.4|9=73|35=A|34=1|49=CLIENT|52=20220402-13:59:05.509|56=SERVER|98=0|108=30|141=Y|10=196|
8=FIX.4.4|9=73|35=A|34=1|49=CLIENT|52=20220402-13:59:17.507|56=SERVER|98=0|108=30|141=Y|10=197|
8=FIX.4.4|9=73|35=A|34=1|49=CLIENT|52=20220402-13:59:29.507|56=SERVER|98=0|108=30|141=Y|10=200|
8=FIX.4.4|9=73|35=A|34=1|49=CLIENT|52=20220402-13:59:41.507|56=SERVER|98=0|108=30|141=Y|10=194|
8=FIX.4.4|9=73|35=A|34=1|49=CLIENT|52=20220402-13:59:53.509|56=SERVER|98=0|108=30|141=Y|10=199|
8=FIX.4.4|9=73|35=A|34=1|49=CLIENT|52=20220402-14:00:05.510|56=SERVER|98=0|108=30|141=Y|10=175|
8=FIX.4.4|9=73|35=A|34=1|49=CLIENT|52=20220402-14:00:17.513|56=SERVER|98=0|108=30|141=Y|10=181|
8=FIX.4.4|9=73|35=A|34=1|49=CLIENT|52=20220402-14:00:29.509|56=SERVER|98=0|108=30|141=Y|10=189|
8=FIX.4.4|9=73|35=A|34=1|49=CLIENT|52=20220402-14:00:41.511|56=SERVER|98=0|108=30|141=Y|10=176|
8=FIX.4.4|9=73|35=A|34=1|49=CLIENT|52=20220402-14:00:53.512|56=SERVER|98=0|108=30|141=Y|10=180|
8=FIX.4.4|9=73|35=A|34=1|49=CLIENT|52=20220402-14:01:05.514|56=SERVER|98=0|108=30|141=Y|10=180|
8=FIX.4.4|9=73|35=A|34=1|49=CLIENT|52=20220402-14:01:17.508|56=SERVER|98=0|108=30|141=Y|10=186|
8=FIX.4.4|9=73|35=A|34=1|49=CLIENT|52=20220402-14:01:29.508|56=SERVER|98=0|108=30|141=Y|10=189|
8=FIX.4.4|9=73|35=A|34=1|49=CLIENT|52=20220402-14:01:41.510|56=SERVER|98=0|108=30|141=Y|10=176|
8=FIX.4.4|9=73|35=A|34=1|49=CLIENT|52=20220402-14:01:53.508|56=SERVER|98=0|108=30|141=Y|10=186|
8=FIX.4.4|9=73|35=A|34=1|49=CLIENT|52=20220402-14:02:05.511|56=SERVER|98=0|108=30|141=Y|10=178|
8=FIX.4.4|9=73|35=A|34=1|49=CLIENT|52=20220402-14:02:17.510|56=SERVER|98=0|108=30|141=Y|10=180|
8=FIX.4.4|9=73|35=A|34=1|49=CLIENT|52=20220402-14:02:29.511|56=SERVER|98=0|108=30|141=Y|10=184|
8=FIX.4.4|9=73|35=A|34=1|49=CLIENT|52=20220402-14:02:41.509|56=SERVER|98=0|108=30|141=Y|10=185|
8=FIX.4.4|9=73|35=A|34=1|49=CLIENT|52=20220402-14:02:53.509|56=SERVER|98=0|108=30|141=Y|10=188|
8=FIX.4.4|9=73|35=A|34=1|49=CLIENT|52=20220402-14:03:05.509|56=SERVER|98=0|108=30|141=Y|10=186|
8=FIX.4.4|9=73|35=A|34=1|49=CLIENT|52=20220402-14:03:17.508|56=SERVER|98=0|108=30|141=Y|10=188|
8=FIX.4.4|9=73|35=A|34=1|49=CLIENT|52=20220402-14:03:29.509|56=SERVER|98=0|108=30|141=Y|10=192|
8=FIX.4.4|9=73|35=A|34=1|49=CLIENT|52=20220402-14:03:41.507|56=SERVER|98=0|108=30|141=Y|10=184|
8=FIX.4.4|9=73|35=A|34=1|49=CLIENT|52=20220402-14:03:53.509|56=SERVER|98=0|108=30|141=Y|10=189|
8=FIX.4.4|9=73|35=A|34=1|49=CLIENT|52=20220402-14:04:05.511|56=SERVER|98=0|108=30|141=Y|10=180|
8=FIX.4.4|9=73|35=A|34=1|49=CLIENT|52=20220402-14:04:17.510|56=SERVER|98=0|108=30|141=Y|10=182|
8=FIX.4.4|9=73|35=A|34=1|49=CLIENT|52=20220402-14:04:29.512|56=SERVER|98=0|108=30|141=Y|10=187|
8=FIX.4.4|9=73|35=A|34=1|49=CLIENT|52=20220402-14:04:41.507|56=SERVER|98=0|108=30|141=Y|10=185|
8=FIX.4.4|9=73|35=A|34=1|49=CLIENT|52=20220402-14:04:53.509|56=SERVER|98=0|108=30|141=Y|10=190|
8=FIX.4.4|9=73|35=A|34=1|49=CLIENT|52=20220402-14:05:05.506|56=SERVER|98=0|108=30|141=Y|10=185|
8=FIX.4.4|9=73|35=A|34=1|49=CLIENT|52=20220402-14:05:17.512|56=SERVER|98=0|108=30|141=Y|10=185|
8=FIX.4.4|9=73|35=A|34=1|49=CLIENT|52=20220402-14:05:29.506|56=SERVER|98=0|108=30|141=Y|10=191|
8=FIX.4.4|9=73|35=A|34=1|49=CLIENT|52=20220402-14:05:41.509|56=SERVER|98=0|108=30|141=Y|10=188|
8=FIX.4.4|9=73|35=A|34=1|49=CLIENT|52=20220402-14:05:53.509|56=SERVER|98=0|108=30|141=Y|10=191|
8=FIX.4.4|9=73|35=A|34=1|49=CLIENT|52=20220402-14:06:05.511|56=SERVER|98=0|108=30|141=Y|10=182|
8=FIX.4.4|9=73|35=A|34=1|49=CLIENT|52=20220402-14:06:17.509|56=SERVER|98=0|108=30|141=Y|10=192|
8=FIX.4.4|9=73|35=A|34=1|49=CLIENT|52=20220402-14:06:29.507|56=SERVER|98=0|108=30|141=Y|10=193|
8=FIX.4.4|9=73|35=A|34=1|49=CLIENT|52=20220402-14:06:41.511|56=SERVER|98=0|108=30|141=Y|10=182|
8=FIX.4.4|9=73|35=A|34=1|49=CLIENT|52=20220402-14:06:53.510|56=SERVER|98=0|108=30|141=Y|10=184|
8=FIX.4.4|9=73|35=A|34=1|49=CLIENT|52=20220402-14:07:05.512|56=SERVER|98=0|108=30|141=Y|10=184|
8=FIX.4.4|9=73|35=A|34=1|49=CLIENT|52=20220402-14:07:17.506|56=SERVER|98=0|108=30|141=Y|10=190|
8=FIX.4.4|9=73|35=A|34=1|49=CLIENT|52=20220402-14:07:29.508|56=SERVER|98=0|108=30|141=Y|10=195|
8=FIX.4.4|9=73|35=A|34=1|49=CLIENT|52=20220402-14:07:41.511|56=SERVER|98=0|108=30|141=Y|10=183|
8=FIX.4.4|9=73|35=A|34=1|49=CLIENT|52=20220402-14:07:53.511|56=SERVER|98=0|108=30|141=Y|10=186|
8=FIX.4.4|9=73|35=A|34=1|49=CLIENT|52=20220402-14:08:05.511|56=SERVER|98=0|108=30|141=Y|10=184|
8=FIX.4.4|9=73|35=A|34=1|49=CLIENT|52=20220402-14:08:17.510|56=SERVER|98=0|108=30|141=Y|10=186|
8=FIX.4.4|9=73|35=A|34=1|49=CLIENT|52=20220402-14:08:29.507|56=SERVER|98=0|108=30|141=Y|10=195|
8=FIX.4.4|9=73|35=A|34=1|49=CLIENT|52=20220402-14:08:41.508|56=SERVER|98=0|108=30|141=Y|10=190|
8=FIX.4.4|9=73|35=A|34=1|49=CLIENT|52=20220402-14:08:53.510|56=SERVER|98=0|108=30|141=Y|10=186|
8=FIX.4.4|9=73|35=A|34=1|49=CLIENT|52=20220402-14:09:05.504|56=SERVER|98=0|108=30|141=Y|10=187|
8=FIX.4.4|9=73|35=A|34=1|49=CLIENT|52=20220402-14:09:17.512|56=SERVER|98=0|108=30|141=Y|10=189|
8=FIX.4.4|9=73|35=A|34=1|49=CLIENT|52=20220402-14:09:29.513|56=SERVER|98=0|108=30|141=Y|10=193|
8=FIX.4.4|9=73|35=A|34=1|49=CLIENT|52=20220402-14:09:41.513|56=SERVER|98=0|108=30|141=Y|10=187|
8=FIX.4.4|9=73|35=A|34=1|49=CLIENT|52=20220402-14:09:53.506|56=SERVER|98=0|108=30|141=Y|10=192|
8=FIX.4.4|9=73|35=A|34=1|49=CLIENT|52=20220402-14:10:05.514|56=SERVER|98=0|108=30|141=Y|10=180|
8=FIX.4.4|9=73|35=A|34=1|49=CLIENT|52=20220402-14:10:17.503|56=SERVER|98=0|108=30|141=Y|10=181|
8=FIX.4.4|9=73|35=A|34=1|49=CLIENT|52=20220402-14:10:29.512|56=SERVER|98=0|108=30|141=Y|10=184|
8=FIX.4.4|9=73|35=A|34=1|49=CLIENT|52=20220402-14:10:41.509|56=SERVER|98=0|108=30|141=Y|10=184|
8=FIX.4.4|9=73|35=A|34=1|49=CLIENT|52=20220402-14:10:53.510|56=SERVER|98=0|108=30|141=Y|10=179|
8=FIX.4.4|9=73|35=A|34=1|49=CLIENT|52=20220402-14:11:05.508|56=SERVER|98=0|108=30|141=Y|10=184|
8=FIX.4.4|9=73|35=A|34=1|49=CLIENT|52=20220402-14:11:17.507|56=SERVER|98=0|108=30|141=Y|10=186|
8=FIX.4.4|9=73|35=A|34=1|49=CLIENT|52=20220402-14:11:29.508|56=SERVER|98=0|108=30|141=Y|10=190|
8=FIX.4.4|9=73|35=A|34=1|49=CLIENT|52=20220402-14:11:41.509|56=SERVER|98=0|108=30|141=Y|10=185|
8=FIX.4.4|9=73|35=A|34=1|49=CLIENT|52=20220402-14:11:53.507|56=SERVER|98=0|108=30|141=Y|10=186|
8=FIX.4.4|9=73|35=A|34=1|49=CLIENT|52=20220402-14:12:05.510|56=SERVER|98=0|108=30|141=Y|10=178|
8=FIX.4.4|9=73|35=A|34=1|49=CLIENT|52=20220402-14:12:17.510|56=SERVER|98=0|108=30|141=Y|10=181|
8=FIX.4.4|9=73|35=A|34=1|49=CLIENT|52=20220402-14:12:29.513|56=SERVER|98=0|108=30|141=Y|10=187|
8=FIX.4.4|9=73|35=A|34=1|49=CLIENT|52=20220402-14:12:41.509|56=SERVER|98=0|108=30|141=Y|10=186|
8=FIX.4.4|9=73|35=A|34=1|49=CLIENT|52=20220402-14:12:53.508|56=SERVER|98=0|108=30|141=Y|10=188|
8=FIX.4.4|9=73|35=A|34=1|49=CLIENT|52=20220402-14:13:05.510|56=SERVER|98=0|108=30|141=Y|10=179|
8=FIX.4.4|9=73|35=A|34=1|49=CLIENT|52=20220402-14:13:17.509|56=SERVER|98=0|108=30|141=Y|10=190|
8=FIX.4.4|9=73|35=A|34=1|49=CLIENT|52=20220402-14:13:29.512|56=SERVER|98=0|108=30|141=Y|10=187|
8=FIX.4.4|9=73|35=A|34=1|49=CLIENT|52=20220402-14:13:41.507|56=SERVER|98=0|108=30|141=Y|10=185|
8=FIX.4.4|9=73|35=A|34=1|49=CLIENT|52=20220402-14:13:53.510|56=SERVER|98=0|108=30|141=Y|10=182|
8=FIX.4.4|9=73|35=A|34=1|49=CLIENT|52=20220402-14:14:05.506|56=SERVER|98=0|108=30|141=Y|10=185|
8=FIX.4.4|9=73|35=A|34=1|49=CLIENT|52=20220402-14:14:17.507|56=SERVER|98=0|108=30|141=Y|10=189|
8=FIX.4.4|9=73|35=A|34=1|49=CLIENT|52=20220402-14:14:29.512|56=SERVER|98=0|108=30|141=Y|10=188|
8=FIX.4.4|9=73|35=A|34=1|49=CLIENT|52=20220402-14:14:41.510|56=SERVER|98=0|108=30|141=Y|10=180|
8=FIX.4.4|9=73|35=A|34=1|49=CLIENT|52=20220402-14:14:53.509|56=SERVER|98=0|108=30|141=Y|10=191|
8=FIX.4.4|9=73|35=A|34=1|49=CLIENT|52=20220402-14:15:05.509|56=SERVER|98=0|108=30|141=Y|10=189|
8=FIX.4.4|9=73|35=A|34=1|49=CLIENT|52=20220402-14:15:17.512|56=SERVER|98=0|108=30|141=Y|10=186|
8=FIX.4.4|9=73|35=A|34=1|49=CLIENT|52=20220402-14:15:29.509|56=SERVER|98=0|108=30|141=Y|10=195|
8=FIX.4.4|9=73|35=A|34=1|49=CLIENT|52=20220402-14:15:41.507|56=SERVER|98=0|108=30|141=Y|10=187|
8=FIX.4.4|9=73|35=A|34=1|49=CLIENT|52=20220402-14:15:53.510|56=SERVER|98=0|108=30|141=Y|10=184|
8=FIX.4.4|9=73|35=A|34=1|49=CLIENT|52=20220402-14:16:05.512|56=SERVER|98=0|108=30|141=Y|10=184|
8=FIX.4.4|9=73|35=A|34=1|49=CLIENT|52=20220402-14:16:17.506|56=SERVER|98=0|108=30|141=Y|10=190|
8=FIX.4.4|9=73|35=A|34=1|49=CLIENT|52=20220402-14:16:29.507|56=SERVER|98=0|108=30|141=Y|10=194|
8=FIX.4.4|9=73|35=A|34=1|49=CLIENT|52=20220402-14:16:41.511|56=SERVER|98=0|108=30|141=Y|10=183|
8=FIX.4.4|9=73|35=A|34=1|49=CLIENT|52=20220402-14:16:53.510|56=SERVER|98=0|108=30|141=Y|10=185|
8=FIX.4.4|9=73|35=A|34=1|49=CLIENT|52=20220402-14:17:05.506|56=SERVER|98=0|108=30|141=Y|10=188|
8=FIX.4.4|9=73|35=A|34=1|49=CLIENT|52=20220402-14:17:17.510|56=SERVER|98=0|108=30|141=Y|10=186|
8=FIX.4.4|9=73|35=A|34=1|49=CLIENT|52=20220402-14:17:29.510|56=SERVER|98=0|108=30|141=Y|10=189|
8=FIX.4.4|9=73|35=A|34=1|49=CLIENT|52=20220402-14:17:41.508|56=SERVER|98=0|108=30|141=Y|10=190|
8=FIX.4.4|9=73|35=A|34=1|49=CLIENT|52=20220402-14:17:53.511|56=SERVER|98=0|108=30|141=Y|10=187|
8=FIX.4.4|9=73|35=A|34=1|49=CLIENT|52=20220402-14:18:05.510|56=SERVER|98=0|108=30|141=Y|10=184|
8=FIX.4.4|9=73|35=A|34=1|49=CLIENT|52=20220402-14:18:17.510|56=SERVER|98=0|108=30|141=Y|10=187|
8=FIX.4.4|9=73|35=A|34=1|49=CLIENT|52=20220402-14:18:29.507|56=SERVER|98=0|108=30|141=Y|10=196|
8=FIX.4.4|9=73|35=A|34=1|49=CLIENT|52=20220402-14:18:41.522|56=SERVER|98=0|108=30|141=Y|10=187|
8=FIX.4.4|9=73|35=A|34=1|49=CLIENT|52=20220402-14:18:53.508|56=SERVER|98=0|108=30|141=Y|10=194|
8=FIX.4.4|9=73|35=A|34=1|49=CLIENT|52=20220402-14:19:05.508|56=SERVER|98=0|108=30|141=Y|10=192|
8=FIX.4.4|9=73|35=A|34=1|49=CLIENT|52=20220402-14:19:17.514|56=SERVER|98=0|108=30|141=Y|10=192|
8=FIX.4.4|9=73|35=A|34=1|49=CLIENT|52=20220402-14:19:29.507|56=SERVER|98=0|108=30|141=Y|10=197|
8=FIX.4.4|9=73|35=A|34=1|49=CLIENT|52=20220402-14:19:41.518|56=SERVER|98=0|108=30|141=Y|10=193|
8=FIX.4.4|9=73|35=A|34=1|49=CLIENT|52=20220402-14:19:53.509|56=SERVER|98=0|108=30|141=Y|10=196|
8=FIX.4.4|9=73|35=A|34=1|49=CLIENT|52=20220402-14:20:05.510|56=SERVER|98=0|108=30|141=Y|10=177|
8=FIX.4.4|9=73|35=A|34=1|49=CLIENT|52=20220402-14:20:17.511|56=SERVER|98=0|108=30|141=Y|10=181|
8=FIX.4.4|9=73|35=A|34=1|49=CLIENT|52=20220402-14:20:29.510|56=SERVER|98=0|108=30|141=Y|10=183|
8=FIX.4.4|9=73|35=A|34=1|49=CLIENT|52=20220402-14:20:41.508|56=SERVER|98=0|108=30|141=Y|10=184|
8=FIX.4.4|9=73|35=A|34=1|49=CLIENT|52=20220402-14:20:53.505|56=SERVER|98=0|108=30|141=Y|10=184|
8=FIX.4.4|9=73|35=A|34=1|49=CLIENT|52=20220402-14:21:05.507|56=SERVER|98=0|108=30|141=Y|10=184|
8=FIX.4.4|9=73|35=A|34=1|49=CLIENT|52=20220402-14:21:17.508|56=SERVER|98=0|108=30|141=Y|10=188|
8=FIX.4.4|9=73|35=A|34=1|49=CLIENT|52=20220402-14:21:29.507|56=SERVER|98=0|108=30|141=Y|10=190|
8=FIX.4.4|9=73|35=A|34=1|49=CLIENT|52=20220402-14:21:41.512|56=SERVER|98=0|108=30|141=Y|10=180|
