8=FIX.4.4|9=72|35=A|34=1|49=CLIENT55555|52=20220411-12:58:32.399|56=SERVER|98=0|108=30|10=164|
8=FIX.4.4|9=72|35=A|34=1|49=SERVER|52=20220411-12:58:32.489|56=CLIENT55555|98=0|108=30|10=164|
8=FIX.4.4|9=78|35=A|34=1|49=CLIENT55555|52=20220411-12:59:03.398|56=SERVER|98=0|108=30|141=Y|10=213|
8=FIX.4.4|9=78|35=A|34=1|49=SERVER|52=20220411-12:59:03.420|56=CLIENT55555|98=0|108=30|141=Y|10=199|
8=FIX.4.4|9=129|35=D|34=2|49=CLIENT55555|52=20220411-12:59:17.843|56=SERVER|11=bcWiyTdG|21=3|38=5|40=2|44=5|54=1|55=N/A|60=20220411-12:59:17.843|10=211|
8=FIX.4.4|9=142|35=8|34=2|49=SERVER|52=20220411-12:59:17.889|56=CLIENT55555|6=5|11=bcWiyTdG|14=5|17=0000|31=5|37=0000|38=5|39=A|54=1|55=N/A|150=A|151=5|192=5|10=177|
8=FIX.4.4|9=144|35=8|34=3|49=SERVER|52=20220411-12:59:17.893|56=CLIENT55555|6=5|11=bcWiyTdG|14=5|17=yqepv|31=5|37=vQWJ2|38=5|39=0|54=1|55=N/A|150=0|151=5|192=5|10=220|
8=FIX.4.4|9=60|35=0|34=3|49=CLIENT55555|52=20220411-12:59:48.385|56=SERVER|10=124|
8=FIX.4.4|9=60|35=0|34=4|49=SERVER|52=20220411-12:59:48.390|56=CLIENT55555|10=121|
8=FIX.4.4|9=60|35=0|34=4|49=CLIENT55555|52=20220411-13:00:18.383|56=SERVER|10=107|
8=FIX.4.4|9=60|35=0|34=5|49=SERVER|52=20220411-13:00:18.388|56=CLIENT55555|10=113|
8=FIX.4.4|9=60|35=0|34=5|49=CLIENT55555|52=20220411-13:00:48.381|56=SERVER|10=109|
8=FIX.4.4|9=60|35=0|34=6|49=SERVER|52=20220411-13:00:48.384|56=CLIENT55555|10=113|
8=FIX.4.4|9=60|35=0|34=6|49=CLIENT55555|52=20220411-13:01:18.381|56=SERVER|10=108|
8=FIX.4.4|9=60|35=0|34=7|49=SERVER|52=20220411-13:01:18.388|56=CLIENT55555|10=116|
8=FIX.4.4|9=60|35=5|34=7|49=CLIENT55555|52=20220411-13:01:40.379|56=SERVER|10=116|
8=FIX.4.4|9=60|35=5|34=8|49=SERVER|52=20220411-13:01:40.380|56=CLIENT55555|10=109|
