8=FIX.4.4|9=67|35=A|34=4|49=CLIENT|52=20220411-11:07:39.612|56=SERVER|98=0|108=30|10=150|
8=FIX.4.4|9=67|35=A|34=1|49=SERVER|52=20220411-11:07:39.702|56=CLIENT|98=0|108=30|10=147|
8=FIX.4.4|9=73|35=A|34=1|49=CLIENT|52=20220411-11:07:45.608|56=SERVER|98=0|108=30|141=Y|10=191|
8=FIX.4.4|9=73|35=A|34=1|49=SERVER|52=20220411-11:07:45.630|56=CLIENT|98=0|108=30|141=Y|10=186|
8=FIX.4.4|9=67|35=A|34=2|49=CLIENT|52=20220411-11:08:07.290|56=SERVER|98=0|108=30|10=146|
8=FIX.4.4|9=67|35=A|34=3|49=CLIENT|52=20220411-11:08:13.306|56=SERVER|98=0|108=30|10=142|
8=FIX.4.4|9=55|35=0|34=2|49=SERVER|52=20220411-11:08:16.255|56=CLIENT|10=102|
8=FIX.4.4|9=55|35=0|34=2|49=CLIENT|52=20220411-11:08:16.262|56=SERVER|10=100|
8=FIX.4.4|9=67|35=A|34=3|49=CLIENT|52=20220411-11:08:18.314|56=SERVER|98=0|108=30|10=146|
8=FIX.4.4|9=124|35=D|34=3|49=CLIENT|52=20220411-11:08:22.794|56=SERVER|11=g2aw3DdS|21=3|38=5|40=2|44=5|54=1|55=N/A|60=20220411-11:08:22.794|10=092|
8=FIX.4.4|9=137|35=8|34=3|49=SERVER|52=20220411-11:08:22.830|56=CLIENT|6=5|11=g2aw3DdS|14=5|17=0000|31=5|37=0000|38=5|39=A|54=1|55=N/A|150=A|151=5|192=5|10=054|
8=FIX.4.4|9=139|35=8|34=4|49=SERVER|52=20220411-11:08:22.831|56=CLIENT|6=5|11=g2aw3DdS|14=5|17=81r8w|31=5|37=QnEr1|38=5|39=0|54=1|55=N/A|150=0|151=5|192=5|10=201|
8=FIX.4.4|9=67|35=A|34=4|49=CLIENT|52=20220411-11:08:23.289|56=SERVER|98=0|108=30|10=154|
8=FIX.4.4|9=55|35=0|34=5|49=SERVER|52=20220411-11:08:53.264|56=CLIENT|10=106|
8=FIX.4.4|9=55|35=0|34=4|49=CLIENT|52=20220411-11:08:53.264|56=SERVER|10=105|
8=FIX.4.4|9=55|35=0|34=5|49=CLIENT|52=20220411-11:09:23.608|56=SERVER|10=106|
8=FIX.4.4|9=55|35=0|34=6|49=SERVER|52=20220411-11:09:23.608|56=CLIENT|10=107|
8=FIX.4.4|9=55|35=0|34=6|49=CLIENT|52=20220411-11:09:53.601|56=SERVER|10=103|
8=FIX.4.4|9=55|35=0|34=7|49=SERVER|52=20220411-11:09:53.602|56=CLIENT|10=105|
8=FIX.4.4|9=55|35=0|34=7|49=CLIENT|52=20220411-11:10:23.617|56=SERVER|10=100|
8=FIX.4.4|9=55|35=0|34=8|49=SERVER|52=20220411-11:10:23.618|56=CLIENT|10=102|
8=FIX.4.4|9=55|35=0|34=8|49=CLIENT|52=20220411-11:10:53.613|56=SERVER|10=100|
8=FIX.4.4|9=55|35=0|34=9|49=SERVER|52=20220411-11:10:53.614|56=CLIENT|10=102|
8=FIX.4.4|9=55|35=0|34=9|49=CLIENT|52=20220411-11:11:23.607|56=SERVER|10=102|
8=FIX.4.4|9=56|35=0|34=10|49=SERVER|52=20220411-11:11:23.607|56=CLIENT|10=143|
8=FIX.4.4|9=56|35=0|34=10|49=CLIENT|52=20220411-11:11:53.598|56=SERVER|10=155|
8=FIX.4.4|9=56|35=0|34=11|49=SERVER|52=20220411-11:11:53.598|56=CLIENT|10=156|
8=FIX.4.4|9=56|35=0|34=11|49=CLIENT|52=20220411-11:12:23.596|56=SERVER|10=152|
8=FIX.4.4|9=56|35=0|34=12|49=SERVER|52=20220411-11:12:23.600|56=CLIENT|10=139|
8=FIX.4.4|9=56|35=0|34=12|49=CLIENT|52=20220411-11:12:53.598|56=SERVER|10=158|
8=FIX.4.4|9=56|35=0|34=13|49=SERVER|52=20220411-11:12:53.598|56=CLIENT|10=159|
8=FIX.4.4|9=56|35=0|34=13|49=CLIENT|52=20220411-11:13:23.609|56=SERVER|10=150|
8=FIX.4.4|9=56|35=0|34=14|49=SERVER|52=20220411-11:13:23.609|56=CLIENT|10=151|
8=FIX.4.4|9=56|35=0|34=15|49=SERVER|52=20220411-11:13:54.253|56=CLIENT|10=151|
8=FIX.4.4|9=56|35=0|34=14|49=CLIENT|52=20220411-11:13:54.253|56=SERVER|10=150|
8=FIX.4.4|9=56|35=0|34=16|49=SERVER|52=20220411-11:14:24.258|56=CLIENT|10=155|
8=FIX.4.4|9=56|35=0|34=15|49=CLIENT|52=20220411-11:14:24.262|56=SERVER|10=149|
8=FIX.4.4|9=56|35=0|34=17|49=SERVER|52=20220411-11:14:54.263|56=CLIENT|10=155|
8=FIX.4.4|9=56|35=0|34=16|49=CLIENT|52=20220411-11:14:54.265|56=SERVER|10=156|
8=FIX.4.4|9=56|35=0|34=18|49=SERVER|52=20220411-11:15:24.255|56=CLIENT|10=155|
8=FIX.4.4|9=56|35=0|34=17|49=CLIENT|52=20220411-11:15:24.606|56=SERVER|10=154|
8=FIX.4.4|9=56|35=0|34=19|49=SERVER|52=20220411-11:15:54.261|56=CLIENT|10=156|
8=FIX.4.4|9=56|35=0|34=18|49=CLIENT|52=20220411-11:15:54.601|56=SERVER|10=153|
8=FIX.4.4|9=56|35=0|34=20|49=SERVER|52=20220411-11:16:24.252|56=CLIENT|10=146|
8=FIX.4.4|9=56|35=0|34=19|49=CLIENT|52=20220411-11:16:24.605|56=SERVER|10=156|
8=FIX.4.4|9=56|35=0|34=21|49=SERVER|52=20220411-11:16:54.266|56=CLIENT|10=155|
8=FIX.4.4|9=56|35=0|34=20|49=CLIENT|52=20220411-11:16:54.598|56=SERVER|10=162|
8=FIX.4.4|9=56|35=0|34=22|49=SERVER|52=20220411-11:17:24.262|56=CLIENT|10=150|
8=FIX.4.4|9=56|35=0|34=21|49=CLIENT|52=20220411-11:17:24.609|56=SERVER|10=154|
8=FIX.4.4|9=56|35=0|34=23|49=SERVER|52=20220411-11:17:54.263|56=CLIENT|10=155|
8=FIX.4.4|9=56|35=0|34=22|49=CLIENT|52=20220411-11:17:55.597|56=SERVER|10=165|
8=FIX.4.4|9=56|35=0|34=24|49=SERVER|52=20220411-11:18:24.254|56=CLIENT|10=154|
8=FIX.4.4|9=56|35=0|34=23|49=CLIENT|52=20220411-11:18:25.612|56=SERVER|10=152|
8=FIX.4.4|9=56|35=0|34=25|49=SERVER|52=20220411-11:18:54.263|56=CLIENT|10=158|
8=FIX.4.4|9=56|35=0|34=24|49=CLIENT|52=20220411-11:18:56.611|56=SERVER|10=156|
8=FIX.4.4|9=56|35=0|34=26|49=SERVER|52=20220411-11:19:24.256|56=CLIENT|10=159|
8=FIX.4.4|9=56|35=0|34=25|49=CLIENT|52=20220411-11:19:27.598|56=SERVER|10=170|
8=FIX.4.4|9=56|35=0|34=27|49=SERVER|52=20220411-11:19:54.272|56=CLIENT|10=161|
8=FIX.4.4|9=56|35=0|34=26|49=CLIENT|52=20220411-11:19:57.595|56=SERVER|10=171|
8=FIX.4.4|9=56|35=0|34=28|49=SERVER|52=20220411-11:20:24.264|56=CLIENT|10=152|
8=FIX.4.4|9=56|35=0|34=27|49=CLIENT|52=20220411-11:20:27.606|56=SERVER|10=154|
8=FIX.4.4|9=56|35=0|34=29|49=SERVER|52=20220411-11:20:55.253|56=CLIENT|10=155|
8=FIX.4.4|9=56|35=0|34=28|49=CLIENT|52=20220411-11:20:57.601|56=SERVER|10=153|
8=FIX.4.4|9=56|35=0|34=30|49=SERVER|52=20220411-11:21:25.265|56=CLIENT|10=148|
8=FIX.4.4|9=56|35=0|34=29|49=CLIENT|52=20220411-11:21:27.602|56=SERVER|10=153|
8=FIX.4.4|9=56|35=0|34=31|49=SERVER|52=20220411-11:21:55.262|56=CLIENT|10=149|
8=FIX.4.4|9=56|35=0|34=30|49=CLIENT|52=20220411-11:21:57.598|56=SERVER|10=162|
8=FIX.4.4|9=56|35=0|34=32|49=SERVER|52=20220411-11:22:25.262|56=CLIENT|10=148|
8=FIX.4.4|9=56|35=0|34=31|49=CLIENT|52=20220411-11:22:27.605|56=SERVER|10=150|
8=FIX.4.4|9=56|35=0|34=33|49=SERVER|52=20220411-11:22:55.255|56=CLIENT|10=154|
8=FIX.4.4|9=56|35=0|34=32|49=CLIENT|52=20220411-11:22:57.605|56=SERVER|10=154|
8=FIX.4.4|9=56|35=0|34=34|49=SERVER|52=20220411-11:23:25.258|56=CLIENT|10=156|
8=FIX.4.4|9=56|35=0|34=33|49=CLIENT|52=20220411-11:23:27.596|56=SERVER|10=162|
8=FIX.4.4|9=56|35=0|34=35|49=SERVER|52=20220411-11:23:55.251|56=CLIENT|10=153|
8=FIX.4.4|9=56|35=0|34=34|49=CLIENT|52=20220411-11:23:57.605|56=SERVER|10=157|
8=FIX.4.4|9=56|35=0|34=36|49=SERVER|52=20220411-11:24:25.256|56=CLIENT|10=157|
8=FIX.4.4|9=56|35=0|34=35|49=CLIENT|52=20220411-11:24:27.607|56=SERVER|10=158|
8=FIX.4.4|9=56|35=0|34=37|49=SERVER|52=20220411-11:24:55.255|56=CLIENT|10=160|
8=FIX.4.4|9=56|35=0|34=36|49=CLIENT|52=20220411-11:24:58.596|56=SERVER|10=170|
8=FIX.4.4|9=56|35=0|34=38|49=SERVER|52=20220411-11:25:25.253|56=CLIENT|10=157|
8=FIX.4.4|9=56|35=0|34=37|49=CLIENT|52=20220411-11:25:28.595|56=SERVER|10=168|
8=FIX.4.4|9=56|35=0|34=39|49=SERVER|52=20220411-11:25:55.258|56=CLIENT|10=166|
8=FIX.4.4|9=56|35=0|34=38|49=CLIENT|52=20220411-11:25:58.607|56=SERVER|10=166|
8=FIX.4.4|9=56|35=0|34=40|49=SERVER|52=20220411-11:26:25.256|56=CLIENT|10=154|
8=FIX.4.4|9=56|35=0|34=39|49=CLIENT|52=20220411-11:26:28.609|56=SERVER|10=167|
8=FIX.4.4|9=67|35=A|34=1|49=CLIENT|52=20220411-12:42:26.969|56=SERVER|98=0|108=30|10=158|
8=FIX.4.4|9=67|35=A|34=1|49=SERVER|52=20220411-12:42:27.075|56=CLIENT|98=0|108=30|10=147|
8=FIX.4.4|9=73|35=A|34=1|49=CLIENT|52=20220411-12:42:57.965|56=SERVER|98=0|108=30|141=Y|10=200|
8=FIX.4.4|9=73|35=A|34=1|49=SERVER|52=20220411-12:42:57.983|56=CLIENT|98=0|108=30|141=Y|10=200|
8=FIX.4.4|9=124|35=D|34=2|49=CLIENT|52=20220411-12:43:07.108|56=SERVER|11=HngQ2SLC|21=3|38=5|40=2|44=5|54=1|55=N/A|60=20220411-12:43:07.108|10=046|
8=FIX.4.4|9=137|35=8|34=2|49=SERVER|52=20220411-12:43:07.145|56=CLIENT|6=5|11=HngQ2SLC|14=5|17=0000|31=5|37=0000|38=5|39=A|54=1|55=N/A|150=A|151=5|192=5|10=026|
8=FIX.4.4|9=139|35=8|34=3|49=SERVER|52=20220411-12:43:07.146|56=CLIENT|6=5|11=HngQ2SLC|14=5|17=Y1DnT|31=5|37=iD93B|38=5|39=0|54=1|55=N/A|150=0|151=5|192=5|10=103|
8=FIX.4.4|9=55|35=0|34=3|49=CLIENT|52=20220411-12:43:37.955|56=SERVER|10=113|
8=FIX.4.4|9=55|35=0|34=4|49=SERVER|52=20220411-12:43:37.957|56=CLIENT|10=116|
8=FIX.4.4|9=67|35=A|34=1|49=CLIENT|52=20220411-12:43:43.849|56=SERVER|98=0|108=30|10=155|
8=FIX.4.4|9=55|35=0|34=4|49=CLIENT|52=20220411-12:44:07.955|56=SERVER|10=112|
8=FIX.4.4|9=55|35=0|34=5|49=SERVER|52=20220411-12:44:07.960|56=CLIENT|10=109|
8=FIX.4.4|9=73|35=A|34=1|49=CLIENT|52=20220411-12:44:14.849|56=SERVER|98=0|108=30|141=Y|10=196|
8=FIX.4.4|9=143|35=8|34=6|49=SERVER|52=20220411-12:44:28.620|56=CLIENT|6=56|11=I9ILPZUl|14=56|17=0000|31=56|37=0000|38=56|39=A|54=1|55=N/A|150=A|151=56|192=56|10=097|
8=FIX.4.4|9=145|35=8|34=7|49=SERVER|52=20220411-12:44:28.624|56=CLIENT|6=56|11=I9ILPZUl|14=56|17=mt4mC|31=56|37=QXqON|38=56|39=0|54=1|55=N/A|150=0|151=56|192=56|10=066|
8=FIX.4.4|9=55|35=0|34=5|49=CLIENT|52=20220411-12:44:37.955|56=SERVER|10=116|
8=FIX.4.4|9=139|35=8|34=8|49=SERVER|52=20220411-12:44:43.981|56=CLIENT|6=0|11=I9ILPZUl|14=0|17=n7Uzj|31=0|37=uqj1I|38=0|39=8|54=1|55=N/A|150=8|151=0|192=0|10=035|
8=FIX.4.4|9=143|35=8|34=9|49=SERVER|52=20220411-12:44:47.089|56=CLIENT|6=56|11=i9fIv5L6|14=56|17=0000|31=56|37=0000|38=56|39=A|54=1|55=N/A|150=A|151=56|192=56|10=106|
8=FIX.4.4|9=146|35=8|34=10|49=SERVER|52=20220411-12:44:47.090|56=CLIENT|6=56|11=i9fIv5L6|14=56|17=HNt2U|31=56|37=gUA9c|38=56|39=0|54=1|55=N/A|150=0|151=56|192=56|10=021|
8=FIX.4.4|9=55|35=0|34=6|49=CLIENT|52=20220411-12:45:07.954|56=SERVER|10=114|
8=FIX.4.4|9=56|35=0|34=11|49=SERVER|52=20220411-12:45:18.077|56=CLIENT|10=157|
8=FIX.4.4|9=55|35=0|34=7|49=CLIENT|52=20220411-12:45:37.955|56=SERVER|10=119|
8=FIX.4.4|9=56|35=0|34=12|49=SERVER|52=20220411-12:45:48.077|56=CLIENT|10=161|
8=FIX.4.4|9=55|35=0|34=8|49=CLIENT|52=20220411-12:46:07.955|56=SERVER|10=118|
8=FIX.4.4|9=56|35=0|34=13|49=SERVER|52=20220411-12:46:18.077|56=CLIENT|10=160|
8=FIX.4.4|9=55|35=0|34=9|49=CLIENT|52=20220411-12:46:37.954|56=SERVER|10=121|
8=FIX.4.4|9=56|35=0|34=14|49=SERVER|52=20220411-12:46:48.076|56=CLIENT|10=163|
8=FIX.4.4|9=125|35=D|34=10|49=CLIENT|52=20220411-12:46:58.354|56=SERVER|11=y71mXBo1|21=3|38=5|40=2|44=5|54=1|55=N/A|60=20220411-12:46:58.354|10=124|
8=FIX.4.4|9=138|35=8|34=15|49=SERVER|52=20220411-12:46:58.357|56=CLIENT|6=5|11=y71mXBo1|14=5|17=0000|31=5|37=0000|38=5|39=A|54=1|55=N/A|150=A|151=5|192=5|10=099|
8=FIX.4.4|9=140|35=8|34=16|49=SERVER|52=20220411-12:46:58.358|56=CLIENT|6=5|11=y71mXBo1|14=5|17=d74UJ|31=5|37=0rxvj|38=5|39=0|54=1|55=N/A|150=0|151=5|192=5|10=036|
8=FIX.4.4|9=56|35=5|34=11|49=CLIENT|52=20220411-12:47:15.954|56=SERVER|10=165|
8=FIX.4.4|9=56|35=5|34=17|49=SERVER|52=20220411-12:47:15.958|56=CLIENT|10=175|
8=FIX.4.4|9=68|35=A|34=10|49=CLIENT|52=20220411-12:51:30.220|56=SERVER|98=0|108=30|10=182|
8=FIX.4.4|9=68|35=A|34=12|49=CLIENT|52=20220411-12:51:40.341|56=SERVER|98=0|108=30|10=189|
8=FIX.4.4|9=67|35=A|34=1|49=SERVER|52=20220411-12:51:40.377|56=CLIENT|98=0|108=30|10=147|
8=FIX.4.4|9=73|35=A|34=1|49=CLIENT|52=20220411-12:52:01.219|56=SERVER|98=0|108=30|141=Y|10=182|
8=FIX.4.4|9=73|35=A|34=1|49=CLIENT|52=20220411-12:52:11.346|56=SERVER|98=0|108=30|141=Y|10=184|
8=FIX.4.4|9=73|35=A|34=1|49=SERVER|52=20220411-12:52:11.365|56=CLIENT|98=0|108=30|141=Y|10=185|
8=FIX.4.4|9=55|35=0|34=2|49=CLIENT|52=20220411-12:52:42.330|56=SERVER|10=095|
8=FIX.4.4|9=64|35=1|34=3|49=CLIENT|52=20220411-12:52:57.329|56=SERVER|112=TEST|10=129|
8=FIX.4.4|9=73|35=A|34=1|49=CLIENT|52=20220411-12:53:25.340|56=SERVER|98=0|108=30|141=Y|10=184|
8=FIX.4.4|9=73|35=A|34=1|49=CLIENT|52=20220411-12:53:15.210|56=SERVER|98=0|108=30|141=Y|10=179|
8=FIX.4.4|9=73|35=A|34=1|49=CLIENT|52=20220411-12:53:45.219|56=SERVER|98=0|108=30|141=Y|10=191|
8=FIX.4.4|9=73|35=A|34=1|49=CLIENT|52=20220411-12:53:55.343|56=SERVER|98=0|108=30|141=Y|10=190|
8=FIX.4.4|9=73|35=A|34=1|49=SERVER|52=20220411-12:53:56.303|56=CLIENT|98=0|108=30|141=Y|10=187|
8=FIX.4.4|9=73|35=A|34=1|49=SERVER|52=20220411-12:53:56.315|56=CLIENT|98=0|108=30|141=Y|10=190|
8=FIX.4.4|9=73|35=A|34=1|49=CLIENT|52=20220411-12:54:15.213|56=SERVER|98=0|108=30|141=Y|10=183|
8=FIX.4.4|9=73|35=A|34=1|49=CLIENT|52=20220411-12:54:25.337|56=SERVER|98=0|108=30|141=Y|10=191|
8=FIX.4.4|9=73|35=A|34=1|49=SERVER|52=20220411-12:54:25.355|56=CLIENT|98=0|108=30|141=Y|10=191|
8=FIX.4.4|9=124|35=D|34=2|49=CLIENT|52=20220411-12:54:28.010|56=SERVER|11=NqHw8wY9|21=3|38=5|40=2|44=5|54=1|55=N/A|60=20220411-12:54:28.009|10=109|
8=FIX.4.4|9=137|35=8|34=2|49=SERVER|52=20220411-12:54:38.277|56=CLIENT|6=5|11=NqHw8wY9|14=5|17=0000|31=5|37=0000|38=5|39=A|54=1|55=N/A|150=A|151=5|192=5|10=099|
8=FIX.4.4|9=139|35=8|34=3|49=SERVER|52=20220411-12:54:38.278|56=CLIENT|6=5|11=NqHw8wY9|14=5|17=JFbNi|31=5|37=vTIAo|38=5|39=0|54=1|55=N/A|150=0|151=5|192=5|10=049|
8=FIX.4.4|9=55|35=5|34=3|49=CLIENT|52=20220411-12:54:50.329|56=SERVER|10=110|
8=FIX.4.4|9=55|35=5|34=4|49=SERVER|52=20220411-12:54:50.331|56=CLIENT|10=104|
