8=FIX.4.4|9=72|35=A|34=1|49=CLIENT55556|52=20220411-12:58:38.730|56=SERVER|98=0|108=30|10=160|
8=FIX.4.4|9=72|35=A|34=1|49=SERVER|52=20220411-12:58:38.782|56=CLIENT55556|98=0|108=30|10=167|
8=FIX.4.4|9=78|35=A|34=1|49=CLIENT55556|52=20220411-12:59:09.732|56=SERVER|98=0|108=30|141=Y|10=212|
8=FIX.4.4|9=78|35=A|34=1|49=SERVER|52=20220411-12:59:09.750|56=CLIENT55556|98=0|108=30|141=Y|10=212|
8=FIX.4.4|9=129|35=D|34=2|49=CLIENT55556|52=20220411-12:59:27.092|56=SERVER|11=F8u1iN1O|21=3|38=6|40=2|44=6|54=1|55=N/A|60=20220411-12:59:27.091|10=045|
8=FIX.4.4|9=142|35=8|34=2|49=SERVER|52=20220411-12:59:27.095|56=CLIENT55556|6=6|11=F8u1iN1O|14=6|17=0000|31=6|37=0000|38=6|39=A|54=1|55=N/A|150=A|151=6|192=6|10=012|
8=FIX.4.4|9=144|35=8|34=3|49=SERVER|52=20220411-12:59:27.099|56=CLIENT55556|6=6|11=F8u1iN1O|14=6|17=evQgA|31=6|37=qcfOg|38=6|39=0|54=1|55=N/A|150=0|151=6|192=6|10=053|
8=FIX.4.4|9=60|35=0|34=3|49=CLIENT55556|52=20220411-12:59:57.718|56=SERVER|10=125|
8=FIX.4.4|9=60|35=0|34=4|49=SERVER|52=20220411-12:59:57.721|56=CLIENT55556|10=120|
8=FIX.4.4|9=60|35=0|34=4|49=CLIENT55556|52=20220411-13:00:27.716|56=SERVER|10=108|
8=FIX.4.4|9=60|35=0|34=5|49=SERVER|52=20220411-13:00:27.719|56=CLIENT55556|10=112|
8=FIX.4.4|9=60|35=0|34=5|49=CLIENT55556|52=20220411-13:00:57.714|56=SERVER|10=110|
8=FIX.4.4|9=60|35=0|34=6|49=SERVER|52=20220411-13:00:57.718|56=CLIENT55556|10=115|
8=FIX.4.4|9=60|35=0|34=6|49=CLIENT55556|52=20220411-13:01:27.713|56=SERVER|10=108|
8=FIX.4.4|9=60|35=0|34=7|49=SERVER|52=20220411-13:01:27.720|56=CLIENT55556|10=107|
8=FIX.4.4|9=60|35=5|34=7|49=CLIENT55556|52=20220411-13:01:38.715|56=SERVER|10=118|
8=FIX.4.4|9=60|35=5|34=8|49=SERVER|52=20220411-13:01:38.733|56=CLIENT55556|10=119|
8=FIX.4.4|9=72|35=A|34=8|49=CLIENT55556|52=20220411-13:23:32.398|56=SERVER|98=0|108=30|10=164|
8=FIX.4.4|9=72|35=A|34=1|49=SERVER|52=20220411-13:23:32.451|56=CLIENT55556|98=0|108=30|10=147|
8=FIX.4.4|9=78|35=A|34=1|49=CLIENT55556|52=20220411-13:24:03.397|56=SERVER|98=0|108=30|141=Y|10=206|
8=FIX.4.4|9=78|35=A|34=1|49=SERVER|52=20220411-13:24:03.414|56=CLIENT55556|98=0|108=30|141=Y|10=196|
8=FIX.4.4|9=129|35=D|34=2|49=CLIENT55556|52=20220411-13:24:12.962|56=SERVER|11=2LDhHEXK|21=3|38=5|40=2|44=3|54=2|55=N/A|60=20220411-13:24:12.962|10=028|
8=FIX.4.4|9=142|35=8|34=2|49=SERVER|52=20220411-13:24:12.965|56=CLIENT55556|6=3|11=2LDhHEXK|14=5|17=0000|31=3|37=0000|38=5|39=A|54=2|55=N/A|150=A|151=5|192=5|10=251|
8=FIX.4.4|9=144|35=8|34=3|49=SERVER|52=20220411-13:24:12.966|56=CLIENT55556|6=3|11=2LDhHEXK|14=5|17=crOSv|31=3|37=IBgEn|38=5|39=0|54=2|55=N/A|150=0|151=5|192=5|10=239|
8=FIX.4.4|9=129|35=D|34=3|49=CLIENT55556|52=20220411-13:24:26.852|56=SERVER|11=kqW2qkaH|21=3|38=5|40=2|44=3|54=1|55=N/A|60=20220411-13:24:26.852|10=178|
8=FIX.4.4|9=142|35=8|34=4|49=SERVER|52=20220411-13:24:26.857|56=CLIENT55556|6=3|11=kqW2qkaH|14=5|17=0000|31=3|37=0000|38=5|39=A|54=1|55=N/A|150=A|151=5|192=5|10=145|
8=FIX.4.4|9=144|35=8|34=5|49=SERVER|52=20220411-13:24:26.861|56=CLIENT55556|6=3|11=kqW2qkaH|14=5|17=23i8q|31=3|37=sjRJC|38=5|39=0|54=1|55=N/A|150=0|151=5|192=5|10=032|
8=FIX.4.4|9=129|35=D|34=4|49=CLIENT55556|52=20220411-13:24:36.707|56=SERVER|11=NsD8ZnL2|21=3|38=5|40=2|44=5|54=1|55=N/A|60=20220411-13:24:36.707|10=078|
8=FIX.4.4|9=142|35=8|34=6|49=SERVER|52=20220411-13:24:36.711|56=CLIENT55556|6=5|11=NsD8ZnL2|14=5|17=0000|31=5|37=0000|38=5|39=A|54=1|55=N/A|150=A|151=5|192=5|10=038|
8=FIX.4.4|9=144|35=8|34=7|49=SERVER|52=20220411-13:24:36.712|56=CLIENT55556|6=5|11=NsD8ZnL2|14=5|17=686BB|31=5|37=TG7RW|38=5|39=0|54=1|55=N/A|150=0|151=5|192=5|10=043|
8=FIX.4.4|9=60|35=5|34=5|49=CLIENT55556|52=20220411-13:24:45.385|56=SERVER|10=122|
8=FIX.4.4|9=60|35=5|34=8|49=SERVER|52=20220411-13:24:45.389|56=CLIENT55556|10=129|
8=FIX.4.4|9=72|35=A|34=6|49=CLIENT55556|52=20220411-14:00:45.798|56=SERVER|98=0|108=30|10=166|
8=FIX.4.4|9=72|35=A|34=1|49=SERVER|52=20220411-14:00:45.895|56=CLIENT55556|98=0|108=30|10=159|
