8=FIX.4.4|9=73|35=A|34=1|49=SERVER|52=20220411-12:54:15.228|56=CLIENT|98=0|108=30|141=Y|10=189|8=FIX.4.4|9=55|35=0|34=2|49=SERVER|52=20220411-12:54:46.029|56=CLIENT|10=106|8=FIX.4.4|9=55|35=5|34=3|49=SERVER|52=20220411-12:54:52.208|56=CLIENT|10=108|