8=FIX.4.4|9=73|35=A|34=1|49=CLIENT|52=20220406-10:00:11.652|56=SERVER|98=0|108=30|141=Y|10=179|8=FIX.4.4|9=124|35=D|34=2|49=CLIENT|52=20220406-10:00:14.158|56=SERVER|11=Ib0EEb8s|21=3|38=5|40=2|44=5|54=1|55=N/A|60=20220406-10:00:14.158|10=026|8=FIX.4.4|9=124|35=D|34=3|49=CLIENT|52=20220406-10:00:24.723|56=SERVER|11=Ib0EEb8s|21=3|38=5|40=2|44=4|54=2|55=N/A|60=20220406-10:00:24.723|10=025|8=FIX.4.4|9=124|35=D|34=4|49=CLIENT|52=20220406-10:00:30.018|56=SERVER|11=D8rWHHs5|21=3|38=5|40=2|44=4|54=2|55=N/A|60=20220406-10:00:30.018|10=025|8=FIX.4.4|9=123|35=G|34=5|49=CLIENT|52=20220406-10:00:41.821|56=SERVER|11=PnD2fTz8|38=5|40=2|41=|44=5|54=2|55=N/A|60=20220406-10:00:41.821|10=023|8=FIX.4.4|9=131|35=G|34=6|49=CLIENT|52=20220406-10:00:50.010|56=SERVER|11=N4KL88Av|38=5|40=2|41=D8rWHHs5|44=5|54=2|55=N/A|60=20220406-10:00:50.010|10=032|8=FIX.4.4|9=55|35=0|34=7|49=CLIENT|52=20220406-10:01:20.640|56=SERVER|10=096|8=FIX.4.4|9=124|35=D|34=8|49=CLIENT|52=20220406-10:01:37.174|56=SERVER|11=LHqt3VTQ|21=3|38=5|40=2|44=5|54=2|55=N/A|60=20220406-10:01:37.174|10=094|8=FIX.4.4|9=124|35=D|34=9|49=CLIENT|52=20220406-10:01:40.768|56=SERVER|11=yGbqHGpX|21=3|38=5|40=2|44=5|54=2|55=N/A|60=20220406-10:01:40.768|10=168|8=FIX.4.4|9=125|35=D|34=10|49=CLIENT|52=20220406-10:01:42.896|56=SERVER|11=IC3BzRRG|21=3|38=5|40=2|44=5|54=2|55=N/A|60=20220406-10:01:42.896|10=085|8=FIX.4.4|9=126|35=D|34=11|49=CLIENT|52=20220406-10:01:53.584|56=SERVER|11=A6nSpc1N|21=3|38=5|40=2|44=50|54=1|55=N/A|60=20220406-10:01:53.584|10=162|8=FIX.4.4|9=126|35=D|34=12|49=CLIENT|52=20220406-10:01:57.536|56=SERVER|11=S1j47q36|21=3|38=5|40=2|44=51|54=1|55=N/A|60=20220406-10:01:57.536|10=079|8=FIX.4.4|9=126|35=D|34=13|49=CLIENT|52=20220406-10:02:02.821|56=SERVER|11=PckVfh5e|21=3|38=5|40=2|44=53|54=1|55=N/A|60=20220406-10:02:02.821|10=227|8=FIX.4.4|9=56|35=0|34=14|49=CLIENT|52=20220406-10:02:32.930|56=SERVER|10=149|8=FIX.4.4|9=117|35=F|34=15|49=CLIENT|52=20220406-10:02:42.206|56=SERVER|11=FAeyufTp|41=LHqt3VTQ|54=1|55=N/A|60=20220406-10:02:42.206|10=199|8=FIX.4.4|9=117|35=F|34=16|49=CLIENT|52=20220406-10:02:49.789|56=SERVER|11=FAeyufTp|41=LHqt3VTQ|54=2|55=N/A|60=20220406-10:02:49.789|10=247|8=FIX.4.4|9=117|35=F|34=17|49=CLIENT|52=20220406-10:02:54.282|56=SERVER|11=7RLY4w3v|41=yGbqHGpX|54=2|55=N/A|60=20220406-10:02:54.282|10=153|8=FIX.4.4|9=117|35=F|34=18|49=CLIENT|52=20220406-10:03:02.475|56=SERVER|11=rIHl88FI|41=IC3BzRRG|54=2|55=N/A|60=20220406-10:03:02.475|10=254|8=FIX.4.4|9=126|35=D|34=19|49=CLIENT|52=20220406-10:03:28.550|56=SERVER|11=3vnz7rFI|21=3|38=5|40=2|44=60|54=2|55=N/A|60=20220406-10:03:28.550|10=229|8=FIX.4.4|9=126|35=D|34=20|49=CLIENT|52=20220406-10:03:39.066|56=SERVER|11=5woXCn7W|21=3|38=5|40=2|44=61|54=2|55=N/A|60=20220406-10:03:39.066|10=207|8=FIX.4.4|9=133|35=G|34=21|49=CLIENT|52=20220406-10:04:06.164|56=SERVER|11=tbv5cnAS|38=5|40=2|41=5woXCn7W|44=61|54=2|55=N/A|60=20220406-10:04:06.164|10=122|8=FIX.4.4|9=133|35=G|34=22|49=CLIENT|52=20220406-10:04:27.002|56=SERVER|11=8641jFPI|38=5|40=2|41=5woXCn7W|44=53|54=2|55=N/A|60=20220406-10:04:27.002|10=166|8=FIX.4.4|9=56|35=0|34=23|49=CLIENT|52=20220406-10:04:57.639|56=SERVER|10=164|8=FIX.4.4|9=56|35=0|34=24|49=CLIENT|52=20220406-10:05:27.640|56=SERVER|10=155|8=FIX.4.4|9=56|35=5|34=25|49=CLIENT|52=20220406-10:05:35.640|56=SERVER|10=160|