8=FIX.4.4|9=73|35=A|34=1|49=CLIENT|52=20220405-11:20:48.692|56=SERVER|98=0|108=30|141=Y|10=195|8=FIX.4.4|9=122|35=D|34=2|49=CLIENT|52=20220405-11:21:00.785|56=SERVER|11=FaLiq|21=3|38=5|40=2|44=23|54=1|55=N/A|60=20220405-11:21:00.785|10=171|8=FIX.4.4|9=127|35=G|34=3|49=CLIENT|52=20220405-11:21:28.066|56=SERVER|11=DI9JH|38=50|40=2|41=FaLiq|44=25|54=1|55=N/A|60=20220405-11:21:28.066|10=017|8=FIX.4.4|9=55|35=0|34=4|49=CLIENT|52=20220405-11:21:58.678|56=SERVER|10=117|8=FIX.4.4|9=55|35=0|34=5|49=CLIENT|52=20220405-11:22:28.678|56=SERVER|10=116|8=FIX.4.4|9=55|35=5|34=6|49=CLIENT|52=20220405-11:22:36.678|56=SERVER|10=121|