8=FIX.4.4|9=73|35=A|34=1|49=CLIENT|52=20220402-17:31:34.984|56=SERVER|98=0|108=30|141=Y|10=199|8=FIX.4.4|9=118|35=D|34=2|49=CLIENT|52=20220402-17:31:39.961|56=SERVER|11=55|21=3|38=5|40=2|44=5|54=1|55=N/A|60=20220402-17:31:39.961|10=053|8=FIX.4.4|9=55|35=0|34=3|49=CLIENT|52=20220402-17:32:09.968|56=SERVER|10=119|8=FIX.4.4|9=55|35=0|34=4|49=CLIENT|52=20220402-17:32:39.967|56=SERVER|10=122|8=FIX.4.4|9=55|35=0|34=5|49=CLIENT|52=20220402-17:33:09.969|56=SERVER|10=123|8=FIX.4.4|9=55|35=0|34=6|49=CLIENT|52=20220402-17:33:39.969|56=SERVER|10=127|8=FIX.4.4|9=55|35=5|34=7|49=CLIENT|52=20220402-17:33:59.967|56=SERVER|10=133|