8=FIX.4.4|9=73|35=A|34=1|49=CLIENT|52=20220405-14:44:16.019|56=SERVER|98=0|108=30|141=Y|10=192|8=FIX.4.4|9=124|35=D|34=2|49=CLIENT|52=20220405-14:44:17.776|56=SERVER|11=DKZfMTYX|21=3|38=7|40=2|44=6|54=1|55=N/A|60=20220405-14:44:17.776|10=116|8=FIX.4.4|9=124|35=D|34=3|49=CLIENT|52=20220405-14:44:24.574|56=SERVER|11=qqkvVbRC|21=3|38=7|40=2|44=6|54=2|55=N/A|60=20220405-14:44:24.574|10=217|8=FIX.4.4|9=55|35=0|34=4|49=CLIENT|52=20220405-14:44:54.606|56=SERVER|10=112|8=FIX.4.4|9=55|35=0|34=5|49=CLIENT|52=20220405-14:45:24.605|56=SERVER|10=110|8=FIX.4.4|9=55|35=0|34=6|49=CLIENT|52=20220405-14:45:54.604|56=SERVER|10=113|8=FIX.4.4|9=55|35=0|34=7|49=CLIENT|52=20220405-14:46:24.606|56=SERVER|10=114|8=FIX.4.4|9=55|35=0|34=8|49=CLIENT|52=20220405-14:46:54.604|56=SERVER|10=116|8=FIX.4.4|9=55|35=0|34=9|49=CLIENT|52=20220405-14:47:24.605|56=SERVER|10=116|8=FIX.4.4|9=56|35=0|34=10|49=CLIENT|52=20220405-14:47:54.605|56=SERVER|10=160|8=FIX.4.4|9=56|35=0|34=11|49=CLIENT|52=20220405-14:48:24.606|56=SERVER|10=160|8=FIX.4.4|9=56|35=0|34=12|49=CLIENT|52=20220405-14:48:54.605|56=SERVER|10=163|8=FIX.4.4|9=56|35=0|34=13|49=CLIENT|52=20220405-14:49:24.604|56=SERVER|10=161|8=FIX.4.4|9=56|35=0|34=14|49=CLIENT|52=20220405-14:49:54.604|56=SERVER|10=165|8=FIX.4.4|9=56|35=0|34=15|49=CLIENT|52=20220405-14:50:24.612|56=SERVER|10=154|8=FIX.4.4|9=56|35=0|34=16|49=CLIENT|52=20220405-14:50:54.604|56=SERVER|10=159|8=FIX.4.4|9=56|35=0|34=17|49=CLIENT|52=20220405-14:51:24.604|56=SERVER|10=158|8=FIX.4.4|9=56|35=0|34=18|49=CLIENT|52=20220405-14:51:54.604|56=SERVER|10=162|8=FIX.4.4|9=56|35=0|34=19|49=CLIENT|52=20220405-14:52:24.603|56=SERVER|10=160|8=FIX.4.4|9=125|35=D|34=20|49=CLIENT|52=20220405-14:52:52.516|56=SERVER|11=qqkvVbRC|21=3|38=7|40=2|44=6|54=2|55=N/A|60=20220405-14:52:52.516|10=001|8=FIX.4.4|9=56|35=0|34=21|49=CLIENT|52=20220405-14:53:22.604|56=SERVER|10=153|8=FIX.4.4|9=56|35=0|34=22|49=CLIENT|52=20220405-14:53:52.603|56=SERVER|10=156|8=FIX.4.4|9=56|35=0|34=23|49=CLIENT|52=20220405-14:54:22.603|56=SERVER|10=155|8=FIX.4.4|9=56|35=0|34=24|49=CLIENT|52=20220405-14:54:52.603|56=SERVER|10=159|8=FIX.4.4|9=56|35=0|34=25|49=CLIENT|52=20220405-14:55:22.604|56=SERVER|10=159|8=FIX.4.4|9=56|35=0|34=26|49=CLIENT|52=20220405-14:55:52.604|56=SERVER|10=163|8=FIX.4.4|9=56|35=0|34=27|49=CLIENT|52=20220405-14:56:22.603|56=SERVER|10=161|8=FIX.4.4|9=56|35=0|34=28|49=CLIENT|52=20220405-14:56:52.603|56=SERVER|10=165|8=FIX.4.4|9=56|35=0|34=29|49=CLIENT|52=20220405-14:57:22.603|56=SERVER|10=164|8=FIX.4.4|9=56|35=0|34=30|49=CLIENT|52=20220405-14:57:52.602|56=SERVER|10=158|8=FIX.4.4|9=56|35=0|34=31|49=CLIENT|52=20220405-14:58:22.603|56=SERVER|10=158|8=FIX.4.4|9=56|35=0|34=32|49=CLIENT|52=20220405-14:58:52.603|56=SERVER|10=162|8=FIX.4.4|9=56|35=0|34=33|49=CLIENT|52=20220405-14:59:22.602|56=SERVER|10=160|8=FIX.4.4|9=56|35=5|34=34|49=CLIENT|52=20220405-14:59:36.009|56=SERVER|10=172|