8=FIX.4.4|9=73|35=A|34=1|49=CLIENT|52=20220406-08:57:23.409|56=SERVER|98=0|108=30|141=Y|10=201|8=FIX.4.4|9=124|35=D|34=2|49=CLIENT|52=20220406-08:57:23.615|56=SERVER|11=YSAQJuwy|21=3|38=4|40=2|44=4|54=1|55=N/A|60=20220406-08:57:23.615|10=181|8=FIX.4.4|9=124|35=D|34=3|49=CLIENT|52=20220406-08:57:31.315|56=SERVER|11=cM1lPTqm|21=3|38=4|40=2|44=6|54=2|55=N/A|60=20220406-08:57:31.315|10=147|8=FIX.4.4|9=55|35=0|34=4|49=CLIENT|52=20220406-08:58:01.401|56=SERVER|10=106|8=FIX.4.4|9=124|35=D|34=5|49=CLIENT|52=20220406-08:58:18.354|56=SERVER|11=bByXGtzz|21=3|38=4|40=2|44=6|54=2|55=N/A|60=20220406-08:58:18.354|10=252|8=FIX.4.4|9=131|35=G|34=6|49=CLIENT|52=20220406-08:58:37.489|56=SERVER|11=zDIBDRzX|38=4|40=2|41=cM1lPTqm|44=4|54=2|55=N/A|60=20220406-08:58:37.489|10=059|8=FIX.4.4|9=55|35=0|34=7|49=CLIENT|52=20220406-08:59:08.055|56=SERVER|10=122|8=FIX.4.4|9=55|35=5|34=8|49=CLIENT|52=20220406-08:59:14.399|56=SERVER|10=136|