8=FIX.4.4|9=73|35=A|34=1|49=CLIENT|52=20220404-10:49:33.254|56=SERVER|98=0|108=30|141=Y|10=192|8=FIX.4.4|9=55|35=0|34=2|49=CLIENT|52=20220404-10:50:03.246|56=SERVER|10=096|8=FIX.4.4|9=55|35=0|34=3|49=CLIENT|52=20220404-10:50:33.246|56=SERVER|10=100|8=FIX.4.4|9=117|35=D|34=4|49=CLIENT|52=20220404-10:50:39.917|56=SERVER|11=5|21=3|38=5|40=2|44=5|54=2|55=N/A|60=20220404-10:50:39.917|10=252|8=FIX.4.4|9=117|35=D|34=5|49=CLIENT|52=20220404-10:50:46.981|56=SERVER|11=5|21=3|38=5|40=2|44=5|54=1|55=N/A|60=20220404-10:50:46.981|10=250|8=FIX.4.4|9=117|35=D|34=6|49=CLIENT|52=20220404-10:51:00.199|56=SERVER|11=6|21=3|38=5|40=2|44=5|54=1|55=N/A|60=20220404-10:51:00.199|10=236|8=FIX.4.4|9=55|35=0|34=7|49=CLIENT|52=20220404-10:51:30.245|56=SERVER|10=101|8=FIX.4.4|9=117|35=D|34=8|49=CLIENT|52=20220404-10:51:59.955|56=SERVER|11=6|21=3|38=5|40=2|44=5|54=1|55=N/A|60=20220404-10:51:59.955|10=010|8=FIX.4.4|9=55|35=0|34=9|49=CLIENT|52=20220404-10:52:30.123|56=SERVER|10=099|8=FIX.4.4|9=118|35=D|34=10|49=CLIENT|52=20220404-10:52:39.167|56=SERVER|11=6|21=3|38=5|40=2|44=5|54=1|55=N/A|60=20220404-10:52:39.167|10=040|8=FIX.4.4|9=56|35=0|34=11|49=CLIENT|52=20220404-10:53:09.244|56=SERVER|10=152|8=FIX.4.4|9=56|35=5|34=12|49=CLIENT|52=20220404-10:53:36.123|56=SERVER|10=154|