8=FIX.4.4|9=73|35=A|34=1|49=CLIENT|52=20220406-12:26:01.563|56=SERVER|98=0|108=30|141=Y|10=189|8=FIX.4.4|9=124|35=D|34=2|49=CLIENT|52=20220406-12:26:07.723|56=SERVER|11=PMH59g9D|21=3|38=5|40=2|44=5|54=1|55=N/A|60=20220406-12:26:07.723|10=243|8=FIX.4.4|9=124|35=D|34=3|49=CLIENT|52=20220406-12:26:13.881|56=SERVER|11=DkmUD4hP|21=3|38=2|40=2|44=5|54=2|55=N/A|60=20220406-12:26:13.881|10=096|8=FIX.4.4|9=55|35=0|34=4|49=CLIENT|52=20220406-12:26:44.146|56=SERVER|10=109|8=FIX.4.4|9=125|35=D|34=5|49=CLIENT|52=20220406-12:27:07.682|56=SERVER|11=FFPmPLwa|21=3|38=10|40=2|44=5|54=2|55=N/A|60=20220406-12:27:07.682|10=180|8=FIX.4.4|9=55|35=0|34=6|49=CLIENT|52=20220406-12:27:38.145|56=SERVER|10=114|8=FIX.4.4|9=124|35=D|34=7|49=CLIENT|52=20220406-12:27:59.091|56=SERVER|11=W3tlvnQ6|21=3|38=7|40=2|44=5|54=1|55=N/A|60=20220406-12:27:59.091|10=164|8=FIX.4.4|9=55|35=0|34=8|49=CLIENT|52=20220406-12:28:29.145|56=SERVER|10=117|8=FIX.4.4|9=55|35=0|34=9|49=CLIENT|52=20220406-12:28:59.143|56=SERVER|10=119|8=FIX.4.4|9=56|35=0|34=10|49=CLIENT|52=20220406-12:29:29.146|56=SERVER|10=161|8=FIX.4.4|9=56|35=5|34=11|49=CLIENT|52=20220406-12:29:32.551|56=SERVER|10=161|