8=FIX.4.4|9=73|35=A|34=1|49=CLIENT|52=20220404-09:40:00.585|56=SERVER|98=0|108=30|141=Y|10=192|