8=FIX.4.4|9=73|35=A|34=1|49=CLIENT|52=20220404-13:24:51.703|56=SERVER|98=0|108=30|141=Y|10=187|8=FIX.4.4|9=117|35=D|34=2|49=CLIENT|52=20220404-13:24:54.680|56=SERVER|11=4|21=3|38=4|40=2|44=4|54=1|55=N/A|60=20220404-13:24:54.680|10=242|8=FIX.4.4|9=117|35=D|34=3|49=CLIENT|52=20220404-13:25:02.637|56=SERVER|11=5|21=3|38=4|40=2|44=4|54=1|55=N/A|60=20220404-13:25:02.637|10=236|8=FIX.4.4|9=117|35=D|34=4|49=CLIENT|52=20220404-13:25:10.165|56=SERVER|11=6|21=3|38=4|40=2|44=4|54=2|55=N/A|60=20220404-13:25:10.165|10=229|8=FIX.4.4|9=55|35=0|34=5|49=CLIENT|52=20220404-13:25:40.691|56=SERVER|10=109|8=FIX.4.4|9=55|35=0|34=6|49=CLIENT|52=20220404-13:26:10.692|56=SERVER|10=109|8=FIX.4.4|9=55|35=0|34=7|49=CLIENT|52=20220404-13:26:40.692|56=SERVER|10=113|8=FIX.4.4|9=117|35=D|34=8|49=CLIENT|52=20220404-13:27:06.619|56=SERVER|11=7|21=3|38=4|40=2|44=4|54=2|55=N/A|60=20220404-13:27:06.619|10=000|8=FIX.4.4|9=55|35=5|34=9|49=CLIENT|52=20220404-13:27:21.692|56=SERVER|10=120|8=FIX.4.4|9=68|35=A|34=10|49=CLIENT|52=20220404-14:50:45.345|56=SERVER|98=0|108=30|10=199|8=FIX.4.4|9=68|35=A|34=11|49=CLIENT|52=20220404-14:51:00.437|56=SERVER|98=0|108=30|10=194|