8=FIX.4.4|9=73|35=A|34=1|49=CLIENT|52=20220406-09:37:27.315|56=SERVER|98=0|108=30|141=Y|10=200|8=FIX.4.4|9=124|35=D|34=2|49=CLIENT|52=20220406-09:37:31.994|56=SERVER|11=BPVT0xCY|21=3|38=5|40=2|44=5|54=1|55=N/A|60=20220406-09:37:31.993|10=089|8=FIX.4.4|9=124|35=D|34=3|49=CLIENT|52=20220406-09:37:41.753|56=SERVER|11=CaaMrWfm|21=3|38=5|40=2|44=5|54=2|55=N/A|60=20220406-09:37:41.753|10=190|8=FIX.4.4|9=124|35=D|34=4|49=CLIENT|52=20220406-09:37:46.297|56=SERVER|11=CaaMrWfm|21=3|38=5|40=2|44=5|54=2|55=N/A|60=20220406-09:37:46.296|10=206|8=FIX.4.4|9=124|35=D|34=5|49=CLIENT|52=20220406-09:37:54.789|56=SERVER|11=Elk9NkTP|21=3|38=5|40=2|44=5|54=1|55=N/A|60=20220406-09:37:54.789|10=157|8=FIX.4.4|9=124|35=D|34=6|49=CLIENT|52=20220406-09:38:05.208|56=SERVER|11=nOONcQyn|21=3|38=5|40=2|44=5|54=1|55=N/A|60=20220406-09:38:05.208|10=191|8=FIX.4.4|9=124|35=D|34=7|49=CLIENT|52=20220406-09:38:10.294|56=SERVER|11=6418BDUF|21=3|38=5|40=2|44=5|54=2|55=N/A|60=20220406-09:38:10.293|10=193|8=FIX.4.4|9=55|35=0|34=8|49=CLIENT|52=20220406-09:38:40.301|56=SERVER|10=111|8=FIX.4.4|9=55|35=0|34=9|49=CLIENT|52=20220406-09:39:10.301|56=SERVER|10=110|8=FIX.4.4|9=56|35=0|34=10|49=CLIENT|52=20220406-09:39:40.300|56=SERVER|10=153|8=FIX.4.4|9=56|35=5|34=11|49=CLIENT|52=20220406-09:39:46.300|56=SERVER|10=165|