8=FIX.4.4|9=73|35=A|34=1|49=CLIENT|52=20220405-13:12:40.641|56=SERVER|98=0|108=30|141=Y|10=184|8=FIX.4.4|9=121|35=D|34=2|49=CLIENT|52=20220405-13:12:46.531|56=SERVER|11=gn2oC|21=3|38=5|40=2|44=5|54=1|55=N/A|60=20220405-13:12:46.531|10=104|8=FIX.4.4|9=117|35=D|34=3|49=CLIENT|52=20220405-13:12:50.745|56=SERVER|11=6|21=3|38=5|40=2|44=5|54=1|55=N/A|60=20220405-13:12:50.745|10=239|8=FIX.4.4|9=55|35=0|34=4|49=CLIENT|52=20220405-13:13:21.330|56=SERVER|10=095|8=FIX.4.4|9=55|35=0|34=5|49=CLIENT|52=20220405-13:13:51.330|56=SERVER|10=099|8=FIX.4.4|9=55|35=0|34=6|49=CLIENT|52=20220405-13:14:21.329|56=SERVER|10=106|8=FIX.4.4|9=55|35=0|34=7|49=CLIENT|52=20220405-13:14:51.329|56=SERVER|10=110|8=FIX.4.4|9=55|35=0|34=8|49=CLIENT|52=20220405-13:15:21.329|56=SERVER|10=109|8=FIX.4.4|9=55|35=0|34=9|49=CLIENT|52=20220405-13:15:51.328|56=SERVER|10=112|8=FIX.4.4|9=56|35=0|34=10|49=CLIENT|52=20220405-13:16:21.328|56=SERVER|10=151|8=FIX.4.4|9=56|35=0|34=11|49=CLIENT|52=20220405-13:16:51.328|56=SERVER|10=155|8=FIX.4.4|9=56|35=0|34=12|49=CLIENT|52=20220405-13:17:21.328|56=SERVER|10=154|8=FIX.4.4|9=56|35=0|34=13|49=CLIENT|52=20220405-13:17:51.327|56=SERVER|10=157|8=FIX.4.4|9=56|35=0|34=14|49=CLIENT|52=20220405-13:18:21.327|56=SERVER|10=156|8=FIX.4.4|9=56|35=0|34=15|49=CLIENT|52=20220405-13:18:51.327|56=SERVER|10=160|8=FIX.4.4|9=56|35=0|34=16|49=CLIENT|52=20220405-13:19:21.325|56=SERVER|10=157|8=FIX.4.4|9=56|35=0|34=17|49=CLIENT|52=20220405-13:19:51.324|56=SERVER|10=160|8=FIX.4.4|9=56|35=0|34=18|49=CLIENT|52=20220405-13:20:21.324|56=SERVER|10=150|8=FIX.4.4|9=56|35=0|34=19|49=CLIENT|52=20220405-13:20:51.324|56=SERVER|10=154|8=FIX.4.4|9=56|35=0|34=20|49=CLIENT|52=20220405-13:21:21.326|56=SERVER|10=146|8=FIX.4.4|9=56|35=0|34=21|49=CLIENT|52=20220405-13:21:51.323|56=SERVER|10=147|8=FIX.4.4|9=56|35=0|34=22|49=CLIENT|52=20220405-13:22:21.322|56=SERVER|10=145|8=FIX.4.4|9=122|35=D|34=23|49=CLIENT|52=20220405-13:22:40.400|56=SERVER|11=l7SJs|21=3|38=5|40=2|44=5|54=1|55=N/A|60=20220405-13:22:40.400|10=130|8=FIX.4.4|9=122|35=D|34=24|49=CLIENT|52=20220405-13:23:09.949|56=SERVER|11=l7SJs|21=3|38=5|40=2|44=5|54=1|55=N/A|60=20220405-13:23:09.949|10=179|8=FIX.4.4|9=56|35=0|34=25|49=CLIENT|52=20220405-13:23:40.324|56=SERVER|10=152|8=FIX.4.4|9=56|35=0|34=26|49=CLIENT|52=20220405-13:24:10.323|56=SERVER|10=150|8=FIX.4.4|9=56|35=0|34=27|49=CLIENT|52=20220405-13:24:40.320|56=SERVER|10=151|8=FIX.4.4|9=122|35=D|34=28|49=CLIENT|52=20220405-13:24:52.221|56=SERVER|11=fEmpb|21=3|38=5|40=2|44=5|54=1|55=N/A|60=20220405-13:24:52.221|10=202|8=FIX.4.4|9=56|35=0|34=29|49=CLIENT|52=20220405-13:25:22.323|56=SERVER|10=157|8=FIX.4.4|9=56|35=0|34=30|49=CLIENT|52=20220405-13:25:52.321|56=SERVER|10=150|8=FIX.4.4|9=122|35=D|34=31|49=CLIENT|52=20220405-13:25:58.310|56=SERVER|11=aLOfz|21=3|38=5|40=2|44=5|54=2|55=N/A|60=20220405-13:25:58.310|10=195|8=FIX.4.4|9=56|35=5|34=32|49=CLIENT|52=20220405-13:26:22.625|56=SERVER|10=162|