8=FIX.4.4|9=73|35=A|34=1|49=CLIENT|52=20220406-10:33:42.391|56=SERVER|98=0|108=30|141=Y|10=189|8=FIX.4.4|9=124|35=D|34=2|49=CLIENT|52=20220406-10:33:45.997|56=SERVER|11=9Wmx8IJF|21=3|38=5|40=2|44=5|54=1|55=N/A|60=20220406-10:33:45.997|10=088|8=FIX.4.4|9=124|35=D|34=3|49=CLIENT|52=20220406-10:33:51.925|56=SERVER|11=DFz5UVTh|21=3|38=5|40=2|44=5|54=2|55=N/A|60=20220406-10:33:51.925|10=092|8=FIX.4.4|9=124|35=D|34=4|49=CLIENT|52=20220406-10:33:54.070|56=SERVER|11=DFz5UVTh|21=3|38=5|40=2|44=5|54=2|55=N/A|60=20220406-10:33:54.070|10=081|8=FIX.4.4|9=55|35=0|34=5|49=CLIENT|52=20220406-10:34:24.380|56=SERVER|10=105|8=FIX.4.4|9=55|35=0|34=6|49=CLIENT|52=20220406-10:34:54.379|56=SERVER|10=117|8=FIX.4.4|9=55|35=0|34=7|49=CLIENT|52=20220406-10:35:24.378|56=SERVER|10=115|8=FIX.4.4|9=55|35=5|34=8|49=CLIENT|52=20220406-10:35:42.380|56=SERVER|10=114|