8=FIX.4.4|9=73|35=A|34=1|49=CLIENT|52=20220404-15:33:20.117|56=SERVER|98=0|108=30|141=Y|10=184|8=FIX.4.4|9=123|35=D|34=2|49=CLIENT|52=20220404-15:33:38.562|56=SERVER|11=100|21=3|38=10|40=2|44=15.6|54=1|55=N/A|60=20220404-15:33:38.561|10=020|8=FIX.4.4|9=123|35=D|34=3|49=CLIENT|52=20220404-15:33:51.525|56=SERVER|11=101|21=3|38=10|40=2|44=15.6|54=2|55=N/A|60=20220404-15:33:51.525|10=012|8=FIX.4.4|9=55|35=0|34=4|49=CLIENT|52=20220404-15:34:22.105|56=SERVER|10=100|8=FIX.4.4|9=55|35=0|34=5|49=CLIENT|52=20220404-15:34:52.104|56=SERVER|10=103|8=FIX.4.4|9=55|35=0|34=6|49=CLIENT|52=20220404-15:35:22.103|56=SERVER|10=101|8=FIX.4.4|9=55|35=0|34=7|49=CLIENT|52=20220404-15:35:52.103|56=SERVER|10=105|8=FIX.4.4|9=55|35=0|34=8|49=CLIENT|52=20220404-15:36:22.103|56=SERVER|10=104|8=FIX.4.4|9=55|35=0|34=9|49=CLIENT|52=20220404-15:36:52.103|56=SERVER|10=108|8=FIX.4.4|9=124|35=D|34=10|49=CLIENT|52=20220404-15:37:15.662|56=SERVER|11=101|21=3|38=10|40=2|44=15.6|54=2|55=N/A|60=20220404-15:37:15.662|10=071|8=FIX.4.4|9=124|35=D|34=11|49=CLIENT|52=20220404-15:37:35.029|56=SERVER|11=102|21=3|38=10|40=2|44=15.6|54=2|55=N/A|60=20220404-15:37:35.029|10=071|8=FIX.4.4|9=56|35=5|34=12|49=CLIENT|52=20220404-15:37:58.102|56=SERVER|10=162|