8=FIX.4.4|9=72|35=A|34=1|49=CLIENT55558|52=20220418-13:43:54.925|56=SERVER|98=0|108=30|10=168|
8=FIX.4.4|9=72|35=A|34=1|49=SERVER|52=20220418-13:43:55.963|56=CLIENT55558|98=0|108=30|10=171|
8=FIX.4.4|9=78|35=A|34=1|49=CLIENT55558|52=20220418-13:43:55.567|56=SERVER|98=0|108=30|141=Y|10=222|
8=FIX.4.4|9=78|35=A|34=1|49=SERVER|52=20220418-13:43:57.297|56=CLIENT55558|98=0|108=30|141=Y|10=224|
8=FIX.4.4|9=129|35=D|34=1|49=CLIENT55558|52=20220418-13:44:09.416|56=SERVER|11=HMepcO2v|21=3|38=6|40=2|44=6|54=1|55=N/A|60=20220418-13:44:09.416|10=156|
8=FIX.4.4|9=109|35=5|34=2|49=SERVER|52=20220418-13:44:09.438|56=CLIENT55558|58=MsgSeqNum too low, expecting 2 but received 1|10=076|
8=FIX.4.4|9=60|35=5|34=2|49=CLIENT55558|52=20220418-13:44:09.443|56=SERVER|10=125|
8=FIX.4.4|9=78|35=A|34=1|49=CLIENT55558|52=20220418-13:44:25.229|56=SERVER|98=0|108=30|141=Y|10=215|
8=FIX.4.4|9=78|35=A|34=1|49=SERVER|52=20220418-13:44:25.244|56=CLIENT55558|98=0|108=30|141=Y|10=212|
8=FIX.4.4|9=129|35=D|34=2|49=CLIENT55558|52=20220418-13:44:34.724|56=SERVER|11=HMepcO2v|21=3|38=6|40=2|44=6|54=1|55=N/A|60=20220418-13:44:34.724|10=157|
8=FIX.4.4|9=142|35=8|34=2|49=SERVER|52=20220418-13:44:34.752|56=CLIENT55558|6=6|11=HMepcO2v|14=6|17=0000|31=6|37=0000|38=6|39=A|54=1|55=N/A|150=A|151=6|192=6|10=119|
8=FIX.4.4|9=144|35=8|34=3|49=SERVER|52=20220418-13:44:34.753|56=CLIENT55558|6=6|11=HMepcO2v|14=6|17=LIfgU|31=6|37=JbwGN|38=6|39=0|54=1|55=N/A|150=0|151=6|192=6|10=072|
8=FIX.4.4|9=60|35=0|34=4|49=SERVER|52=20220418-13:45:05.152|56=CLIENT55558|10=116|
8=FIX.4.4|9=60|35=0|34=3|49=CLIENT55558|52=20220418-13:45:05.156|56=SERVER|10=119|
8=FIX.4.4|9=60|35=0|34=5|49=SERVER|52=20220418-13:45:35.151|56=CLIENT55558|10=119|
8=FIX.4.4|9=60|35=0|34=4|49=CLIENT55558|52=20220418-13:45:35.163|56=SERVER|10=121|
8=FIX.4.4|9=60|35=0|34=6|49=SERVER|52=20220418-13:46:05.151|56=CLIENT55558|10=118|
8=FIX.4.4|9=60|35=0|34=5|49=CLIENT55558|52=20220418-13:46:05.157|56=SERVER|10=123|
8=FIX.4.4|9=60|35=5|34=6|49=CLIENT55558|52=20220418-13:46:11.217|56=SERVER|10=123|
8=FIX.4.4|9=60|35=5|34=7|49=SERVER|52=20220418-13:46:11.223|56=CLIENT55558|10=121|
