8=FIX.4.4|9=73|35=A|34=1|49=CLIENT|52=20220411-12:54:25.337|56=SERVER|98=0|108=30|141=Y|10=191|8=FIX.4.4|9=124|35=D|34=2|49=CLIENT|52=20220411-12:54:28.010|56=SERVER|11=NqHw8wY9|21=3|38=5|40=2|44=5|54=1|55=N/A|60=20220411-12:54:28.009|10=109|8=FIX.4.4|9=55|35=5|34=3|49=CLIENT|52=20220411-12:54:50.329|56=SERVER|10=110|