8=FIX.4.4|9=78|35=A|34=1|49=CLIENT55556|52=20220411-12:59:09.732|56=SERVER|98=0|108=30|141=Y|10=212|8=FIX.4.4|9=129|35=D|34=2|49=CLIENT55556|52=20220411-12:59:27.092|56=SERVER|11=F8u1iN1O|21=3|38=6|40=2|44=6|54=1|55=N/A|60=20220411-12:59:27.091|10=045|8=FIX.4.4|9=60|35=0|34=3|49=CLIENT55556|52=20220411-12:59:57.718|56=SERVER|10=125|8=FIX.4.4|9=60|35=0|34=4|49=CLIENT55556|52=20220411-13:00:27.716|56=SERVER|10=108|8=FIX.4.4|9=60|35=0|34=5|49=CLIENT55556|52=20220411-13:00:57.714|56=SERVER|10=110|8=FIX.4.4|9=60|35=0|34=6|49=CLIENT55556|52=20220411-13:01:27.713|56=SERVER|10=108|8=FIX.4.4|9=60|35=5|34=7|49=CLIENT55556|52=20220411-13:01:38.715|56=SERVER|10=118|