8=FIX.4.4|9=67|35=A|34=1|49=SERVER|52=20220411-11:08:07.323|56=CLIENT|98=0|108=30|10=142|
8=FIX.4.4|9=67|35=A|34=1|49=SERVER|52=20220411-11:08:13.320|56=CLIENT|98=0|108=30|10=136|
8=FIX.4.4|9=104|35=5|34=4|49=CLIENT|52=20220411-11:08:13.324|56=SERVER|58=MsgSeqNum too low, expecting 2 but received 1|10=041|
8=FIX.4.4|9=55|35=5|34=2|49=SERVER|52=20220411-11:08:13.333|56=CLIENT|10=101|
8=FIX.4.4|9=67|35=A|34=1|49=SERVER|52=20220411-11:08:18.324|56=CLIENT|98=0|108=30|10=145|
8=FIX.4.4|9=104|35=5|34=4|49=CLIENT|52=20220411-11:08:18.327|56=SERVER|58=MsgSeqNum too low, expecting 3 but received 1|10=050|
8=FIX.4.4|9=55|35=5|34=2|49=SERVER|52=20220411-11:08:18.332|56=CLIENT|10=105|
8=FIX.4.4|9=67|35=A|34=1|49=SERVER|52=20220411-11:08:23.295|56=CLIENT|98=0|108=30|10=148|
8=FIX.4.4|9=104|35=5|34=5|49=CLIENT|52=20220411-11:08:23.297|56=SERVER|58=MsgSeqNum too low, expecting 5 but received 1|10=055|
8=FIX.4.4|9=55|35=5|34=2|49=SERVER|52=20220411-11:08:23.299|56=CLIENT|10=113|
8=FIX.4.4|9=67|35=A|34=1|49=SERVER|52=20220411-12:43:43.896|56=CLIENT|98=0|108=30|10=157|
8=FIX.4.4|9=73|35=A|34=1|49=SERVER|52=20220411-12:44:14.866|56=CLIENT|98=0|108=30|141=Y|10=195|
8=FIX.4.4|9=126|35=D|34=2|49=CLIENT|52=20220411-12:44:28.615|56=SERVER|11=I9ILPZUl|21=3|38=56|40=2|44=56|54=1|55=N/A|60=20220411-12:44:28.615|10=170|
8=FIX.4.4|9=126|35=D|34=3|49=CLIENT|52=20220411-12:44:43.978|56=SERVER|11=I9ILPZUl|21=3|38=56|40=2|44=56|54=1|55=N/A|60=20220411-12:44:43.978|10=189|
8=FIX.4.4|9=55|35=0|34=2|49=SERVER|52=20220411-12:44:44.898|56=CLIENT|10=117|
8=FIX.4.4|9=126|35=D|34=4|49=CLIENT|52=20220411-12:44:47.085|56=SERVER|11=i9fIv5L6|21=3|38=56|40=2|44=56|54=1|55=N/A|60=20220411-12:44:47.085|10=172|
8=FIX.4.4|9=55|35=0|34=3|49=SERVER|52=20220411-12:45:14.898|56=CLIENT|10=116|
8=FIX.4.4|9=55|35=0|34=5|49=CLIENT|52=20220411-12:45:17.836|56=SERVER|10=113|
8=FIX.4.4|9=55|35=0|34=4|49=SERVER|52=20220411-12:45:44.898|56=CLIENT|10=120|
8=FIX.4.4|9=55|35=0|34=6|49=CLIENT|52=20220411-12:45:47.836|56=SERVER|10=117|
8=FIX.4.4|9=55|35=0|34=5|49=SERVER|52=20220411-12:46:14.899|56=CLIENT|10=120|
8=FIX.4.4|9=55|35=0|34=7|49=CLIENT|52=20220411-12:46:17.838|56=SERVER|10=118|
8=FIX.4.4|9=55|35=0|34=6|49=SERVER|52=20220411-12:46:44.898|56=CLIENT|10=123|
8=FIX.4.4|9=55|35=0|34=8|49=CLIENT|52=20220411-12:46:47.837|56=SERVER|10=121|
8=FIX.4.4|9=55|35=5|34=9|49=CLIENT|52=20220411-12:47:10.837|56=SERVER|10=118|
8=FIX.4.4|9=55|35=5|34=7|49=SERVER|52=20220411-12:47:10.840|56=CLIENT|10=110|
8=FIX.4.4|9=67|35=A|34=1|49=SERVER|52=20220411-12:51:30.316|56=CLIENT|98=0|108=30|10=139|
8=FIX.4.4|9=73|35=A|34=1|49=SERVER|52=20220411-12:52:01.235|56=CLIENT|98=0|108=30|141=Y|10=180|
8=FIX.4.4|9=124|35=D|34=2|49=CLIENT|52=20220411-12:52:30.914|56=SERVER|11=EthwlZ6A|21=3|38=5|40=2|44=5|54=1|55=N/A|60=20220411-12:52:30.914|10=131|
8=FIX.4.4|9=64|35=1|34=3|49=CLIENT|52=20220411-12:52:47.206|56=SERVER|112=TEST|10=122|
8=FIX.4.4|9=73|35=A|34=1|49=SERVER|52=20220411-12:54:00.538|56=CLIENT|98=0|108=30|141=Y|10=187|
8=FIX.4.4|9=73|35=A|34=1|49=SERVER|52=20220411-12:54:15.228|56=CLIENT|98=0|108=30|141=Y|10=189|
8=FIX.4.4|9=55|35=0|34=2|49=CLIENT|52=20220411-12:54:45.205|56=SERVER|10=101|
8=FIX.4.4|9=55|35=0|34=2|49=SERVER|52=20220411-12:54:46.029|56=CLIENT|10=106|
8=FIX.4.4|9=55|35=5|34=3|49=CLIENT|52=20220411-12:54:52.206|56=SERVER|10=106|
8=FIX.4.4|9=55|35=5|34=3|49=SERVER|52=20220411-12:54:52.208|56=CLIENT|10=108|
