8=FIX.4.4|9=78|35=A|34=1|49=CLIENT55558|52=20220418-13:44:25.229|56=SERVER|98=0|108=30|141=Y|10=215|8=FIX.4.4|9=129|35=D|34=2|49=CLIENT55558|52=20220418-13:44:34.724|56=SERVER|11=HMepcO2v|21=3|38=6|40=2|44=6|54=1|55=N/A|60=20220418-13:44:34.724|10=157|8=FIX.4.4|9=60|35=0|34=3|49=CLIENT55558|52=20220418-13:45:05.156|56=SERVER|10=119|8=FIX.4.4|9=60|35=0|34=4|49=CLIENT55558|52=20220418-13:45:35.163|56=SERVER|10=121|8=FIX.4.4|9=60|35=0|34=5|49=CLIENT55558|52=20220418-13:46:05.157|56=SERVER|10=123|8=FIX.4.4|9=60|35=5|34=6|49=CLIENT55558|52=20220418-13:46:11.217|56=SERVER|10=123|