8=FIX.4.4|9=67|35=A|34=1|49=CLIENT|52=20220411-12:42:26.969|56=SERVER|98=0|108=30|10=158|
8=FIX.4.4|9=67|35=A|34=1|49=SERVER|52=20220411-12:42:27.075|56=CLIENT|98=0|108=30|10=147|
8=FIX.4.4|9=73|35=A|34=1|49=CLIENT|52=20220411-12:42:57.965|56=SERVER|98=0|108=30|141=Y|10=200|
8=FIX.4.4|9=73|35=A|34=1|49=SERVER|52=20220411-12:42:57.983|56=CLIENT|98=0|108=30|141=Y|10=200|
8=FIX.4.4|9=124|35=D|34=2|49=CLIENT|52=20220411-12:43:07.108|56=SERVER|11=HngQ2SLC|21=3|38=5|40=2|44=5|54=1|55=N/A|60=20220411-12:43:07.108|10=046|
8=FIX.4.4|9=137|35=8|34=2|49=SERVER|52=20220411-12:43:07.145|56=CLIENT|6=5|11=HngQ2SLC|14=5|17=0000|31=5|37=0000|38=5|39=A|54=1|55=N/A|150=A|151=5|192=5|10=026|
8=FIX.4.4|9=139|35=8|34=3|49=SERVER|52=20220411-12:43:07.146|56=CLIENT|6=5|11=HngQ2SLC|14=5|17=Y1DnT|31=5|37=iD93B|38=5|39=0|54=1|55=N/A|150=0|151=5|192=5|10=103|
8=FIX.4.4|9=55|35=0|34=3|49=CLIENT|52=20220411-12:43:37.955|56=SERVER|10=113|
8=FIX.4.4|9=55|35=0|34=4|49=SERVER|52=20220411-12:43:37.957|56=CLIENT|10=116|
8=FIX.4.4|9=55|35=0|34=4|49=CLIENT|52=20220411-12:44:07.955|56=SERVER|10=112|
8=FIX.4.4|9=55|35=0|34=5|49=SERVER|52=20220411-12:44:07.960|56=CLIENT|10=109|
8=FIX.4.4|9=143|35=8|34=6|49=SERVER|52=20220411-12:44:28.620|56=CLIENT|6=56|11=I9ILPZUl|14=56|17=0000|31=56|37=0000|38=56|39=A|54=1|55=N/A|150=A|151=56|192=56|10=097|
8=FIX.4.4|9=145|35=8|34=7|49=SERVER|52=20220411-12:44:28.624|56=CLIENT|6=56|11=I9ILPZUl|14=56|17=mt4mC|31=56|37=QXqON|38=56|39=0|54=1|55=N/A|150=0|151=56|192=56|10=066|
8=FIX.4.4|9=55|35=0|34=5|49=CLIENT|52=20220411-12:44:37.955|56=SERVER|10=116|
8=FIX.4.4|9=139|35=8|34=8|49=SERVER|52=20220411-12:44:43.981|56=CLIENT|6=0|11=I9ILPZUl|14=0|17=n7Uzj|31=0|37=uqj1I|38=0|39=8|54=1|55=N/A|150=8|151=0|192=0|10=035|
8=FIX.4.4|9=143|35=8|34=9|49=SERVER|52=20220411-12:44:47.089|56=CLIENT|6=56|11=i9fIv5L6|14=56|17=0000|31=56|37=0000|38=56|39=A|54=1|55=N/A|150=A|151=56|192=56|10=106|
8=FIX.4.4|9=146|35=8|34=10|49=SERVER|52=20220411-12:44:47.090|56=CLIENT|6=56|11=i9fIv5L6|14=56|17=HNt2U|31=56|37=gUA9c|38=56|39=0|54=1|55=N/A|150=0|151=56|192=56|10=021|
8=FIX.4.4|9=55|35=0|34=6|49=CLIENT|52=20220411-12:45:07.954|56=SERVER|10=114|
8=FIX.4.4|9=56|35=0|34=11|49=SERVER|52=20220411-12:45:18.077|56=CLIENT|10=157|
8=FIX.4.4|9=55|35=0|34=7|49=CLIENT|52=20220411-12:45:37.955|56=SERVER|10=119|
8=FIX.4.4|9=56|35=0|34=12|49=SERVER|52=20220411-12:45:48.077|56=CLIENT|10=161|
8=FIX.4.4|9=55|35=0|34=8|49=CLIENT|52=20220411-12:46:07.955|56=SERVER|10=118|
8=FIX.4.4|9=56|35=0|34=13|49=SERVER|52=20220411-12:46:18.077|56=CLIENT|10=160|
8=FIX.4.4|9=55|35=0|34=9|49=CLIENT|52=20220411-12:46:37.954|56=SERVER|10=121|
8=FIX.4.4|9=56|35=0|34=14|49=SERVER|52=20220411-12:46:48.076|56=CLIENT|10=163|
8=FIX.4.4|9=125|35=D|34=10|49=CLIENT|52=20220411-12:46:58.354|56=SERVER|11=y71mXBo1|21=3|38=5|40=2|44=5|54=1|55=N/A|60=20220411-12:46:58.354|10=124|
8=FIX.4.4|9=138|35=8|34=15|49=SERVER|52=20220411-12:46:58.357|56=CLIENT|6=5|11=y71mXBo1|14=5|17=0000|31=5|37=0000|38=5|39=A|54=1|55=N/A|150=A|151=5|192=5|10=099|
8=FIX.4.4|9=140|35=8|34=16|49=SERVER|52=20220411-12:46:58.358|56=CLIENT|6=5|11=y71mXBo1|14=5|17=d74UJ|31=5|37=0rxvj|38=5|39=0|54=1|55=N/A|150=0|151=5|192=5|10=036|
8=FIX.4.4|9=56|35=5|34=11|49=CLIENT|52=20220411-12:47:15.954|56=SERVER|10=165|
8=FIX.4.4|9=56|35=5|34=17|49=SERVER|52=20220411-12:47:15.958|56=CLIENT|10=175|
8=FIX.4.4|9=68|35=A|34=12|49=CLIENT|52=20220411-12:51:40.341|56=SERVER|98=0|108=30|10=189|
8=FIX.4.4|9=67|35=A|34=1|49=SERVER|52=20220411-12:51:40.377|56=CLIENT|98=0|108=30|10=147|
8=FIX.4.4|9=73|35=A|34=1|49=CLIENT|52=20220411-12:52:11.346|56=SERVER|98=0|108=30|141=Y|10=184|
8=FIX.4.4|9=73|35=A|34=1|49=SERVER|52=20220411-12:52:11.365|56=CLIENT|98=0|108=30|141=Y|10=185|
8=FIX.4.4|9=55|35=0|34=2|49=CLIENT|52=20220411-12:52:42.330|56=SERVER|10=095|
8=FIX.4.4|9=64|35=1|34=3|49=CLIENT|52=20220411-12:52:57.329|56=SERVER|112=TEST|10=129|
8=FIX.4.4|9=73|35=A|34=1|49=CLIENT|52=20220411-12:53:25.340|56=SERVER|98=0|108=30|141=Y|10=184|
8=FIX.4.4|9=73|35=A|34=1|49=CLIENT|52=20220411-12:53:55.343|56=SERVER|98=0|108=30|141=Y|10=190|
8=FIX.4.4|9=73|35=A|34=1|49=SERVER|52=20220411-12:53:56.303|56=CLIENT|98=0|108=30|141=Y|10=187|
8=FIX.4.4|9=73|35=A|34=1|49=CLIENT|52=20220411-12:54:25.337|56=SERVER|98=0|108=30|141=Y|10=191|
8=FIX.4.4|9=73|35=A|34=1|49=SERVER|52=20220411-12:54:25.355|56=CLIENT|98=0|108=30|141=Y|10=191|
8=FIX.4.4|9=124|35=D|34=2|49=CLIENT|52=20220411-12:54:28.010|56=SERVER|11=NqHw8wY9|21=3|38=5|40=2|44=5|54=1|55=N/A|60=20220411-12:54:28.009|10=109|
8=FIX.4.4|9=137|35=8|34=2|49=SERVER|52=20220411-12:54:38.277|56=CLIENT|6=5|11=NqHw8wY9|14=5|17=0000|31=5|37=0000|38=5|39=A|54=1|55=N/A|150=A|151=5|192=5|10=099|
8=FIX.4.4|9=139|35=8|34=3|49=SERVER|52=20220411-12:54:38.278|56=CLIENT|6=5|11=NqHw8wY9|14=5|17=JFbNi|31=5|37=vTIAo|38=5|39=0|54=1|55=N/A|150=0|151=5|192=5|10=049|
8=FIX.4.4|9=55|35=5|34=3|49=CLIENT|52=20220411-12:54:50.329|56=SERVER|10=110|
8=FIX.4.4|9=55|35=5|34=4|49=SERVER|52=20220411-12:54:50.331|56=CLIENT|10=104|
